{
  "_format": "hh-sol-artifact-1",
  "contractName": "PolkadotStakingStrategy",
  "sourceName": "src/strategies/PolkadotStakingStrategy.sol",
  "abi": [
    {
      "inputs": [
        {
          "internalType": "address",
          "name": "_xcmRouter",
          "type": "address"
        },
        {
          "internalType": "address",
          "name": "_dotAsset",
          "type": "address"
        }
      ],
      "stateMutability": "nonpayable",
      "type": "constructor"
    },
    {
      "anonymous": false,
      "inputs": [
        {
          "indexed": false,
          "internalType": "uint256",
          "name": "amount",
          "type": "uint256"
        }
      ],
      "name": "StrategyDivested",
      "type": "event"
    },
    {
      "anonymous": false,
      "inputs": [
        {
          "indexed": false,
          "internalType": "uint256",
          "name": "amount",
          "type": "uint256"
        }
      ],
      "name": "StrategyInvested",
      "type": "event"
    },
    {
      "inputs": [
        {
          "internalType": "uint256",
          "name": "amount",
          "type": "uint256"
        }
      ],
      "name": "divest",
      "outputs": [],
      "stateMutability": "nonpayable",
      "type": "function"
    },
    {
      "inputs": [],
      "name": "dotAsset",
      "outputs": [
        {
          "internalType": "address",
          "name": "",
          "type": "address"
        }
      ],
      "stateMutability": "view",
      "type": "function"
    },
    {
      "inputs": [],
      "name": "harvestYield",
      "outputs": [
        {
          "internalType": "uint256",
          "name": "",
          "type": "uint256"
        }
      ],
      "stateMutability": "nonpayable",
      "type": "function"
    },
    {
      "inputs": [
        {
          "internalType": "uint256",
          "name": "amount",
          "type": "uint256"
        }
      ],
      "name": "invest",
      "outputs": [],
      "stateMutability": "nonpayable",
      "type": "function"
    },
    {
      "inputs": [],
      "name": "invested",
      "outputs": [
        {
          "internalType": "uint256",
          "name": "",
          "type": "uint256"
        }
      ],
      "stateMutability": "view",
      "type": "function"
    },
    {
      "inputs": [],
      "name": "lastHarvested",
      "outputs": [
        {
          "internalType": "uint256",
          "name": "",
          "type": "uint256"
        }
      ],
      "stateMutability": "view",
      "type": "function"
    },
    {
      "inputs": [],
      "name": "owner",
      "outputs": [
        {
          "internalType": "address",
          "name": "",
          "type": "address"
        }
      ],
      "stateMutability": "view",
      "type": "function"
    },
    {
      "inputs": [],
      "name": "totalValue",
      "outputs": [
        {
          "internalType": "uint256",
          "name": "",
          "type": "uint256"
        }
      ],
      "stateMutability": "view",
      "type": "function"
    },
    {
      "inputs": [],
      "name": "xcmRouter",
      "outputs": [
        {
          "internalType": "contract XCMRouter",
          "name": "",
          "type": "address"
        }
      ],
      "stateMutability": "view",
      "type": "function"
    }
  ],
  "bytecode": "0x60803461009257601f6105f138819003918201601f19168301916001600160401b0383118484101761009757808492604094855283398101031261009257610052602061004b836100ad565b92016100ad565b9060018060a01b0319913383600054161760005560018060a01b038092168360015416176001551690600254161760025560405161052f90816100c28239f35b600080fd5b634e487b7160e01b600052604160045260246000fd5b51906001600160a01b03821682036100925756fe608060408181526004918236101561001657600080fd5b600092833560e01c9182632afcf480146102055750816349382999146101dc5781636422ca16146101be5781638ca179951461011b575080638da5cb5b146100f4578063cafb2202146100d6578063d4c3eea0146100d6578063e1d20600146100ae5763e8d991d11461008857600080fd5b346100aa57816003193601126100aa576020906100a36104a8565b9051908152f35b5080fd5b50346100aa57816003193601126100aa5760015490516001600160a01b039091168152602090f35b50346100aa57816003193601126100aa576020906003549051908152f35b50346100aa57816003193601126100aa57905490516001600160a01b039091168152602090f35b919050346101ba5760203660031901126101ba5760035482359281841161017757509160209161016c827ff22b8ebdf5c7e49487fd0b33a034e6cab36e92ea0117bc9ca1587c72058747bf95610485565b60035551908152a180f35b606490602084519162461bcd60e51b8352820152601d60248201527f506f6c6b61646f745374616b696e673a20696e73756666696369656e740000006044820152fd5b8280fd5b9050346101ba57826003193601126101ba5760209250549051908152f35b5050346100aa57816003193601126100aa5760025490516001600160a01b039091168152602090f35b838591346101ba57602091826003193601126104265784359182156103e557506001548151631fb8381160e11b8152868101849052906001600160a01b03168582602481845afa9182156103db57869261033c575b50803b15610338578486918883604487518097819682956303cd8aef60e51b84528301526102978c82519283918260248701528686019101610462565b601f01601f191681010301925af1801561032e57610300575b506003548281018091116102ed577fc68748140896ba027a48ebf3a24735d0afb4ab835f92c4815ddb34f9d6dfd18a94955060035551908152a180f35b634e487b7160e01b855260118652602485fd5b67ffffffffffffffff819592951161031b57845292856102b0565b634e487b7160e01b825260418652602482fd5b82513d87823e3d90fd5b8580fd5b9091503d8087833e61034e818361042a565b81019085818303126103d757805167ffffffffffffffff918282116103d3570182601f820112156103bc5780519182116103c057845192610398601f8401601f191689018561042a565b8284528783830101116103bc57906103b591878085019101610462565b908761025a565b8780fd5b634e487b7160e01b885260418952602488fd5b8880fd5b8680fd5b83513d88823e3d90fd5b62461bcd60e51b8152858101849052601c60248201527f506f6c6b61646f745374616b696e673a207a65726f20616d6f756e74000000006044820152606490fd5b8380fd5b90601f8019910116810190811067ffffffffffffffff82111761044c57604052565b634e487b7160e01b600052604160045260246000fd5b60005b8381106104755750506000910152565b8181015183820152602001610465565b9190820391821161049257565b634e487b7160e01b600052601160045260246000fd5b6104b460045442610485565b610e1081106104f357600354600f810290808204600f1481151715610492578202600f029181159183041417156104925763bbf81e0090426004550490565b5060009056fea2646970667358221220c5528f1ae99c88ec029f1cd8e47b42e280b1ca5b1da2bec667b1c2997b6272ea64736f6c63430008180033",
  "linkReferences": {},
  "deployedLinkReferences": {}
}