{
  "_format": "hh-sol-artifact-1",
  "contractName": "NativeStakingStrategy",
  "sourceName": "src/strategies/NativeStakingStrategy.sol",
  "abi": [
    {
      "inputs": [
        {
          "internalType": "address",
          "name": "_router",
          "type": "address"
        }
      ],
      "stateMutability": "nonpayable",
      "type": "constructor"
    },
    {
      "inputs": [],
      "name": "accruedYield",
      "outputs": [
        {
          "internalType": "uint256",
          "name": "",
          "type": "uint256"
        }
      ],
      "stateMutability": "view",
      "type": "function"
    },
    {
      "inputs": [
        {
          "internalType": "uint256",
          "name": "amount",
          "type": "uint256"
        }
      ],
      "name": "divest",
      "outputs": [],
      "stateMutability": "nonpayable",
      "type": "function"
    },
    {
      "inputs": [],
      "name": "getPendingRewards",
      "outputs": [
        {
          "internalType": "uint256",
          "name": "",
          "type": "uint256"
        }
      ],
      "stateMutability": "view",
      "type": "function"
    },
    {
      "inputs": [],
      "name": "harvestYield",
      "outputs": [
        {
          "internalType": "uint256",
          "name": "",
          "type": "uint256"
        }
      ],
      "stateMutability": "nonpayable",
      "type": "function"
    },
    {
      "inputs": [
        {
          "internalType": "uint256",
          "name": "amount",
          "type": "uint256"
        }
      ],
      "name": "invest",
      "outputs": [],
      "stateMutability": "nonpayable",
      "type": "function"
    },
    {
      "inputs": [],
      "name": "invested",
      "outputs": [
        {
          "internalType": "uint256",
          "name": "",
          "type": "uint256"
        }
      ],
      "stateMutability": "view",
      "type": "function"
    },
    {
      "inputs": [],
      "name": "router",
      "outputs": [
        {
          "internalType": "contract XCMRouter",
          "name": "",
          "type": "address"
        }
      ],
      "stateMutability": "view",
      "type": "function"
    },
    {
      "inputs": [
        {
          "internalType": "address[]",
          "name": "_validators",
          "type": "address[]"
        }
      ],
      "name": "setValidators",
      "outputs": [],
      "stateMutability": "nonpayable",
      "type": "function"
    },
    {
      "inputs": [],
      "name": "totalValue",
      "outputs": [
        {
          "internalType": "uint256",
          "name": "",
          "type": "uint256"
        }
      ],
      "stateMutability": "view",
      "type": "function"
    },
    {
      "inputs": [
        {
          "internalType": "uint256",
          "name": "",
          "type": "uint256"
        }
      ],
      "name": "validators",
      "outputs": [
        {
          "internalType": "address",
          "name": "",
          "type": "address"
        }
      ],
      "stateMutability": "view",
      "type": "function"
    }
  ],
  "bytecode": "0x60a0346100f357601f61091338819003918201601f19168301916001600160401b038311848410176100f8578084926020946040528339810103126100f357516001600160a01b038116908190036100f3576080526000805490680100000000000000008210156100df57600182018082558210156100cb57808052602090200180546001600160a01b0319166001179055604051610804908161010f823960805181818160a60152818161015c01528181610296015281816103b3015281816104d401526106a10152f35b634e487b7160e01b81526032600452602490fd5b634e487b7160e01b81526041600452602490fd5b600080fd5b634e487b7160e01b600052604160045260246000fdfe608060408181526004918236101561001657600080fd5b600092833560e01c9182632afcf480146104bb5750816335aa2e44146104785781634019fb33146104595781638ca17995146103995781639300c92614610211578163cafb2202146101f2578163d4c3eea01461012e57508063d9621f9e1461010b578063e8d991d1146100d95763f887ea401461009357600080fd5b346100d557816003193601126100d557517f00000000000000000000000000000000000000000000000000000000000000006001600160a01b03168152602090f35b5080fd5b50346100d557816003193601126100d5576020906100f5610681565b906101028260025461065e565b60025551908152f35b50346100d557816003193601126100d557602090610127610681565b9051908152f35b9050346101ee57826003193601126101ee578151638bac5ab560e01b815230918101919091526020816024817f00000000000000000000000000000000000000000000000000000000000000006001600160a01b03165afa9283156101e357926101a8575b506101276020926101a2610681565b9061065e565b91506020823d6020116101db575b816101c3602093836105e1565b810103126101d657905190610127610193565b600080fd5b3d91506101b6565b8251903d90823e3d90fd5b8280fd5b5050346100d557816003193601126100d5576020906001549051908152f35b839150346100d55760209260206003193601126101ee5781359367ffffffffffffffff9081861161039557366023870112156103955785840135918211610395573660248360051b8801011161039557680100000000000000008211610382578454828655808310610354575b5060248596019085805285915b83831061031e5750507f00000000000000000000000000000000000000000000000000000000000000006001600160a01b0316915050803b1561031957815163a58be0c360e01b815292849184918290849082906102ea908201610603565b03925af190811561031057506102fd5750f35b610306906105b7565b61030d5780f35b80fd5b513d84823e3d90fd5b505050fd5b8035926001600160a01b038416840361035057826001920193816000805160206107af8339815191520155019161028b565b8780fd5b826000805160206107af83398151915291820191015b818110610377575061027e565b86815560010161036a565b634e487b7160e01b855260418452602485fd5b8480fd5b9050346101ee5760203660031901126101ee5780359183907f00000000000000000000000000000000000000000000000000000000000000006001600160a01b031690813b156101ee5782809260248351809581936359baf02560e11b83528a8a8401525af19081156103105750610445575b5050600154918083101561041e578380f35b820391821161043257506001553880808380f35b634e487b7160e01b835260119052602482fd5b61044e906105b7565b6101ee57823861040c565b5050346100d557816003193601126100d5576020906002549051908152f35b9050346101ee5760203660031901126101ee573582548110156101ee57826020935260018060a01b03906000805160206107af8339815191520154169051908152f35b8491843461058e57602036600319011261058e578135927f00000000000000000000000000000000000000000000000000000000000000006001600160a01b031690813b156105b3576311a9063160e31b8152838101859052858160248183865af180156105a957610592575b5090818593923b1561058e57815163a58be0c360e01b81529284918491829084908290610556908201610603565b03925af1908115610310575061057a575b506105748260015461065e565b60015580f35b610583906105b7565b6100d5578183610567565b8380fd5b6105a09095919392956105b7565b93909185610528565b83513d88823e3d90fd5b8580fd5b67ffffffffffffffff81116105cb57604052565b634e487b7160e01b600052604160045260246000fd5b90601f8019910116810190811067ffffffffffffffff8211176105cb57604052565b602060406020830192602081526000548094520191600080526000805160206107af833981519152916000905b82821061063e575050505090565b83546001600160a01b031685529384019360019384019390910190610630565b9190820180921161066b57565b634e487b7160e01b600052601160045260246000fd5b604051630cb9f3ad60e01b81526020906001600160a01b039082816004817f000000000000000000000000000000000000000000000000000000000000000086165afa8015610769578391600091610775575b50602460405180948193630700037d60e01b8352306004840152165afa9182156107695760009261073b575b5050801580610730575b6107115790565b5060015460328102908082046032149015171561066b57612710900490565b50600154151561070a565b90809250813d8311610762575b61075281836105e1565b810103126101d657513880610700565b503d610748565b6040513d6000823e3d90fd5b909181813d83116107a7575b61078b81836105e1565b810103126100d5575190828216820361030d57508290386106d4565b503d61078156fe290decd9548b62a8d60345a988386fc84ba6bc95484008f6362f93160ef3e563a26469706673582212202e2e108266846e21b9999130599d53cbf23c043812e9d4bf11e80070286cc72a64736f6c63430008180033",
  "linkReferences": {},
  "deployedLinkReferences": {}
}