{"src/XCMRouter.sol":{"XCMRouter":{"abi":[{"inputs":[],"stateMutability":"nonpayable","type":"constructor"},{"anonymous":false,"inputs":[{"indexed":false,"internalType":"bytes","name":"message","type":"bytes"}],"name":"XCMExecuted","type":"event"},{"anonymous":false,"inputs":[{"indexed":false,"internalType":"bytes","name":"dest","type":"bytes"},{"indexed":false,"internalType":"bytes","name":"message","type":"bytes"}],"name":"XCMSent","type":"event"},{"inputs":[],"name":"ASSET_HUB_PARA_ID","outputs":[{"internalType":"uint32","name":"","type":"uint32"}],"stateMutability":"view","type":"function"},{"inputs":[],"name":"RELAY_CHAIN_ID","outputs":[{"internalType":"uint32","name":"","type":"uint32"}],"stateMutability":"view","type":"function"},{"inputs":[],"name":"STAKING_PRECOMPILE","outputs":[{"internalType":"address","name":"","type":"address"}],"stateMutability":"view","type":"function"},{"inputs":[],"name":"XCM_PRECOMPILE","outputs":[{"internalType":"address","name":"","type":"address"}],"stateMutability":"view","type":"function"},{"inputs":[{"internalType":"address","name":"asset","type":"address"},{"internalType":"uint256","name":"amount","type":"uint256"}],"name":"buildLendOnAssetHub","outputs":[{"internalType":"bytes","name":"payload","type":"bytes"}],"stateMutability":"pure","type":"function"},{"inputs":[{"internalType":"uint256","name":"amount","type":"uint256"}],"name":"buildStakeOnRelay","outputs":[{"internalType":"bytes","name":"payload","type":"bytes"}],"stateMutability":"pure","type":"function"},{"inputs":[{"internalType":"address","name":"asset","type":"address"},{"internalType":"uint256","name":"amount","type":"uint256"}],"name":"buildTransferToAssetHub","outputs":[{"internalType":"bytes","name":"payload","type":"bytes"}],"stateMutability":"pure","type":"function"},{"inputs":[{"internalType":"address","name":"account","type":"address"}],"name":"getNativeBonded","outputs":[{"internalType":"uint256","name":"","type":"uint256"}],"stateMutability":"view","type":"function"},{"inputs":[{"internalType":"uint256","name":"amount","type":"uint256"}],"name":"nativeBond","outputs":[],"stateMutability":"nonpayable","type":"function"},{"inputs":[{"internalType":"address[]","name":"targets","type":"address[]"}],"name":"nativeNominate","outputs":[],"stateMutability":"nonpayable","type":"function"},{"inputs":[{"internalType":"uint256","name":"amount","type":"uint256"}],"name":"nativeUnbond","outputs":[],"stateMutability":"nonpayable","type":"function"},{"inputs":[],"name":"owner","outputs":[{"internalType":"address","name":"","type":"address"}],"stateMutability":"view","type":"function"},{"inputs":[{"internalType":"bytes","name":"payload","type":"bytes"}],"name":"sendToAssetHub","outputs":[],"stateMutability":"nonpayable","type":"function"},{"inputs":[{"internalType":"bytes","name":"payload","type":"bytes"}],"name":"sendToRelay","outputs":[],"stateMutability":"nonpayable","type":"function"},{"inputs":[{"internalType":"address","name":"_treasury","type":"address"}],"name":"setTreasury","outputs":[],"stateMutability":"nonpayable","type":"function"},{"inputs":[],"name":"treasury","outputs":[{"internalType":"address","name":"","type":"address"}],"stateMutability":"view","type":"function"}],"evm":{"bytecode":{"linkReferences":{},"object":"6080806040523461002857600080546001600160a01b03191633179055610b9e908161002e8239f35b600080fdfe6080604081815260048036101561001557600080fd5b600092833560e01c908163068561421461085057508063077120cc146108325780630cb9f3ad1461081557806318d71636146107dc5780633f7070221461077357806355480d171461075657806357d3c71a1461065857806361d027b31461062f57806379b15de01461053c5780638bac5ab5146104a3578381638d48318814610418575080638da5cb5b146103f0578063927620db1461030e578063a58be0c31461020457838163b375e04a14610163575063f0f44260146100d757600080fd5b3461015f57602036600319011261015f576100f061098a565b83546001600160a01b03939192919084163303610125575050166bffffffffffffffffffffffff60a01b600154161760015580f35b906020606492519162461bcd60e51b835282015260146024820152732c21a6a937baba32b91d103737ba1037bbb732b960611b6044820152fd5b8280fd5b929050346102005760203660031901126102005760015461019990336001600160a01b03918216149081156101f3575b506109a0565b61080391823b156101ee57839260248492845195869384926313ef4f1960e11b84528035908401525af19081156101e557506101d25750f35b6101db90610869565b6101e25780f35b80fd5b513d84823e3d90fd5b505050fd5b9050845416331438610193565b5050fd5b5082903461030a57602092602060031936011261015f5767ffffffffffffffff823581811161030657366023820112156103065780840135918211610306573660248360051b83010111610306576001805490966001600160a01b0393918416331480156102fa575b610276906109a0565b61080393843b156102f6579190818651976319f2fdad60e01b8952602060248a01918a01525260246044880194019288905b8382106102cc5789808a8a8282808c0381838f5af19081156101e557506101d25750f35b90919293948535908282168092036102f15790815283019483019392918a01906102a8565b600080fd5b8780fd5b5086548416331461026d565b8480fd5b5080fd5b8284346101e257816003193601126101e2575061032961098a565b906103ec61033e610338610a71565b93610b23565b916103dd6021610399835161039460328260209961140360f01b8b83015261036f815180928d602286019101610942565b81016001600160801b031960243560801b1660228201520360128101845201826108af565b610ac4565b958351968791600160fa1b888401526103ba815180928a8787019101610942565b82016103ce825180938a8785019101610942565b010360018101875201856108af565b51928284938452830190610965565b0390f35b50503461030a578160031936011261030a57905490516001600160a01b039091168152602090f35b808484346102005760203660031901126102005760015461044d90336001600160a01b039182161490811561049657506109a0565b610803803b156101ee57604484928451958693849263d5c90b2960e01b84528035908401528160248401525af19081156101e5575061048a575080f35b61049390610869565b80f35b9050845416331486610193565b5091903461030a576020928360031936011261015f576104c161098a565b825163f19e2a2160e01b81526001600160a01b039091169181019190915283816024816108035afa9283156105315780936104ff575b505051908152f35b909192508382813d831161052a575b61051881836108af565b810103126101e25750519038806104f7565b503d61050e565b8251903d90823e3d90fd5b503461015f5761054b366108d1565b9061056a60018060a01b038060015416331490811561062257506109a0565b816020610575610aa3565b809361059287519485938493637f0a3bf960e01b85528401610a04565b038188620a00005af190811561061857936105d96105e3927fb896fa5daa5aaa810dbe2375ff4785c955bc7e1423e43094570a9f841329a7dd9688916105e9575b50610a2c565b5192839283610a04565b0390a180f35b61060b915060203d602011610611575b61060381836108af565b8101906109ec565b386105d3565b503d6105f9565b84513d87823e3d90fd5b9050855416331438610193565b50503461030a578160031936011261030a5760015490516001600160a01b039091168152602090f35b8284346101e257816003193601126101e2576103ec61067561098a565b926103dd60216024359461069061068a610a71565b97610b23565b845161072960478260209a8b82019587875260648d8251908301906106b8818d880184610942565b85016106f86001600160801b031994858760801b168e840152600d60f81b60318401528c6032840152600360fa1b60338401525180936034840190610942565b01920460801b166034820152600160fa1b9687604483015280604583015260468201520360278101845201826108af565b6103ce8651998a948a860152610747815180928c8989019101610942565b84019151809386840190610942565b50503461030a578160031936011261030a57602090516103e88152f35b503461015f57602091826003193601126107d8576103dd60216103996103ec9461079b610aa3565b8551600760f81b89820152913560801b6fffffffffffffffffffffffffffffffff1916602283015260328201989098526013815261039481610893565b8380fd5b503461015f576107eb366108d1565b9061080a60018060a01b038060015416331490811561062257506109a0565b816020610575610a71565b50503461030a578160031936011261030a57602090516108038152f35b50503461030a578160031936011261030a5760209051620a00008152f35b84903461030a578160031936011261030a576020918152f35b67ffffffffffffffff811161087d57604052565b634e487b7160e01b600052604160045260246000fd5b6040810190811067ffffffffffffffff82111761087d57604052565b90601f8019910116810190811067ffffffffffffffff82111761087d57604052565b60206003198201126102f15767ffffffffffffffff6004358181116102f157826023820112156102f157806004013591821161087d576040519261091f601f8401601f1916602001856108af565b828452602483830101116102f15781600092602460209301838601378301015290565b60005b8381106109555750506000910152565b8181015183820152602001610945565b9060209161097e81518092818552858086019101610942565b601f01601f1916010190565b600435906001600160a01b03821682036102f157565b156109a757565b60405162461bcd60e51b815260206004820152601760248201527f58434d526f757465723a20756e617574686f72697a65640000000000000000006044820152606490fd5b908160209103126102f1575180151581036102f15790565b9091610a1b610a2993604084526040840190610965565b916020818403910152610965565b90565b15610a3357565b60405162461bcd60e51b81526020600482015260166024820152751610d3549bdd5d195c8e881cd95b990819985a5b195960521b6044820152606490fd5b604051600160f81b60208201819052602182015260006022820152607d60e31b602382015260078152610a2981610893565b604051600160f81b60208201526000602182015260028152610a2981610893565b610a2960336040518093600360f91b602083015260006021830152600160f81b6022830152621dcd6560c91b602383015261027160c41b602b830152610b138151809260208686019101610942565b81010360138101845201826108af565b60405160006020820152600160f81b6021820152600560f81b602282015260609190911b6bffffffffffffffffffffffff1916602382015260178152610a298161089356fea26469706673582212200ff72bd4f5066d715c4f446811332c88bd8cb24c0e2cb9357d87ca33717d7ce264736f6c63430008180033","opcodes":"PUSH1 0x80 DUP1 PUSH1 0x40 MSTORE CALLVALUE PUSH2 0x28 JUMPI PUSH1 0x0 DUP1 SLOAD PUSH1 0x1 PUSH1 0x1 PUSH1 0xA0 SHL SUB NOT AND CALLER OR SWAP1 SSTORE PUSH2 0xB9E SWAP1 DUP2 PUSH2 0x2E DUP3 CODECOPY RETURN JUMPDEST PUSH1 0x0 DUP1 REVERT INVALID PUSH1 0x80 PUSH1 0x40 DUP2 DUP2 MSTORE PUSH1 0x4 DUP1 CALLDATASIZE LT ISZERO PUSH2 0x15 JUMPI PUSH1 0x0 DUP1 REVERT JUMPDEST PUSH1 0x0 SWAP3 DUP4 CALLDATALOAD PUSH1 0xE0 SHR SWAP1 DUP2 PUSH4 0x6856142 EQ PUSH2 0x850 JUMPI POP DUP1 PUSH4 0x77120CC EQ PUSH2 0x832 JUMPI DUP1 PUSH4 0xCB9F3AD EQ PUSH2 0x815 JUMPI DUP1 PUSH4 0x18D71636 EQ PUSH2 0x7DC JUMPI DUP1 PUSH4 0x3F707022 EQ PUSH2 0x773 JUMPI DUP1 PUSH4 0x55480D17 EQ PUSH2 0x756 JUMPI DUP1 PUSH4 0x57D3C71A EQ PUSH2 0x658 JUMPI DUP1 PUSH4 0x61D027B3 EQ PUSH2 0x62F JUMPI DUP1 PUSH4 0x79B15DE0 EQ PUSH2 0x53C JUMPI DUP1 PUSH4 0x8BAC5AB5 EQ PUSH2 0x4A3 JUMPI DUP4 DUP2 PUSH4 0x8D483188 EQ PUSH2 0x418 JUMPI POP DUP1 PUSH4 0x8DA5CB5B EQ PUSH2 0x3F0 JUMPI DUP1 PUSH4 0x927620DB EQ PUSH2 0x30E JUMPI DUP1 PUSH4 0xA58BE0C3 EQ PUSH2 0x204 JUMPI DUP4 DUP2 PUSH4 0xB375E04A EQ PUSH2 0x163 JUMPI POP PUSH4 0xF0F44260 EQ PUSH2 0xD7 JUMPI PUSH1 0x0 DUP1 REVERT JUMPDEST CALLVALUE PUSH2 0x15F JUMPI PUSH1 0x20 CALLDATASIZE PUSH1 0x3 NOT ADD SLT PUSH2 0x15F JUMPI PUSH2 0xF0 PUSH2 0x98A JUMP JUMPDEST DUP4 SLOAD PUSH1 0x1 PUSH1 0x1 PUSH1 0xA0 SHL SUB SWAP4 SWAP2 SWAP3 SWAP2 SWAP1 DUP5 AND CALLER SUB PUSH2 0x125 JUMPI POP POP AND PUSH12 0xFFFFFFFFFFFFFFFFFFFFFFFF PUSH1 0xA0 SHL PUSH1 0x1 SLOAD AND OR PUSH1 0x1 SSTORE DUP1 RETURN JUMPDEST SWAP1 PUSH1 0x20 PUSH1 0x64 SWAP3 MLOAD SWAP2 PUSH3 0x461BCD PUSH1 0xE5 SHL DUP4 MSTORE DUP3 ADD MSTORE PUSH1 0x14 PUSH1 0x24 DUP3 ADD MSTORE PUSH20 0x2C21A6A937BABA32B91D103737BA1037BBB732B9 PUSH1 0x61 SHL PUSH1 0x44 DUP3 ADD MSTORE REVERT JUMPDEST DUP3 DUP1 REVERT JUMPDEST SWAP3 SWAP1 POP CALLVALUE PUSH2 0x200 JUMPI PUSH1 0x20 CALLDATASIZE PUSH1 0x3 NOT ADD SLT PUSH2 0x200 JUMPI PUSH1 0x1 SLOAD PUSH2 0x199 SWAP1 CALLER PUSH1 0x1 PUSH1 0x1 PUSH1 0xA0 SHL SUB SWAP2 DUP3 AND EQ SWAP1 DUP2 ISZERO PUSH2 0x1F3 JUMPI JUMPDEST POP PUSH2 0x9A0 JUMP JUMPDEST PUSH2 0x803 SWAP2 DUP3 EXTCODESIZE ISZERO PUSH2 0x1EE JUMPI DUP4 SWAP3 PUSH1 0x24 DUP5 SWAP3 DUP5 MLOAD SWAP6 DUP7 SWAP4 DUP5 SWAP3 PUSH4 0x13EF4F19 PUSH1 0xE1 SHL DUP5 MSTORE DUP1 CALLDATALOAD SWAP1 DUP5 ADD MSTORE GAS CALL SWAP1 DUP2 ISZERO PUSH2 0x1E5 JUMPI POP PUSH2 0x1D2 JUMPI POP RETURN JUMPDEST PUSH2 0x1DB SWAP1 PUSH2 0x869 JUMP JUMPDEST PUSH2 0x1E2 JUMPI DUP1 RETURN JUMPDEST DUP1 REVERT JUMPDEST MLOAD RETURNDATASIZE DUP5 DUP3 RETURNDATACOPY RETURNDATASIZE SWAP1 REVERT JUMPDEST POP POP POP REVERT JUMPDEST SWAP1 POP DUP5 SLOAD AND CALLER EQ CODESIZE PUSH2 0x193 JUMP JUMPDEST POP POP REVERT JUMPDEST POP DUP3 SWAP1 CALLVALUE PUSH2 0x30A JUMPI PUSH1 0x20 SWAP3 PUSH1 0x20 PUSH1 0x3 NOT CALLDATASIZE ADD SLT PUSH2 0x15F JUMPI PUSH8 0xFFFFFFFFFFFFFFFF DUP3 CALLDATALOAD DUP2 DUP2 GT PUSH2 0x306 JUMPI CALLDATASIZE PUSH1 0x23 DUP3 ADD SLT ISZERO PUSH2 0x306 JUMPI DUP1 DUP5 ADD CALLDATALOAD SWAP2 DUP3 GT PUSH2 0x306 JUMPI CALLDATASIZE PUSH1 0x24 DUP4 PUSH1 0x5 SHL DUP4 ADD ADD GT PUSH2 0x306 JUMPI PUSH1 0x1 DUP1 SLOAD SWAP1 SWAP7 PUSH1 0x1 PUSH1 0x1 PUSH1 0xA0 SHL SUB SWAP4 SWAP2 DUP5 AND CALLER EQ DUP1 ISZERO PUSH2 0x2FA JUMPI JUMPDEST PUSH2 0x276 SWAP1 PUSH2 0x9A0 JUMP JUMPDEST PUSH2 0x803 SWAP4 DUP5 EXTCODESIZE ISZERO PUSH2 0x2F6 JUMPI SWAP2 SWAP1 DUP2 DUP7 MLOAD SWAP8 PUSH4 0x19F2FDAD PUSH1 0xE0 SHL DUP10 MSTORE PUSH1 0x20 PUSH1 0x24 DUP11 ADD SWAP2 DUP11 ADD MSTORE MSTORE PUSH1 0x24 PUSH1 0x44 DUP9 ADD SWAP5 ADD SWAP3 DUP9 SWAP1 JUMPDEST DUP4 DUP3 LT PUSH2 0x2CC JUMPI DUP10 DUP1 DUP11 DUP11 DUP3 DUP3 DUP1 DUP13 SUB DUP2 DUP4 DUP16 GAS CALL SWAP1 DUP2 ISZERO PUSH2 0x1E5 JUMPI POP PUSH2 0x1D2 JUMPI POP RETURN JUMPDEST SWAP1 SWAP2 SWAP3 SWAP4 SWAP5 DUP6 CALLDATALOAD SWAP1 DUP3 DUP3 AND DUP1 SWAP3 SUB PUSH2 0x2F1 JUMPI SWAP1 DUP2 MSTORE DUP4 ADD SWAP5 DUP4 ADD SWAP4 SWAP3 SWAP2 DUP11 ADD SWAP1 PUSH2 0x2A8 JUMP JUMPDEST PUSH1 0x0 DUP1 REVERT JUMPDEST DUP8 DUP1 REVERT JUMPDEST POP DUP7 SLOAD DUP5 AND CALLER EQ PUSH2 0x26D JUMP JUMPDEST DUP5 DUP1 REVERT JUMPDEST POP DUP1 REVERT JUMPDEST DUP3 DUP5 CALLVALUE PUSH2 0x1E2 JUMPI DUP2 PUSH1 0x3 NOT CALLDATASIZE ADD SLT PUSH2 0x1E2 JUMPI POP PUSH2 0x329 PUSH2 0x98A JUMP JUMPDEST SWAP1 PUSH2 0x3EC PUSH2 0x33E PUSH2 0x338 PUSH2 0xA71 JUMP JUMPDEST SWAP4 PUSH2 0xB23 JUMP JUMPDEST SWAP2 PUSH2 0x3DD PUSH1 0x21 PUSH2 0x399 DUP4 MLOAD PUSH2 0x394 PUSH1 0x32 DUP3 PUSH1 0x20 SWAP10 PUSH2 0x1403 PUSH1 0xF0 SHL DUP12 DUP4 ADD MSTORE PUSH2 0x36F DUP2 MLOAD DUP1 SWAP3 DUP14 PUSH1 0x22 DUP7 ADD SWAP2 ADD PUSH2 0x942 JUMP JUMPDEST DUP2 ADD PUSH1 0x1 PUSH1 0x1 PUSH1 0x80 SHL SUB NOT PUSH1 0x24 CALLDATALOAD PUSH1 0x80 SHL AND PUSH1 0x22 DUP3 ADD MSTORE SUB PUSH1 0x12 DUP2 ADD DUP5 MSTORE ADD DUP3 PUSH2 0x8AF JUMP JUMPDEST PUSH2 0xAC4 JUMP JUMPDEST SWAP6 DUP4 MLOAD SWAP7 DUP8 SWAP2 PUSH1 0x1 PUSH1 0xFA SHL DUP9 DUP5 ADD MSTORE PUSH2 0x3BA DUP2 MLOAD DUP1 SWAP3 DUP11 DUP8 DUP8 ADD SWAP2 ADD PUSH2 0x942 JUMP JUMPDEST DUP3 ADD PUSH2 0x3CE DUP3 MLOAD DUP1 SWAP4 DUP11 DUP8 DUP6 ADD SWAP2 ADD PUSH2 0x942 JUMP JUMPDEST ADD SUB PUSH1 0x1 DUP2 ADD DUP8 MSTORE ADD DUP6 PUSH2 0x8AF JUMP JUMPDEST MLOAD SWAP3 DUP3 DUP5 SWAP4 DUP5 MSTORE DUP4 ADD SWAP1 PUSH2 0x965 JUMP JUMPDEST SUB SWAP1 RETURN JUMPDEST POP POP CALLVALUE PUSH2 0x30A JUMPI DUP2 PUSH1 0x3 NOT CALLDATASIZE ADD SLT PUSH2 0x30A JUMPI SWAP1 SLOAD SWAP1 MLOAD PUSH1 0x1 PUSH1 0x1 PUSH1 0xA0 SHL SUB SWAP1 SWAP2 AND DUP2 MSTORE PUSH1 0x20 SWAP1 RETURN JUMPDEST DUP1 DUP5 DUP5 CALLVALUE PUSH2 0x200 JUMPI PUSH1 0x20 CALLDATASIZE PUSH1 0x3 NOT ADD SLT PUSH2 0x200 JUMPI PUSH1 0x1 SLOAD PUSH2 0x44D SWAP1 CALLER PUSH1 0x1 PUSH1 0x1 PUSH1 0xA0 SHL SUB SWAP2 DUP3 AND EQ SWAP1 DUP2 ISZERO PUSH2 0x496 JUMPI POP PUSH2 0x9A0 JUMP JUMPDEST PUSH2 0x803 DUP1 EXTCODESIZE ISZERO PUSH2 0x1EE JUMPI PUSH1 0x44 DUP5 SWAP3 DUP5 MLOAD SWAP6 DUP7 SWAP4 DUP5 SWAP3 PUSH4 0xD5C90B29 PUSH1 0xE0 SHL DUP5 MSTORE DUP1 CALLDATALOAD SWAP1 DUP5 ADD MSTORE DUP2 PUSH1 0x24 DUP5 ADD MSTORE GAS CALL SWAP1 DUP2 ISZERO PUSH2 0x1E5 JUMPI POP PUSH2 0x48A JUMPI POP DUP1 RETURN JUMPDEST PUSH2 0x493 SWAP1 PUSH2 0x869 JUMP JUMPDEST DUP1 RETURN JUMPDEST SWAP1 POP DUP5 SLOAD AND CALLER EQ DUP7 PUSH2 0x193 JUMP JUMPDEST POP SWAP2 SWAP1 CALLVALUE PUSH2 0x30A JUMPI PUSH1 0x20 SWAP3 DUP4 PUSH1 0x3 NOT CALLDATASIZE ADD SLT PUSH2 0x15F JUMPI PUSH2 0x4C1 PUSH2 0x98A JUMP JUMPDEST DUP3 MLOAD PUSH4 0xF19E2A21 PUSH1 0xE0 SHL DUP2 MSTORE PUSH1 0x1 PUSH1 0x1 PUSH1 0xA0 SHL SUB SWAP1 SWAP2 AND SWAP2 DUP2 ADD SWAP2 SWAP1 SWAP2 MSTORE DUP4 DUP2 PUSH1 0x24 DUP2 PUSH2 0x803 GAS STATICCALL SWAP3 DUP4 ISZERO PUSH2 0x531 JUMPI DUP1 SWAP4 PUSH2 0x4FF JUMPI JUMPDEST POP POP MLOAD SWAP1 DUP2 MSTORE RETURN JUMPDEST SWAP1 SWAP2 SWAP3 POP DUP4 DUP3 DUP2 RETURNDATASIZE DUP4 GT PUSH2 0x52A JUMPI JUMPDEST PUSH2 0x518 DUP2 DUP4 PUSH2 0x8AF JUMP JUMPDEST DUP2 ADD SUB SLT PUSH2 0x1E2 JUMPI POP MLOAD SWAP1 CODESIZE DUP1 PUSH2 0x4F7 JUMP JUMPDEST POP RETURNDATASIZE PUSH2 0x50E JUMP JUMPDEST DUP3 MLOAD SWAP1 RETURNDATASIZE SWAP1 DUP3 RETURNDATACOPY RETURNDATASIZE SWAP1 REVERT JUMPDEST POP CALLVALUE PUSH2 0x15F JUMPI PUSH2 0x54B CALLDATASIZE PUSH2 0x8D1 JUMP JUMPDEST SWAP1 PUSH2 0x56A PUSH1 0x1 DUP1 PUSH1 0xA0 SHL SUB DUP1 PUSH1 0x1 SLOAD AND CALLER EQ SWAP1 DUP2 ISZERO PUSH2 0x622 JUMPI POP PUSH2 0x9A0 JUMP JUMPDEST DUP2 PUSH1 0x20 PUSH2 0x575 PUSH2 0xAA3 JUMP JUMPDEST DUP1 SWAP4 PUSH2 0x592 DUP8 MLOAD SWAP5 DUP6 SWAP4 DUP5 SWAP4 PUSH4 0x7F0A3BF9 PUSH1 0xE0 SHL DUP6 MSTORE DUP5 ADD PUSH2 0xA04 JUMP JUMPDEST SUB DUP2 DUP9 PUSH3 0xA0000 GAS CALL SWAP1 DUP2 ISZERO PUSH2 0x618 JUMPI SWAP4 PUSH2 0x5D9 PUSH2 0x5E3 SWAP3 PUSH32 0xB896FA5DAA5AAA810DBE2375FF4785C955BC7E1423E43094570A9F841329A7DD SWAP7 DUP9 SWAP2 PUSH2 0x5E9 JUMPI JUMPDEST POP PUSH2 0xA2C JUMP JUMPDEST MLOAD SWAP3 DUP4 SWAP3 DUP4 PUSH2 0xA04 JUMP JUMPDEST SUB SWAP1 LOG1 DUP1 RETURN JUMPDEST PUSH2 0x60B SWAP2 POP PUSH1 0x20 RETURNDATASIZE PUSH1 0x20 GT PUSH2 0x611 JUMPI JUMPDEST PUSH2 0x603 DUP2 DUP4 PUSH2 0x8AF JUMP JUMPDEST DUP2 ADD SWAP1 PUSH2 0x9EC JUMP JUMPDEST CODESIZE PUSH2 0x5D3 JUMP JUMPDEST POP RETURNDATASIZE PUSH2 0x5F9 JUMP JUMPDEST DUP5 MLOAD RETURNDATASIZE DUP8 DUP3 RETURNDATACOPY RETURNDATASIZE SWAP1 REVERT JUMPDEST SWAP1 POP DUP6 SLOAD AND CALLER EQ CODESIZE PUSH2 0x193 JUMP JUMPDEST POP POP CALLVALUE PUSH2 0x30A JUMPI DUP2 PUSH1 0x3 NOT CALLDATASIZE ADD SLT PUSH2 0x30A JUMPI PUSH1 0x1 SLOAD SWAP1 MLOAD PUSH1 0x1 PUSH1 0x1 PUSH1 0xA0 SHL SUB SWAP1 SWAP2 AND DUP2 MSTORE PUSH1 0x20 SWAP1 RETURN JUMPDEST DUP3 DUP5 CALLVALUE PUSH2 0x1E2 JUMPI DUP2 PUSH1 0x3 NOT CALLDATASIZE ADD SLT PUSH2 0x1E2 JUMPI PUSH2 0x3EC PUSH2 0x675 PUSH2 0x98A JUMP JUMPDEST SWAP3 PUSH2 0x3DD PUSH1 0x21 PUSH1 0x24 CALLDATALOAD SWAP5 PUSH2 0x690 PUSH2 0x68A PUSH2 0xA71 JUMP JUMPDEST SWAP8 PUSH2 0xB23 JUMP JUMPDEST DUP5 MLOAD PUSH2 0x729 PUSH1 0x47 DUP3 PUSH1 0x20 SWAP11 DUP12 DUP3 ADD SWAP6 DUP8 DUP8 MSTORE PUSH1 0x64 DUP14 DUP3 MLOAD SWAP1 DUP4 ADD SWAP1 PUSH2 0x6B8 DUP2 DUP14 DUP9 ADD DUP5 PUSH2 0x942 JUMP JUMPDEST DUP6 ADD PUSH2 0x6F8 PUSH1 0x1 PUSH1 0x1 PUSH1 0x80 SHL SUB NOT SWAP5 DUP6 DUP8 PUSH1 0x80 SHL AND DUP15 DUP5 ADD MSTORE PUSH1 0xD PUSH1 0xF8 SHL PUSH1 0x31 DUP5 ADD MSTORE DUP13 PUSH1 0x32 DUP5 ADD MSTORE PUSH1 0x3 PUSH1 0xFA SHL PUSH1 0x33 DUP5 ADD MSTORE MLOAD DUP1 SWAP4 PUSH1 0x34 DUP5 ADD SWAP1 PUSH2 0x942 JUMP JUMPDEST ADD SWAP3 DIV PUSH1 0x80 SHL AND PUSH1 0x34 DUP3 ADD MSTORE PUSH1 0x1 PUSH1 0xFA SHL SWAP7 DUP8 PUSH1 0x44 DUP4 ADD MSTORE DUP1 PUSH1 0x45 DUP4 ADD MSTORE PUSH1 0x46 DUP3 ADD MSTORE SUB PUSH1 0x27 DUP2 ADD DUP5 MSTORE ADD DUP3 PUSH2 0x8AF JUMP JUMPDEST PUSH2 0x3CE DUP7 MLOAD SWAP10 DUP11 SWAP5 DUP11 DUP7 ADD MSTORE PUSH2 0x747 DUP2 MLOAD DUP1 SWAP3 DUP13 DUP10 DUP10 ADD SWAP2 ADD PUSH2 0x942 JUMP JUMPDEST DUP5 ADD SWAP2 MLOAD DUP1 SWAP4 DUP7 DUP5 ADD SWAP1 PUSH2 0x942 JUMP JUMPDEST POP POP CALLVALUE PUSH2 0x30A JUMPI DUP2 PUSH1 0x3 NOT CALLDATASIZE ADD SLT PUSH2 0x30A JUMPI PUSH1 0x20 SWAP1 MLOAD PUSH2 0x3E8 DUP2 MSTORE RETURN JUMPDEST POP CALLVALUE PUSH2 0x15F JUMPI PUSH1 0x20 SWAP2 DUP3 PUSH1 0x3 NOT CALLDATASIZE ADD SLT PUSH2 0x7D8 JUMPI PUSH2 0x3DD PUSH1 0x21 PUSH2 0x399 PUSH2 0x3EC SWAP5 PUSH2 0x79B PUSH2 0xAA3 JUMP JUMPDEST DUP6 MLOAD PUSH1 0x7 PUSH1 0xF8 SHL DUP10 DUP3 ADD MSTORE SWAP2 CALLDATALOAD PUSH1 0x80 SHL PUSH16 0xFFFFFFFFFFFFFFFFFFFFFFFFFFFFFFFF NOT AND PUSH1 0x22 DUP4 ADD MSTORE PUSH1 0x32 DUP3 ADD SWAP9 SWAP1 SWAP9 MSTORE PUSH1 0x13 DUP2 MSTORE PUSH2 0x394 DUP2 PUSH2 0x893 JUMP JUMPDEST DUP4 DUP1 REVERT JUMPDEST POP CALLVALUE PUSH2 0x15F JUMPI PUSH2 0x7EB CALLDATASIZE PUSH2 0x8D1 JUMP JUMPDEST SWAP1 PUSH2 0x80A PUSH1 0x1 DUP1 PUSH1 0xA0 SHL SUB DUP1 PUSH1 0x1 SLOAD AND CALLER EQ SWAP1 DUP2 ISZERO PUSH2 0x622 JUMPI POP PUSH2 0x9A0 JUMP JUMPDEST DUP2 PUSH1 0x20 PUSH2 0x575 PUSH2 0xA71 JUMP JUMPDEST POP POP CALLVALUE PUSH2 0x30A JUMPI DUP2 PUSH1 0x3 NOT CALLDATASIZE ADD SLT PUSH2 0x30A JUMPI PUSH1 0x20 SWAP1 MLOAD PUSH2 0x803 DUP2 MSTORE RETURN JUMPDEST POP POP CALLVALUE PUSH2 0x30A JUMPI DUP2 PUSH1 0x3 NOT CALLDATASIZE ADD SLT PUSH2 0x30A JUMPI PUSH1 0x20 SWAP1 MLOAD PUSH3 0xA0000 DUP2 MSTORE RETURN JUMPDEST DUP5 SWAP1 CALLVALUE PUSH2 0x30A JUMPI DUP2 PUSH1 0x3 NOT CALLDATASIZE ADD SLT PUSH2 0x30A JUMPI PUSH1 0x20 SWAP2 DUP2 MSTORE RETURN JUMPDEST PUSH8 0xFFFFFFFFFFFFFFFF DUP2 GT PUSH2 0x87D JUMPI PUSH1 0x40 MSTORE JUMP JUMPDEST PUSH4 0x4E487B71 PUSH1 0xE0 SHL PUSH1 0x0 MSTORE PUSH1 0x41 PUSH1 0x4 MSTORE PUSH1 0x24 PUSH1 0x0 REVERT JUMPDEST PUSH1 0x40 DUP2 ADD SWAP1 DUP2 LT PUSH8 0xFFFFFFFFFFFFFFFF DUP3 GT OR PUSH2 0x87D JUMPI PUSH1 0x40 MSTORE JUMP JUMPDEST SWAP1 PUSH1 0x1F DUP1 NOT SWAP2 ADD AND DUP2 ADD SWAP1 DUP2 LT PUSH8 0xFFFFFFFFFFFFFFFF DUP3 GT OR PUSH2 0x87D JUMPI PUSH1 0x40 MSTORE JUMP JUMPDEST PUSH1 0x20 PUSH1 0x3 NOT DUP3 ADD SLT PUSH2 0x2F1 JUMPI PUSH8 0xFFFFFFFFFFFFFFFF PUSH1 0x4 CALLDATALOAD DUP2 DUP2 GT PUSH2 0x2F1 JUMPI DUP3 PUSH1 0x23 DUP3 ADD SLT ISZERO PUSH2 0x2F1 JUMPI DUP1 PUSH1 0x4 ADD CALLDATALOAD SWAP2 DUP3 GT PUSH2 0x87D JUMPI PUSH1 0x40 MLOAD SWAP3 PUSH2 0x91F PUSH1 0x1F DUP5 ADD PUSH1 0x1F NOT AND PUSH1 0x20 ADD DUP6 PUSH2 0x8AF JUMP JUMPDEST DUP3 DUP5 MSTORE PUSH1 0x24 DUP4 DUP4 ADD ADD GT PUSH2 0x2F1 JUMPI DUP2 PUSH1 0x0 SWAP3 PUSH1 0x24 PUSH1 0x20 SWAP4 ADD DUP4 DUP7 ADD CALLDATACOPY DUP4 ADD ADD MSTORE SWAP1 JUMP JUMPDEST PUSH1 0x0 JUMPDEST DUP4 DUP2 LT PUSH2 0x955 JUMPI POP POP PUSH1 0x0 SWAP2 ADD MSTORE JUMP JUMPDEST DUP2 DUP2 ADD MLOAD DUP4 DUP3 ADD MSTORE PUSH1 0x20 ADD PUSH2 0x945 JUMP JUMPDEST SWAP1 PUSH1 0x20 SWAP2 PUSH2 0x97E DUP2 MLOAD DUP1 SWAP3 DUP2 DUP6 MSTORE DUP6 DUP1 DUP7 ADD SWAP2 ADD PUSH2 0x942 JUMP JUMPDEST PUSH1 0x1F ADD PUSH1 0x1F NOT AND ADD ADD SWAP1 JUMP JUMPDEST PUSH1 0x4 CALLDATALOAD SWAP1 PUSH1 0x1 PUSH1 0x1 PUSH1 0xA0 SHL SUB DUP3 AND DUP3 SUB PUSH2 0x2F1 JUMPI JUMP JUMPDEST ISZERO PUSH2 0x9A7 JUMPI JUMP JUMPDEST PUSH1 0x40 MLOAD PUSH3 0x461BCD PUSH1 0xE5 SHL DUP2 MSTORE PUSH1 0x20 PUSH1 0x4 DUP3 ADD MSTORE PUSH1 0x17 PUSH1 0x24 DUP3 ADD MSTORE PUSH32 0x58434D526F757465723A20756E617574686F72697A6564000000000000000000 PUSH1 0x44 DUP3 ADD MSTORE PUSH1 0x64 SWAP1 REVERT JUMPDEST SWAP1 DUP2 PUSH1 0x20 SWAP2 SUB SLT PUSH2 0x2F1 JUMPI MLOAD DUP1 ISZERO ISZERO DUP2 SUB PUSH2 0x2F1 JUMPI SWAP1 JUMP JUMPDEST SWAP1 SWAP2 PUSH2 0xA1B PUSH2 0xA29 SWAP4 PUSH1 0x40 DUP5 MSTORE PUSH1 0x40 DUP5 ADD SWAP1 PUSH2 0x965 JUMP JUMPDEST SWAP2 PUSH1 0x20 DUP2 DUP5 SUB SWAP2 ADD MSTORE PUSH2 0x965 JUMP JUMPDEST SWAP1 JUMP JUMPDEST ISZERO PUSH2 0xA33 JUMPI JUMP JUMPDEST PUSH1 0x40 MLOAD PUSH3 0x461BCD PUSH1 0xE5 SHL DUP2 MSTORE PUSH1 0x20 PUSH1 0x4 DUP3 ADD MSTORE PUSH1 0x16 PUSH1 0x24 DUP3 ADD MSTORE PUSH22 0x1610D3549BDD5D195C8E881CD95B990819985A5B1959 PUSH1 0x52 SHL PUSH1 0x44 DUP3 ADD MSTORE PUSH1 0x64 SWAP1 REVERT JUMPDEST PUSH1 0x40 MLOAD PUSH1 0x1 PUSH1 0xF8 SHL PUSH1 0x20 DUP3 ADD DUP2 SWAP1 MSTORE PUSH1 0x21 DUP3 ADD MSTORE PUSH1 0x0 PUSH1 0x22 DUP3 ADD MSTORE PUSH1 0x7D PUSH1 0xE3 SHL PUSH1 0x23 DUP3 ADD MSTORE PUSH1 0x7 DUP2 MSTORE PUSH2 0xA29 DUP2 PUSH2 0x893 JUMP JUMPDEST PUSH1 0x40 MLOAD PUSH1 0x1 PUSH1 0xF8 SHL PUSH1 0x20 DUP3 ADD MSTORE PUSH1 0x0 PUSH1 0x21 DUP3 ADD MSTORE PUSH1 0x2 DUP2 MSTORE PUSH2 0xA29 DUP2 PUSH2 0x893 JUMP JUMPDEST PUSH2 0xA29 PUSH1 0x33 PUSH1 0x40 MLOAD DUP1 SWAP4 PUSH1 0x3 PUSH1 0xF9 SHL PUSH1 0x20 DUP4 ADD MSTORE PUSH1 0x0 PUSH1 0x21 DUP4 ADD MSTORE PUSH1 0x1 PUSH1 0xF8 SHL PUSH1 0x22 DUP4 ADD MSTORE PUSH3 0x1DCD65 PUSH1 0xC9 SHL PUSH1 0x23 DUP4 ADD MSTORE PUSH2 0x271 PUSH1 0xC4 SHL PUSH1 0x2B DUP4 ADD MSTORE PUSH2 0xB13 DUP2 MLOAD DUP1 SWAP3 PUSH1 0x20 DUP7 DUP7 ADD SWAP2 ADD PUSH2 0x942 JUMP JUMPDEST DUP2 ADD SUB PUSH1 0x13 DUP2 ADD DUP5 MSTORE ADD DUP3 PUSH2 0x8AF JUMP JUMPDEST PUSH1 0x40 MLOAD PUSH1 0x0 PUSH1 0x20 DUP3 ADD MSTORE PUSH1 0x1 PUSH1 0xF8 SHL PUSH1 0x21 DUP3 ADD MSTORE PUSH1 0x5 PUSH1 0xF8 SHL PUSH1 0x22 DUP3 ADD MSTORE PUSH1 0x60 SWAP2 SWAP1 SWAP2 SHL PUSH12 0xFFFFFFFFFFFFFFFFFFFFFFFF NOT AND PUSH1 0x23 DUP3 ADD MSTORE PUSH1 0x17 DUP2 MSTORE PUSH2 0xA29 DUP2 PUSH2 0x893 JUMP INVALID LOG2 PUSH5 0x6970667358 0x22 SLT KECCAK256 0xF 0xF7 0x2B 0xD4 CREATE2 MOD PUSH14 0x715C4F446811332C88BD8CB24C0E 0x2C 0xB9 CALLDATALOAD PUSH30 0x87CA33717D7CE264736F6C63430008180033000000000000000000000000 "},"methodIdentifiers":{"ASSET_HUB_PARA_ID()":"55480d17","RELAY_CHAIN_ID()":"06856142","STAKING_PRECOMPILE()":"0cb9f3ad","XCM_PRECOMPILE()":"077120cc","buildLendOnAssetHub(address,uint256)":"927620db","buildStakeOnRelay(uint256)":"3f707022","buildTransferToAssetHub(address,uint256)":"57d3c71a","getNativeBonded(address)":"8bac5ab5","nativeBond(uint256)":"8d483188","nativeNominate(address[])":"a58be0c3","nativeUnbond(uint256)":"b375e04a","owner()":"8da5cb5b","sendToAssetHub(bytes)":"18d71636","sendToRelay(bytes)":"79b15de0","setTreasury(address)":"f0f44260","treasury()":"61d027b3"}}}}}