{"src/AutoTreasury.sol":{"AutoTreasury":{"abi":[{"inputs":[{"internalType":"address","name":"_xcmRouter","type":"address"}],"stateMutability":"nonpayable","type":"constructor"},{"anonymous":false,"inputs":[{"indexed":true,"internalType":"address","name":"asset","type":"address"}],"name":"AssetAdded","type":"event"},{"anonymous":false,"inputs":[{"indexed":true,"internalType":"address","name":"user","type":"address"},{"indexed":true,"internalType":"address","name":"asset","type":"address"},{"indexed":false,"internalType":"uint256","name":"amount","type":"uint256"},{"indexed":false,"internalType":"uint256","name":"sharesMinted","type":"uint256"}],"name":"Deposited","type":"event"},{"anonymous":false,"inputs":[{"indexed":false,"internalType":"uint256","name":"timestamp","type":"uint256"}],"name":"Rebalanced","type":"event"},{"anonymous":false,"inputs":[{"indexed":true,"internalType":"address","name":"strategy","type":"address"}],"name":"StrategyAdded","type":"event"},{"anonymous":false,"inputs":[{"indexed":true,"internalType":"address","name":"strategy","type":"address"}],"name":"StrategyRemoved","type":"event"},{"anonymous":false,"inputs":[{"indexed":true,"internalType":"address","name":"user","type":"address"},{"indexed":false,"internalType":"uint256","name":"sharesBurned","type":"uint256"},{"indexed":false,"internalType":"uint256","name":"amountReturned","type":"uint256"}],"name":"Withdrawn","type":"event"},{"anonymous":false,"inputs":[{"indexed":true,"internalType":"address","name":"asset","type":"address"},{"indexed":false,"internalType":"uint256","name":"amount","type":"uint256"},{"indexed":false,"internalType":"bytes","name":"xcmPayload","type":"bytes"}],"name":"XCMTransferTriggered","type":"event"},{"anonymous":false,"inputs":[{"indexed":true,"internalType":"address","name":"user","type":"address"},{"indexed":false,"internalType":"uint256","name":"amount","type":"uint256"}],"name":"YieldClaimed","type":"event"},{"inputs":[{"internalType":"address","name":"asset","type":"address"}],"name":"addAsset","outputs":[],"stateMutability":"nonpayable","type":"function"},{"inputs":[{"internalType":"contract YieldStrategy","name":"strategy","type":"address"}],"name":"addStrategy","outputs":[],"stateMutability":"nonpayable","type":"function"},{"inputs":[],"name":"assetCount","outputs":[{"internalType":"uint256","name":"","type":"uint256"}],"stateMutability":"view","type":"function"},{"inputs":[{"internalType":"uint256","name":"","type":"uint256"}],"name":"assetList","outputs":[{"internalType":"address","name":"","type":"address"}],"stateMutability":"view","type":"function"},{"inputs":[],"name":"claimYield","outputs":[],"stateMutability":"nonpayable","type":"function"},{"inputs":[{"internalType":"address","name":"asset","type":"address"},{"internalType":"uint256","name":"amount","type":"uint256"}],"name":"deposit","outputs":[],"stateMutability":"nonpayable","type":"function"},{"inputs":[],"name":"owner","outputs":[{"internalType":"address","name":"","type":"address"}],"stateMutability":"view","type":"function"},{"inputs":[{"internalType":"address","name":"user","type":"address"}],"name":"pendingYield","outputs":[{"internalType":"uint256","name":"","type":"uint256"}],"stateMutability":"view","type":"function"},{"inputs":[],"name":"rebalance","outputs":[],"stateMutability":"nonpayable","type":"function"},{"inputs":[{"internalType":"contract YieldStrategy","name":"strategy","type":"address"}],"name":"removeStrategy","outputs":[],"stateMutability":"nonpayable","type":"function"},{"inputs":[],"name":"sharePrice","outputs":[{"internalType":"uint256","name":"","type":"uint256"}],"stateMutability":"view","type":"function"},{"inputs":[{"internalType":"address","name":"","type":"address"}],"name":"shares","outputs":[{"internalType":"uint256","name":"","type":"uint256"}],"stateMutability":"view","type":"function"},{"inputs":[{"internalType":"uint256","name":"","type":"uint256"}],"name":"strategies","outputs":[{"internalType":"contract YieldStrategy","name":"","type":"address"}],"stateMutability":"view","type":"function"},{"inputs":[],"name":"strategyCount","outputs":[{"internalType":"uint256","name":"","type":"uint256"}],"stateMutability":"view","type":"function"},{"inputs":[{"internalType":"address","name":"","type":"address"}],"name":"strategyIndex","outputs":[{"internalType":"uint256","name":"","type":"uint256"}],"stateMutability":"view","type":"function"},{"inputs":[{"internalType":"address","name":"","type":"address"}],"name":"supportedAssets","outputs":[{"internalType":"bool","name":"","type":"bool"}],"stateMutability":"view","type":"function"},{"inputs":[],"name":"totalAssets","outputs":[{"internalType":"uint256","name":"","type":"uint256"}],"stateMutability":"view","type":"function"},{"inputs":[{"internalType":"address","name":"","type":"address"}],"name":"totalDeposited","outputs":[{"internalType":"uint256","name":"","type":"uint256"}],"stateMutability":"view","type":"function"},{"inputs":[],"name":"totalShares","outputs":[{"internalType":"uint256","name":"","type":"uint256"}],"stateMutability":"view","type":"function"},{"inputs":[],"name":"totalYieldAccrued","outputs":[{"internalType":"uint256","name":"","type":"uint256"}],"stateMutability":"view","type":"function"},{"inputs":[{"internalType":"address","name":"asset","type":"address"},{"internalType":"uint256","name":"amount","type":"uint256"}],"name":"triggerXCMTransfer","outputs":[],"stateMutability":"nonpayable","type":"function"},{"inputs":[{"internalType":"uint256","name":"shareAmount","type":"uint256"}],"name":"withdraw","outputs":[],"stateMutability":"nonpayable","type":"function"},{"inputs":[],"name":"xcmRouter","outputs":[{"internalType":"contract XCMRouter","name":"","type":"address"}],"stateMutability":"view","type":"function"},{"inputs":[{"internalType":"address","name":"","type":"address"}],"name":"yieldClaimed","outputs":[{"internalType":"uint256","name":"","type":"uint256"}],"stateMutability":"view","type":"function"}],"evm":{"bytecode":{"linkReferences":{},"object":"60803461007a57601f611a6138819003918201601f19168301916001600160401b0383118484101761007f5780849260209460405283398101031261007a57516001600160a01b0381169081900361007a5760018060a01b03193381600054161760005560015416176001556040516119cb90816100968239f35b600080fd5b634e487b7160e01b600052604160045260246000fdfe6040608081526004908136101561001557600080fd5b600091823560e01c90816301e1d1141461151457816311451526146114dc578163175188e81461132857816322068b4414611309578163223e54791461120f578163298410e5146110f25781632e1a7d4d14610e0a5781633a98ef3914610deb578163406cf22914610ad557816345bba69714610a9d57816347e7ef241461091c57816353055481146108e45781637d7c2a1c1461060657816387269729146105e95781638da5cb5b146105c157816391731c66146102a7578163a0b4b3011461027c578163bd81579e1461023f578163c7bf198014610212578163ce7c2ac2146101da578163d574ea3d1461019257508063e1d206001461016a578063eafe7a741461014c5763ee6c3bf21461012b57600080fd5b346101485781600319360112610148576020906009549051908152f35b5080fd5b50346101485781600319360112610148576020906005549051908152f35b503461014857816003193601126101485760015490516001600160a01b039091168152602090f35b9050346101d65760203660031901126101d65735916007548310156101d357506101bd60209261154c565b905491519160018060a01b039160031b1c168152f35b80fd5b8280fd5b5050346101485760203660031901126101485760209181906001600160a01b03610202611531565b1681526002845220549051908152f35b50503461014857602036600319011261014857602090610238610233611531565b611910565b9051908152f35b9050346101d65760203660031901126101d65760209260ff918391906001600160a01b0361026b611531565b168252855220541690519015158152f35b9050346101d65760203660031901126101d65735916005548310156101d357506101bd602092611599565b9050346101d657816003193601126101d6576102c1611531565b9060243560018060a01b036102da818754163314611793565b6102e5821515611837565b84516370a0823160e01b8152308482015284821694602094909185816024818a5afa80156105b75785918a91610586575b501061053857600154875163095ea7b360e01b81529084166001600160a01b031682820190815260208101869052899291908790829081906040010381868c5af1801561052e576103a49584928892610501575b506001548b51632be9e38d60e11b81526001600160a01b039097168588019081526020810193909352959695169486918291604090910190565b0381865afa9384156104f757829461044f575b50823b15610148578751630c6b8b1b60e11b81529081018690529182908183816103e460248201896118eb565b03925af18015610445579561043092917fb7601b2b4ca3afa837769c4aeed7ebeaac7a39144481681131486c7e5d2ee6cd9697610436575b5080805195869586528501528301906118eb565b0390a280f35b61043f906115d0565b3861041c565b86513d89823e3d90fd5b915092503d8089833e61046281836115fa565b81019085818303126104f357805167ffffffffffffffff918282116104ef57019082601f830112156104eb5781519081116104d857908992918951926104b189601f19601f85011601856115fa565b8184528882840101116104d4576104cd918880850191016118c8565b92386103b7565b8380fd5b634e487b7160e01b8a526041855260248afd5b8980fd5b8a80fd5b8880fd5b88513d84823e3d90fd5b610520908a3d8c11610527575b61051881836115fa565b81019061181f565b503861036a565b503d61050e565b89513d85823e3d90fd5b865162461bcd60e51b8152908101859052602260248201527f4175746f54726561737572793a20696e73756666696369656e742062616c616e604482015261636560f01b6064820152608490fd5b809250878092503d83116105b0575b61059f81836115fa565b810103126104f35784905138610316565b503d610595565b88513d8b823e3d90fd5b505034610148578160031936011261014857905490516001600160a01b039091168152602090f35b505034610148578160031936011261014857602090610238611883565b9050346101d657826003193601126101d65782546001600160a01b0393906106319085163314611793565b6007549182156108a157815b60058054821015610874578661065283611599565b919054600392831b1c16918751916370a0823160e01b8352308684015260209260249284828581895afa91821561086a57899261083b575b5066038d7ea4c68000821061082d57885b8a81106106b357505050505050506001905b0161063d565b899c9495969c9b979b5081541561081b57818a527f036b6384b5eca791c62761152d0c79bb0604c104a5fb6f4eb0703f3154bb3db05485168d03610804578c878460011c915b8a8d8d85610718575b5050505050506001019b9594939b9a969a61069b565b9161076194939186938c8c61072c8b61154c565b9054911b1c1692519687958694859363a9059cbb60e01b8552840160209093929193604081019460018060a01b031681520152565b03925af180156107fa576107dd575b508561077b8361154c565b905490871b1c1690813b156107d9578b90888c838d5195869485936255f9e960e71b85528401525af180156107cf5790600192916107c0575b5090878e8a8d8d610702565b6107c9906115d0565b386107b4565b89513d8d823e3d90fd5b8b80fd5b6107f390893d8b116105275761051881836115fa565b5038610770565b8a513d8e823e3d90fd5b80610813578c878b5b916106f9565b8c878461080d565b634e487b7160e01b8a5260328952858afd5b5050505050506001906106ad565b9091508481813d8311610863575b61085381836115fa565b810103126104f35751903861068a565b503d610849565b8b513d8b823e3d90fd5b837fc306af072396b02bf3a9782c10065cc7ff4aa842934a43f0b76f997b291237c860208851428152a180f35b606490602085519162461bcd60e51b8352820152601b60248201527f4175746f54726561737572793a206e6f207374726174656769657300000000006044820152fd5b5050346101485760203660031901126101485760209181906001600160a01b0361090c611531565b1681526006845220549051908152f35b919050346101d657806003193601126101d657610937611531565b6024359060018060a01b031691828552602084815260ff828720541615610a5b57610963831515611837565b61096b61163f565b8251956323b872dd60e01b8752339087015230602487015283604487015281866064818a895af1958615610a51577ff5681f9d0db1b911ac18ee83d515a1cf1051853a9eae418316a2fdf7dea427c5949596610a34575b506003549081610a1c57505083905b338752600281528287206109e683825461161c565b90556109f48260035461161c565b60035585875260068152828720610a0c86825461161c565b905582519485528401523392a380f35b610a29610a2e92876117ec565b6117ff565b906109d1565b610a4a90833d85116105275761051881836115fa565b50386109c2565b83513d89823e3d90fd5b8490606492519162461bcd60e51b8352820152601f60248201527f4175746f54726561737572793a20756e737570706f72746564206173736574006044820152fd5b5050346101485760203660031901126101485760209181906001600160a01b03610ac5611531565b168152600a845220549051908152f35b8383346101485781600319360112610148573382526020916002835281812054928315610da957819482955b600754871015610b9c57838383610b178a61154c565b9054895163e8d991d160e01b815294859392849260039190911b1c6001600160a01b03165af1908115610b92578591610b60575b50610b589060019261161c565b960195610b01565b90508381813d8311610b8b575b610b7781836115fa565b81010312610b8757516001610b4b565b8480fd5b503d610b6d565b86513d87823e3d90fd5b94610bae610bb792949660095461161c565b806009556117ec565b92610bc7600394600354906117ff565b92338652600a8352610bdc82872054856117df565b938415610d6757338752600a845282872055855b600554811015610d3c57836024610c0683611599565b905486516370a0823160e01b815230878201526001600160a01b039490939092849283918d1b1c86165afa908115610d32579087918a91610d01575b501015610c525750600101610bf0565b918492610c9b97610c638894611599565b9054911b1c169088855180998195829463a9059cbb60e01b84523390840160209093929193604081019460018060a01b031681520152565b03925af1938415610cf7577fc04825ba3f383b602255d2a13065a68e325c65c9e0ed5d031ea2b06f641873af9394610cda575b505b519283523392a280f35b610cf090833d85116105275761051881836115fa565b5085610cce565b81513d87823e3d90fd5b809250878092503d8311610d2b575b610d1a81836115fa565b810103126104f3578690518a610c42565b503d610d10565b85513d8b823e3d90fd5b50507fc04825ba3f383b602255d2a13065a68e325c65c9e0ed5d031ea2b06f641873af929350610cd0565b5082606492519162461bcd60e51b8352820152601e60248201527f4175746f54726561737572793a206e6f7468696e6720746f20636c61696d00006044820152fd5b8460649184519162461bcd60e51b8352820152601760248201527f4175746f54726561737572793a206e6f207368617265730000000000000000006044820152fd5b5050346101485781600319360112610148576020906003549051908152f35b905082346101d357602092836003193601126101485782359081156110b0573383526002855281818420541061106457610e4b610e4561163f565b836117ec565b93610e5a6003958654906117ff565b9033855260028752828520610e708582546117df565b9055610e7d8487546117df565b86558495855b60055481101561105857886024610e9983611599565b905488516370a0823160e01b815230888201526001600160a01b03949093909284928391891b1c86165afa908115611016578b9493929187918b91611020575b501015610eec5750600101909150610e83565b9394959697985090915082610f0082611599565b9054885163a9059cbb60e01b815233888201908152602081018a905290938d93859390881b1c169082908d90829060400103925af180156110165790610f4c9291610ff9575b50611599565b9054911b1c16855260068652828520610f668382546117df565b905560015b15610fa357507f92ccf450a286a957af52509bc1c9939d1a6a481783e142e41e2499f0bb66ebc692939482519485528401523392a280f35b825162461bcd60e51b8152908101869052602a60248201527f4175746f54726561737572793a20696e73756666696369656e74207661756c74604482015269206c697175696469747960b01b6064820152608490fd5b61100f908b3d8d116105275761051881836115fa565b508a610f46565b87513d8b823e3d90fd5b929394958092508391503d8311611051575b61103c81836115fa565b810103126104f35790858b949392518d610ed9565b503d611032565b50509091929394610f6b565b5162461bcd60e51b8152808401859052602160248201527f4175746f54726561737572793a20696e73756666696369656e742073686172656044820152607360f81b6064820152608490fd5b5162461bcd60e51b8152808401859052601960248201527f4175746f54726561737572793a207a65726f20736861726573000000000000006044820152606490fd5b9050346101d65760203660031901126101d65761110d611531565b83546001600160a01b0391906111269083163314611793565b16918284528160205260ff81852054166111cc57828452816020528320600160ff1982541617905560055490600160401b8210156111b95750611190611173826001859401600555611599565b819391549060031b9160018060a01b03809116831b921b19161790565b90557f0e3c58ebfb2e7465fbb1c32e6b4f40c3c4f5ca77e8218a386aff8617831260d78280a280f35b634e487b7160e01b845260419052602483fd5b906020606492519162461bcd60e51b8352820152601f60248201527f4175746f54726561737572793a20616c726561647920737570706f72746564006044820152fd5b919050346101d65760203660031901126101d65781356001600160a01b038181169391849003610b8757611247908554163314611793565b8284526008602052818420546112c75760075490600160401b8210156112b4575061127c61117382600186940160075561154c565b90556007549082845260086020528320557f3f008fd510eae7a9e7bee13513d7b83bef8003d488b5a3d0b0da4de71d6846f18280a280f35b634e487b7160e01b855260419052602484fd5b6020606492519162461bcd60e51b8352820152601d60248201527f4175746f54726561737572793a207374726174656779206578697374730000006044820152fd5b5050346101485781600319360112610148576020906007549051908152f35b919050346101d6576020806003193601126104d4576001600160a01b03833581811694908590036114d857611361828754163314611793565b848652600883528386205490811561149757600754600019929083810190811161148457838201908282116114715790818692820361140e575b505050506007549081156113fb5750918694939160089301906113bd8261154c565b909182549160031b1b19169055600755848452528120557f09a1db4b80c32706328728508c941a6b954f31eb5affd32f236c1fd405f8fea48280a280f35b634e487b7160e01b885260319052602487fd5b61142b61144f61145693856114228561154c565b9490549261154c565b92909460031b1c169083549060031b9160018060a01b03809116831b921b19161790565b905561154c565b90549060031b1c16885260088552858820553883818061139b565b634e487b7160e01b8a526011845260248afd5b634e487b7160e01b895260118352602489fd5b606490848087519262461bcd60e51b845283015260248201527f4175746f54726561737572793a207374726174656779206e6f7420666f756e646044820152fd5b8580fd5b5050346101485760203660031901126101485760209181906001600160a01b03611504611531565b1681526008845220549051908152f35b50503461014857816003193601126101485760209061023861163f565b600435906001600160a01b038216820361154757565b600080fd5b6007548110156115835760076000527fa66cc928b5edb82af9bd49922954155ab7b0942694bea4ce44661d9a8736c6880190600090565b634e487b7160e01b600052603260045260246000fd5b6005548110156115835760056000527f036b6384b5eca791c62761152d0c79bb0604c104a5fb6f4eb0703f3154bb3db00190600090565b67ffffffffffffffff81116115e457604052565b634e487b7160e01b600052604160045260246000fd5b90601f8019910116810190811067ffffffffffffffff8211176115e457604052565b9190820180921161162957565b634e487b7160e01b600052601160045260246000fd5b6000806005545b8082106116fc57505060006007545b80821061166157505090565b909161166c8361154c565b9054604080516306a61f7560e51b81529092909160209182918491600491839160031b1c6001600160a01b03165afa9283156116f257506000926116c1575b50506116b99060019261161c565b920190611655565b81819392933d83116116eb575b6116d881836115fa565b810103126101d3575051816116b96116ab565b503d6116ce565b513d6000823e3d90fd5b909161170783611599565b9054604080516370a0823160e01b81523060048201529092909160209182918491602491839160031b1c6001600160a01b03165afa9283156116f25750600092611762575b505061175a9060019261161c565b920190611646565b81819392933d831161178c575b61177981836115fa565b810103126101d35750518161175a61174c565b503d61176f565b1561179a57565b60405162461bcd60e51b815260206004820152601760248201527f4175746f54726561737572793a206e6f74206f776e65720000000000000000006044820152606490fd5b9190820391821161162957565b8181029291811591840414171561162957565b8115611809570490565b634e487b7160e01b600052601260045260246000fd5b90816020910312611547575180151581036115475790565b1561183e57565b60405162461bcd60e51b815260206004820152601960248201527f4175746f54726561737572793a207a65726f20616d6f756e74000000000000006044820152606490fd5b60035480156118bb5761189461163f565b90670de0b6b3a764000091828102928184041490151715611629576118b8916117ff565b90565b50670de0b6b3a764000090565b60005b8381106118db5750506000910152565b81810151838201526020016118cb565b90602091611904815180928185528580860191016118c8565b601f01601f1916010190565b60035480158015611975575b61196e576119496009549260018060a01b031691610a2960009484865260026020526040862054906117ec565b908252600a60205260408220549081811115611969576118b892506117df565b505090565b5050600090565b506001600160a01b0382166000908152600260205260409020541561191c56fea2646970667358221220804937418701e00f468f0a8da1facd188ebaf84134186578670a54b28965408f64736f6c63430008180033","opcodes":"PUSH1 0x80 CALLVALUE PUSH2 0x7A JUMPI PUSH1 0x1F PUSH2 0x1A61 CODESIZE DUP2 SWAP1 SUB SWAP2 DUP3 ADD PUSH1 0x1F NOT AND DUP4 ADD SWAP2 PUSH1 0x1 PUSH1 0x1 PUSH1 0x40 SHL SUB DUP4 GT DUP5 DUP5 LT OR PUSH2 0x7F JUMPI DUP1 DUP5 SWAP3 PUSH1 0x20 SWAP5 PUSH1 0x40 MSTORE DUP4 CODECOPY DUP2 ADD SUB SLT PUSH2 0x7A JUMPI MLOAD PUSH1 0x1 PUSH1 0x1 PUSH1 0xA0 SHL SUB DUP2 AND SWAP1 DUP2 SWAP1 SUB PUSH2 0x7A JUMPI PUSH1 0x1 DUP1 PUSH1 0xA0 SHL SUB NOT CALLER DUP2 PUSH1 0x0 SLOAD AND OR PUSH1 0x0 SSTORE PUSH1 0x1 SLOAD AND OR PUSH1 0x1 SSTORE PUSH1 0x40 MLOAD PUSH2 0x19CB SWAP1 DUP2 PUSH2 0x96 DUP3 CODECOPY RETURN JUMPDEST PUSH1 0x0 DUP1 REVERT JUMPDEST PUSH4 0x4E487B71 PUSH1 0xE0 SHL PUSH1 0x0 MSTORE PUSH1 0x41 PUSH1 0x4 MSTORE PUSH1 0x24 PUSH1 0x0 REVERT INVALID PUSH1 0x40 PUSH1 0x80 DUP2 MSTORE PUSH1 0x4 SWAP1 DUP2 CALLDATASIZE LT ISZERO PUSH2 0x15 JUMPI PUSH1 0x0 DUP1 REVERT JUMPDEST PUSH1 0x0 SWAP2 DUP3 CALLDATALOAD PUSH1 0xE0 SHR SWAP1 DUP2 PUSH4 0x1E1D114 EQ PUSH2 0x1514 JUMPI DUP2 PUSH4 0x11451526 EQ PUSH2 0x14DC JUMPI DUP2 PUSH4 0x175188E8 EQ PUSH2 0x1328 JUMPI DUP2 PUSH4 0x22068B44 EQ PUSH2 0x1309 JUMPI DUP2 PUSH4 0x223E5479 EQ PUSH2 0x120F JUMPI DUP2 PUSH4 0x298410E5 EQ PUSH2 0x10F2 JUMPI DUP2 PUSH4 0x2E1A7D4D EQ PUSH2 0xE0A JUMPI DUP2 PUSH4 0x3A98EF39 EQ PUSH2 0xDEB JUMPI DUP2 PUSH4 0x406CF229 EQ PUSH2 0xAD5 JUMPI DUP2 PUSH4 0x45BBA697 EQ PUSH2 0xA9D JUMPI DUP2 PUSH4 0x47E7EF24 EQ PUSH2 0x91C JUMPI DUP2 PUSH4 0x53055481 EQ PUSH2 0x8E4 JUMPI DUP2 PUSH4 0x7D7C2A1C EQ PUSH2 0x606 JUMPI DUP2 PUSH4 0x87269729 EQ PUSH2 0x5E9 JUMPI DUP2 PUSH4 0x8DA5CB5B EQ PUSH2 0x5C1 JUMPI DUP2 PUSH4 0x91731C66 EQ PUSH2 0x2A7 JUMPI DUP2 PUSH4 0xA0B4B301 EQ PUSH2 0x27C JUMPI DUP2 PUSH4 0xBD81579E EQ PUSH2 0x23F JUMPI DUP2 PUSH4 0xC7BF1980 EQ PUSH2 0x212 JUMPI DUP2 PUSH4 0xCE7C2AC2 EQ PUSH2 0x1DA JUMPI DUP2 PUSH4 0xD574EA3D EQ PUSH2 0x192 JUMPI POP DUP1 PUSH4 0xE1D20600 EQ PUSH2 0x16A JUMPI DUP1 PUSH4 0xEAFE7A74 EQ PUSH2 0x14C JUMPI PUSH4 0xEE6C3BF2 EQ PUSH2 0x12B JUMPI PUSH1 0x0 DUP1 REVERT JUMPDEST CALLVALUE PUSH2 0x148 JUMPI DUP2 PUSH1 0x3 NOT CALLDATASIZE ADD SLT PUSH2 0x148 JUMPI PUSH1 0x20 SWAP1 PUSH1 0x9 SLOAD SWAP1 MLOAD SWAP1 DUP2 MSTORE RETURN JUMPDEST POP DUP1 REVERT JUMPDEST POP CALLVALUE PUSH2 0x148 JUMPI DUP2 PUSH1 0x3 NOT CALLDATASIZE ADD SLT PUSH2 0x148 JUMPI PUSH1 0x20 SWAP1 PUSH1 0x5 SLOAD SWAP1 MLOAD SWAP1 DUP2 MSTORE RETURN JUMPDEST POP CALLVALUE PUSH2 0x148 JUMPI DUP2 PUSH1 0x3 NOT CALLDATASIZE ADD SLT PUSH2 0x148 JUMPI PUSH1 0x1 SLOAD SWAP1 MLOAD PUSH1 0x1 PUSH1 0x1 PUSH1 0xA0 SHL SUB SWAP1 SWAP2 AND DUP2 MSTORE PUSH1 0x20 SWAP1 RETURN JUMPDEST SWAP1 POP CALLVALUE PUSH2 0x1D6 JUMPI PUSH1 0x20 CALLDATASIZE PUSH1 0x3 NOT ADD SLT PUSH2 0x1D6 JUMPI CALLDATALOAD SWAP2 PUSH1 0x7 SLOAD DUP4 LT ISZERO PUSH2 0x1D3 JUMPI POP PUSH2 0x1BD PUSH1 0x20 SWAP3 PUSH2 0x154C JUMP JUMPDEST SWAP1 SLOAD SWAP2 MLOAD SWAP2 PUSH1 0x1 DUP1 PUSH1 0xA0 SHL SUB SWAP2 PUSH1 0x3 SHL SHR AND DUP2 MSTORE RETURN JUMPDEST DUP1 REVERT JUMPDEST DUP3 DUP1 REVERT JUMPDEST POP POP CALLVALUE PUSH2 0x148 JUMPI PUSH1 0x20 CALLDATASIZE PUSH1 0x3 NOT ADD SLT PUSH2 0x148 JUMPI PUSH1 0x20 SWAP2 DUP2 SWAP1 PUSH1 0x1 PUSH1 0x1 PUSH1 0xA0 SHL SUB PUSH2 0x202 PUSH2 0x1531 JUMP JUMPDEST AND DUP2 MSTORE PUSH1 0x2 DUP5 MSTORE KECCAK256 SLOAD SWAP1 MLOAD SWAP1 DUP2 MSTORE RETURN JUMPDEST POP POP CALLVALUE PUSH2 0x148 JUMPI PUSH1 0x20 CALLDATASIZE PUSH1 0x3 NOT ADD SLT PUSH2 0x148 JUMPI PUSH1 0x20 SWAP1 PUSH2 0x238 PUSH2 0x233 PUSH2 0x1531 JUMP JUMPDEST PUSH2 0x1910 JUMP JUMPDEST SWAP1 MLOAD SWAP1 DUP2 MSTORE RETURN JUMPDEST SWAP1 POP CALLVALUE PUSH2 0x1D6 JUMPI PUSH1 0x20 CALLDATASIZE PUSH1 0x3 NOT ADD SLT PUSH2 0x1D6 JUMPI PUSH1 0x20 SWAP3 PUSH1 0xFF SWAP2 DUP4 SWAP2 SWAP1 PUSH1 0x1 PUSH1 0x1 PUSH1 0xA0 SHL SUB PUSH2 0x26B PUSH2 0x1531 JUMP JUMPDEST AND DUP3 MSTORE DUP6 MSTORE KECCAK256 SLOAD AND SWAP1 MLOAD SWAP1 ISZERO ISZERO DUP2 MSTORE RETURN JUMPDEST SWAP1 POP CALLVALUE PUSH2 0x1D6 JUMPI PUSH1 0x20 CALLDATASIZE PUSH1 0x3 NOT ADD SLT PUSH2 0x1D6 JUMPI CALLDATALOAD SWAP2 PUSH1 0x5 SLOAD DUP4 LT ISZERO PUSH2 0x1D3 JUMPI POP PUSH2 0x1BD PUSH1 0x20 SWAP3 PUSH2 0x1599 JUMP JUMPDEST SWAP1 POP CALLVALUE PUSH2 0x1D6 JUMPI DUP2 PUSH1 0x3 NOT CALLDATASIZE ADD SLT PUSH2 0x1D6 JUMPI PUSH2 0x2C1 PUSH2 0x1531 JUMP JUMPDEST SWAP1 PUSH1 0x24 CALLDATALOAD PUSH1 0x1 DUP1 PUSH1 0xA0 SHL SUB PUSH2 0x2DA DUP2 DUP8 SLOAD AND CALLER EQ PUSH2 0x1793 JUMP JUMPDEST PUSH2 0x2E5 DUP3 ISZERO ISZERO PUSH2 0x1837 JUMP JUMPDEST DUP5 MLOAD PUSH4 0x70A08231 PUSH1 0xE0 SHL DUP2 MSTORE ADDRESS DUP5 DUP3 ADD MSTORE DUP5 DUP3 AND SWAP5 PUSH1 0x20 SWAP5 SWAP1 SWAP2 DUP6 DUP2 PUSH1 0x24 DUP2 DUP11 GAS STATICCALL DUP1 ISZERO PUSH2 0x5B7 JUMPI DUP6 SWAP2 DUP11 SWAP2 PUSH2 0x586 JUMPI JUMPDEST POP LT PUSH2 0x538 JUMPI PUSH1 0x1 SLOAD DUP8 MLOAD PUSH4 0x95EA7B3 PUSH1 0xE0 SHL DUP2 MSTORE SWAP1 DUP5 AND PUSH1 0x1 PUSH1 0x1 PUSH1 0xA0 SHL SUB AND DUP3 DUP3 ADD SWAP1 DUP2 MSTORE PUSH1 0x20 DUP2 ADD DUP7 SWAP1 MSTORE DUP10 SWAP3 SWAP2 SWAP1 DUP8 SWAP1 DUP3 SWAP1 DUP2 SWAP1 PUSH1 0x40 ADD SUB DUP2 DUP7 DUP13 GAS CALL DUP1 ISZERO PUSH2 0x52E JUMPI PUSH2 0x3A4 SWAP6 DUP5 SWAP3 DUP9 SWAP3 PUSH2 0x501 JUMPI JUMPDEST POP PUSH1 0x1 SLOAD DUP12 MLOAD PUSH4 0x2BE9E38D PUSH1 0xE1 SHL DUP2 MSTORE PUSH1 0x1 PUSH1 0x1 PUSH1 0xA0 SHL SUB SWAP1 SWAP8 AND DUP6 DUP9 ADD SWAP1 DUP2 MSTORE PUSH1 0x20 DUP2 ADD SWAP4 SWAP1 SWAP4 MSTORE SWAP6 SWAP7 SWAP6 AND SWAP5 DUP7 SWAP2 DUP3 SWAP2 PUSH1 0x40 SWAP1 SWAP2 ADD SWAP1 JUMP JUMPDEST SUB DUP2 DUP7 GAS STATICCALL SWAP4 DUP5 ISZERO PUSH2 0x4F7 JUMPI DUP3 SWAP5 PUSH2 0x44F JUMPI JUMPDEST POP DUP3 EXTCODESIZE ISZERO PUSH2 0x148 JUMPI DUP8 MLOAD PUSH4 0xC6B8B1B PUSH1 0xE1 SHL DUP2 MSTORE SWAP1 DUP2 ADD DUP7 SWAP1 MSTORE SWAP2 DUP3 SWAP1 DUP2 DUP4 DUP2 PUSH2 0x3E4 PUSH1 0x24 DUP3 ADD DUP10 PUSH2 0x18EB JUMP JUMPDEST SUB SWAP3 GAS CALL DUP1 ISZERO PUSH2 0x445 JUMPI SWAP6 PUSH2 0x430 SWAP3 SWAP2 PUSH32 0xB7601B2B4CA3AFA837769C4AEED7EBEAAC7A39144481681131486C7E5D2EE6CD SWAP7 SWAP8 PUSH2 0x436 JUMPI JUMPDEST POP DUP1 DUP1 MLOAD SWAP6 DUP7 SWAP6 DUP7 MSTORE DUP6 ADD MSTORE DUP4 ADD SWAP1 PUSH2 0x18EB JUMP JUMPDEST SUB SWAP1 LOG2 DUP1 RETURN JUMPDEST PUSH2 0x43F SWAP1 PUSH2 0x15D0 JUMP JUMPDEST CODESIZE PUSH2 0x41C JUMP JUMPDEST DUP7 MLOAD RETURNDATASIZE DUP10 DUP3 RETURNDATACOPY RETURNDATASIZE SWAP1 REVERT JUMPDEST SWAP2 POP SWAP3 POP RETURNDATASIZE DUP1 DUP10 DUP4 RETURNDATACOPY PUSH2 0x462 DUP2 DUP4 PUSH2 0x15FA JUMP JUMPDEST DUP2 ADD SWAP1 DUP6 DUP2 DUP4 SUB SLT PUSH2 0x4F3 JUMPI DUP1 MLOAD PUSH8 0xFFFFFFFFFFFFFFFF SWAP2 DUP3 DUP3 GT PUSH2 0x4EF JUMPI ADD SWAP1 DUP3 PUSH1 0x1F DUP4 ADD SLT ISZERO PUSH2 0x4EB JUMPI DUP2 MLOAD SWAP1 DUP2 GT PUSH2 0x4D8 JUMPI SWAP1 DUP10 SWAP3 SWAP2 DUP10 MLOAD SWAP3 PUSH2 0x4B1 DUP10 PUSH1 0x1F NOT PUSH1 0x1F DUP6 ADD AND ADD DUP6 PUSH2 0x15FA JUMP JUMPDEST DUP2 DUP5 MSTORE DUP9 DUP3 DUP5 ADD ADD GT PUSH2 0x4D4 JUMPI PUSH2 0x4CD SWAP2 DUP9 DUP1 DUP6 ADD SWAP2 ADD PUSH2 0x18C8 JUMP JUMPDEST SWAP3 CODESIZE PUSH2 0x3B7 JUMP JUMPDEST DUP4 DUP1 REVERT JUMPDEST PUSH4 0x4E487B71 PUSH1 0xE0 SHL DUP11 MSTORE PUSH1 0x41 DUP6 MSTORE PUSH1 0x24 DUP11 REVERT JUMPDEST DUP10 DUP1 REVERT JUMPDEST DUP11 DUP1 REVERT JUMPDEST DUP9 DUP1 REVERT JUMPDEST DUP9 MLOAD RETURNDATASIZE DUP5 DUP3 RETURNDATACOPY RETURNDATASIZE SWAP1 REVERT JUMPDEST PUSH2 0x520 SWAP1 DUP11 RETURNDATASIZE DUP13 GT PUSH2 0x527 JUMPI JUMPDEST PUSH2 0x518 DUP2 DUP4 PUSH2 0x15FA JUMP JUMPDEST DUP2 ADD SWAP1 PUSH2 0x181F JUMP JUMPDEST POP CODESIZE PUSH2 0x36A JUMP JUMPDEST POP RETURNDATASIZE PUSH2 0x50E JUMP JUMPDEST DUP10 MLOAD RETURNDATASIZE DUP6 DUP3 RETURNDATACOPY RETURNDATASIZE SWAP1 REVERT JUMPDEST DUP7 MLOAD PUSH3 0x461BCD PUSH1 0xE5 SHL DUP2 MSTORE SWAP1 DUP2 ADD DUP6 SWAP1 MSTORE PUSH1 0x22 PUSH1 0x24 DUP3 ADD MSTORE PUSH32 0x4175746F54726561737572793A20696E73756666696369656E742062616C616E PUSH1 0x44 DUP3 ADD MSTORE PUSH2 0x6365 PUSH1 0xF0 SHL PUSH1 0x64 DUP3 ADD MSTORE PUSH1 0x84 SWAP1 REVERT JUMPDEST DUP1 SWAP3 POP DUP8 DUP1 SWAP3 POP RETURNDATASIZE DUP4 GT PUSH2 0x5B0 JUMPI JUMPDEST PUSH2 0x59F DUP2 DUP4 PUSH2 0x15FA JUMP JUMPDEST DUP2 ADD SUB SLT PUSH2 0x4F3 JUMPI DUP5 SWAP1 MLOAD CODESIZE PUSH2 0x316 JUMP JUMPDEST POP RETURNDATASIZE PUSH2 0x595 JUMP JUMPDEST DUP9 MLOAD RETURNDATASIZE DUP12 DUP3 RETURNDATACOPY RETURNDATASIZE SWAP1 REVERT JUMPDEST POP POP CALLVALUE PUSH2 0x148 JUMPI DUP2 PUSH1 0x3 NOT CALLDATASIZE ADD SLT PUSH2 0x148 JUMPI SWAP1 SLOAD SWAP1 MLOAD PUSH1 0x1 PUSH1 0x1 PUSH1 0xA0 SHL SUB SWAP1 SWAP2 AND DUP2 MSTORE PUSH1 0x20 SWAP1 RETURN JUMPDEST POP POP CALLVALUE PUSH2 0x148 JUMPI DUP2 PUSH1 0x3 NOT CALLDATASIZE ADD SLT PUSH2 0x148 JUMPI PUSH1 0x20 SWAP1 PUSH2 0x238 PUSH2 0x1883 JUMP JUMPDEST SWAP1 POP CALLVALUE PUSH2 0x1D6 JUMPI DUP3 PUSH1 0x3 NOT CALLDATASIZE ADD SLT PUSH2 0x1D6 JUMPI DUP3 SLOAD PUSH1 0x1 PUSH1 0x1 PUSH1 0xA0 SHL SUB SWAP4 SWAP1 PUSH2 0x631 SWAP1 DUP6 AND CALLER EQ PUSH2 0x1793 JUMP JUMPDEST PUSH1 0x7 SLOAD SWAP2 DUP3 ISZERO PUSH2 0x8A1 JUMPI DUP2 JUMPDEST PUSH1 0x5 DUP1 SLOAD DUP3 LT ISZERO PUSH2 0x874 JUMPI DUP7 PUSH2 0x652 DUP4 PUSH2 0x1599 JUMP JUMPDEST SWAP2 SWAP1 SLOAD PUSH1 0x3 SWAP3 DUP4 SHL SHR AND SWAP2 DUP8 MLOAD SWAP2 PUSH4 0x70A08231 PUSH1 0xE0 SHL DUP4 MSTORE ADDRESS DUP7 DUP5 ADD MSTORE PUSH1 0x20 SWAP3 PUSH1 0x24 SWAP3 DUP5 DUP3 DUP6 DUP2 DUP10 GAS STATICCALL SWAP2 DUP3 ISZERO PUSH2 0x86A JUMPI DUP10 SWAP3 PUSH2 0x83B JUMPI JUMPDEST POP PUSH7 0x38D7EA4C68000 DUP3 LT PUSH2 0x82D JUMPI DUP9 JUMPDEST DUP11 DUP2 LT PUSH2 0x6B3 JUMPI POP POP POP POP POP POP POP PUSH1 0x1 SWAP1 JUMPDEST ADD PUSH2 0x63D JUMP JUMPDEST DUP10 SWAP13 SWAP5 SWAP6 SWAP7 SWAP13 SWAP12 SWAP8 SWAP12 POP DUP2 SLOAD ISZERO PUSH2 0x81B JUMPI DUP2 DUP11 MSTORE PUSH32 0x36B6384B5ECA791C62761152D0C79BB0604C104A5FB6F4EB0703F3154BB3DB0 SLOAD DUP6 AND DUP14 SUB PUSH2 0x804 JUMPI DUP13 DUP8 DUP5 PUSH1 0x1 SHR SWAP2 JUMPDEST DUP11 DUP14 DUP14 DUP6 PUSH2 0x718 JUMPI JUMPDEST POP POP POP POP POP POP PUSH1 0x1 ADD SWAP12 SWAP6 SWAP5 SWAP4 SWAP12 SWAP11 SWAP7 SWAP11 PUSH2 0x69B JUMP JUMPDEST SWAP2 PUSH2 0x761 SWAP5 SWAP4 SWAP2 DUP7 SWAP4 DUP13 DUP13 PUSH2 0x72C DUP12 PUSH2 0x154C JUMP JUMPDEST SWAP1 SLOAD SWAP2 SHL SHR AND SWAP3 MLOAD SWAP7 DUP8 SWAP6 DUP7 SWAP5 DUP6 SWAP4 PUSH4 0xA9059CBB PUSH1 0xE0 SHL DUP6 MSTORE DUP5 ADD PUSH1 0x20 SWAP1 SWAP4 SWAP3 SWAP2 SWAP4 PUSH1 0x40 DUP2 ADD SWAP5 PUSH1 0x1 DUP1 PUSH1 0xA0 SHL SUB AND DUP2 MSTORE ADD MSTORE JUMP JUMPDEST SUB SWAP3 GAS CALL DUP1 ISZERO PUSH2 0x7FA JUMPI PUSH2 0x7DD JUMPI JUMPDEST POP DUP6 PUSH2 0x77B DUP4 PUSH2 0x154C JUMP JUMPDEST SWAP1 SLOAD SWAP1 DUP8 SHL SHR AND SWAP1 DUP2 EXTCODESIZE ISZERO PUSH2 0x7D9 JUMPI DUP12 SWAP1 DUP9 DUP13 DUP4 DUP14 MLOAD SWAP6 DUP7 SWAP5 DUP6 SWAP4 PUSH3 0x55F9E9 PUSH1 0xE7 SHL DUP6 MSTORE DUP5 ADD MSTORE GAS CALL DUP1 ISZERO PUSH2 0x7CF JUMPI SWAP1 PUSH1 0x1 SWAP3 SWAP2 PUSH2 0x7C0 JUMPI JUMPDEST POP SWAP1 DUP8 DUP15 DUP11 DUP14 DUP14 PUSH2 0x702 JUMP JUMPDEST PUSH2 0x7C9 SWAP1 PUSH2 0x15D0 JUMP JUMPDEST CODESIZE PUSH2 0x7B4 JUMP JUMPDEST DUP10 MLOAD RETURNDATASIZE DUP14 DUP3 RETURNDATACOPY RETURNDATASIZE SWAP1 REVERT JUMPDEST DUP12 DUP1 REVERT JUMPDEST PUSH2 0x7F3 SWAP1 DUP10 RETURNDATASIZE DUP12 GT PUSH2 0x527 JUMPI PUSH2 0x518 DUP2 DUP4 PUSH2 0x15FA JUMP JUMPDEST POP CODESIZE PUSH2 0x770 JUMP JUMPDEST DUP11 MLOAD RETURNDATASIZE DUP15 DUP3 RETURNDATACOPY RETURNDATASIZE SWAP1 REVERT JUMPDEST DUP1 PUSH2 0x813 JUMPI DUP13 DUP8 DUP12 JUMPDEST SWAP2 PUSH2 0x6F9 JUMP JUMPDEST DUP13 DUP8 DUP5 PUSH2 0x80D JUMP JUMPDEST PUSH4 0x4E487B71 PUSH1 0xE0 SHL DUP11 MSTORE PUSH1 0x32 DUP10 MSTORE DUP6 DUP11 REVERT JUMPDEST POP POP POP POP POP POP PUSH1 0x1 SWAP1 PUSH2 0x6AD JUMP JUMPDEST SWAP1 SWAP2 POP DUP5 DUP2 DUP2 RETURNDATASIZE DUP4 GT PUSH2 0x863 JUMPI JUMPDEST PUSH2 0x853 DUP2 DUP4 PUSH2 0x15FA JUMP JUMPDEST DUP2 ADD SUB SLT PUSH2 0x4F3 JUMPI MLOAD SWAP1 CODESIZE PUSH2 0x68A JUMP JUMPDEST POP RETURNDATASIZE PUSH2 0x849 JUMP JUMPDEST DUP12 MLOAD RETURNDATASIZE DUP12 DUP3 RETURNDATACOPY RETURNDATASIZE SWAP1 REVERT JUMPDEST DUP4 PUSH32 0xC306AF072396B02BF3A9782C10065CC7FF4AA842934A43F0B76F997B291237C8 PUSH1 0x20 DUP9 MLOAD TIMESTAMP DUP2 MSTORE LOG1 DUP1 RETURN JUMPDEST PUSH1 0x64 SWAP1 PUSH1 0x20 DUP6 MLOAD SWAP2 PUSH3 0x461BCD PUSH1 0xE5 SHL DUP4 MSTORE DUP3 ADD MSTORE PUSH1 0x1B PUSH1 0x24 DUP3 ADD MSTORE PUSH32 0x4175746F54726561737572793A206E6F20737472617465676965730000000000 PUSH1 0x44 DUP3 ADD MSTORE REVERT JUMPDEST POP POP CALLVALUE PUSH2 0x148 JUMPI PUSH1 0x20 CALLDATASIZE PUSH1 0x3 NOT ADD SLT PUSH2 0x148 JUMPI PUSH1 0x20 SWAP2 DUP2 SWAP1 PUSH1 0x1 PUSH1 0x1 PUSH1 0xA0 SHL SUB PUSH2 0x90C PUSH2 0x1531 JUMP JUMPDEST AND DUP2 MSTORE PUSH1 0x6 DUP5 MSTORE KECCAK256 SLOAD SWAP1 MLOAD SWAP1 DUP2 MSTORE RETURN JUMPDEST SWAP2 SWAP1 POP CALLVALUE PUSH2 0x1D6 JUMPI DUP1 PUSH1 0x3 NOT CALLDATASIZE ADD SLT PUSH2 0x1D6 JUMPI PUSH2 0x937 PUSH2 0x1531 JUMP JUMPDEST PUSH1 0x24 CALLDATALOAD SWAP1 PUSH1 0x1 DUP1 PUSH1 0xA0 SHL SUB AND SWAP2 DUP3 DUP6 MSTORE PUSH1 0x20 DUP5 DUP2 MSTORE PUSH1 0xFF DUP3 DUP8 KECCAK256 SLOAD AND ISZERO PUSH2 0xA5B JUMPI PUSH2 0x963 DUP4 ISZERO ISZERO PUSH2 0x1837 JUMP JUMPDEST PUSH2 0x96B PUSH2 0x163F JUMP JUMPDEST DUP3 MLOAD SWAP6 PUSH4 0x23B872DD PUSH1 0xE0 SHL DUP8 MSTORE CALLER SWAP1 DUP8 ADD MSTORE ADDRESS PUSH1 0x24 DUP8 ADD MSTORE DUP4 PUSH1 0x44 DUP8 ADD MSTORE DUP2 DUP7 PUSH1 0x64 DUP2 DUP11 DUP10 GAS CALL SWAP6 DUP7 ISZERO PUSH2 0xA51 JUMPI PUSH32 0xF5681F9D0DB1B911AC18EE83D515A1CF1051853A9EAE418316A2FDF7DEA427C5 SWAP5 SWAP6 SWAP7 PUSH2 0xA34 JUMPI JUMPDEST POP PUSH1 0x3 SLOAD SWAP1 DUP2 PUSH2 0xA1C JUMPI POP POP DUP4 SWAP1 JUMPDEST CALLER DUP8 MSTORE PUSH1 0x2 DUP2 MSTORE DUP3 DUP8 KECCAK256 PUSH2 0x9E6 DUP4 DUP3 SLOAD PUSH2 0x161C JUMP JUMPDEST SWAP1 SSTORE PUSH2 0x9F4 DUP3 PUSH1 0x3 SLOAD PUSH2 0x161C JUMP JUMPDEST PUSH1 0x3 SSTORE DUP6 DUP8 MSTORE PUSH1 0x6 DUP2 MSTORE DUP3 DUP8 KECCAK256 PUSH2 0xA0C DUP7 DUP3 SLOAD PUSH2 0x161C JUMP JUMPDEST SWAP1 SSTORE DUP3 MLOAD SWAP5 DUP6 MSTORE DUP5 ADD MSTORE CALLER SWAP3 LOG3 DUP1 RETURN JUMPDEST PUSH2 0xA29 PUSH2 0xA2E SWAP3 DUP8 PUSH2 0x17EC JUMP JUMPDEST PUSH2 0x17FF JUMP JUMPDEST SWAP1 PUSH2 0x9D1 JUMP JUMPDEST PUSH2 0xA4A SWAP1 DUP4 RETURNDATASIZE DUP6 GT PUSH2 0x527 JUMPI PUSH2 0x518 DUP2 DUP4 PUSH2 0x15FA JUMP JUMPDEST POP CODESIZE PUSH2 0x9C2 JUMP JUMPDEST DUP4 MLOAD RETURNDATASIZE DUP10 DUP3 RETURNDATACOPY RETURNDATASIZE SWAP1 REVERT JUMPDEST DUP5 SWAP1 PUSH1 0x64 SWAP3 MLOAD SWAP2 PUSH3 0x461BCD PUSH1 0xE5 SHL DUP4 MSTORE DUP3 ADD MSTORE PUSH1 0x1F PUSH1 0x24 DUP3 ADD MSTORE PUSH32 0x4175746F54726561737572793A20756E737570706F7274656420617373657400 PUSH1 0x44 DUP3 ADD MSTORE REVERT JUMPDEST POP POP CALLVALUE PUSH2 0x148 JUMPI PUSH1 0x20 CALLDATASIZE PUSH1 0x3 NOT ADD SLT PUSH2 0x148 JUMPI PUSH1 0x20 SWAP2 DUP2 SWAP1 PUSH1 0x1 PUSH1 0x1 PUSH1 0xA0 SHL SUB PUSH2 0xAC5 PUSH2 0x1531 JUMP JUMPDEST AND DUP2 MSTORE PUSH1 0xA DUP5 MSTORE KECCAK256 SLOAD SWAP1 MLOAD SWAP1 DUP2 MSTORE RETURN JUMPDEST DUP4 DUP4 CALLVALUE PUSH2 0x148 JUMPI DUP2 PUSH1 0x3 NOT CALLDATASIZE ADD SLT PUSH2 0x148 JUMPI CALLER DUP3 MSTORE PUSH1 0x20 SWAP2 PUSH1 0x2 DUP4 MSTORE DUP2 DUP2 KECCAK256 SLOAD SWAP3 DUP4 ISZERO PUSH2 0xDA9 JUMPI DUP2 SWAP5 DUP3 SWAP6 JUMPDEST PUSH1 0x7 SLOAD DUP8 LT ISZERO PUSH2 0xB9C JUMPI DUP4 DUP4 DUP4 PUSH2 0xB17 DUP11 PUSH2 0x154C JUMP JUMPDEST SWAP1 SLOAD DUP10 MLOAD PUSH4 0xE8D991D1 PUSH1 0xE0 SHL DUP2 MSTORE SWAP5 DUP6 SWAP4 SWAP3 DUP5 SWAP3 PUSH1 0x3 SWAP2 SWAP1 SWAP2 SHL SHR PUSH1 0x1 PUSH1 0x1 PUSH1 0xA0 SHL SUB AND GAS CALL SWAP1 DUP2 ISZERO PUSH2 0xB92 JUMPI DUP6 SWAP2 PUSH2 0xB60 JUMPI JUMPDEST POP PUSH2 0xB58 SWAP1 PUSH1 0x1 SWAP3 PUSH2 0x161C JUMP JUMPDEST SWAP7 ADD SWAP6 PUSH2 0xB01 JUMP JUMPDEST SWAP1 POP DUP4 DUP2 DUP2 RETURNDATASIZE DUP4 GT PUSH2 0xB8B JUMPI JUMPDEST PUSH2 0xB77 DUP2 DUP4 PUSH2 0x15FA JUMP JUMPDEST DUP2 ADD SUB SLT PUSH2 0xB87 JUMPI MLOAD PUSH1 0x1 PUSH2 0xB4B JUMP JUMPDEST DUP5 DUP1 REVERT JUMPDEST POP RETURNDATASIZE PUSH2 0xB6D JUMP JUMPDEST DUP7 MLOAD RETURNDATASIZE DUP8 DUP3 RETURNDATACOPY RETURNDATASIZE SWAP1 REVERT JUMPDEST SWAP5 PUSH2 0xBAE PUSH2 0xBB7 SWAP3 SWAP5 SWAP7 PUSH1 0x9 SLOAD PUSH2 0x161C JUMP JUMPDEST DUP1 PUSH1 0x9 SSTORE PUSH2 0x17EC JUMP JUMPDEST SWAP3 PUSH2 0xBC7 PUSH1 0x3 SWAP5 PUSH1 0x3 SLOAD SWAP1 PUSH2 0x17FF JUMP JUMPDEST SWAP3 CALLER DUP7 MSTORE PUSH1 0xA DUP4 MSTORE PUSH2 0xBDC DUP3 DUP8 KECCAK256 SLOAD DUP6 PUSH2 0x17DF JUMP JUMPDEST SWAP4 DUP5 ISZERO PUSH2 0xD67 JUMPI CALLER DUP8 MSTORE PUSH1 0xA DUP5 MSTORE DUP3 DUP8 KECCAK256 SSTORE DUP6 JUMPDEST PUSH1 0x5 SLOAD DUP2 LT ISZERO PUSH2 0xD3C JUMPI DUP4 PUSH1 0x24 PUSH2 0xC06 DUP4 PUSH2 0x1599 JUMP JUMPDEST SWAP1 SLOAD DUP7 MLOAD PUSH4 0x70A08231 PUSH1 0xE0 SHL DUP2 MSTORE ADDRESS DUP8 DUP3 ADD MSTORE PUSH1 0x1 PUSH1 0x1 PUSH1 0xA0 SHL SUB SWAP5 SWAP1 SWAP4 SWAP1 SWAP3 DUP5 SWAP3 DUP4 SWAP2 DUP14 SHL SHR DUP7 AND GAS STATICCALL SWAP1 DUP2 ISZERO PUSH2 0xD32 JUMPI SWAP1 DUP8 SWAP2 DUP11 SWAP2 PUSH2 0xD01 JUMPI JUMPDEST POP LT ISZERO PUSH2 0xC52 JUMPI POP PUSH1 0x1 ADD PUSH2 0xBF0 JUMP JUMPDEST SWAP2 DUP5 SWAP3 PUSH2 0xC9B SWAP8 PUSH2 0xC63 DUP9 SWAP5 PUSH2 0x1599 JUMP JUMPDEST SWAP1 SLOAD SWAP2 SHL SHR AND SWAP1 DUP9 DUP6 MLOAD DUP1 SWAP10 DUP2 SWAP6 DUP3 SWAP5 PUSH4 0xA9059CBB PUSH1 0xE0 SHL DUP5 MSTORE CALLER SWAP1 DUP5 ADD PUSH1 0x20 SWAP1 SWAP4 SWAP3 SWAP2 SWAP4 PUSH1 0x40 DUP2 ADD SWAP5 PUSH1 0x1 DUP1 PUSH1 0xA0 SHL SUB AND DUP2 MSTORE ADD MSTORE JUMP JUMPDEST SUB SWAP3 GAS CALL SWAP4 DUP5 ISZERO PUSH2 0xCF7 JUMPI PUSH32 0xC04825BA3F383B602255D2A13065A68E325C65C9E0ED5D031EA2B06F641873AF SWAP4 SWAP5 PUSH2 0xCDA JUMPI JUMPDEST POP JUMPDEST MLOAD SWAP3 DUP4 MSTORE CALLER SWAP3 LOG2 DUP1 RETURN JUMPDEST PUSH2 0xCF0 SWAP1 DUP4 RETURNDATASIZE DUP6 GT PUSH2 0x527 JUMPI PUSH2 0x518 DUP2 DUP4 PUSH2 0x15FA JUMP JUMPDEST POP DUP6 PUSH2 0xCCE JUMP JUMPDEST DUP2 MLOAD RETURNDATASIZE DUP8 DUP3 RETURNDATACOPY RETURNDATASIZE SWAP1 REVERT JUMPDEST DUP1 SWAP3 POP DUP8 DUP1 SWAP3 POP RETURNDATASIZE DUP4 GT PUSH2 0xD2B JUMPI JUMPDEST PUSH2 0xD1A DUP2 DUP4 PUSH2 0x15FA JUMP JUMPDEST DUP2 ADD SUB SLT PUSH2 0x4F3 JUMPI DUP7 SWAP1 MLOAD DUP11 PUSH2 0xC42 JUMP JUMPDEST POP RETURNDATASIZE PUSH2 0xD10 JUMP JUMPDEST DUP6 MLOAD RETURNDATASIZE DUP12 DUP3 RETURNDATACOPY RETURNDATASIZE SWAP1 REVERT JUMPDEST POP POP PUSH32 0xC04825BA3F383B602255D2A13065A68E325C65C9E0ED5D031EA2B06F641873AF SWAP3 SWAP4 POP PUSH2 0xCD0 JUMP JUMPDEST POP DUP3 PUSH1 0x64 SWAP3 MLOAD SWAP2 PUSH3 0x461BCD PUSH1 0xE5 SHL DUP4 MSTORE DUP3 ADD MSTORE PUSH1 0x1E PUSH1 0x24 DUP3 ADD MSTORE PUSH32 0x4175746F54726561737572793A206E6F7468696E6720746F20636C61696D0000 PUSH1 0x44 DUP3 ADD MSTORE REVERT JUMPDEST DUP5 PUSH1 0x64 SWAP2 DUP5 MLOAD SWAP2 PUSH3 0x461BCD PUSH1 0xE5 SHL DUP4 MSTORE DUP3 ADD MSTORE PUSH1 0x17 PUSH1 0x24 DUP3 ADD MSTORE PUSH32 0x4175746F54726561737572793A206E6F20736861726573000000000000000000 PUSH1 0x44 DUP3 ADD MSTORE REVERT JUMPDEST POP POP CALLVALUE PUSH2 0x148 JUMPI DUP2 PUSH1 0x3 NOT CALLDATASIZE ADD SLT PUSH2 0x148 JUMPI PUSH1 0x20 SWAP1 PUSH1 0x3 SLOAD SWAP1 MLOAD SWAP1 DUP2 MSTORE RETURN JUMPDEST SWAP1 POP DUP3 CALLVALUE PUSH2 0x1D3 JUMPI PUSH1 0x20 SWAP3 DUP4 PUSH1 0x3 NOT CALLDATASIZE ADD SLT PUSH2 0x148 JUMPI DUP3 CALLDATALOAD SWAP1 DUP2 ISZERO PUSH2 0x10B0 JUMPI CALLER DUP4 MSTORE PUSH1 0x2 DUP6 MSTORE DUP2 DUP2 DUP5 KECCAK256 SLOAD LT PUSH2 0x1064 JUMPI PUSH2 0xE4B PUSH2 0xE45 PUSH2 0x163F JUMP JUMPDEST DUP4 PUSH2 0x17EC JUMP JUMPDEST SWAP4 PUSH2 0xE5A PUSH1 0x3 SWAP6 DUP7 SLOAD SWAP1 PUSH2 0x17FF JUMP JUMPDEST SWAP1 CALLER DUP6 MSTORE PUSH1 0x2 DUP8 MSTORE DUP3 DUP6 KECCAK256 PUSH2 0xE70 DUP6 DUP3 SLOAD PUSH2 0x17DF JUMP JUMPDEST SWAP1 SSTORE PUSH2 0xE7D DUP5 DUP8 SLOAD PUSH2 0x17DF JUMP JUMPDEST DUP7 SSTORE DUP5 SWAP6 DUP6 JUMPDEST PUSH1 0x5 SLOAD DUP2 LT ISZERO PUSH2 0x1058 JUMPI DUP9 PUSH1 0x24 PUSH2 0xE99 DUP4 PUSH2 0x1599 JUMP JUMPDEST SWAP1 SLOAD DUP9 MLOAD PUSH4 0x70A08231 PUSH1 0xE0 SHL DUP2 MSTORE ADDRESS DUP9 DUP3 ADD MSTORE PUSH1 0x1 PUSH1 0x1 PUSH1 0xA0 SHL SUB SWAP5 SWAP1 SWAP4 SWAP1 SWAP3 DUP5 SWAP3 DUP4 SWAP2 DUP10 SHL SHR DUP7 AND GAS STATICCALL SWAP1 DUP2 ISZERO PUSH2 0x1016 JUMPI DUP12 SWAP5 SWAP4 SWAP3 SWAP2 DUP8 SWAP2 DUP12 SWAP2 PUSH2 0x1020 JUMPI JUMPDEST POP LT ISZERO PUSH2 0xEEC JUMPI POP PUSH1 0x1 ADD SWAP1 SWAP2 POP PUSH2 0xE83 JUMP JUMPDEST SWAP4 SWAP5 SWAP6 SWAP7 SWAP8 SWAP9 POP SWAP1 SWAP2 POP DUP3 PUSH2 0xF00 DUP3 PUSH2 0x1599 JUMP JUMPDEST SWAP1 SLOAD DUP9 MLOAD PUSH4 0xA9059CBB PUSH1 0xE0 SHL DUP2 MSTORE CALLER DUP9 DUP3 ADD SWAP1 DUP2 MSTORE PUSH1 0x20 DUP2 ADD DUP11 SWAP1 MSTORE SWAP1 SWAP4 DUP14 SWAP4 DUP6 SWAP4 SWAP1 DUP9 SHL SHR AND SWAP1 DUP3 SWAP1 DUP14 SWAP1 DUP3 SWAP1 PUSH1 0x40 ADD SUB SWAP3 GAS CALL DUP1 ISZERO PUSH2 0x1016 JUMPI SWAP1 PUSH2 0xF4C SWAP3 SWAP2 PUSH2 0xFF9 JUMPI JUMPDEST POP PUSH2 0x1599 JUMP JUMPDEST SWAP1 SLOAD SWAP2 SHL SHR AND DUP6 MSTORE PUSH1 0x6 DUP7 MSTORE DUP3 DUP6 KECCAK256 PUSH2 0xF66 DUP4 DUP3 SLOAD PUSH2 0x17DF JUMP JUMPDEST SWAP1 SSTORE PUSH1 0x1 JUMPDEST ISZERO PUSH2 0xFA3 JUMPI POP PUSH32 0x92CCF450A286A957AF52509BC1C9939D1A6A481783E142E41E2499F0BB66EBC6 SWAP3 SWAP4 SWAP5 DUP3 MLOAD SWAP5 DUP6 MSTORE DUP5 ADD MSTORE CALLER SWAP3 LOG2 DUP1 RETURN JUMPDEST DUP3 MLOAD PUSH3 0x461BCD PUSH1 0xE5 SHL DUP2 MSTORE SWAP1 DUP2 ADD DUP7 SWAP1 MSTORE PUSH1 0x2A PUSH1 0x24 DUP3 ADD MSTORE PUSH32 0x4175746F54726561737572793A20696E73756666696369656E74207661756C74 PUSH1 0x44 DUP3 ADD MSTORE PUSH10 0x206C6971756964697479 PUSH1 0xB0 SHL PUSH1 0x64 DUP3 ADD MSTORE PUSH1 0x84 SWAP1 REVERT JUMPDEST PUSH2 0x100F SWAP1 DUP12 RETURNDATASIZE DUP14 GT PUSH2 0x527 JUMPI PUSH2 0x518 DUP2 DUP4 PUSH2 0x15FA JUMP JUMPDEST POP DUP11 PUSH2 0xF46 JUMP JUMPDEST DUP8 MLOAD RETURNDATASIZE DUP12 DUP3 RETURNDATACOPY RETURNDATASIZE SWAP1 REVERT JUMPDEST SWAP3 SWAP4 SWAP5 SWAP6 DUP1 SWAP3 POP DUP4 SWAP2 POP RETURNDATASIZE DUP4 GT PUSH2 0x1051 JUMPI JUMPDEST PUSH2 0x103C DUP2 DUP4 PUSH2 0x15FA JUMP JUMPDEST DUP2 ADD SUB SLT PUSH2 0x4F3 JUMPI SWAP1 DUP6 DUP12 SWAP5 SWAP4 SWAP3 MLOAD DUP14 PUSH2 0xED9 JUMP JUMPDEST POP RETURNDATASIZE PUSH2 0x1032 JUMP JUMPDEST POP POP SWAP1 SWAP2 SWAP3 SWAP4 SWAP5 PUSH2 0xF6B JUMP JUMPDEST MLOAD PUSH3 0x461BCD PUSH1 0xE5 SHL DUP2 MSTORE DUP1 DUP5 ADD DUP6 SWAP1 MSTORE PUSH1 0x21 PUSH1 0x24 DUP3 ADD MSTORE PUSH32 0x4175746F54726561737572793A20696E73756666696369656E74207368617265 PUSH1 0x44 DUP3 ADD MSTORE PUSH1 0x73 PUSH1 0xF8 SHL PUSH1 0x64 DUP3 ADD MSTORE PUSH1 0x84 SWAP1 REVERT JUMPDEST MLOAD PUSH3 0x461BCD PUSH1 0xE5 SHL DUP2 MSTORE DUP1 DUP5 ADD DUP6 SWAP1 MSTORE PUSH1 0x19 PUSH1 0x24 DUP3 ADD MSTORE PUSH32 0x4175746F54726561737572793A207A65726F2073686172657300000000000000 PUSH1 0x44 DUP3 ADD MSTORE PUSH1 0x64 SWAP1 REVERT JUMPDEST SWAP1 POP CALLVALUE PUSH2 0x1D6 JUMPI PUSH1 0x20 CALLDATASIZE PUSH1 0x3 NOT ADD SLT PUSH2 0x1D6 JUMPI PUSH2 0x110D PUSH2 0x1531 JUMP JUMPDEST DUP4 SLOAD PUSH1 0x1 PUSH1 0x1 PUSH1 0xA0 SHL SUB SWAP2 SWAP1 PUSH2 0x1126 SWAP1 DUP4 AND CALLER EQ PUSH2 0x1793 JUMP JUMPDEST AND SWAP2 DUP3 DUP5 MSTORE DUP2 PUSH1 0x20 MSTORE PUSH1 0xFF DUP2 DUP6 KECCAK256 SLOAD AND PUSH2 0x11CC JUMPI DUP3 DUP5 MSTORE DUP2 PUSH1 0x20 MSTORE DUP4 KECCAK256 PUSH1 0x1 PUSH1 0xFF NOT DUP3 SLOAD AND OR SWAP1 SSTORE PUSH1 0x5 SLOAD SWAP1 PUSH1 0x1 PUSH1 0x40 SHL DUP3 LT ISZERO PUSH2 0x11B9 JUMPI POP PUSH2 0x1190 PUSH2 0x1173 DUP3 PUSH1 0x1 DUP6 SWAP5 ADD PUSH1 0x5 SSTORE PUSH2 0x1599 JUMP JUMPDEST DUP2 SWAP4 SWAP2 SLOAD SWAP1 PUSH1 0x3 SHL SWAP2 PUSH1 0x1 DUP1 PUSH1 0xA0 SHL SUB DUP1 SWAP2 AND DUP4 SHL SWAP3 SHL NOT AND OR SWAP1 JUMP JUMPDEST SWAP1 SSTORE PUSH32 0xE3C58EBFB2E7465FBB1C32E6B4F40C3C4F5CA77E8218A386AFF8617831260D7 DUP3 DUP1 LOG2 DUP1 RETURN JUMPDEST PUSH4 0x4E487B71 PUSH1 0xE0 SHL DUP5 MSTORE PUSH1 0x41 SWAP1 MSTORE PUSH1 0x24 DUP4 REVERT JUMPDEST SWAP1 PUSH1 0x20 PUSH1 0x64 SWAP3 MLOAD SWAP2 PUSH3 0x461BCD PUSH1 0xE5 SHL DUP4 MSTORE DUP3 ADD MSTORE PUSH1 0x1F PUSH1 0x24 DUP3 ADD MSTORE PUSH32 0x4175746F54726561737572793A20616C726561647920737570706F7274656400 PUSH1 0x44 DUP3 ADD MSTORE REVERT JUMPDEST SWAP2 SWAP1 POP CALLVALUE PUSH2 0x1D6 JUMPI PUSH1 0x20 CALLDATASIZE PUSH1 0x3 NOT ADD SLT PUSH2 0x1D6 JUMPI DUP2 CALLDATALOAD PUSH1 0x1 PUSH1 0x1 PUSH1 0xA0 SHL SUB DUP2 DUP2 AND SWAP4 SWAP2 DUP5 SWAP1 SUB PUSH2 0xB87 JUMPI PUSH2 0x1247 SWAP1 DUP6 SLOAD AND CALLER EQ PUSH2 0x1793 JUMP JUMPDEST DUP3 DUP5 MSTORE PUSH1 0x8 PUSH1 0x20 MSTORE DUP2 DUP5 KECCAK256 SLOAD PUSH2 0x12C7 JUMPI PUSH1 0x7 SLOAD SWAP1 PUSH1 0x1 PUSH1 0x40 SHL DUP3 LT ISZERO PUSH2 0x12B4 JUMPI POP PUSH2 0x127C PUSH2 0x1173 DUP3 PUSH1 0x1 DUP7 SWAP5 ADD PUSH1 0x7 SSTORE PUSH2 0x154C JUMP JUMPDEST SWAP1 SSTORE PUSH1 0x7 SLOAD SWAP1 DUP3 DUP5 MSTORE PUSH1 0x8 PUSH1 0x20 MSTORE DUP4 KECCAK256 SSTORE PUSH32 0x3F008FD510EAE7A9E7BEE13513D7B83BEF8003D488B5A3D0B0DA4DE71D6846F1 DUP3 DUP1 LOG2 DUP1 RETURN JUMPDEST PUSH4 0x4E487B71 PUSH1 0xE0 SHL DUP6 MSTORE PUSH1 0x41 SWAP1 MSTORE PUSH1 0x24 DUP5 REVERT JUMPDEST PUSH1 0x20 PUSH1 0x64 SWAP3 MLOAD SWAP2 PUSH3 0x461BCD PUSH1 0xE5 SHL DUP4 MSTORE DUP3 ADD MSTORE PUSH1 0x1D PUSH1 0x24 DUP3 ADD MSTORE PUSH32 0x4175746F54726561737572793A20737472617465677920657869737473000000 PUSH1 0x44 DUP3 ADD MSTORE REVERT JUMPDEST POP POP CALLVALUE PUSH2 0x148 JUMPI DUP2 PUSH1 0x3 NOT CALLDATASIZE ADD SLT PUSH2 0x148 JUMPI PUSH1 0x20 SWAP1 PUSH1 0x7 SLOAD SWAP1 MLOAD SWAP1 DUP2 MSTORE RETURN JUMPDEST SWAP2 SWAP1 POP CALLVALUE PUSH2 0x1D6 JUMPI PUSH1 0x20 DUP1 PUSH1 0x3 NOT CALLDATASIZE ADD SLT PUSH2 0x4D4 JUMPI PUSH1 0x1 PUSH1 0x1 PUSH1 0xA0 SHL SUB DUP4 CALLDATALOAD DUP2 DUP2 AND SWAP5 SWAP1 DUP6 SWAP1 SUB PUSH2 0x14D8 JUMPI PUSH2 0x1361 DUP3 DUP8 SLOAD AND CALLER EQ PUSH2 0x1793 JUMP JUMPDEST DUP5 DUP7 MSTORE PUSH1 0x8 DUP4 MSTORE DUP4 DUP7 KECCAK256 SLOAD SWAP1 DUP2 ISZERO PUSH2 0x1497 JUMPI PUSH1 0x7 SLOAD PUSH1 0x0 NOT SWAP3 SWAP1 DUP4 DUP2 ADD SWAP1 DUP2 GT PUSH2 0x1484 JUMPI DUP4 DUP3 ADD SWAP1 DUP3 DUP3 GT PUSH2 0x1471 JUMPI SWAP1 DUP2 DUP7 SWAP3 DUP3 SUB PUSH2 0x140E JUMPI JUMPDEST POP POP POP POP PUSH1 0x7 SLOAD SWAP1 DUP2 ISZERO PUSH2 0x13FB JUMPI POP SWAP2 DUP7 SWAP5 SWAP4 SWAP2 PUSH1 0x8 SWAP4 ADD SWAP1 PUSH2 0x13BD DUP3 PUSH2 0x154C JUMP JUMPDEST SWAP1 SWAP2 DUP3 SLOAD SWAP2 PUSH1 0x3 SHL SHL NOT AND SWAP1 SSTORE PUSH1 0x7 SSTORE DUP5 DUP5 MSTORE MSTORE DUP2 KECCAK256 SSTORE PUSH32 0x9A1DB4B80C32706328728508C941A6B954F31EB5AFFD32F236C1FD405F8FEA4 DUP3 DUP1 LOG2 DUP1 RETURN JUMPDEST PUSH4 0x4E487B71 PUSH1 0xE0 SHL DUP9 MSTORE PUSH1 0x31 SWAP1 MSTORE PUSH1 0x24 DUP8 REVERT JUMPDEST PUSH2 0x142B PUSH2 0x144F PUSH2 0x1456 SWAP4 DUP6 PUSH2 0x1422 DUP6 PUSH2 0x154C JUMP JUMPDEST SWAP5 SWAP1 SLOAD SWAP3 PUSH2 0x154C JUMP JUMPDEST SWAP3 SWAP1 SWAP5 PUSH1 0x3 SHL SHR AND SWAP1 DUP4 SLOAD SWAP1 PUSH1 0x3 SHL SWAP2 PUSH1 0x1 DUP1 PUSH1 0xA0 SHL SUB DUP1 SWAP2 AND DUP4 SHL SWAP3 SHL NOT AND OR SWAP1 JUMP JUMPDEST SWAP1 SSTORE PUSH2 0x154C JUMP JUMPDEST SWAP1 SLOAD SWAP1 PUSH1 0x3 SHL SHR AND DUP9 MSTORE PUSH1 0x8 DUP6 MSTORE DUP6 DUP9 KECCAK256 SSTORE CODESIZE DUP4 DUP2 DUP1 PUSH2 0x139B JUMP JUMPDEST PUSH4 0x4E487B71 PUSH1 0xE0 SHL DUP11 MSTORE PUSH1 0x11 DUP5 MSTORE PUSH1 0x24 DUP11 REVERT JUMPDEST PUSH4 0x4E487B71 PUSH1 0xE0 SHL DUP10 MSTORE PUSH1 0x11 DUP4 MSTORE PUSH1 0x24 DUP10 REVERT JUMPDEST PUSH1 0x64 SWAP1 DUP5 DUP1 DUP8 MLOAD SWAP3 PUSH3 0x461BCD PUSH1 0xE5 SHL DUP5 MSTORE DUP4 ADD MSTORE PUSH1 0x24 DUP3 ADD MSTORE PUSH32 0x4175746F54726561737572793A207374726174656779206E6F7420666F756E64 PUSH1 0x44 DUP3 ADD MSTORE REVERT JUMPDEST DUP6 DUP1 REVERT JUMPDEST POP POP CALLVALUE PUSH2 0x148 JUMPI PUSH1 0x20 CALLDATASIZE PUSH1 0x3 NOT ADD SLT PUSH2 0x148 JUMPI PUSH1 0x20 SWAP2 DUP2 SWAP1 PUSH1 0x1 PUSH1 0x1 PUSH1 0xA0 SHL SUB PUSH2 0x1504 PUSH2 0x1531 JUMP JUMPDEST AND DUP2 MSTORE PUSH1 0x8 DUP5 MSTORE KECCAK256 SLOAD SWAP1 MLOAD SWAP1 DUP2 MSTORE RETURN JUMPDEST POP POP CALLVALUE PUSH2 0x148 JUMPI DUP2 PUSH1 0x3 NOT CALLDATASIZE ADD SLT PUSH2 0x148 JUMPI PUSH1 0x20 SWAP1 PUSH2 0x238 PUSH2 0x163F JUMP JUMPDEST PUSH1 0x4 CALLDATALOAD SWAP1 PUSH1 0x1 PUSH1 0x1 PUSH1 0xA0 SHL SUB DUP3 AND DUP3 SUB PUSH2 0x1547 JUMPI JUMP JUMPDEST PUSH1 0x0 DUP1 REVERT JUMPDEST PUSH1 0x7 SLOAD DUP2 LT ISZERO PUSH2 0x1583 JUMPI PUSH1 0x7 PUSH1 0x0 MSTORE PUSH32 0xA66CC928B5EDB82AF9BD49922954155AB7B0942694BEA4CE44661D9A8736C688 ADD SWAP1 PUSH1 0x0 SWAP1 JUMP JUMPDEST PUSH4 0x4E487B71 PUSH1 0xE0 SHL PUSH1 0x0 MSTORE PUSH1 0x32 PUSH1 0x4 MSTORE PUSH1 0x24 PUSH1 0x0 REVERT JUMPDEST PUSH1 0x5 SLOAD DUP2 LT ISZERO PUSH2 0x1583 JUMPI PUSH1 0x5 PUSH1 0x0 MSTORE PUSH32 0x36B6384B5ECA791C62761152D0C79BB0604C104A5FB6F4EB0703F3154BB3DB0 ADD SWAP1 PUSH1 0x0 SWAP1 JUMP JUMPDEST PUSH8 0xFFFFFFFFFFFFFFFF DUP2 GT PUSH2 0x15E4 JUMPI PUSH1 0x40 MSTORE JUMP JUMPDEST PUSH4 0x4E487B71 PUSH1 0xE0 SHL PUSH1 0x0 MSTORE PUSH1 0x41 PUSH1 0x4 MSTORE PUSH1 0x24 PUSH1 0x0 REVERT JUMPDEST SWAP1 PUSH1 0x1F DUP1 NOT SWAP2 ADD AND DUP2 ADD SWAP1 DUP2 LT PUSH8 0xFFFFFFFFFFFFFFFF DUP3 GT OR PUSH2 0x15E4 JUMPI PUSH1 0x40 MSTORE JUMP JUMPDEST SWAP2 SWAP1 DUP3 ADD DUP1 SWAP3 GT PUSH2 0x1629 JUMPI JUMP JUMPDEST PUSH4 0x4E487B71 PUSH1 0xE0 SHL PUSH1 0x0 MSTORE PUSH1 0x11 PUSH1 0x4 MSTORE PUSH1 0x24 PUSH1 0x0 REVERT JUMPDEST PUSH1 0x0 DUP1 PUSH1 0x5 SLOAD JUMPDEST DUP1 DUP3 LT PUSH2 0x16FC JUMPI POP POP PUSH1 0x0 PUSH1 0x7 SLOAD JUMPDEST DUP1 DUP3 LT PUSH2 0x1661 JUMPI POP POP SWAP1 JUMP JUMPDEST SWAP1 SWAP2 PUSH2 0x166C DUP4 PUSH2 0x154C JUMP JUMPDEST SWAP1 SLOAD PUSH1 0x40 DUP1 MLOAD PUSH4 0x6A61F75 PUSH1 0xE5 SHL DUP2 MSTORE SWAP1 SWAP3 SWAP1 SWAP2 PUSH1 0x20 SWAP2 DUP3 SWAP2 DUP5 SWAP2 PUSH1 0x4 SWAP2 DUP4 SWAP2 PUSH1 0x3 SHL SHR PUSH1 0x1 PUSH1 0x1 PUSH1 0xA0 SHL SUB AND GAS STATICCALL SWAP3 DUP4 ISZERO PUSH2 0x16F2 JUMPI POP PUSH1 0x0 SWAP3 PUSH2 0x16C1 JUMPI JUMPDEST POP POP PUSH2 0x16B9 SWAP1 PUSH1 0x1 SWAP3 PUSH2 0x161C JUMP JUMPDEST SWAP3 ADD SWAP1 PUSH2 0x1655 JUMP JUMPDEST DUP2 DUP2 SWAP4 SWAP3 SWAP4 RETURNDATASIZE DUP4 GT PUSH2 0x16EB JUMPI JUMPDEST PUSH2 0x16D8 DUP2 DUP4 PUSH2 0x15FA JUMP JUMPDEST DUP2 ADD SUB SLT PUSH2 0x1D3 JUMPI POP MLOAD DUP2 PUSH2 0x16B9 PUSH2 0x16AB JUMP JUMPDEST POP RETURNDATASIZE PUSH2 0x16CE JUMP JUMPDEST MLOAD RETURNDATASIZE PUSH1 0x0 DUP3 RETURNDATACOPY RETURNDATASIZE SWAP1 REVERT JUMPDEST SWAP1 SWAP2 PUSH2 0x1707 DUP4 PUSH2 0x1599 JUMP JUMPDEST SWAP1 SLOAD PUSH1 0x40 DUP1 MLOAD PUSH4 0x70A08231 PUSH1 0xE0 SHL DUP2 MSTORE ADDRESS PUSH1 0x4 DUP3 ADD MSTORE SWAP1 SWAP3 SWAP1 SWAP2 PUSH1 0x20 SWAP2 DUP3 SWAP2 DUP5 SWAP2 PUSH1 0x24 SWAP2 DUP4 SWAP2 PUSH1 0x3 SHL SHR PUSH1 0x1 PUSH1 0x1 PUSH1 0xA0 SHL SUB AND GAS STATICCALL SWAP3 DUP4 ISZERO PUSH2 0x16F2 JUMPI POP PUSH1 0x0 SWAP3 PUSH2 0x1762 JUMPI JUMPDEST POP POP PUSH2 0x175A SWAP1 PUSH1 0x1 SWAP3 PUSH2 0x161C JUMP JUMPDEST SWAP3 ADD SWAP1 PUSH2 0x1646 JUMP JUMPDEST DUP2 DUP2 SWAP4 SWAP3 SWAP4 RETURNDATASIZE DUP4 GT PUSH2 0x178C JUMPI JUMPDEST PUSH2 0x1779 DUP2 DUP4 PUSH2 0x15FA JUMP JUMPDEST DUP2 ADD SUB SLT PUSH2 0x1D3 JUMPI POP MLOAD DUP2 PUSH2 0x175A PUSH2 0x174C JUMP JUMPDEST POP RETURNDATASIZE PUSH2 0x176F JUMP JUMPDEST ISZERO PUSH2 0x179A JUMPI JUMP JUMPDEST PUSH1 0x40 MLOAD PUSH3 0x461BCD PUSH1 0xE5 SHL DUP2 MSTORE PUSH1 0x20 PUSH1 0x4 DUP3 ADD MSTORE PUSH1 0x17 PUSH1 0x24 DUP3 ADD MSTORE PUSH32 0x4175746F54726561737572793A206E6F74206F776E6572000000000000000000 PUSH1 0x44 DUP3 ADD MSTORE PUSH1 0x64 SWAP1 REVERT JUMPDEST SWAP2 SWAP1 DUP3 SUB SWAP2 DUP3 GT PUSH2 0x1629 JUMPI JUMP JUMPDEST DUP2 DUP2 MUL SWAP3 SWAP2 DUP2 ISZERO SWAP2 DUP5 DIV EQ OR ISZERO PUSH2 0x1629 JUMPI JUMP JUMPDEST DUP2 ISZERO PUSH2 0x1809 JUMPI DIV SWAP1 JUMP JUMPDEST PUSH4 0x4E487B71 PUSH1 0xE0 SHL PUSH1 0x0 MSTORE PUSH1 0x12 PUSH1 0x4 MSTORE PUSH1 0x24 PUSH1 0x0 REVERT JUMPDEST SWAP1 DUP2 PUSH1 0x20 SWAP2 SUB SLT PUSH2 0x1547 JUMPI MLOAD DUP1 ISZERO ISZERO DUP2 SUB PUSH2 0x1547 JUMPI SWAP1 JUMP JUMPDEST ISZERO PUSH2 0x183E JUMPI JUMP JUMPDEST PUSH1 0x40 MLOAD PUSH3 0x461BCD PUSH1 0xE5 SHL DUP2 MSTORE PUSH1 0x20 PUSH1 0x4 DUP3 ADD MSTORE PUSH1 0x19 PUSH1 0x24 DUP3 ADD MSTORE PUSH32 0x4175746F54726561737572793A207A65726F20616D6F756E7400000000000000 PUSH1 0x44 DUP3 ADD MSTORE PUSH1 0x64 SWAP1 REVERT JUMPDEST PUSH1 0x3 SLOAD DUP1 ISZERO PUSH2 0x18BB JUMPI PUSH2 0x1894 PUSH2 0x163F JUMP JUMPDEST SWAP1 PUSH8 0xDE0B6B3A7640000 SWAP2 DUP3 DUP2 MUL SWAP3 DUP2 DUP5 DIV EQ SWAP1 ISZERO OR ISZERO PUSH2 0x1629 JUMPI PUSH2 0x18B8 SWAP2 PUSH2 0x17FF JUMP JUMPDEST SWAP1 JUMP JUMPDEST POP PUSH8 0xDE0B6B3A7640000 SWAP1 JUMP JUMPDEST PUSH1 0x0 JUMPDEST DUP4 DUP2 LT PUSH2 0x18DB JUMPI POP POP PUSH1 0x0 SWAP2 ADD MSTORE JUMP JUMPDEST DUP2 DUP2 ADD MLOAD DUP4 DUP3 ADD MSTORE PUSH1 0x20 ADD PUSH2 0x18CB JUMP JUMPDEST SWAP1 PUSH1 0x20 SWAP2 PUSH2 0x1904 DUP2 MLOAD DUP1 SWAP3 DUP2 DUP6 MSTORE DUP6 DUP1 DUP7 ADD SWAP2 ADD PUSH2 0x18C8 JUMP JUMPDEST PUSH1 0x1F ADD PUSH1 0x1F NOT AND ADD ADD SWAP1 JUMP JUMPDEST PUSH1 0x3 SLOAD DUP1 ISZERO DUP1 ISZERO PUSH2 0x1975 JUMPI JUMPDEST PUSH2 0x196E JUMPI PUSH2 0x1949 PUSH1 0x9 SLOAD SWAP3 PUSH1 0x1 DUP1 PUSH1 0xA0 SHL SUB AND SWAP2 PUSH2 0xA29 PUSH1 0x0 SWAP5 DUP5 DUP7 MSTORE PUSH1 0x2 PUSH1 0x20 MSTORE PUSH1 0x40 DUP7 KECCAK256 SLOAD SWAP1 PUSH2 0x17EC JUMP JUMPDEST SWAP1 DUP3 MSTORE PUSH1 0xA PUSH1 0x20 MSTORE PUSH1 0x40 DUP3 KECCAK256 SLOAD SWAP1 DUP2 DUP2 GT ISZERO PUSH2 0x1969 JUMPI PUSH2 0x18B8 SWAP3 POP PUSH2 0x17DF JUMP JUMPDEST POP POP SWAP1 JUMP JUMPDEST POP POP PUSH1 0x0 SWAP1 JUMP JUMPDEST POP PUSH1 0x1 PUSH1 0x1 PUSH1 0xA0 SHL SUB DUP3 AND PUSH1 0x0 SWAP1 DUP2 MSTORE PUSH1 0x2 PUSH1 0x20 MSTORE PUSH1 0x40 SWAP1 KECCAK256 SLOAD ISZERO PUSH2 0x191C JUMP INVALID LOG2 PUSH5 0x6970667358 0x22 SLT KECCAK256 DUP1 BLOBHASH CALLDATACOPY COINBASE DUP8 ADD 0xE0 0xF CHAINID DUP16 EXP DUP14 LOG1 STATICCALL 0xCD XOR DUP15 0xBA 0xF8 COINBASE CALLVALUE XOR PUSH6 0x78670A54B289 PUSH6 0x408F64736F6C PUSH4 0x43000818 STOP CALLER "},"methodIdentifiers":{"addAsset(address)":"298410e5","addStrategy(address)":"223e5479","assetCount()":"eafe7a74","assetList(uint256)":"a0b4b301","claimYield()":"406cf229","deposit(address,uint256)":"47e7ef24","owner()":"8da5cb5b","pendingYield(address)":"c7bf1980","rebalance()":"7d7c2a1c","removeStrategy(address)":"175188e8","sharePrice()":"87269729","shares(address)":"ce7c2ac2","strategies(uint256)":"d574ea3d","strategyCount()":"22068b44","strategyIndex(address)":"11451526","supportedAssets(address)":"bd81579e","totalAssets()":"01e1d114","totalDeposited(address)":"53055481","totalShares()":"3a98ef39","totalYieldAccrued()":"ee6c3bf2","triggerXCMTransfer(address,uint256)":"91731c66","withdraw(uint256)":"2e1a7d4d","xcmRouter()":"e1d20600","yieldClaimed(address)":"45bba697"}}}}}