{"src/strategies/NativeStakingStrategy.sol":{"NativeStakingStrategy":{"abi":[{"inputs":[{"internalType":"address","name":"_router","type":"address"}],"stateMutability":"nonpayable","type":"constructor"},{"inputs":[],"name":"accruedYield","outputs":[{"internalType":"uint256","name":"","type":"uint256"}],"stateMutability":"view","type":"function"},{"inputs":[{"internalType":"uint256","name":"amount","type":"uint256"}],"name":"divest","outputs":[],"stateMutability":"nonpayable","type":"function"},{"inputs":[],"name":"getPendingRewards","outputs":[{"internalType":"uint256","name":"","type":"uint256"}],"stateMutability":"view","type":"function"},{"inputs":[],"name":"harvestYield","outputs":[{"internalType":"uint256","name":"","type":"uint256"}],"stateMutability":"nonpayable","type":"function"},{"inputs":[{"internalType":"uint256","name":"amount","type":"uint256"}],"name":"invest","outputs":[],"stateMutability":"nonpayable","type":"function"},{"inputs":[],"name":"invested","outputs":[{"internalType":"uint256","name":"","type":"uint256"}],"stateMutability":"view","type":"function"},{"inputs":[],"name":"router","outputs":[{"internalType":"contract XCMRouter","name":"","type":"address"}],"stateMutability":"view","type":"function"},{"inputs":[{"internalType":"address[]","name":"_validators","type":"address[]"}],"name":"setValidators","outputs":[],"stateMutability":"nonpayable","type":"function"},{"inputs":[],"name":"totalValue","outputs":[{"internalType":"uint256","name":"","type":"uint256"}],"stateMutability":"view","type":"function"},{"inputs":[{"internalType":"uint256","name":"","type":"uint256"}],"name":"validators","outputs":[{"internalType":"address","name":"","type":"address"}],"stateMutability":"view","type":"function"}],"evm":{"bytecode":{"linkReferences":{},"object":"60a0346100f357601f61091338819003918201601f19168301916001600160401b038311848410176100f8578084926020946040528339810103126100f357516001600160a01b038116908190036100f3576080526000805490680100000000000000008210156100df57600182018082558210156100cb57808052602090200180546001600160a01b0319166001179055604051610804908161010f823960805181818160a60152818161015c01528181610296015281816103b3015281816104d401526106a10152f35b634e487b7160e01b81526032600452602490fd5b634e487b7160e01b81526041600452602490fd5b600080fd5b634e487b7160e01b600052604160045260246000fdfe608060408181526004918236101561001657600080fd5b600092833560e01c9182632afcf480146104bb5750816335aa2e44146104785781634019fb33146104595781638ca17995146103995781639300c92614610211578163cafb2202146101f2578163d4c3eea01461012e57508063d9621f9e1461010b578063e8d991d1146100d95763f887ea401461009357600080fd5b346100d557816003193601126100d557517f00000000000000000000000000000000000000000000000000000000000000006001600160a01b03168152602090f35b5080fd5b50346100d557816003193601126100d5576020906100f5610681565b906101028260025461065e565b60025551908152f35b50346100d557816003193601126100d557602090610127610681565b9051908152f35b9050346101ee57826003193601126101ee578151638bac5ab560e01b815230918101919091526020816024817f00000000000000000000000000000000000000000000000000000000000000006001600160a01b03165afa9283156101e357926101a8575b506101276020926101a2610681565b9061065e565b91506020823d6020116101db575b816101c3602093836105e1565b810103126101d657905190610127610193565b600080fd5b3d91506101b6565b8251903d90823e3d90fd5b8280fd5b5050346100d557816003193601126100d5576020906001549051908152f35b839150346100d55760209260206003193601126101ee5781359367ffffffffffffffff9081861161039557366023870112156103955785840135918211610395573660248360051b8801011161039557680100000000000000008211610382578454828655808310610354575b5060248596019085805285915b83831061031e5750507f00000000000000000000000000000000000000000000000000000000000000006001600160a01b0316915050803b1561031957815163a58be0c360e01b815292849184918290849082906102ea908201610603565b03925af190811561031057506102fd5750f35b610306906105b7565b61030d5780f35b80fd5b513d84823e3d90fd5b505050fd5b8035926001600160a01b038416840361035057826001920193816000805160206107af8339815191520155019161028b565b8780fd5b826000805160206107af83398151915291820191015b818110610377575061027e565b86815560010161036a565b634e487b7160e01b855260418452602485fd5b8480fd5b9050346101ee5760203660031901126101ee5780359183907f00000000000000000000000000000000000000000000000000000000000000006001600160a01b031690813b156101ee5782809260248351809581936359baf02560e11b83528a8a8401525af19081156103105750610445575b5050600154918083101561041e578380f35b820391821161043257506001553880808380f35b634e487b7160e01b835260119052602482fd5b61044e906105b7565b6101ee57823861040c565b5050346100d557816003193601126100d5576020906002549051908152f35b9050346101ee5760203660031901126101ee573582548110156101ee57826020935260018060a01b03906000805160206107af8339815191520154169051908152f35b8491843461058e57602036600319011261058e578135927f00000000000000000000000000000000000000000000000000000000000000006001600160a01b031690813b156105b3576311a9063160e31b8152838101859052858160248183865af180156105a957610592575b5090818593923b1561058e57815163a58be0c360e01b81529284918491829084908290610556908201610603565b03925af1908115610310575061057a575b506105748260015461065e565b60015580f35b610583906105b7565b6100d5578183610567565b8380fd5b6105a09095919392956105b7565b93909185610528565b83513d88823e3d90fd5b8580fd5b67ffffffffffffffff81116105cb57604052565b634e487b7160e01b600052604160045260246000fd5b90601f8019910116810190811067ffffffffffffffff8211176105cb57604052565b602060406020830192602081526000548094520191600080526000805160206107af833981519152916000905b82821061063e575050505090565b83546001600160a01b031685529384019360019384019390910190610630565b9190820180921161066b57565b634e487b7160e01b600052601160045260246000fd5b604051630cb9f3ad60e01b81526020906001600160a01b039082816004817f000000000000000000000000000000000000000000000000000000000000000086165afa8015610769578391600091610775575b50602460405180948193630700037d60e01b8352306004840152165afa9182156107695760009261073b575b5050801580610730575b6107115790565b5060015460328102908082046032149015171561066b57612710900490565b50600154151561070a565b90809250813d8311610762575b61075281836105e1565b810103126101d657513880610700565b503d610748565b6040513d6000823e3d90fd5b909181813d83116107a7575b61078b81836105e1565b810103126100d5575190828216820361030d57508290386106d4565b503d61078156fe290decd9548b62a8d60345a988386fc84ba6bc95484008f6362f93160ef3e563a26469706673582212202e2e108266846e21b9999130599d53cbf23c043812e9d4bf11e80070286cc72a64736f6c63430008180033","opcodes":"PUSH1 0xA0 CALLVALUE PUSH2 0xF3 JUMPI PUSH1 0x1F PUSH2 0x913 CODESIZE DUP2 SWAP1 SUB SWAP2 DUP3 ADD PUSH1 0x1F NOT AND DUP4 ADD SWAP2 PUSH1 0x1 PUSH1 0x1 PUSH1 0x40 SHL SUB DUP4 GT DUP5 DUP5 LT OR PUSH2 0xF8 JUMPI DUP1 DUP5 SWAP3 PUSH1 0x20 SWAP5 PUSH1 0x40 MSTORE DUP4 CODECOPY DUP2 ADD SUB SLT PUSH2 0xF3 JUMPI MLOAD PUSH1 0x1 PUSH1 0x1 PUSH1 0xA0 SHL SUB DUP2 AND SWAP1 DUP2 SWAP1 SUB PUSH2 0xF3 JUMPI PUSH1 0x80 MSTORE PUSH1 0x0 DUP1 SLOAD SWAP1 PUSH9 0x10000000000000000 DUP3 LT ISZERO PUSH2 0xDF JUMPI PUSH1 0x1 DUP3 ADD DUP1 DUP3 SSTORE DUP3 LT ISZERO PUSH2 0xCB JUMPI DUP1 DUP1 MSTORE PUSH1 0x20 SWAP1 KECCAK256 ADD DUP1 SLOAD PUSH1 0x1 PUSH1 0x1 PUSH1 0xA0 SHL SUB NOT AND PUSH1 0x1 OR SWAP1 SSTORE PUSH1 0x40 MLOAD PUSH2 0x804 SWAP1 DUP2 PUSH2 0x10F DUP3 CODECOPY PUSH1 0x80 MLOAD DUP2 DUP2 DUP2 PUSH1 0xA6 ADD MSTORE DUP2 DUP2 PUSH2 0x15C ADD MSTORE DUP2 DUP2 PUSH2 0x296 ADD MSTORE DUP2 DUP2 PUSH2 0x3B3 ADD MSTORE DUP2 DUP2 PUSH2 0x4D4 ADD MSTORE PUSH2 0x6A1 ADD MSTORE RETURN JUMPDEST PUSH4 0x4E487B71 PUSH1 0xE0 SHL DUP2 MSTORE PUSH1 0x32 PUSH1 0x4 MSTORE PUSH1 0x24 SWAP1 REVERT JUMPDEST PUSH4 0x4E487B71 PUSH1 0xE0 SHL DUP2 MSTORE PUSH1 0x41 PUSH1 0x4 MSTORE PUSH1 0x24 SWAP1 REVERT JUMPDEST PUSH1 0x0 DUP1 REVERT JUMPDEST PUSH4 0x4E487B71 PUSH1 0xE0 SHL PUSH1 0x0 MSTORE PUSH1 0x41 PUSH1 0x4 MSTORE PUSH1 0x24 PUSH1 0x0 REVERT INVALID PUSH1 0x80 PUSH1 0x40 DUP2 DUP2 MSTORE PUSH1 0x4 SWAP2 DUP3 CALLDATASIZE LT ISZERO PUSH2 0x16 JUMPI PUSH1 0x0 DUP1 REVERT JUMPDEST PUSH1 0x0 SWAP3 DUP4 CALLDATALOAD PUSH1 0xE0 SHR SWAP2 DUP3 PUSH4 0x2AFCF480 EQ PUSH2 0x4BB JUMPI POP DUP2 PUSH4 0x35AA2E44 EQ PUSH2 0x478 JUMPI DUP2 PUSH4 0x4019FB33 EQ PUSH2 0x459 JUMPI DUP2 PUSH4 0x8CA17995 EQ PUSH2 0x399 JUMPI DUP2 PUSH4 0x9300C926 EQ PUSH2 0x211 JUMPI DUP2 PUSH4 0xCAFB2202 EQ PUSH2 0x1F2 JUMPI DUP2 PUSH4 0xD4C3EEA0 EQ PUSH2 0x12E JUMPI POP DUP1 PUSH4 0xD9621F9E EQ PUSH2 0x10B JUMPI DUP1 PUSH4 0xE8D991D1 EQ PUSH2 0xD9 JUMPI PUSH4 0xF887EA40 EQ PUSH2 0x93 JUMPI PUSH1 0x0 DUP1 REVERT JUMPDEST CALLVALUE PUSH2 0xD5 JUMPI DUP2 PUSH1 0x3 NOT CALLDATASIZE ADD SLT PUSH2 0xD5 JUMPI MLOAD PUSH32 0x0 PUSH1 0x1 PUSH1 0x1 PUSH1 0xA0 SHL SUB AND DUP2 MSTORE PUSH1 0x20 SWAP1 RETURN JUMPDEST POP DUP1 REVERT JUMPDEST POP CALLVALUE PUSH2 0xD5 JUMPI DUP2 PUSH1 0x3 NOT CALLDATASIZE ADD SLT PUSH2 0xD5 JUMPI PUSH1 0x20 SWAP1 PUSH2 0xF5 PUSH2 0x681 JUMP JUMPDEST SWAP1 PUSH2 0x102 DUP3 PUSH1 0x2 SLOAD PUSH2 0x65E JUMP JUMPDEST PUSH1 0x2 SSTORE MLOAD SWAP1 DUP2 MSTORE RETURN JUMPDEST POP CALLVALUE PUSH2 0xD5 JUMPI DUP2 PUSH1 0x3 NOT CALLDATASIZE ADD SLT PUSH2 0xD5 JUMPI PUSH1 0x20 SWAP1 PUSH2 0x127 PUSH2 0x681 JUMP JUMPDEST SWAP1 MLOAD SWAP1 DUP2 MSTORE RETURN JUMPDEST SWAP1 POP CALLVALUE PUSH2 0x1EE JUMPI DUP3 PUSH1 0x3 NOT CALLDATASIZE ADD SLT PUSH2 0x1EE JUMPI DUP2 MLOAD PUSH4 0x8BAC5AB5 PUSH1 0xE0 SHL DUP2 MSTORE ADDRESS SWAP2 DUP2 ADD SWAP2 SWAP1 SWAP2 MSTORE PUSH1 0x20 DUP2 PUSH1 0x24 DUP2 PUSH32 0x0 PUSH1 0x1 PUSH1 0x1 PUSH1 0xA0 SHL SUB AND GAS STATICCALL SWAP3 DUP4 ISZERO PUSH2 0x1E3 JUMPI SWAP3 PUSH2 0x1A8 JUMPI JUMPDEST POP PUSH2 0x127 PUSH1 0x20 SWAP3 PUSH2 0x1A2 PUSH2 0x681 JUMP JUMPDEST SWAP1 PUSH2 0x65E JUMP JUMPDEST SWAP2 POP PUSH1 0x20 DUP3 RETURNDATASIZE PUSH1 0x20 GT PUSH2 0x1DB JUMPI JUMPDEST DUP2 PUSH2 0x1C3 PUSH1 0x20 SWAP4 DUP4 PUSH2 0x5E1 JUMP JUMPDEST DUP2 ADD SUB SLT PUSH2 0x1D6 JUMPI SWAP1 MLOAD SWAP1 PUSH2 0x127 PUSH2 0x193 JUMP JUMPDEST PUSH1 0x0 DUP1 REVERT JUMPDEST RETURNDATASIZE SWAP2 POP PUSH2 0x1B6 JUMP JUMPDEST DUP3 MLOAD SWAP1 RETURNDATASIZE SWAP1 DUP3 RETURNDATACOPY RETURNDATASIZE SWAP1 REVERT JUMPDEST DUP3 DUP1 REVERT JUMPDEST POP POP CALLVALUE PUSH2 0xD5 JUMPI DUP2 PUSH1 0x3 NOT CALLDATASIZE ADD SLT PUSH2 0xD5 JUMPI PUSH1 0x20 SWAP1 PUSH1 0x1 SLOAD SWAP1 MLOAD SWAP1 DUP2 MSTORE RETURN JUMPDEST DUP4 SWAP2 POP CALLVALUE PUSH2 0xD5 JUMPI PUSH1 0x20 SWAP3 PUSH1 0x20 PUSH1 0x3 NOT CALLDATASIZE ADD SLT PUSH2 0x1EE JUMPI DUP2 CALLDATALOAD SWAP4 PUSH8 0xFFFFFFFFFFFFFFFF SWAP1 DUP2 DUP7 GT PUSH2 0x395 JUMPI CALLDATASIZE PUSH1 0x23 DUP8 ADD SLT ISZERO PUSH2 0x395 JUMPI DUP6 DUP5 ADD CALLDATALOAD SWAP2 DUP3 GT PUSH2 0x395 JUMPI CALLDATASIZE PUSH1 0x24 DUP4 PUSH1 0x5 SHL DUP9 ADD ADD GT PUSH2 0x395 JUMPI PUSH9 0x10000000000000000 DUP3 GT PUSH2 0x382 JUMPI DUP5 SLOAD DUP3 DUP7 SSTORE DUP1 DUP4 LT PUSH2 0x354 JUMPI JUMPDEST POP PUSH1 0x24 DUP6 SWAP7 ADD SWAP1 DUP6 DUP1 MSTORE DUP6 SWAP2 JUMPDEST DUP4 DUP4 LT PUSH2 0x31E JUMPI POP POP PUSH32 0x0 PUSH1 0x1 PUSH1 0x1 PUSH1 0xA0 SHL SUB AND SWAP2 POP POP DUP1 EXTCODESIZE ISZERO PUSH2 0x319 JUMPI DUP2 MLOAD PUSH4 0xA58BE0C3 PUSH1 0xE0 SHL DUP2 MSTORE SWAP3 DUP5 SWAP2 DUP5 SWAP2 DUP3 SWAP1 DUP5 SWAP1 DUP3 SWAP1 PUSH2 0x2EA SWAP1 DUP3 ADD PUSH2 0x603 JUMP JUMPDEST SUB SWAP3 GAS CALL SWAP1 DUP2 ISZERO PUSH2 0x310 JUMPI POP PUSH2 0x2FD JUMPI POP RETURN JUMPDEST PUSH2 0x306 SWAP1 PUSH2 0x5B7 JUMP JUMPDEST PUSH2 0x30D JUMPI DUP1 RETURN JUMPDEST DUP1 REVERT JUMPDEST MLOAD RETURNDATASIZE DUP5 DUP3 RETURNDATACOPY RETURNDATASIZE SWAP1 REVERT JUMPDEST POP POP POP REVERT JUMPDEST DUP1 CALLDATALOAD SWAP3 PUSH1 0x1 PUSH1 0x1 PUSH1 0xA0 SHL SUB DUP5 AND DUP5 SUB PUSH2 0x350 JUMPI DUP3 PUSH1 0x1 SWAP3 ADD SWAP4 DUP2 PUSH1 0x0 DUP1 MLOAD PUSH1 0x20 PUSH2 0x7AF DUP4 CODECOPY DUP2 MLOAD SWAP2 MSTORE ADD SSTORE ADD SWAP2 PUSH2 0x28B JUMP JUMPDEST DUP8 DUP1 REVERT JUMPDEST DUP3 PUSH1 0x0 DUP1 MLOAD PUSH1 0x20 PUSH2 0x7AF DUP4 CODECOPY DUP2 MLOAD SWAP2 MSTORE SWAP2 DUP3 ADD SWAP2 ADD JUMPDEST DUP2 DUP2 LT PUSH2 0x377 JUMPI POP PUSH2 0x27E JUMP JUMPDEST DUP7 DUP2 SSTORE PUSH1 0x1 ADD PUSH2 0x36A JUMP JUMPDEST PUSH4 0x4E487B71 PUSH1 0xE0 SHL DUP6 MSTORE PUSH1 0x41 DUP5 MSTORE PUSH1 0x24 DUP6 REVERT JUMPDEST DUP5 DUP1 REVERT JUMPDEST SWAP1 POP CALLVALUE PUSH2 0x1EE JUMPI PUSH1 0x20 CALLDATASIZE PUSH1 0x3 NOT ADD SLT PUSH2 0x1EE JUMPI DUP1 CALLDATALOAD SWAP2 DUP4 SWAP1 PUSH32 0x0 PUSH1 0x1 PUSH1 0x1 PUSH1 0xA0 SHL SUB AND SWAP1 DUP2 EXTCODESIZE ISZERO PUSH2 0x1EE JUMPI DUP3 DUP1 SWAP3 PUSH1 0x24 DUP4 MLOAD DUP1 SWAP6 DUP2 SWAP4 PUSH4 0x59BAF025 PUSH1 0xE1 SHL DUP4 MSTORE DUP11 DUP11 DUP5 ADD MSTORE GAS CALL SWAP1 DUP2 ISZERO PUSH2 0x310 JUMPI POP PUSH2 0x445 JUMPI JUMPDEST POP POP PUSH1 0x1 SLOAD SWAP2 DUP1 DUP4 LT ISZERO PUSH2 0x41E JUMPI DUP4 DUP1 RETURN JUMPDEST DUP3 SUB SWAP2 DUP3 GT PUSH2 0x432 JUMPI POP PUSH1 0x1 SSTORE CODESIZE DUP1 DUP1 DUP4 DUP1 RETURN JUMPDEST PUSH4 0x4E487B71 PUSH1 0xE0 SHL DUP4 MSTORE PUSH1 0x11 SWAP1 MSTORE PUSH1 0x24 DUP3 REVERT JUMPDEST PUSH2 0x44E SWAP1 PUSH2 0x5B7 JUMP JUMPDEST PUSH2 0x1EE JUMPI DUP3 CODESIZE PUSH2 0x40C JUMP JUMPDEST POP POP CALLVALUE PUSH2 0xD5 JUMPI DUP2 PUSH1 0x3 NOT CALLDATASIZE ADD SLT PUSH2 0xD5 JUMPI PUSH1 0x20 SWAP1 PUSH1 0x2 SLOAD SWAP1 MLOAD SWAP1 DUP2 MSTORE RETURN JUMPDEST SWAP1 POP CALLVALUE PUSH2 0x1EE JUMPI PUSH1 0x20 CALLDATASIZE PUSH1 0x3 NOT ADD SLT PUSH2 0x1EE JUMPI CALLDATALOAD DUP3 SLOAD DUP2 LT ISZERO PUSH2 0x1EE JUMPI DUP3 PUSH1 0x20 SWAP4 MSTORE PUSH1 0x1 DUP1 PUSH1 0xA0 SHL SUB SWAP1 PUSH1 0x0 DUP1 MLOAD PUSH1 0x20 PUSH2 0x7AF DUP4 CODECOPY DUP2 MLOAD SWAP2 MSTORE ADD SLOAD AND SWAP1 MLOAD SWAP1 DUP2 MSTORE RETURN JUMPDEST DUP5 SWAP2 DUP5 CALLVALUE PUSH2 0x58E JUMPI PUSH1 0x20 CALLDATASIZE PUSH1 0x3 NOT ADD SLT PUSH2 0x58E JUMPI DUP2 CALLDATALOAD SWAP3 PUSH32 0x0 PUSH1 0x1 PUSH1 0x1 PUSH1 0xA0 SHL SUB AND SWAP1 DUP2 EXTCODESIZE ISZERO PUSH2 0x5B3 JUMPI PUSH4 0x11A90631 PUSH1 0xE3 SHL DUP2 MSTORE DUP4 DUP2 ADD DUP6 SWAP1 MSTORE DUP6 DUP2 PUSH1 0x24 DUP2 DUP4 DUP7 GAS CALL DUP1 ISZERO PUSH2 0x5A9 JUMPI PUSH2 0x592 JUMPI JUMPDEST POP SWAP1 DUP2 DUP6 SWAP4 SWAP3 EXTCODESIZE ISZERO PUSH2 0x58E JUMPI DUP2 MLOAD PUSH4 0xA58BE0C3 PUSH1 0xE0 SHL DUP2 MSTORE SWAP3 DUP5 SWAP2 DUP5 SWAP2 DUP3 SWAP1 DUP5 SWAP1 DUP3 SWAP1 PUSH2 0x556 SWAP1 DUP3 ADD PUSH2 0x603 JUMP JUMPDEST SUB SWAP3 GAS CALL SWAP1 DUP2 ISZERO PUSH2 0x310 JUMPI POP PUSH2 0x57A JUMPI JUMPDEST POP PUSH2 0x574 DUP3 PUSH1 0x1 SLOAD PUSH2 0x65E JUMP JUMPDEST PUSH1 0x1 SSTORE DUP1 RETURN JUMPDEST PUSH2 0x583 SWAP1 PUSH2 0x5B7 JUMP JUMPDEST PUSH2 0xD5 JUMPI DUP2 DUP4 PUSH2 0x567 JUMP JUMPDEST DUP4 DUP1 REVERT JUMPDEST PUSH2 0x5A0 SWAP1 SWAP6 SWAP2 SWAP4 SWAP3 SWAP6 PUSH2 0x5B7 JUMP JUMPDEST SWAP4 SWAP1 SWAP2 DUP6 PUSH2 0x528 JUMP JUMPDEST DUP4 MLOAD RETURNDATASIZE DUP9 DUP3 RETURNDATACOPY RETURNDATASIZE SWAP1 REVERT JUMPDEST DUP6 DUP1 REVERT JUMPDEST PUSH8 0xFFFFFFFFFFFFFFFF DUP2 GT PUSH2 0x5CB JUMPI PUSH1 0x40 MSTORE JUMP JUMPDEST PUSH4 0x4E487B71 PUSH1 0xE0 SHL PUSH1 0x0 MSTORE PUSH1 0x41 PUSH1 0x4 MSTORE PUSH1 0x24 PUSH1 0x0 REVERT JUMPDEST SWAP1 PUSH1 0x1F DUP1 NOT SWAP2 ADD AND DUP2 ADD SWAP1 DUP2 LT PUSH8 0xFFFFFFFFFFFFFFFF DUP3 GT OR PUSH2 0x5CB JUMPI PUSH1 0x40 MSTORE JUMP JUMPDEST PUSH1 0x20 PUSH1 0x40 PUSH1 0x20 DUP4 ADD SWAP3 PUSH1 0x20 DUP2 MSTORE PUSH1 0x0 SLOAD DUP1 SWAP5 MSTORE ADD SWAP2 PUSH1 0x0 DUP1 MSTORE PUSH1 0x0 DUP1 MLOAD PUSH1 0x20 PUSH2 0x7AF DUP4 CODECOPY DUP2 MLOAD SWAP2 MSTORE SWAP2 PUSH1 0x0 SWAP1 JUMPDEST DUP3 DUP3 LT PUSH2 0x63E JUMPI POP POP POP POP SWAP1 JUMP JUMPDEST DUP4 SLOAD PUSH1 0x1 PUSH1 0x1 PUSH1 0xA0 SHL SUB AND DUP6 MSTORE SWAP4 DUP5 ADD SWAP4 PUSH1 0x1 SWAP4 DUP5 ADD SWAP4 SWAP1 SWAP2 ADD SWAP1 PUSH2 0x630 JUMP JUMPDEST SWAP2 SWAP1 DUP3 ADD DUP1 SWAP3 GT PUSH2 0x66B JUMPI JUMP JUMPDEST PUSH4 0x4E487B71 PUSH1 0xE0 SHL PUSH1 0x0 MSTORE PUSH1 0x11 PUSH1 0x4 MSTORE PUSH1 0x24 PUSH1 0x0 REVERT JUMPDEST PUSH1 0x40 MLOAD PUSH4 0xCB9F3AD PUSH1 0xE0 SHL DUP2 MSTORE PUSH1 0x20 SWAP1 PUSH1 0x1 PUSH1 0x1 PUSH1 0xA0 SHL SUB SWAP1 DUP3 DUP2 PUSH1 0x4 DUP2 PUSH32 0x0 DUP7 AND GAS STATICCALL DUP1 ISZERO PUSH2 0x769 JUMPI DUP4 SWAP2 PUSH1 0x0 SWAP2 PUSH2 0x775 JUMPI JUMPDEST POP PUSH1 0x24 PUSH1 0x40 MLOAD DUP1 SWAP5 DUP2 SWAP4 PUSH4 0x700037D PUSH1 0xE0 SHL DUP4 MSTORE ADDRESS PUSH1 0x4 DUP5 ADD MSTORE AND GAS STATICCALL SWAP2 DUP3 ISZERO PUSH2 0x769 JUMPI PUSH1 0x0 SWAP3 PUSH2 0x73B JUMPI JUMPDEST POP POP DUP1 ISZERO DUP1 PUSH2 0x730 JUMPI JUMPDEST PUSH2 0x711 JUMPI SWAP1 JUMP JUMPDEST POP PUSH1 0x1 SLOAD PUSH1 0x32 DUP2 MUL SWAP1 DUP1 DUP3 DIV PUSH1 0x32 EQ SWAP1 ISZERO OR ISZERO PUSH2 0x66B JUMPI PUSH2 0x2710 SWAP1 DIV SWAP1 JUMP JUMPDEST POP PUSH1 0x1 SLOAD ISZERO ISZERO PUSH2 0x70A JUMP JUMPDEST SWAP1 DUP1 SWAP3 POP DUP2 RETURNDATASIZE DUP4 GT PUSH2 0x762 JUMPI JUMPDEST PUSH2 0x752 DUP2 DUP4 PUSH2 0x5E1 JUMP JUMPDEST DUP2 ADD SUB SLT PUSH2 0x1D6 JUMPI MLOAD CODESIZE DUP1 PUSH2 0x700 JUMP JUMPDEST POP RETURNDATASIZE PUSH2 0x748 JUMP JUMPDEST PUSH1 0x40 MLOAD RETURNDATASIZE PUSH1 0x0 DUP3 RETURNDATACOPY RETURNDATASIZE SWAP1 REVERT JUMPDEST SWAP1 SWAP2 DUP2 DUP2 RETURNDATASIZE DUP4 GT PUSH2 0x7A7 JUMPI JUMPDEST PUSH2 0x78B DUP2 DUP4 PUSH2 0x5E1 JUMP JUMPDEST DUP2 ADD SUB SLT PUSH2 0xD5 JUMPI MLOAD SWAP1 DUP3 DUP3 AND DUP3 SUB PUSH2 0x30D JUMPI POP DUP3 SWAP1 CODESIZE PUSH2 0x6D4 JUMP JUMPDEST POP RETURNDATASIZE PUSH2 0x781 JUMP INVALID 0x29 0xD 0xEC 0xD9 SLOAD DUP12 PUSH3 0xA8D603 GASLIMIT 0xA9 DUP9 CODESIZE PUSH16 0xC84BA6BC95484008F6362F93160EF3E5 PUSH4 0xA2646970 PUSH7 0x73582212202E2E LT DUP3 PUSH7 0x846E21B9999130 MSIZE SWAP14 MSTORE8 0xCB CALLCODE EXTCODECOPY DIV CODESIZE SLT 0xE9 0xD4 0xBF GT 0xE8 STOP PUSH17 0x286CC72A64736F6C634300081800330000 "},"methodIdentifiers":{"accruedYield()":"4019fb33","divest(uint256)":"8ca17995","getPendingRewards()":"d9621f9e","harvestYield()":"e8d991d1","invest(uint256)":"2afcf480","invested()":"cafb2202","router()":"f887ea40","setValidators(address[])":"9300c926","totalValue()":"d4c3eea0","validators(uint256)":"35aa2e44"}}}}}