{"src/MockStakingPrecompile.sol":{"MockStakingPrecompile":{"abi":[{"inputs":[{"internalType":"uint256","name":"amount","type":"uint256"},{"internalType":"uint8","name":"","type":"uint8"}],"name":"bond","outputs":[],"stateMutability":"nonpayable","type":"function"},{"inputs":[{"internalType":"uint256","name":"amount","type":"uint256"}],"name":"bondExtra","outputs":[],"stateMutability":"nonpayable","type":"function"},{"inputs":[{"internalType":"address","name":"account","type":"address"}],"name":"bonded","outputs":[{"internalType":"uint256","name":"","type":"uint256"}],"stateMutability":"view","type":"function"},{"inputs":[{"internalType":"address","name":"","type":"address"}],"name":"bondedBalances","outputs":[{"internalType":"uint256","name":"","type":"uint256"}],"stateMutability":"view","type":"function"},{"inputs":[{"internalType":"address[]","name":"","type":"address[]"}],"name":"nominate","outputs":[],"stateMutability":"nonpayable","type":"function"},{"inputs":[{"internalType":"address","name":"account","type":"address"}],"name":"rewards","outputs":[{"internalType":"uint256","name":"","type":"uint256"}],"stateMutability":"view","type":"function"},{"inputs":[{"internalType":"address","name":"account","type":"address"},{"internalType":"uint256","name":"amount","type":"uint256"}],"name":"setRewards","outputs":[],"stateMutability":"nonpayable","type":"function"},{"inputs":[{"internalType":"uint256","name":"amount","type":"uint256"}],"name":"unbond","outputs":[],"stateMutability":"nonpayable","type":"function"},{"inputs":[{"internalType":"address","name":"","type":"address"}],"name":"userRewards","outputs":[{"internalType":"uint256","name":"","type":"uint256"}],"stateMutability":"view","type":"function"},{"inputs":[],"name":"withdrawUnbonded","outputs":[],"stateMutability":"nonpayable","type":"function"}],"evm":{"bytecode":{"linkReferences":{},"object":"6080806040523461001657610364908161001c8239f35b600080fdfe608060408181526004918236101561001657600080fd5b600092833560e01c9182630660f1e8146102ac575081630700037d1461027457816319f2fdad1461022357816327de9e321461018b5781636e373bef1461017457816380c15aaa14610140578163916c42dc14610118578163d5c90b29146100ec578163eaca88de146100cc575063f19e2a211461009357600080fd5b346100c85760203660031901126100c85760209181906001600160a01b036100b96102e0565b16815280845220549051908152f35b5080fd5b8390346100c85760203660031901126100c8576100e990356102fb565b80f35b91905034610114573660031901126100c85760243560ff8116036100c8576100e990356102fb565b8280fd5b5050346100c85760203660031901126100c85760209181906001600160a01b036100b96102e0565b5050346100c857806003193601126100c8576001600160a01b036101626102e0565b16825260016020526024359082205580f35b833461018857806003193601126101885780f35b80fd5b90503461011457602036600319011261011457803591338452836020528281852054106101e0573384528360205283209081549283039283116101cd57505580f35b634e487b7160e01b845260119052602483fd5b906020606492519162461bcd60e51b8352820152601960248201527f4d6f636b5374616b696e673a20696e73756666696369656e74000000000000006044820152fd5b8390346100c85760203660031901126100c857803567ffffffffffffffff9182821161027057366023830112156102705781013591821161011457602490369260051b0101116101885780f35b8380fd5b5050346100c85760203660031901126100c85760209181906001600160a01b0361029c6102e0565b1681526001845220549051908152f35b84908434610114576020366003190112610114576020926001600160a01b036102d36102e0565b1681526001845220548152f35b600435906001600160a01b03821682036102f657565b600080fd5b336000526000602052604060002080549182018092116103185755565b634e487b7160e01b600052601160045260246000fdfea2646970667358221220824529447de4858f92b8dbda6bf4e2a02c512afab5f01d72e7ae3b475a3f410464736f6c63430008180033","opcodes":"PUSH1 0x80 DUP1 PUSH1 0x40 MSTORE CALLVALUE PUSH2 0x16 JUMPI PUSH2 0x364 SWAP1 DUP2 PUSH2 0x1C DUP3 CODECOPY RETURN JUMPDEST PUSH1 0x0 DUP1 REVERT INVALID PUSH1 0x80 PUSH1 0x40 DUP2 DUP2 MSTORE PUSH1 0x4 SWAP2 DUP3 CALLDATASIZE LT ISZERO PUSH2 0x16 JUMPI PUSH1 0x0 DUP1 REVERT JUMPDEST PUSH1 0x0 SWAP3 DUP4 CALLDATALOAD PUSH1 0xE0 SHR SWAP2 DUP3 PUSH4 0x660F1E8 EQ PUSH2 0x2AC JUMPI POP DUP2 PUSH4 0x700037D EQ PUSH2 0x274 JUMPI DUP2 PUSH4 0x19F2FDAD EQ PUSH2 0x223 JUMPI DUP2 PUSH4 0x27DE9E32 EQ PUSH2 0x18B JUMPI DUP2 PUSH4 0x6E373BEF EQ PUSH2 0x174 JUMPI DUP2 PUSH4 0x80C15AAA EQ PUSH2 0x140 JUMPI DUP2 PUSH4 0x916C42DC EQ PUSH2 0x118 JUMPI DUP2 PUSH4 0xD5C90B29 EQ PUSH2 0xEC JUMPI DUP2 PUSH4 0xEACA88DE EQ PUSH2 0xCC JUMPI POP PUSH4 0xF19E2A21 EQ PUSH2 0x93 JUMPI PUSH1 0x0 DUP1 REVERT JUMPDEST CALLVALUE PUSH2 0xC8 JUMPI PUSH1 0x20 CALLDATASIZE PUSH1 0x3 NOT ADD SLT PUSH2 0xC8 JUMPI PUSH1 0x20 SWAP2 DUP2 SWAP1 PUSH1 0x1 PUSH1 0x1 PUSH1 0xA0 SHL SUB PUSH2 0xB9 PUSH2 0x2E0 JUMP JUMPDEST AND DUP2 MSTORE DUP1 DUP5 MSTORE KECCAK256 SLOAD SWAP1 MLOAD SWAP1 DUP2 MSTORE RETURN JUMPDEST POP DUP1 REVERT JUMPDEST DUP4 SWAP1 CALLVALUE PUSH2 0xC8 JUMPI PUSH1 0x20 CALLDATASIZE PUSH1 0x3 NOT ADD SLT PUSH2 0xC8 JUMPI PUSH2 0xE9 SWAP1 CALLDATALOAD PUSH2 0x2FB JUMP JUMPDEST DUP1 RETURN JUMPDEST SWAP2 SWAP1 POP CALLVALUE PUSH2 0x114 JUMPI CALLDATASIZE PUSH1 0x3 NOT ADD SLT PUSH2 0xC8 JUMPI PUSH1 0x24 CALLDATALOAD PUSH1 0xFF DUP2 AND SUB PUSH2 0xC8 JUMPI PUSH2 0xE9 SWAP1 CALLDATALOAD PUSH2 0x2FB JUMP JUMPDEST DUP3 DUP1 REVERT JUMPDEST POP POP CALLVALUE PUSH2 0xC8 JUMPI PUSH1 0x20 CALLDATASIZE PUSH1 0x3 NOT ADD SLT PUSH2 0xC8 JUMPI PUSH1 0x20 SWAP2 DUP2 SWAP1 PUSH1 0x1 PUSH1 0x1 PUSH1 0xA0 SHL SUB PUSH2 0xB9 PUSH2 0x2E0 JUMP JUMPDEST POP POP CALLVALUE PUSH2 0xC8 JUMPI DUP1 PUSH1 0x3 NOT CALLDATASIZE ADD SLT PUSH2 0xC8 JUMPI PUSH1 0x1 PUSH1 0x1 PUSH1 0xA0 SHL SUB PUSH2 0x162 PUSH2 0x2E0 JUMP JUMPDEST AND DUP3 MSTORE PUSH1 0x1 PUSH1 0x20 MSTORE PUSH1 0x24 CALLDATALOAD SWAP1 DUP3 KECCAK256 SSTORE DUP1 RETURN JUMPDEST DUP4 CALLVALUE PUSH2 0x188 JUMPI DUP1 PUSH1 0x3 NOT CALLDATASIZE ADD SLT PUSH2 0x188 JUMPI DUP1 RETURN JUMPDEST DUP1 REVERT JUMPDEST SWAP1 POP CALLVALUE PUSH2 0x114 JUMPI PUSH1 0x20 CALLDATASIZE PUSH1 0x3 NOT ADD SLT PUSH2 0x114 JUMPI DUP1 CALLDATALOAD SWAP2 CALLER DUP5 MSTORE DUP4 PUSH1 0x20 MSTORE DUP3 DUP2 DUP6 KECCAK256 SLOAD LT PUSH2 0x1E0 JUMPI CALLER DUP5 MSTORE DUP4 PUSH1 0x20 MSTORE DUP4 KECCAK256 SWAP1 DUP2 SLOAD SWAP3 DUP4 SUB SWAP3 DUP4 GT PUSH2 0x1CD JUMPI POP SSTORE DUP1 RETURN JUMPDEST PUSH4 0x4E487B71 PUSH1 0xE0 SHL DUP5 MSTORE PUSH1 0x11 SWAP1 MSTORE PUSH1 0x24 DUP4 REVERT JUMPDEST SWAP1 PUSH1 0x20 PUSH1 0x64 SWAP3 MLOAD SWAP2 PUSH3 0x461BCD PUSH1 0xE5 SHL DUP4 MSTORE DUP3 ADD MSTORE PUSH1 0x19 PUSH1 0x24 DUP3 ADD MSTORE PUSH32 0x4D6F636B5374616B696E673A20696E73756666696369656E7400000000000000 PUSH1 0x44 DUP3 ADD MSTORE REVERT JUMPDEST DUP4 SWAP1 CALLVALUE PUSH2 0xC8 JUMPI PUSH1 0x20 CALLDATASIZE PUSH1 0x3 NOT ADD SLT PUSH2 0xC8 JUMPI DUP1 CALLDATALOAD PUSH8 0xFFFFFFFFFFFFFFFF SWAP2 DUP3 DUP3 GT PUSH2 0x270 JUMPI CALLDATASIZE PUSH1 0x23 DUP4 ADD SLT ISZERO PUSH2 0x270 JUMPI DUP2 ADD CALLDATALOAD SWAP2 DUP3 GT PUSH2 0x114 JUMPI PUSH1 0x24 SWAP1 CALLDATASIZE SWAP3 PUSH1 0x5 SHL ADD ADD GT PUSH2 0x188 JUMPI DUP1 RETURN JUMPDEST DUP4 DUP1 REVERT JUMPDEST POP POP CALLVALUE PUSH2 0xC8 JUMPI PUSH1 0x20 CALLDATASIZE PUSH1 0x3 NOT ADD SLT PUSH2 0xC8 JUMPI PUSH1 0x20 SWAP2 DUP2 SWAP1 PUSH1 0x1 PUSH1 0x1 PUSH1 0xA0 SHL SUB PUSH2 0x29C PUSH2 0x2E0 JUMP JUMPDEST AND DUP2 MSTORE PUSH1 0x1 DUP5 MSTORE KECCAK256 SLOAD SWAP1 MLOAD SWAP1 DUP2 MSTORE RETURN JUMPDEST DUP5 SWAP1 DUP5 CALLVALUE PUSH2 0x114 JUMPI PUSH1 0x20 CALLDATASIZE PUSH1 0x3 NOT ADD SLT PUSH2 0x114 JUMPI PUSH1 0x20 SWAP3 PUSH1 0x1 PUSH1 0x1 PUSH1 0xA0 SHL SUB PUSH2 0x2D3 PUSH2 0x2E0 JUMP JUMPDEST AND DUP2 MSTORE PUSH1 0x1 DUP5 MSTORE KECCAK256 SLOAD DUP2 MSTORE RETURN JUMPDEST PUSH1 0x4 CALLDATALOAD SWAP1 PUSH1 0x1 PUSH1 0x1 PUSH1 0xA0 SHL SUB DUP3 AND DUP3 SUB PUSH2 0x2F6 JUMPI JUMP JUMPDEST PUSH1 0x0 DUP1 REVERT JUMPDEST CALLER PUSH1 0x0 MSTORE PUSH1 0x0 PUSH1 0x20 MSTORE PUSH1 0x40 PUSH1 0x0 KECCAK256 DUP1 SLOAD SWAP2 DUP3 ADD DUP1 SWAP3 GT PUSH2 0x318 JUMPI SSTORE JUMP JUMPDEST PUSH4 0x4E487B71 PUSH1 0xE0 SHL PUSH1 0x0 MSTORE PUSH1 0x11 PUSH1 0x4 MSTORE PUSH1 0x24 PUSH1 0x0 REVERT INVALID LOG2 PUSH5 0x6970667358 0x22 SLT KECCAK256 DUP3 GASLIMIT 0x29 PREVRANDAO PUSH30 0xE4858F92B8DBDA6BF4E2A02C512AFAB5F01D72E7AE3B475A3F410464736F PUSH13 0x63430008180033000000000000 "},"methodIdentifiers":{"bond(uint256,uint8)":"d5c90b29","bondExtra(uint256)":"eaca88de","bonded(address)":"f19e2a21","bondedBalances(address)":"916c42dc","nominate(address[])":"19f2fdad","rewards(address)":"0700037d","setRewards(address,uint256)":"80c15aaa","unbond(uint256)":"27de9e32","userRewards(address)":"0660f1e8","withdrawUnbonded()":"6e373bef"}}}}}