{"src/strategies/YieldStrategy.sol":{"DOTStakingStrategy":{"abi":[{"inputs":[{"internalType":"address","name":"_asset","type":"address"}],"stateMutability":"nonpayable","type":"constructor"},{"anonymous":false,"inputs":[{"indexed":false,"internalType":"uint256","name":"amount","type":"uint256"}],"name":"Divested","type":"event"},{"anonymous":false,"inputs":[{"indexed":false,"internalType":"uint256","name":"amount","type":"uint256"}],"name":"Invested","type":"event"},{"anonymous":false,"inputs":[{"indexed":false,"internalType":"uint256","name":"amount","type":"uint256"}],"name":"YieldHarvested","type":"event"},{"inputs":[],"name":"accruedYield","outputs":[{"internalType":"uint256","name":"","type":"uint256"}],"stateMutability":"view","type":"function"},{"inputs":[],"name":"asset","outputs":[{"internalType":"address","name":"","type":"address"}],"stateMutability":"view","type":"function"},{"inputs":[{"internalType":"uint256","name":"amount","type":"uint256"}],"name":"divest","outputs":[],"stateMutability":"nonpayable","type":"function"},{"inputs":[],"name":"harvestYield","outputs":[{"internalType":"uint256","name":"","type":"uint256"}],"stateMutability":"nonpayable","type":"function"},{"inputs":[{"internalType":"uint256","name":"amount","type":"uint256"}],"name":"invest","outputs":[],"stateMutability":"nonpayable","type":"function"},{"inputs":[],"name":"invested","outputs":[{"internalType":"uint256","name":"","type":"uint256"}],"stateMutability":"view","type":"function"},{"inputs":[],"name":"owner","outputs":[{"internalType":"address","name":"","type":"address"}],"stateMutability":"view","type":"function"},{"inputs":[{"internalType":"uint256","name":"_bps","type":"uint256"}],"name":"setYieldRate","outputs":[],"stateMutability":"nonpayable","type":"function"},{"inputs":[],"name":"totalValue","outputs":[{"internalType":"uint256","name":"","type":"uint256"}],"stateMutability":"view","type":"function"},{"inputs":[],"name":"yieldRateBps","outputs":[{"internalType":"uint256","name":"","type":"uint256"}],"stateMutability":"view","type":"function"}],"evm":{"bytecode":{"linkReferences":{},"object":"60803461007f57601f61054638819003918201601f19168301916001600160401b038311848410176100845780849260209460405283398101031261007f57516001600160a01b0381169081900361007f57603260045560018060a01b03193381600054161760005560035416176003556040516104ab908161009b8239f35b600080fd5b634e487b7160e01b600052604160045260246000fdfe6080604081815260048036101561001557600080fd5b600092833560e01c9081631411dab0146103ed575080632afcf4801461039d57806338d52e0f146103745780634019fb33146103555780638ca17995146101ac5780638da5cb5b14610184578063cafb220214610165578063d4c3eea014610136578063e8d991d1146100b15763f3a6a4a31461009157600080fd5b346100ad57826003193601126100ad5760209250549051908152f35b8280fd5b50913461013357806003193601126101335760015492805493848102948186041490151715610120576020836127108604906100ef82600254610452565b6002557feb2d114a827fe0da3db4c0e374010959cf461f7ed76987aeff51666dea9add9b838251848152a151908152f35b634e487b7160e01b825260119052602490fd5b80fd5b50503461016157816003193601126101615760209061015a60015460025490610452565b9051908152f35b5080fd5b5050346101615781600319360112610161576020906001549051908152f35b505034610161578160031936011261016157905490516001600160a01b039091168152602090f35b5082903461016157602090816003193601126100ad57803590600154808311610312578281039081116102ff57600155600354855163a9059cbb60e01b81523383820152602481018490529084908290604490829089906001600160a01b03165af19081156102f5578591610291575b501561024e57507f0dbc40ccd4fca1b5bf46f23e99aaefe371e661e9ca0c45dc1b79e5e321d3b99d929351908152a180f35b845162461bcd60e51b8152908101839052601b60248201527f444f545374616b696e673a207472616e73666572206661696c656400000000006044820152606490fd5b9050833d85116102ee575b601f8101601f1916820167ffffffffffffffff8111838210176102db57859183918952810103126102d7575180151581036102d7578661021c565b8480fd5b634e487b7160e01b875260418452602487fd5b503d61029c565b86513d87823e3d90fd5b634e487b7160e01b855260118252602485fd5b855162461bcd60e51b8152808301859052601860248201527f444f545374616b696e673a20696e73756666696369656e7400000000000000006044820152606490fd5b5050346101615781600319360112610161576020906002549051908152f35b50503461016157816003193601126101615760035490516001600160a01b039091168152602090f35b50346100ad5760203660031901126100ad577fac9f7997c30b6a3cc9c74953898b5de154359339c7ec0d6d70ceb98e55db1a4b9160209135906103e282600154610452565b60015551908152a180f35b828591346100ad5760203660031901126100ad5782546001600160a01b0316330361041a57508035905580f35b602060649262461bcd60e51b835282015260156024820152742227aa29ba30b5b4b7339d103737ba1037bbb732b960591b6044820152fd5b9190820180921161045f57565b634e487b7160e01b600052601160045260246000fdfea2646970667358221220bf72016a18ccf8a89c6cf4c50121a9bf7d5501a3bcfdeacab98e085e5e973cd464736f6c63430008180033","opcodes":"PUSH1 0x80 CALLVALUE PUSH2 0x7F JUMPI PUSH1 0x1F PUSH2 0x546 CODESIZE DUP2 SWAP1 SUB SWAP2 DUP3 ADD PUSH1 0x1F NOT AND DUP4 ADD SWAP2 PUSH1 0x1 PUSH1 0x1 PUSH1 0x40 SHL SUB DUP4 GT DUP5 DUP5 LT OR PUSH2 0x84 JUMPI DUP1 DUP5 SWAP3 PUSH1 0x20 SWAP5 PUSH1 0x40 MSTORE DUP4 CODECOPY DUP2 ADD SUB SLT PUSH2 0x7F JUMPI MLOAD PUSH1 0x1 PUSH1 0x1 PUSH1 0xA0 SHL SUB DUP2 AND SWAP1 DUP2 SWAP1 SUB PUSH2 0x7F JUMPI PUSH1 0x32 PUSH1 0x4 SSTORE PUSH1 0x1 DUP1 PUSH1 0xA0 SHL SUB NOT CALLER DUP2 PUSH1 0x0 SLOAD AND OR PUSH1 0x0 SSTORE PUSH1 0x3 SLOAD AND OR PUSH1 0x3 SSTORE PUSH1 0x40 MLOAD PUSH2 0x4AB SWAP1 DUP2 PUSH2 0x9B DUP3 CODECOPY RETURN JUMPDEST PUSH1 0x0 DUP1 REVERT JUMPDEST PUSH4 0x4E487B71 PUSH1 0xE0 SHL PUSH1 0x0 MSTORE PUSH1 0x41 PUSH1 0x4 MSTORE PUSH1 0x24 PUSH1 0x0 REVERT INVALID PUSH1 0x80 PUSH1 0x40 DUP2 DUP2 MSTORE PUSH1 0x4 DUP1 CALLDATASIZE LT ISZERO PUSH2 0x15 JUMPI PUSH1 0x0 DUP1 REVERT JUMPDEST PUSH1 0x0 SWAP3 DUP4 CALLDATALOAD PUSH1 0xE0 SHR SWAP1 DUP2 PUSH4 0x1411DAB0 EQ PUSH2 0x3ED JUMPI POP DUP1 PUSH4 0x2AFCF480 EQ PUSH2 0x39D JUMPI DUP1 PUSH4 0x38D52E0F EQ PUSH2 0x374 JUMPI DUP1 PUSH4 0x4019FB33 EQ PUSH2 0x355 JUMPI DUP1 PUSH4 0x8CA17995 EQ PUSH2 0x1AC JUMPI DUP1 PUSH4 0x8DA5CB5B EQ PUSH2 0x184 JUMPI DUP1 PUSH4 0xCAFB2202 EQ PUSH2 0x165 JUMPI DUP1 PUSH4 0xD4C3EEA0 EQ PUSH2 0x136 JUMPI DUP1 PUSH4 0xE8D991D1 EQ PUSH2 0xB1 JUMPI PUSH4 0xF3A6A4A3 EQ PUSH2 0x91 JUMPI PUSH1 0x0 DUP1 REVERT JUMPDEST CALLVALUE PUSH2 0xAD JUMPI DUP3 PUSH1 0x3 NOT CALLDATASIZE ADD SLT PUSH2 0xAD JUMPI PUSH1 0x20 SWAP3 POP SLOAD SWAP1 MLOAD SWAP1 DUP2 MSTORE RETURN JUMPDEST DUP3 DUP1 REVERT JUMPDEST POP SWAP2 CALLVALUE PUSH2 0x133 JUMPI DUP1 PUSH1 0x3 NOT CALLDATASIZE ADD SLT PUSH2 0x133 JUMPI PUSH1 0x1 SLOAD SWAP3 DUP1 SLOAD SWAP4 DUP5 DUP2 MUL SWAP5 DUP2 DUP7 DIV EQ SWAP1 ISZERO OR ISZERO PUSH2 0x120 JUMPI PUSH1 0x20 DUP4 PUSH2 0x2710 DUP7 DIV SWAP1 PUSH2 0xEF DUP3 PUSH1 0x2 SLOAD PUSH2 0x452 JUMP JUMPDEST PUSH1 0x2 SSTORE PUSH32 0xEB2D114A827FE0DA3DB4C0E374010959CF461F7ED76987AEFF51666DEA9ADD9B DUP4 DUP3 MLOAD DUP5 DUP2 MSTORE LOG1 MLOAD SWAP1 DUP2 MSTORE RETURN JUMPDEST PUSH4 0x4E487B71 PUSH1 0xE0 SHL DUP3 MSTORE PUSH1 0x11 SWAP1 MSTORE PUSH1 0x24 SWAP1 REVERT JUMPDEST DUP1 REVERT JUMPDEST POP POP CALLVALUE PUSH2 0x161 JUMPI DUP2 PUSH1 0x3 NOT CALLDATASIZE ADD SLT PUSH2 0x161 JUMPI PUSH1 0x20 SWAP1 PUSH2 0x15A PUSH1 0x1 SLOAD PUSH1 0x2 SLOAD SWAP1 PUSH2 0x452 JUMP JUMPDEST SWAP1 MLOAD SWAP1 DUP2 MSTORE RETURN JUMPDEST POP DUP1 REVERT JUMPDEST POP POP CALLVALUE PUSH2 0x161 JUMPI DUP2 PUSH1 0x3 NOT CALLDATASIZE ADD SLT PUSH2 0x161 JUMPI PUSH1 0x20 SWAP1 PUSH1 0x1 SLOAD SWAP1 MLOAD SWAP1 DUP2 MSTORE RETURN JUMPDEST POP POP CALLVALUE PUSH2 0x161 JUMPI DUP2 PUSH1 0x3 NOT CALLDATASIZE ADD SLT PUSH2 0x161 JUMPI SWAP1 SLOAD SWAP1 MLOAD PUSH1 0x1 PUSH1 0x1 PUSH1 0xA0 SHL SUB SWAP1 SWAP2 AND DUP2 MSTORE PUSH1 0x20 SWAP1 RETURN JUMPDEST POP DUP3 SWAP1 CALLVALUE PUSH2 0x161 JUMPI PUSH1 0x20 SWAP1 DUP2 PUSH1 0x3 NOT CALLDATASIZE ADD SLT PUSH2 0xAD JUMPI DUP1 CALLDATALOAD SWAP1 PUSH1 0x1 SLOAD DUP1 DUP4 GT PUSH2 0x312 JUMPI DUP3 DUP2 SUB SWAP1 DUP2 GT PUSH2 0x2FF JUMPI PUSH1 0x1 SSTORE PUSH1 0x3 SLOAD DUP6 MLOAD PUSH4 0xA9059CBB PUSH1 0xE0 SHL DUP2 MSTORE CALLER DUP4 DUP3 ADD MSTORE PUSH1 0x24 DUP2 ADD DUP5 SWAP1 MSTORE SWAP1 DUP5 SWAP1 DUP3 SWAP1 PUSH1 0x44 SWAP1 DUP3 SWAP1 DUP10 SWAP1 PUSH1 0x1 PUSH1 0x1 PUSH1 0xA0 SHL SUB AND GAS CALL SWAP1 DUP2 ISZERO PUSH2 0x2F5 JUMPI DUP6 SWAP2 PUSH2 0x291 JUMPI JUMPDEST POP ISZERO PUSH2 0x24E JUMPI POP PUSH32 0xDBC40CCD4FCA1B5BF46F23E99AAEFE371E661E9CA0C45DC1B79E5E321D3B99D SWAP3 SWAP4 MLOAD SWAP1 DUP2 MSTORE LOG1 DUP1 RETURN JUMPDEST DUP5 MLOAD PUSH3 0x461BCD PUSH1 0xE5 SHL DUP2 MSTORE SWAP1 DUP2 ADD DUP4 SWAP1 MSTORE PUSH1 0x1B PUSH1 0x24 DUP3 ADD MSTORE PUSH32 0x444F545374616B696E673A207472616E73666572206661696C65640000000000 PUSH1 0x44 DUP3 ADD MSTORE PUSH1 0x64 SWAP1 REVERT JUMPDEST SWAP1 POP DUP4 RETURNDATASIZE DUP6 GT PUSH2 0x2EE JUMPI JUMPDEST PUSH1 0x1F DUP2 ADD PUSH1 0x1F NOT AND DUP3 ADD PUSH8 0xFFFFFFFFFFFFFFFF DUP2 GT DUP4 DUP3 LT OR PUSH2 0x2DB JUMPI DUP6 SWAP2 DUP4 SWAP2 DUP10 MSTORE DUP2 ADD SUB SLT PUSH2 0x2D7 JUMPI MLOAD DUP1 ISZERO ISZERO DUP2 SUB PUSH2 0x2D7 JUMPI DUP7 PUSH2 0x21C JUMP JUMPDEST DUP5 DUP1 REVERT JUMPDEST PUSH4 0x4E487B71 PUSH1 0xE0 SHL DUP8 MSTORE PUSH1 0x41 DUP5 MSTORE PUSH1 0x24 DUP8 REVERT JUMPDEST POP RETURNDATASIZE PUSH2 0x29C JUMP JUMPDEST DUP7 MLOAD RETURNDATASIZE DUP8 DUP3 RETURNDATACOPY RETURNDATASIZE SWAP1 REVERT JUMPDEST PUSH4 0x4E487B71 PUSH1 0xE0 SHL DUP6 MSTORE PUSH1 0x11 DUP3 MSTORE PUSH1 0x24 DUP6 REVERT JUMPDEST DUP6 MLOAD PUSH3 0x461BCD PUSH1 0xE5 SHL DUP2 MSTORE DUP1 DUP4 ADD DUP6 SWAP1 MSTORE PUSH1 0x18 PUSH1 0x24 DUP3 ADD MSTORE PUSH32 0x444F545374616B696E673A20696E73756666696369656E740000000000000000 PUSH1 0x44 DUP3 ADD MSTORE PUSH1 0x64 SWAP1 REVERT JUMPDEST POP POP CALLVALUE PUSH2 0x161 JUMPI DUP2 PUSH1 0x3 NOT CALLDATASIZE ADD SLT PUSH2 0x161 JUMPI PUSH1 0x20 SWAP1 PUSH1 0x2 SLOAD SWAP1 MLOAD SWAP1 DUP2 MSTORE RETURN JUMPDEST POP POP CALLVALUE PUSH2 0x161 JUMPI DUP2 PUSH1 0x3 NOT CALLDATASIZE ADD SLT PUSH2 0x161 JUMPI PUSH1 0x3 SLOAD SWAP1 MLOAD PUSH1 0x1 PUSH1 0x1 PUSH1 0xA0 SHL SUB SWAP1 SWAP2 AND DUP2 MSTORE PUSH1 0x20 SWAP1 RETURN JUMPDEST POP CALLVALUE PUSH2 0xAD JUMPI PUSH1 0x20 CALLDATASIZE PUSH1 0x3 NOT ADD SLT PUSH2 0xAD JUMPI PUSH32 0xAC9F7997C30B6A3CC9C74953898B5DE154359339C7EC0D6D70CEB98E55DB1A4B SWAP2 PUSH1 0x20 SWAP2 CALLDATALOAD SWAP1 PUSH2 0x3E2 DUP3 PUSH1 0x1 SLOAD PUSH2 0x452 JUMP JUMPDEST PUSH1 0x1 SSTORE MLOAD SWAP1 DUP2 MSTORE LOG1 DUP1 RETURN JUMPDEST DUP3 DUP6 SWAP2 CALLVALUE PUSH2 0xAD JUMPI PUSH1 0x20 CALLDATASIZE PUSH1 0x3 NOT ADD SLT PUSH2 0xAD JUMPI DUP3 SLOAD PUSH1 0x1 PUSH1 0x1 PUSH1 0xA0 SHL SUB AND CALLER SUB PUSH2 0x41A JUMPI POP DUP1 CALLDATALOAD SWAP1 SSTORE DUP1 RETURN JUMPDEST PUSH1 0x20 PUSH1 0x64 SWAP3 PUSH3 0x461BCD PUSH1 0xE5 SHL DUP4 MSTORE DUP3 ADD MSTORE PUSH1 0x15 PUSH1 0x24 DUP3 ADD MSTORE PUSH21 0x2227AA29BA30B5B4B7339D103737BA1037BBB732B9 PUSH1 0x59 SHL PUSH1 0x44 DUP3 ADD MSTORE REVERT JUMPDEST SWAP2 SWAP1 DUP3 ADD DUP1 SWAP3 GT PUSH2 0x45F JUMPI JUMP JUMPDEST PUSH4 0x4E487B71 PUSH1 0xE0 SHL PUSH1 0x0 MSTORE PUSH1 0x11 PUSH1 0x4 MSTORE PUSH1 0x24 PUSH1 0x0 REVERT INVALID LOG2 PUSH5 0x6970667358 0x22 SLT KECCAK256 0xBF PUSH19 0x16A18CCF8A89C6CF4C50121A9BF7D5501A3BC REVERT 0xEA 0xCA 0xB9 DUP15 ADDMOD MCOPY MCOPY SWAP8 EXTCODECOPY 0xD4 PUSH5 0x736F6C6343 STOP ADDMOD XOR STOP CALLER "},"methodIdentifiers":{"accruedYield()":"4019fb33","asset()":"38d52e0f","divest(uint256)":"8ca17995","harvestYield()":"e8d991d1","invest(uint256)":"2afcf480","invested()":"cafb2202","owner()":"8da5cb5b","setYieldRate(uint256)":"1411dab0","totalValue()":"d4c3eea0","yieldRateBps()":"f3a6a4a3"}}}}}