{"src/AutoTreasury.sol":{"AutoTreasury":{"abi":[{"inputs":[{"internalType":"address","name":"_xcmRouter","type":"address"},{"internalType":"address","name":"_primaryAsset","type":"address"}],"stateMutability":"nonpayable","type":"constructor"},{"anonymous":false,"inputs":[{"indexed":true,"internalType":"address","name":"user","type":"address"},{"indexed":false,"internalType":"uint32","name":"targetParaId","type":"uint32"},{"indexed":false,"internalType":"address","name":"targetAsset","type":"address"},{"indexed":false,"internalType":"uint256","name":"yieldAmount","type":"uint256"}],"name":"CrossChainPayment","type":"event"},{"anonymous":false,"inputs":[{"indexed":true,"internalType":"address","name":"user","type":"address"},{"indexed":false,"internalType":"uint256","name":"amount","type":"uint256"}],"name":"Saved","type":"event"},{"anonymous":false,"inputs":[{"indexed":true,"internalType":"address","name":"user","type":"address"},{"indexed":false,"internalType":"uint256","name":"principalAmount","type":"uint256"}],"name":"Withdrawn","type":"event"},{"anonymous":false,"inputs":[{"indexed":false,"internalType":"uint256","name":"totalYield","type":"uint256"}],"name":"YieldHarvested","type":"event"},{"inputs":[{"internalType":"contract YieldStrategy","name":"strategy","type":"address"}],"name":"addStrategy","outputs":[],"stateMutability":"nonpayable","type":"function"},{"inputs":[],"name":"owner","outputs":[{"internalType":"address","name":"","type":"address"}],"stateMutability":"view","type":"function"},{"inputs":[{"internalType":"uint32","name":"targetParaId","type":"uint32"},{"internalType":"address","name":"targetAsset","type":"address"},{"internalType":"uint256","name":"yieldAmount","type":"uint256"}],"name":"payWithYield","outputs":[],"stateMutability":"nonpayable","type":"function"},{"inputs":[],"name":"primaryAsset","outputs":[{"internalType":"address","name":"","type":"address"}],"stateMutability":"view","type":"function"},{"inputs":[{"internalType":"address","name":"","type":"address"}],"name":"principal","outputs":[{"internalType":"uint256","name":"","type":"uint256"}],"stateMutability":"view","type":"function"},{"inputs":[],"name":"rebalance","outputs":[],"stateMutability":"nonpayable","type":"function"},{"inputs":[{"internalType":"uint256","name":"amount","type":"uint256"}],"name":"save","outputs":[],"stateMutability":"nonpayable","type":"function"},{"inputs":[{"internalType":"address","name":"","type":"address"}],"name":"shares","outputs":[{"internalType":"uint256","name":"","type":"uint256"}],"stateMutability":"view","type":"function"},{"inputs":[{"internalType":"address","name":"","type":"address"}],"name":"spendableYield","outputs":[{"internalType":"uint256","name":"","type":"uint256"}],"stateMutability":"view","type":"function"},{"inputs":[{"internalType":"uint256","name":"","type":"uint256"}],"name":"strategies","outputs":[{"internalType":"contract YieldStrategy","name":"","type":"address"}],"stateMutability":"view","type":"function"},{"inputs":[],"name":"totalAssets","outputs":[{"internalType":"uint256","name":"","type":"uint256"}],"stateMutability":"view","type":"function"},{"inputs":[],"name":"totalPrincipal","outputs":[{"internalType":"uint256","name":"","type":"uint256"}],"stateMutability":"view","type":"function"},{"inputs":[],"name":"totalShares","outputs":[{"internalType":"uint256","name":"","type":"uint256"}],"stateMutability":"view","type":"function"},{"inputs":[],"name":"totalSpendableYield","outputs":[{"internalType":"uint256","name":"","type":"uint256"}],"stateMutability":"view","type":"function"},{"inputs":[{"internalType":"uint256","name":"amount","type":"uint256"}],"name":"withdrawPrincipal","outputs":[],"stateMutability":"nonpayable","type":"function"},{"inputs":[],"name":"xcmRouter","outputs":[{"internalType":"contract XCMRouter","name":"","type":"address"}],"stateMutability":"view","type":"function"}],"evm":{"bytecode":{"linkReferences":{},"object":"60803461009257601f6111d038819003918201601f19168301916001600160401b0383118484101761009757808492604094855283398101031261009257610052602061004b836100ad565b92016100ad565b9060018060a01b0319913383600054161760005560018060a01b038092168360015416176001551690600854161760085560405161110e90816100c28239f35b600080fd5b634e487b7160e01b600052604160045260246000fd5b51906001600160a01b03821682036100925756fe608060408181526004918236101561001657600080fd5b600092833560e01c91826301e1d11414610ce0575081631b86202714610b72578163223e547914610aec5781632ce0f9d614610ab45781632e017c0714610a95578163372b0261146107b05781633a98ef39146107915781634b1533b214610772578163658e28a4146104285781637d7c2a1c146102075781638da5cb5b146101df578163ce7c2ac2146101a7578163d574ea3d14610163578163e1d206001461013a578163e4f2460114610100575063e58d777a146100d557600080fd5b346100fc57816003193601126100fc5760085490516001600160a01b039091168152602090f35b5080fd5b9050346101365760203660031901126101365760209282916001600160a01b03610128610e0c565b168252845220549051908152f35b8280fd5b5050346100fc57816003193601126100fc5760015490516001600160a01b039091168152602090f35b9050346101365760203660031901126101365735916009548310156101a4575061018e602092610e22565b905491519160018060a01b039160031b1c168152f35b80fd5b5050346100fc5760203660031901126100fc5760209181906001600160a01b036101cf610e0c565b1681526006845220549051908152f35b5050346100fc57816003193601126100fc57905490516001600160a01b039091168152602090f35b90503461013657826003193601126101365782546001600160a01b0392906102329084163314610f29565b60089280600854168251916370a0823160e01b83523085840152602092838160248181965afa90811561041e5788916103ec575b50605a810290808204605a14901517156103d957906064889493920496871515806103ce575b610294578480f35b6102a360099860095490610f09565b93855b89548110156103b85787898386808754168a8c6102ff6102c589610e22565b91905493600399519889978896879563a9059cbb60e01b87528d1b1c1690840160209093929193604081019460018060a01b031681520152565b03925af180156103ae5790869291610381575b5061031c83610e22565b9054911b1c16803b1561037d578787878c838d5195869485936255f9e960e71b85528401525af180156103735790889161035b575b50506001016102a6565b61036490610e6f565b61036f578638610351565b8680fd5b89513d8a823e3d90fd5b8780fd5b6103a090853d87116103a7575b6103988183610e99565b810190610ede565b5038610312565b503d61038e565b8a513d8b823e3d90fd5b5050505050505050505038808083818080808480f35b50600954151561028c565b634e487b7160e01b885260118652602488fd5b90508381813d8311610417575b6104038183610e99565b81010312610412575138610266565b600080fd5b503d6103f9565b85513d8a823e3d90fd5b919050346101365760208060031936011261076e578235918215158061075a575b1561070d57610456610fa5565b61046260075484610ef6565b936104ba61047560039660035490610f09565b3388526002855283882061048a878254610f75565b905561049886600354610f75565b600355338852600685528388206104b0828254610f75565b9055600754610f75565b60075560018060a01b0380600854169583516370a0823160e01b815230848201528581602481819b5afa9081156107035789916106d6575b50868110610593575b5050600854835163a9059cbb60e01b81523393810193845260208401879052965084928792909116908290899082906040015b03925af1938415610589577f7084f5476618d8e60b11ef0d7d3f06914655adb8793e28ff7f018d4c76d505d5939461056c575b50519283523392a280f35b61058290833d85116103a7576103988183610e99565b5038610561565b81513d87823e3d90fd5b61059d9087610f75565b90885b6009548110156106c5578487856105b684610e22565b905490861b1c168851928380926306a61f7560e51b82525afa9081156106bb578b9161068e575b5080841115610687575b806105f6575b506001016105a0565b8a85610603849694610e22565b905490861b1c16803b156100fc5781838d8a838d519586948593638ca1799560e01b85528401525af1801561067d57610665575b505061064291610f75565b91821561064f57386105ed565b50505061052e9550839185915b918193506104fb565b61066e90610e6f565b610679578a38610637565b8a80fd5b89513d84823e3d90fd5b50826105e7565b90508781813d83116106b4575b6106a58183610e99565b810103126104125751386105dd565b503d61069b565b87513d8d823e3d90fd5b50505061052e95508391859161065c565b90508581813d83116106fc575b6106ed8183610e99565b810103126104125751386104f2565b503d6106e3565b85513d8b823e3d90fd5b5162461bcd60e51b815292830152506024808201527f4175746f54726561737572793a20696e73756666696369656e74207072696e636044820152631a5c185b60e21b6064820152608490fd5b503385526002825282818620541015610449565b8380fd5b5050346100fc57816003193601126100fc576020906003549051908152f35b5050346100fc57816003193601126100fc576020906007549051908152f35b9050346101365760603660031901126101365780359163ffffffff831680930361076e576001600160a01b03916024358381169190829003610a9157604435936107f8610fa5565b338752602091808352858589205410610a50578790338252808452858220610821888254610f75565b905561082f87600554610f75565b60055582600154169280600854168751946392df829560e01b865281848701528760248701528960448701528460648701528486608481845afa958615610a4657918a9188938798610990575b508a5163095ea7b360e01b81526001600160a01b03909116868201908152602081019390935292918391908290889082906040015b03925af1801561098657610969575b5060015416803b156101365784918360448951809781968295630c6b8b1b60e11b84528301526108fe815180928160248601528c8686019101610f82565b601f01601f191681010301925af1801561095f5761094c575b5082519485528401528201527f205226a99e5bf7b3494fbd62b0ff42f9263b8f348fa4ee0a2824aecc2023124f60603392a280f35b61095890969196610e6f565b9438610917565b84513d89823e3d90fd5b61097f90863d88116103a7576103988183610e99565b50386108c0565b88513d86823e3d90fd5b9495965096509150503d808c843e6109a88184610e99565b8201918681840312610a4257805167ffffffffffffffff91828211610a3e57019183601f84011215610a3a578251918211610a2757908c95949392918a51936109fa8a601f19601f8601160186610e99565b82855289838501011161036f5783610a1d8d938b9586806108b199019101610f82565b979091929361087c565b634e487b7160e01b8d526041865260248dfd5b8c80fd5b8d80fd5b8b80fd5b89513d87823e3d90fd5b606490838087519262461bcd60e51b845283015260248201527f4175746f54726561737572793a20696e73756666696369656e74207969656c646044820152fd5b8580fd5b5050346100fc57816003193601126100fc576020906005549051908152f35b5050346100fc5760203660031901126100fc5760209181906001600160a01b03610adc610e0c565b1681526002845220549051908152f35b8390346100fc5760203660031901126100fc576001600160a01b03908035828116919082900361076e57610b24838554163314610f29565b6009549068010000000000000000821015610b5f5750806001610b4a9201600955610e22565b909283549160031b92831b921b191617905580f35b634e487b7160e01b855260419052602484fd5b839150346100fc57602080600319360112610136578135918215610c9f5793818495610b9c610fa5565b60085483516323b872dd60e01b81523392810192909252306024830152604482018690529095869160649183916001600160a01b03165af1938415610589577fed23a82fe3387ce0bc3ec900dee36d8ca8c965f8dc65c02281a59f7e9e69728c9394610c82575b5060075480610c645750610c57845b33875260028452828720610c27878254610ebb565b9055610c3586600354610ebb565b60035533875260068452828720610c4d828254610ebb565b9055600754610ebb565b600755519283523392a280f35b610c7d610c74610c579287610ef6565b60035490610f09565b610c12565b610c9890833d85116103a7576103988183610e99565b5085610c03565b60649185519162461bcd60e51b8352820152601960248201527f4175746f54726561737572793a207a65726f20616d6f756e74000000000000006044820152fd5b848483346101365782600319360112610136576008546370a0823160e01b855230828601526020946001600160a01b039186908290602490829086165afa908115610e02578591610dd1575b5093919082600954925b838510610d465787878751908152f35b9091929395838883610d578a610e22565b919054918a5194859384926306a61f7560e51b845260031b1c165afa908115610dc7578491610d99575b50610d8e90600192610ebb565b960193929190610d36565b90508881813d8311610dc0575b610db08183610e99565b8101031261076e57516001610d81565b503d610da6565b87513d86823e3d90fd5b90508581813d8311610dfb575b610de88183610e99565b81010312610df7575186610d2c565b8480fd5b503d610dde565b84513d87823e3d90fd5b600435906001600160a01b038216820361041257565b600954811015610e595760096000527f6e1540171b6c0c960b71a7020d9f60077f6af931a8bbf590da0223dacf75c7af0190600090565b634e487b7160e01b600052603260045260246000fd5b67ffffffffffffffff8111610e8357604052565b634e487b7160e01b600052604160045260246000fd5b90601f8019910116810190811067ffffffffffffffff821117610e8357604052565b91908201809211610ec857565b634e487b7160e01b600052601160045260246000fd5b90816020910312610412575180151581036104125790565b81810292918115918404141715610ec857565b8115610f13570490565b634e487b7160e01b600052601260045260246000fd5b15610f3057565b60405162461bcd60e51b815260206004820152601760248201527f4175746f54726561737572793a206e6f74206f776e65720000000000000000006044820152606490fd5b91908203918211610ec857565b60005b838110610f955750506000910152565b8181015183820152602001610f85565b600754156110d657600090815b60095483101561105257610fc583610e22565b905460409182519163e8d991d160e01b8352826004816000602095869560018060a01b039160031b1c165af19283156110485750600092611017575b505061100f90600192610ebb565b920191610fb2565b81819392933d8311611041575b61102e8183610e99565b810103126101a45750518161100f611001565b503d611024565b513d6000823e3d90fd5b9091508061105d5750565b60208161108d7feb2d114a827fe0da3db4c0e374010959cf461f7ed76987aeff51666dea9add9b93600554610ebb565b60055533600052600682526110b36110aa60406000205483610ef6565b60075490610f09565b33600052600483526110cb6040600020918254610ebb565b9055604051908152a1565b56fea26469706673582212208ce1354666c74e8e2536662241aef40a8e70af70a8d256bd3c7bf4ee184e3b1b64736f6c63430008180033","opcodes":"PUSH1 0x80 CALLVALUE PUSH2 0x92 JUMPI PUSH1 0x1F PUSH2 0x11D0 CODESIZE DUP2 SWAP1 SUB SWAP2 DUP3 ADD PUSH1 0x1F NOT AND DUP4 ADD SWAP2 PUSH1 0x1 PUSH1 0x1 PUSH1 0x40 SHL SUB DUP4 GT DUP5 DUP5 LT OR PUSH2 0x97 JUMPI DUP1 DUP5 SWAP3 PUSH1 0x40 SWAP5 DUP6 MSTORE DUP4 CODECOPY DUP2 ADD SUB SLT PUSH2 0x92 JUMPI PUSH2 0x52 PUSH1 0x20 PUSH2 0x4B DUP4 PUSH2 0xAD JUMP JUMPDEST SWAP3 ADD PUSH2 0xAD JUMP JUMPDEST SWAP1 PUSH1 0x1 DUP1 PUSH1 0xA0 SHL SUB NOT SWAP2 CALLER DUP4 PUSH1 0x0 SLOAD AND OR PUSH1 0x0 SSTORE PUSH1 0x1 DUP1 PUSH1 0xA0 SHL SUB DUP1 SWAP3 AND DUP4 PUSH1 0x1 SLOAD AND OR PUSH1 0x1 SSTORE AND SWAP1 PUSH1 0x8 SLOAD AND OR PUSH1 0x8 SSTORE PUSH1 0x40 MLOAD PUSH2 0x110E SWAP1 DUP2 PUSH2 0xC2 DUP3 CODECOPY RETURN JUMPDEST PUSH1 0x0 DUP1 REVERT JUMPDEST PUSH4 0x4E487B71 PUSH1 0xE0 SHL PUSH1 0x0 MSTORE PUSH1 0x41 PUSH1 0x4 MSTORE PUSH1 0x24 PUSH1 0x0 REVERT JUMPDEST MLOAD SWAP1 PUSH1 0x1 PUSH1 0x1 PUSH1 0xA0 SHL SUB DUP3 AND DUP3 SUB PUSH2 0x92 JUMPI JUMP INVALID PUSH1 0x80 PUSH1 0x40 DUP2 DUP2 MSTORE PUSH1 0x4 SWAP2 DUP3 CALLDATASIZE LT ISZERO PUSH2 0x16 JUMPI PUSH1 0x0 DUP1 REVERT JUMPDEST PUSH1 0x0 SWAP3 DUP4 CALLDATALOAD PUSH1 0xE0 SHR SWAP2 DUP3 PUSH4 0x1E1D114 EQ PUSH2 0xCE0 JUMPI POP DUP2 PUSH4 0x1B862027 EQ PUSH2 0xB72 JUMPI DUP2 PUSH4 0x223E5479 EQ PUSH2 0xAEC JUMPI DUP2 PUSH4 0x2CE0F9D6 EQ PUSH2 0xAB4 JUMPI DUP2 PUSH4 0x2E017C07 EQ PUSH2 0xA95 JUMPI DUP2 PUSH4 0x372B0261 EQ PUSH2 0x7B0 JUMPI DUP2 PUSH4 0x3A98EF39 EQ PUSH2 0x791 JUMPI DUP2 PUSH4 0x4B1533B2 EQ PUSH2 0x772 JUMPI DUP2 PUSH4 0x658E28A4 EQ PUSH2 0x428 JUMPI DUP2 PUSH4 0x7D7C2A1C EQ PUSH2 0x207 JUMPI DUP2 PUSH4 0x8DA5CB5B EQ PUSH2 0x1DF JUMPI DUP2 PUSH4 0xCE7C2AC2 EQ PUSH2 0x1A7 JUMPI DUP2 PUSH4 0xD574EA3D EQ PUSH2 0x163 JUMPI DUP2 PUSH4 0xE1D20600 EQ PUSH2 0x13A JUMPI DUP2 PUSH4 0xE4F24601 EQ PUSH2 0x100 JUMPI POP PUSH4 0xE58D777A EQ PUSH2 0xD5 JUMPI PUSH1 0x0 DUP1 REVERT JUMPDEST CALLVALUE PUSH2 0xFC JUMPI DUP2 PUSH1 0x3 NOT CALLDATASIZE ADD SLT PUSH2 0xFC JUMPI PUSH1 0x8 SLOAD SWAP1 MLOAD PUSH1 0x1 PUSH1 0x1 PUSH1 0xA0 SHL SUB SWAP1 SWAP2 AND DUP2 MSTORE PUSH1 0x20 SWAP1 RETURN JUMPDEST POP DUP1 REVERT JUMPDEST SWAP1 POP CALLVALUE PUSH2 0x136 JUMPI PUSH1 0x20 CALLDATASIZE PUSH1 0x3 NOT ADD SLT PUSH2 0x136 JUMPI PUSH1 0x20 SWAP3 DUP3 SWAP2 PUSH1 0x1 PUSH1 0x1 PUSH1 0xA0 SHL SUB PUSH2 0x128 PUSH2 0xE0C JUMP JUMPDEST AND DUP3 MSTORE DUP5 MSTORE KECCAK256 SLOAD SWAP1 MLOAD SWAP1 DUP2 MSTORE RETURN JUMPDEST DUP3 DUP1 REVERT JUMPDEST POP POP CALLVALUE PUSH2 0xFC JUMPI DUP2 PUSH1 0x3 NOT CALLDATASIZE ADD SLT PUSH2 0xFC JUMPI PUSH1 0x1 SLOAD SWAP1 MLOAD PUSH1 0x1 PUSH1 0x1 PUSH1 0xA0 SHL SUB SWAP1 SWAP2 AND DUP2 MSTORE PUSH1 0x20 SWAP1 RETURN JUMPDEST SWAP1 POP CALLVALUE PUSH2 0x136 JUMPI PUSH1 0x20 CALLDATASIZE PUSH1 0x3 NOT ADD SLT PUSH2 0x136 JUMPI CALLDATALOAD SWAP2 PUSH1 0x9 SLOAD DUP4 LT ISZERO PUSH2 0x1A4 JUMPI POP PUSH2 0x18E PUSH1 0x20 SWAP3 PUSH2 0xE22 JUMP JUMPDEST SWAP1 SLOAD SWAP2 MLOAD SWAP2 PUSH1 0x1 DUP1 PUSH1 0xA0 SHL SUB SWAP2 PUSH1 0x3 SHL SHR AND DUP2 MSTORE RETURN JUMPDEST DUP1 REVERT JUMPDEST POP POP CALLVALUE PUSH2 0xFC JUMPI PUSH1 0x20 CALLDATASIZE PUSH1 0x3 NOT ADD SLT PUSH2 0xFC JUMPI PUSH1 0x20 SWAP2 DUP2 SWAP1 PUSH1 0x1 PUSH1 0x1 PUSH1 0xA0 SHL SUB PUSH2 0x1CF PUSH2 0xE0C JUMP JUMPDEST AND DUP2 MSTORE PUSH1 0x6 DUP5 MSTORE KECCAK256 SLOAD SWAP1 MLOAD SWAP1 DUP2 MSTORE RETURN JUMPDEST POP POP CALLVALUE PUSH2 0xFC JUMPI DUP2 PUSH1 0x3 NOT CALLDATASIZE ADD SLT PUSH2 0xFC JUMPI SWAP1 SLOAD SWAP1 MLOAD PUSH1 0x1 PUSH1 0x1 PUSH1 0xA0 SHL SUB SWAP1 SWAP2 AND DUP2 MSTORE PUSH1 0x20 SWAP1 RETURN JUMPDEST SWAP1 POP CALLVALUE PUSH2 0x136 JUMPI DUP3 PUSH1 0x3 NOT CALLDATASIZE ADD SLT PUSH2 0x136 JUMPI DUP3 SLOAD PUSH1 0x1 PUSH1 0x1 PUSH1 0xA0 SHL SUB SWAP3 SWAP1 PUSH2 0x232 SWAP1 DUP5 AND CALLER EQ PUSH2 0xF29 JUMP JUMPDEST PUSH1 0x8 SWAP3 DUP1 PUSH1 0x8 SLOAD AND DUP3 MLOAD SWAP2 PUSH4 0x70A08231 PUSH1 0xE0 SHL DUP4 MSTORE ADDRESS DUP6 DUP5 ADD MSTORE PUSH1 0x20 SWAP3 DUP4 DUP2 PUSH1 0x24 DUP2 DUP2 SWAP7 GAS STATICCALL SWAP1 DUP2 ISZERO PUSH2 0x41E JUMPI DUP9 SWAP2 PUSH2 0x3EC JUMPI JUMPDEST POP PUSH1 0x5A DUP2 MUL SWAP1 DUP1 DUP3 DIV PUSH1 0x5A EQ SWAP1 ISZERO OR ISZERO PUSH2 0x3D9 JUMPI SWAP1 PUSH1 0x64 DUP9 SWAP5 SWAP4 SWAP3 DIV SWAP7 DUP8 ISZERO ISZERO DUP1 PUSH2 0x3CE JUMPI JUMPDEST PUSH2 0x294 JUMPI DUP5 DUP1 RETURN JUMPDEST PUSH2 0x2A3 PUSH1 0x9 SWAP9 PUSH1 0x9 SLOAD SWAP1 PUSH2 0xF09 JUMP JUMPDEST SWAP4 DUP6 JUMPDEST DUP10 SLOAD DUP2 LT ISZERO PUSH2 0x3B8 JUMPI DUP8 DUP10 DUP4 DUP7 DUP1 DUP8 SLOAD AND DUP11 DUP13 PUSH2 0x2FF PUSH2 0x2C5 DUP10 PUSH2 0xE22 JUMP JUMPDEST SWAP2 SWAP1 SLOAD SWAP4 PUSH1 0x3 SWAP10 MLOAD SWAP9 DUP10 SWAP8 DUP9 SWAP7 DUP8 SWAP6 PUSH4 0xA9059CBB PUSH1 0xE0 SHL DUP8 MSTORE DUP14 SHL SHR AND SWAP1 DUP5 ADD PUSH1 0x20 SWAP1 SWAP4 SWAP3 SWAP2 SWAP4 PUSH1 0x40 DUP2 ADD SWAP5 PUSH1 0x1 DUP1 PUSH1 0xA0 SHL SUB AND DUP2 MSTORE ADD MSTORE JUMP JUMPDEST SUB SWAP3 GAS CALL DUP1 ISZERO PUSH2 0x3AE JUMPI SWAP1 DUP7 SWAP3 SWAP2 PUSH2 0x381 JUMPI JUMPDEST POP PUSH2 0x31C DUP4 PUSH2 0xE22 JUMP JUMPDEST SWAP1 SLOAD SWAP2 SHL SHR AND DUP1 EXTCODESIZE ISZERO PUSH2 0x37D JUMPI DUP8 DUP8 DUP8 DUP13 DUP4 DUP14 MLOAD SWAP6 DUP7 SWAP5 DUP6 SWAP4 PUSH3 0x55F9E9 PUSH1 0xE7 SHL DUP6 MSTORE DUP5 ADD MSTORE GAS CALL DUP1 ISZERO PUSH2 0x373 JUMPI SWAP1 DUP9 SWAP2 PUSH2 0x35B JUMPI JUMPDEST POP POP PUSH1 0x1 ADD PUSH2 0x2A6 JUMP JUMPDEST PUSH2 0x364 SWAP1 PUSH2 0xE6F JUMP JUMPDEST PUSH2 0x36F JUMPI DUP7 CODESIZE PUSH2 0x351 JUMP JUMPDEST DUP7 DUP1 REVERT JUMPDEST DUP10 MLOAD RETURNDATASIZE DUP11 DUP3 RETURNDATACOPY RETURNDATASIZE SWAP1 REVERT JUMPDEST DUP8 DUP1 REVERT JUMPDEST PUSH2 0x3A0 SWAP1 DUP6 RETURNDATASIZE DUP8 GT PUSH2 0x3A7 JUMPI JUMPDEST PUSH2 0x398 DUP2 DUP4 PUSH2 0xE99 JUMP JUMPDEST DUP2 ADD SWAP1 PUSH2 0xEDE JUMP JUMPDEST POP CODESIZE PUSH2 0x312 JUMP JUMPDEST POP RETURNDATASIZE PUSH2 0x38E JUMP JUMPDEST DUP11 MLOAD RETURNDATASIZE DUP12 DUP3 RETURNDATACOPY RETURNDATASIZE SWAP1 REVERT JUMPDEST POP POP POP POP POP POP POP POP POP POP CODESIZE DUP1 DUP1 DUP4 DUP2 DUP1 DUP1 DUP1 DUP5 DUP1 RETURN JUMPDEST POP PUSH1 0x9 SLOAD ISZERO ISZERO PUSH2 0x28C JUMP JUMPDEST PUSH4 0x4E487B71 PUSH1 0xE0 SHL DUP9 MSTORE PUSH1 0x11 DUP7 MSTORE PUSH1 0x24 DUP9 REVERT JUMPDEST SWAP1 POP DUP4 DUP2 DUP2 RETURNDATASIZE DUP4 GT PUSH2 0x417 JUMPI JUMPDEST PUSH2 0x403 DUP2 DUP4 PUSH2 0xE99 JUMP JUMPDEST DUP2 ADD SUB SLT PUSH2 0x412 JUMPI MLOAD CODESIZE PUSH2 0x266 JUMP JUMPDEST PUSH1 0x0 DUP1 REVERT JUMPDEST POP RETURNDATASIZE PUSH2 0x3F9 JUMP JUMPDEST DUP6 MLOAD RETURNDATASIZE DUP11 DUP3 RETURNDATACOPY RETURNDATASIZE SWAP1 REVERT JUMPDEST SWAP2 SWAP1 POP CALLVALUE PUSH2 0x136 JUMPI PUSH1 0x20 DUP1 PUSH1 0x3 NOT CALLDATASIZE ADD SLT PUSH2 0x76E JUMPI DUP3 CALLDATALOAD SWAP2 DUP3 ISZERO ISZERO DUP1 PUSH2 0x75A JUMPI JUMPDEST ISZERO PUSH2 0x70D JUMPI PUSH2 0x456 PUSH2 0xFA5 JUMP JUMPDEST PUSH2 0x462 PUSH1 0x7 SLOAD DUP5 PUSH2 0xEF6 JUMP JUMPDEST SWAP4 PUSH2 0x4BA PUSH2 0x475 PUSH1 0x3 SWAP7 PUSH1 0x3 SLOAD SWAP1 PUSH2 0xF09 JUMP JUMPDEST CALLER DUP9 MSTORE PUSH1 0x2 DUP6 MSTORE DUP4 DUP9 KECCAK256 PUSH2 0x48A DUP8 DUP3 SLOAD PUSH2 0xF75 JUMP JUMPDEST SWAP1 SSTORE PUSH2 0x498 DUP7 PUSH1 0x3 SLOAD PUSH2 0xF75 JUMP JUMPDEST PUSH1 0x3 SSTORE CALLER DUP9 MSTORE PUSH1 0x6 DUP6 MSTORE DUP4 DUP9 KECCAK256 PUSH2 0x4B0 DUP3 DUP3 SLOAD PUSH2 0xF75 JUMP JUMPDEST SWAP1 SSTORE PUSH1 0x7 SLOAD PUSH2 0xF75 JUMP JUMPDEST PUSH1 0x7 SSTORE PUSH1 0x1 DUP1 PUSH1 0xA0 SHL SUB DUP1 PUSH1 0x8 SLOAD AND SWAP6 DUP4 MLOAD PUSH4 0x70A08231 PUSH1 0xE0 SHL DUP2 MSTORE ADDRESS DUP5 DUP3 ADD MSTORE DUP6 DUP2 PUSH1 0x24 DUP2 DUP2 SWAP12 GAS STATICCALL SWAP1 DUP2 ISZERO PUSH2 0x703 JUMPI DUP10 SWAP2 PUSH2 0x6D6 JUMPI JUMPDEST POP DUP7 DUP2 LT PUSH2 0x593 JUMPI JUMPDEST POP POP PUSH1 0x8 SLOAD DUP4 MLOAD PUSH4 0xA9059CBB PUSH1 0xE0 SHL DUP2 MSTORE CALLER SWAP4 DUP2 ADD SWAP4 DUP5 MSTORE PUSH1 0x20 DUP5 ADD DUP8 SWAP1 MSTORE SWAP7 POP DUP5 SWAP3 DUP8 SWAP3 SWAP1 SWAP2 AND SWAP1 DUP3 SWAP1 DUP10 SWAP1 DUP3 SWAP1 PUSH1 0x40 ADD JUMPDEST SUB SWAP3 GAS CALL SWAP4 DUP5 ISZERO PUSH2 0x589 JUMPI PUSH32 0x7084F5476618D8E60B11EF0D7D3F06914655ADB8793E28FF7F018D4C76D505D5 SWAP4 SWAP5 PUSH2 0x56C JUMPI JUMPDEST POP MLOAD SWAP3 DUP4 MSTORE CALLER SWAP3 LOG2 DUP1 RETURN JUMPDEST PUSH2 0x582 SWAP1 DUP4 RETURNDATASIZE DUP6 GT PUSH2 0x3A7 JUMPI PUSH2 0x398 DUP2 DUP4 PUSH2 0xE99 JUMP JUMPDEST POP CODESIZE PUSH2 0x561 JUMP JUMPDEST DUP2 MLOAD RETURNDATASIZE DUP8 DUP3 RETURNDATACOPY RETURNDATASIZE SWAP1 REVERT JUMPDEST PUSH2 0x59D SWAP1 DUP8 PUSH2 0xF75 JUMP JUMPDEST SWAP1 DUP9 JUMPDEST PUSH1 0x9 SLOAD DUP2 LT ISZERO PUSH2 0x6C5 JUMPI DUP5 DUP8 DUP6 PUSH2 0x5B6 DUP5 PUSH2 0xE22 JUMP JUMPDEST SWAP1 SLOAD SWAP1 DUP7 SHL SHR AND DUP9 MLOAD SWAP3 DUP4 DUP1 SWAP3 PUSH4 0x6A61F75 PUSH1 0xE5 SHL DUP3 MSTORE GAS STATICCALL SWAP1 DUP2 ISZERO PUSH2 0x6BB JUMPI DUP12 SWAP2 PUSH2 0x68E JUMPI JUMPDEST POP DUP1 DUP5 GT ISZERO PUSH2 0x687 JUMPI JUMPDEST DUP1 PUSH2 0x5F6 JUMPI JUMPDEST POP PUSH1 0x1 ADD PUSH2 0x5A0 JUMP JUMPDEST DUP11 DUP6 PUSH2 0x603 DUP5 SWAP7 SWAP5 PUSH2 0xE22 JUMP JUMPDEST SWAP1 SLOAD SWAP1 DUP7 SHL SHR AND DUP1 EXTCODESIZE ISZERO PUSH2 0xFC JUMPI DUP2 DUP4 DUP14 DUP11 DUP4 DUP14 MLOAD SWAP6 DUP7 SWAP5 DUP6 SWAP4 PUSH4 0x8CA17995 PUSH1 0xE0 SHL DUP6 MSTORE DUP5 ADD MSTORE GAS CALL DUP1 ISZERO PUSH2 0x67D JUMPI PUSH2 0x665 JUMPI JUMPDEST POP POP PUSH2 0x642 SWAP2 PUSH2 0xF75 JUMP JUMPDEST SWAP2 DUP3 ISZERO PUSH2 0x64F JUMPI CODESIZE PUSH2 0x5ED JUMP JUMPDEST POP POP POP PUSH2 0x52E SWAP6 POP DUP4 SWAP2 DUP6 SWAP2 JUMPDEST SWAP2 DUP2 SWAP4 POP PUSH2 0x4FB JUMP JUMPDEST PUSH2 0x66E SWAP1 PUSH2 0xE6F JUMP JUMPDEST PUSH2 0x679 JUMPI DUP11 CODESIZE PUSH2 0x637 JUMP JUMPDEST DUP11 DUP1 REVERT JUMPDEST DUP10 MLOAD RETURNDATASIZE DUP5 DUP3 RETURNDATACOPY RETURNDATASIZE SWAP1 REVERT JUMPDEST POP DUP3 PUSH2 0x5E7 JUMP JUMPDEST SWAP1 POP DUP8 DUP2 DUP2 RETURNDATASIZE DUP4 GT PUSH2 0x6B4 JUMPI JUMPDEST PUSH2 0x6A5 DUP2 DUP4 PUSH2 0xE99 JUMP JUMPDEST DUP2 ADD SUB SLT PUSH2 0x412 JUMPI MLOAD CODESIZE PUSH2 0x5DD JUMP JUMPDEST POP RETURNDATASIZE PUSH2 0x69B JUMP JUMPDEST DUP8 MLOAD RETURNDATASIZE DUP14 DUP3 RETURNDATACOPY RETURNDATASIZE SWAP1 REVERT JUMPDEST POP POP POP PUSH2 0x52E SWAP6 POP DUP4 SWAP2 DUP6 SWAP2 PUSH2 0x65C JUMP JUMPDEST SWAP1 POP DUP6 DUP2 DUP2 RETURNDATASIZE DUP4 GT PUSH2 0x6FC JUMPI JUMPDEST PUSH2 0x6ED DUP2 DUP4 PUSH2 0xE99 JUMP JUMPDEST DUP2 ADD SUB SLT PUSH2 0x412 JUMPI MLOAD CODESIZE PUSH2 0x4F2 JUMP JUMPDEST POP RETURNDATASIZE PUSH2 0x6E3 JUMP JUMPDEST DUP6 MLOAD RETURNDATASIZE DUP12 DUP3 RETURNDATACOPY RETURNDATASIZE SWAP1 REVERT JUMPDEST MLOAD PUSH3 0x461BCD PUSH1 0xE5 SHL DUP2 MSTORE SWAP3 DUP4 ADD MSTORE POP PUSH1 0x24 DUP1 DUP3 ADD MSTORE PUSH32 0x4175746F54726561737572793A20696E73756666696369656E74207072696E63 PUSH1 0x44 DUP3 ADD MSTORE PUSH4 0x1A5C185B PUSH1 0xE2 SHL PUSH1 0x64 DUP3 ADD MSTORE PUSH1 0x84 SWAP1 REVERT JUMPDEST POP CALLER DUP6 MSTORE PUSH1 0x2 DUP3 MSTORE DUP3 DUP2 DUP7 KECCAK256 SLOAD LT ISZERO PUSH2 0x449 JUMP JUMPDEST DUP4 DUP1 REVERT JUMPDEST POP POP CALLVALUE PUSH2 0xFC JUMPI DUP2 PUSH1 0x3 NOT CALLDATASIZE ADD SLT PUSH2 0xFC JUMPI PUSH1 0x20 SWAP1 PUSH1 0x3 SLOAD SWAP1 MLOAD SWAP1 DUP2 MSTORE RETURN JUMPDEST POP POP CALLVALUE PUSH2 0xFC JUMPI DUP2 PUSH1 0x3 NOT CALLDATASIZE ADD SLT PUSH2 0xFC JUMPI PUSH1 0x20 SWAP1 PUSH1 0x7 SLOAD SWAP1 MLOAD SWAP1 DUP2 MSTORE RETURN JUMPDEST SWAP1 POP CALLVALUE PUSH2 0x136 JUMPI PUSH1 0x60 CALLDATASIZE PUSH1 0x3 NOT ADD SLT PUSH2 0x136 JUMPI DUP1 CALLDATALOAD SWAP2 PUSH4 0xFFFFFFFF DUP4 AND DUP1 SWAP4 SUB PUSH2 0x76E JUMPI PUSH1 0x1 PUSH1 0x1 PUSH1 0xA0 SHL SUB SWAP2 PUSH1 0x24 CALLDATALOAD DUP4 DUP2 AND SWAP2 SWAP1 DUP3 SWAP1 SUB PUSH2 0xA91 JUMPI PUSH1 0x44 CALLDATALOAD SWAP4 PUSH2 0x7F8 PUSH2 0xFA5 JUMP JUMPDEST CALLER DUP8 MSTORE PUSH1 0x20 SWAP2 DUP1 DUP4 MSTORE DUP6 DUP6 DUP10 KECCAK256 SLOAD LT PUSH2 0xA50 JUMPI DUP8 SWAP1 CALLER DUP3 MSTORE DUP1 DUP5 MSTORE DUP6 DUP3 KECCAK256 PUSH2 0x821 DUP9 DUP3 SLOAD PUSH2 0xF75 JUMP JUMPDEST SWAP1 SSTORE PUSH2 0x82F DUP8 PUSH1 0x5 SLOAD PUSH2 0xF75 JUMP JUMPDEST PUSH1 0x5 SSTORE DUP3 PUSH1 0x1 SLOAD AND SWAP3 DUP1 PUSH1 0x8 SLOAD AND DUP8 MLOAD SWAP5 PUSH4 0x92DF8295 PUSH1 0xE0 SHL DUP7 MSTORE DUP2 DUP5 DUP8 ADD MSTORE DUP8 PUSH1 0x24 DUP8 ADD MSTORE DUP10 PUSH1 0x44 DUP8 ADD MSTORE DUP5 PUSH1 0x64 DUP8 ADD MSTORE DUP5 DUP7 PUSH1 0x84 DUP2 DUP5 GAS STATICCALL SWAP6 DUP7 ISZERO PUSH2 0xA46 JUMPI SWAP2 DUP11 SWAP2 DUP9 SWAP4 DUP8 SWAP9 PUSH2 0x990 JUMPI JUMPDEST POP DUP11 MLOAD PUSH4 0x95EA7B3 PUSH1 0xE0 SHL DUP2 MSTORE PUSH1 0x1 PUSH1 0x1 PUSH1 0xA0 SHL SUB SWAP1 SWAP2 AND DUP7 DUP3 ADD SWAP1 DUP2 MSTORE PUSH1 0x20 DUP2 ADD SWAP4 SWAP1 SWAP4 MSTORE SWAP3 SWAP2 DUP4 SWAP2 SWAP1 DUP3 SWAP1 DUP9 SWAP1 DUP3 SWAP1 PUSH1 0x40 ADD JUMPDEST SUB SWAP3 GAS CALL DUP1 ISZERO PUSH2 0x986 JUMPI PUSH2 0x969 JUMPI JUMPDEST POP PUSH1 0x1 SLOAD AND DUP1 EXTCODESIZE ISZERO PUSH2 0x136 JUMPI DUP5 SWAP2 DUP4 PUSH1 0x44 DUP10 MLOAD DUP1 SWAP8 DUP2 SWAP7 DUP3 SWAP6 PUSH4 0xC6B8B1B PUSH1 0xE1 SHL DUP5 MSTORE DUP4 ADD MSTORE PUSH2 0x8FE DUP2 MLOAD DUP1 SWAP3 DUP2 PUSH1 0x24 DUP7 ADD MSTORE DUP13 DUP7 DUP7 ADD SWAP2 ADD PUSH2 0xF82 JUMP JUMPDEST PUSH1 0x1F ADD PUSH1 0x1F NOT AND DUP2 ADD SUB ADD SWAP3 GAS CALL DUP1 ISZERO PUSH2 0x95F JUMPI PUSH2 0x94C JUMPI JUMPDEST POP DUP3 MLOAD SWAP5 DUP6 MSTORE DUP5 ADD MSTORE DUP3 ADD MSTORE PUSH32 0x205226A99E5BF7B3494FBD62B0FF42F9263B8F348FA4EE0A2824AECC2023124F PUSH1 0x60 CALLER SWAP3 LOG2 DUP1 RETURN JUMPDEST PUSH2 0x958 SWAP1 SWAP7 SWAP2 SWAP7 PUSH2 0xE6F JUMP JUMPDEST SWAP5 CODESIZE PUSH2 0x917 JUMP JUMPDEST DUP5 MLOAD RETURNDATASIZE DUP10 DUP3 RETURNDATACOPY RETURNDATASIZE SWAP1 REVERT JUMPDEST PUSH2 0x97F SWAP1 DUP7 RETURNDATASIZE DUP9 GT PUSH2 0x3A7 JUMPI PUSH2 0x398 DUP2 DUP4 PUSH2 0xE99 JUMP JUMPDEST POP CODESIZE PUSH2 0x8C0 JUMP JUMPDEST DUP9 MLOAD RETURNDATASIZE DUP7 DUP3 RETURNDATACOPY RETURNDATASIZE SWAP1 REVERT JUMPDEST SWAP5 SWAP6 SWAP7 POP SWAP7 POP SWAP2 POP POP RETURNDATASIZE DUP1 DUP13 DUP5 RETURNDATACOPY PUSH2 0x9A8 DUP2 DUP5 PUSH2 0xE99 JUMP JUMPDEST DUP3 ADD SWAP2 DUP7 DUP2 DUP5 SUB SLT PUSH2 0xA42 JUMPI DUP1 MLOAD PUSH8 0xFFFFFFFFFFFFFFFF SWAP2 DUP3 DUP3 GT PUSH2 0xA3E JUMPI ADD SWAP2 DUP4 PUSH1 0x1F DUP5 ADD SLT ISZERO PUSH2 0xA3A JUMPI DUP3 MLOAD SWAP2 DUP3 GT PUSH2 0xA27 JUMPI SWAP1 DUP13 SWAP6 SWAP5 SWAP4 SWAP3 SWAP2 DUP11 MLOAD SWAP4 PUSH2 0x9FA DUP11 PUSH1 0x1F NOT PUSH1 0x1F DUP7 ADD AND ADD DUP7 PUSH2 0xE99 JUMP JUMPDEST DUP3 DUP6 MSTORE DUP10 DUP4 DUP6 ADD ADD GT PUSH2 0x36F JUMPI DUP4 PUSH2 0xA1D DUP14 SWAP4 DUP12 SWAP6 DUP7 DUP1 PUSH2 0x8B1 SWAP10 ADD SWAP2 ADD PUSH2 0xF82 JUMP JUMPDEST SWAP8 SWAP1 SWAP2 SWAP3 SWAP4 PUSH2 0x87C JUMP JUMPDEST PUSH4 0x4E487B71 PUSH1 0xE0 SHL DUP14 MSTORE PUSH1 0x41 DUP7 MSTORE PUSH1 0x24 DUP14 REVERT JUMPDEST DUP13 DUP1 REVERT JUMPDEST DUP14 DUP1 REVERT JUMPDEST DUP12 DUP1 REVERT JUMPDEST DUP10 MLOAD RETURNDATASIZE DUP8 DUP3 RETURNDATACOPY RETURNDATASIZE SWAP1 REVERT JUMPDEST PUSH1 0x64 SWAP1 DUP4 DUP1 DUP8 MLOAD SWAP3 PUSH3 0x461BCD PUSH1 0xE5 SHL DUP5 MSTORE DUP4 ADD MSTORE PUSH1 0x24 DUP3 ADD MSTORE PUSH32 0x4175746F54726561737572793A20696E73756666696369656E74207969656C64 PUSH1 0x44 DUP3 ADD MSTORE REVERT JUMPDEST DUP6 DUP1 REVERT JUMPDEST POP POP CALLVALUE PUSH2 0xFC JUMPI DUP2 PUSH1 0x3 NOT CALLDATASIZE ADD SLT PUSH2 0xFC JUMPI PUSH1 0x20 SWAP1 PUSH1 0x5 SLOAD SWAP1 MLOAD SWAP1 DUP2 MSTORE RETURN JUMPDEST POP POP CALLVALUE PUSH2 0xFC JUMPI PUSH1 0x20 CALLDATASIZE PUSH1 0x3 NOT ADD SLT PUSH2 0xFC JUMPI PUSH1 0x20 SWAP2 DUP2 SWAP1 PUSH1 0x1 PUSH1 0x1 PUSH1 0xA0 SHL SUB PUSH2 0xADC PUSH2 0xE0C JUMP JUMPDEST AND DUP2 MSTORE PUSH1 0x2 DUP5 MSTORE KECCAK256 SLOAD SWAP1 MLOAD SWAP1 DUP2 MSTORE RETURN JUMPDEST DUP4 SWAP1 CALLVALUE PUSH2 0xFC JUMPI PUSH1 0x20 CALLDATASIZE PUSH1 0x3 NOT ADD SLT PUSH2 0xFC JUMPI PUSH1 0x1 PUSH1 0x1 PUSH1 0xA0 SHL SUB SWAP1 DUP1 CALLDATALOAD DUP3 DUP2 AND SWAP2 SWAP1 DUP3 SWAP1 SUB PUSH2 0x76E JUMPI PUSH2 0xB24 DUP4 DUP6 SLOAD AND CALLER EQ PUSH2 0xF29 JUMP JUMPDEST PUSH1 0x9 SLOAD SWAP1 PUSH9 0x10000000000000000 DUP3 LT ISZERO PUSH2 0xB5F JUMPI POP DUP1 PUSH1 0x1 PUSH2 0xB4A SWAP3 ADD PUSH1 0x9 SSTORE PUSH2 0xE22 JUMP JUMPDEST SWAP1 SWAP3 DUP4 SLOAD SWAP2 PUSH1 0x3 SHL SWAP3 DUP4 SHL SWAP3 SHL NOT AND OR SWAP1 SSTORE DUP1 RETURN JUMPDEST PUSH4 0x4E487B71 PUSH1 0xE0 SHL DUP6 MSTORE PUSH1 0x41 SWAP1 MSTORE PUSH1 0x24 DUP5 REVERT JUMPDEST DUP4 SWAP2 POP CALLVALUE PUSH2 0xFC JUMPI PUSH1 0x20 DUP1 PUSH1 0x3 NOT CALLDATASIZE ADD SLT PUSH2 0x136 JUMPI DUP2 CALLDATALOAD SWAP2 DUP3 ISZERO PUSH2 0xC9F JUMPI SWAP4 DUP2 DUP5 SWAP6 PUSH2 0xB9C PUSH2 0xFA5 JUMP JUMPDEST PUSH1 0x8 SLOAD DUP4 MLOAD PUSH4 0x23B872DD PUSH1 0xE0 SHL DUP2 MSTORE CALLER SWAP3 DUP2 ADD SWAP3 SWAP1 SWAP3 MSTORE ADDRESS PUSH1 0x24 DUP4 ADD MSTORE PUSH1 0x44 DUP3 ADD DUP7 SWAP1 MSTORE SWAP1 SWAP6 DUP7 SWAP2 PUSH1 0x64 SWAP2 DUP4 SWAP2 PUSH1 0x1 PUSH1 0x1 PUSH1 0xA0 SHL SUB AND GAS CALL SWAP4 DUP5 ISZERO PUSH2 0x589 JUMPI PUSH32 0xED23A82FE3387CE0BC3EC900DEE36D8CA8C965F8DC65C02281A59F7E9E69728C SWAP4 SWAP5 PUSH2 0xC82 JUMPI JUMPDEST POP PUSH1 0x7 SLOAD DUP1 PUSH2 0xC64 JUMPI POP PUSH2 0xC57 DUP5 JUMPDEST CALLER DUP8 MSTORE PUSH1 0x2 DUP5 MSTORE DUP3 DUP8 KECCAK256 PUSH2 0xC27 DUP8 DUP3 SLOAD PUSH2 0xEBB JUMP JUMPDEST SWAP1 SSTORE PUSH2 0xC35 DUP7 PUSH1 0x3 SLOAD PUSH2 0xEBB JUMP JUMPDEST PUSH1 0x3 SSTORE CALLER DUP8 MSTORE PUSH1 0x6 DUP5 MSTORE DUP3 DUP8 KECCAK256 PUSH2 0xC4D DUP3 DUP3 SLOAD PUSH2 0xEBB JUMP JUMPDEST SWAP1 SSTORE PUSH1 0x7 SLOAD PUSH2 0xEBB JUMP JUMPDEST PUSH1 0x7 SSTORE MLOAD SWAP3 DUP4 MSTORE CALLER SWAP3 LOG2 DUP1 RETURN JUMPDEST PUSH2 0xC7D PUSH2 0xC74 PUSH2 0xC57 SWAP3 DUP8 PUSH2 0xEF6 JUMP JUMPDEST PUSH1 0x3 SLOAD SWAP1 PUSH2 0xF09 JUMP JUMPDEST PUSH2 0xC12 JUMP JUMPDEST PUSH2 0xC98 SWAP1 DUP4 RETURNDATASIZE DUP6 GT PUSH2 0x3A7 JUMPI PUSH2 0x398 DUP2 DUP4 PUSH2 0xE99 JUMP JUMPDEST POP DUP6 PUSH2 0xC03 JUMP JUMPDEST PUSH1 0x64 SWAP2 DUP6 MLOAD SWAP2 PUSH3 0x461BCD PUSH1 0xE5 SHL DUP4 MSTORE DUP3 ADD MSTORE PUSH1 0x19 PUSH1 0x24 DUP3 ADD MSTORE PUSH32 0x4175746F54726561737572793A207A65726F20616D6F756E7400000000000000 PUSH1 0x44 DUP3 ADD MSTORE REVERT JUMPDEST DUP5 DUP5 DUP4 CALLVALUE PUSH2 0x136 JUMPI DUP3 PUSH1 0x3 NOT CALLDATASIZE ADD SLT PUSH2 0x136 JUMPI PUSH1 0x8 SLOAD PUSH4 0x70A08231 PUSH1 0xE0 SHL DUP6 MSTORE ADDRESS DUP3 DUP7 ADD MSTORE PUSH1 0x20 SWAP5 PUSH1 0x1 PUSH1 0x1 PUSH1 0xA0 SHL SUB SWAP2 DUP7 SWAP1 DUP3 SWAP1 PUSH1 0x24 SWAP1 DUP3 SWAP1 DUP7 AND GAS STATICCALL SWAP1 DUP2 ISZERO PUSH2 0xE02 JUMPI DUP6 SWAP2 PUSH2 0xDD1 JUMPI JUMPDEST POP SWAP4 SWAP2 SWAP1 DUP3 PUSH1 0x9 SLOAD SWAP3 JUMPDEST DUP4 DUP6 LT PUSH2 0xD46 JUMPI DUP8 DUP8 DUP8 MLOAD SWAP1 DUP2 MSTORE RETURN JUMPDEST SWAP1 SWAP2 SWAP3 SWAP4 SWAP6 DUP4 DUP9 DUP4 PUSH2 0xD57 DUP11 PUSH2 0xE22 JUMP JUMPDEST SWAP2 SWAP1 SLOAD SWAP2 DUP11 MLOAD SWAP5 DUP6 SWAP4 DUP5 SWAP3 PUSH4 0x6A61F75 PUSH1 0xE5 SHL DUP5 MSTORE PUSH1 0x3 SHL SHR AND GAS STATICCALL SWAP1 DUP2 ISZERO PUSH2 0xDC7 JUMPI DUP5 SWAP2 PUSH2 0xD99 JUMPI JUMPDEST POP PUSH2 0xD8E SWAP1 PUSH1 0x1 SWAP3 PUSH2 0xEBB JUMP JUMPDEST SWAP7 ADD SWAP4 SWAP3 SWAP2 SWAP1 PUSH2 0xD36 JUMP JUMPDEST SWAP1 POP DUP9 DUP2 DUP2 RETURNDATASIZE DUP4 GT PUSH2 0xDC0 JUMPI JUMPDEST PUSH2 0xDB0 DUP2 DUP4 PUSH2 0xE99 JUMP JUMPDEST DUP2 ADD SUB SLT PUSH2 0x76E JUMPI MLOAD PUSH1 0x1 PUSH2 0xD81 JUMP JUMPDEST POP RETURNDATASIZE PUSH2 0xDA6 JUMP JUMPDEST DUP8 MLOAD RETURNDATASIZE DUP7 DUP3 RETURNDATACOPY RETURNDATASIZE SWAP1 REVERT JUMPDEST SWAP1 POP DUP6 DUP2 DUP2 RETURNDATASIZE DUP4 GT PUSH2 0xDFB JUMPI JUMPDEST PUSH2 0xDE8 DUP2 DUP4 PUSH2 0xE99 JUMP JUMPDEST DUP2 ADD SUB SLT PUSH2 0xDF7 JUMPI MLOAD DUP7 PUSH2 0xD2C JUMP JUMPDEST DUP5 DUP1 REVERT JUMPDEST POP RETURNDATASIZE PUSH2 0xDDE JUMP JUMPDEST DUP5 MLOAD RETURNDATASIZE DUP8 DUP3 RETURNDATACOPY RETURNDATASIZE SWAP1 REVERT JUMPDEST PUSH1 0x4 CALLDATALOAD SWAP1 PUSH1 0x1 PUSH1 0x1 PUSH1 0xA0 SHL SUB DUP3 AND DUP3 SUB PUSH2 0x412 JUMPI JUMP JUMPDEST PUSH1 0x9 SLOAD DUP2 LT ISZERO PUSH2 0xE59 JUMPI PUSH1 0x9 PUSH1 0x0 MSTORE PUSH32 0x6E1540171B6C0C960B71A7020D9F60077F6AF931A8BBF590DA0223DACF75C7AF ADD SWAP1 PUSH1 0x0 SWAP1 JUMP JUMPDEST PUSH4 0x4E487B71 PUSH1 0xE0 SHL PUSH1 0x0 MSTORE PUSH1 0x32 PUSH1 0x4 MSTORE PUSH1 0x24 PUSH1 0x0 REVERT JUMPDEST PUSH8 0xFFFFFFFFFFFFFFFF DUP2 GT PUSH2 0xE83 JUMPI PUSH1 0x40 MSTORE JUMP JUMPDEST PUSH4 0x4E487B71 PUSH1 0xE0 SHL PUSH1 0x0 MSTORE PUSH1 0x41 PUSH1 0x4 MSTORE PUSH1 0x24 PUSH1 0x0 REVERT JUMPDEST SWAP1 PUSH1 0x1F DUP1 NOT SWAP2 ADD AND DUP2 ADD SWAP1 DUP2 LT PUSH8 0xFFFFFFFFFFFFFFFF DUP3 GT OR PUSH2 0xE83 JUMPI PUSH1 0x40 MSTORE JUMP JUMPDEST SWAP2 SWAP1 DUP3 ADD DUP1 SWAP3 GT PUSH2 0xEC8 JUMPI JUMP JUMPDEST PUSH4 0x4E487B71 PUSH1 0xE0 SHL PUSH1 0x0 MSTORE PUSH1 0x11 PUSH1 0x4 MSTORE PUSH1 0x24 PUSH1 0x0 REVERT JUMPDEST SWAP1 DUP2 PUSH1 0x20 SWAP2 SUB SLT PUSH2 0x412 JUMPI MLOAD DUP1 ISZERO ISZERO DUP2 SUB PUSH2 0x412 JUMPI SWAP1 JUMP JUMPDEST DUP2 DUP2 MUL SWAP3 SWAP2 DUP2 ISZERO SWAP2 DUP5 DIV EQ OR ISZERO PUSH2 0xEC8 JUMPI JUMP JUMPDEST DUP2 ISZERO PUSH2 0xF13 JUMPI DIV SWAP1 JUMP JUMPDEST PUSH4 0x4E487B71 PUSH1 0xE0 SHL PUSH1 0x0 MSTORE PUSH1 0x12 PUSH1 0x4 MSTORE PUSH1 0x24 PUSH1 0x0 REVERT JUMPDEST ISZERO PUSH2 0xF30 JUMPI JUMP JUMPDEST PUSH1 0x40 MLOAD PUSH3 0x461BCD PUSH1 0xE5 SHL DUP2 MSTORE PUSH1 0x20 PUSH1 0x4 DUP3 ADD MSTORE PUSH1 0x17 PUSH1 0x24 DUP3 ADD MSTORE PUSH32 0x4175746F54726561737572793A206E6F74206F776E6572000000000000000000 PUSH1 0x44 DUP3 ADD MSTORE PUSH1 0x64 SWAP1 REVERT JUMPDEST SWAP2 SWAP1 DUP3 SUB SWAP2 DUP3 GT PUSH2 0xEC8 JUMPI JUMP JUMPDEST PUSH1 0x0 JUMPDEST DUP4 DUP2 LT PUSH2 0xF95 JUMPI POP POP PUSH1 0x0 SWAP2 ADD MSTORE JUMP JUMPDEST DUP2 DUP2 ADD MLOAD DUP4 DUP3 ADD MSTORE PUSH1 0x20 ADD PUSH2 0xF85 JUMP JUMPDEST PUSH1 0x7 SLOAD ISZERO PUSH2 0x10D6 JUMPI PUSH1 0x0 SWAP1 DUP2 JUMPDEST PUSH1 0x9 SLOAD DUP4 LT ISZERO PUSH2 0x1052 JUMPI PUSH2 0xFC5 DUP4 PUSH2 0xE22 JUMP JUMPDEST SWAP1 SLOAD PUSH1 0x40 SWAP2 DUP3 MLOAD SWAP2 PUSH4 0xE8D991D1 PUSH1 0xE0 SHL DUP4 MSTORE DUP3 PUSH1 0x4 DUP2 PUSH1 0x0 PUSH1 0x20 SWAP6 DUP7 SWAP6 PUSH1 0x1 DUP1 PUSH1 0xA0 SHL SUB SWAP2 PUSH1 0x3 SHL SHR AND GAS CALL SWAP3 DUP4 ISZERO PUSH2 0x1048 JUMPI POP PUSH1 0x0 SWAP3 PUSH2 0x1017 JUMPI JUMPDEST POP POP PUSH2 0x100F SWAP1 PUSH1 0x1 SWAP3 PUSH2 0xEBB JUMP JUMPDEST SWAP3 ADD SWAP2 PUSH2 0xFB2 JUMP JUMPDEST DUP2 DUP2 SWAP4 SWAP3 SWAP4 RETURNDATASIZE DUP4 GT PUSH2 0x1041 JUMPI JUMPDEST PUSH2 0x102E DUP2 DUP4 PUSH2 0xE99 JUMP JUMPDEST DUP2 ADD SUB SLT PUSH2 0x1A4 JUMPI POP MLOAD DUP2 PUSH2 0x100F PUSH2 0x1001 JUMP JUMPDEST POP RETURNDATASIZE PUSH2 0x1024 JUMP JUMPDEST MLOAD RETURNDATASIZE PUSH1 0x0 DUP3 RETURNDATACOPY RETURNDATASIZE SWAP1 REVERT JUMPDEST SWAP1 SWAP2 POP DUP1 PUSH2 0x105D JUMPI POP JUMP JUMPDEST PUSH1 0x20 DUP2 PUSH2 0x108D PUSH32 0xEB2D114A827FE0DA3DB4C0E374010959CF461F7ED76987AEFF51666DEA9ADD9B SWAP4 PUSH1 0x5 SLOAD PUSH2 0xEBB JUMP JUMPDEST PUSH1 0x5 SSTORE CALLER PUSH1 0x0 MSTORE PUSH1 0x6 DUP3 MSTORE PUSH2 0x10B3 PUSH2 0x10AA PUSH1 0x40 PUSH1 0x0 KECCAK256 SLOAD DUP4 PUSH2 0xEF6 JUMP JUMPDEST PUSH1 0x7 SLOAD SWAP1 PUSH2 0xF09 JUMP JUMPDEST CALLER PUSH1 0x0 MSTORE PUSH1 0x4 DUP4 MSTORE PUSH2 0x10CB PUSH1 0x40 PUSH1 0x0 KECCAK256 SWAP2 DUP3 SLOAD PUSH2 0xEBB JUMP JUMPDEST SWAP1 SSTORE PUSH1 0x40 MLOAD SWAP1 DUP2 MSTORE LOG1 JUMP JUMPDEST JUMP INVALID LOG2 PUSH5 0x6970667358 0x22 SLT KECCAK256 DUP13 0xE1 CALLDATALOAD CHAINID PUSH7 0xC74E8E25366622 COINBASE 0xAE DELEGATECALL EXP DUP15 PUSH17 0xAF70A8D256BD3C7BF4EE184E3B1B64736F PUSH13 0x63430008180033000000000000 "},"methodIdentifiers":{"addStrategy(address)":"223e5479","owner()":"8da5cb5b","payWithYield(uint32,address,uint256)":"372b0261","primaryAsset()":"e58d777a","principal(address)":"2ce0f9d6","rebalance()":"7d7c2a1c","save(uint256)":"1b862027","shares(address)":"ce7c2ac2","spendableYield(address)":"e4f24601","strategies(uint256)":"d574ea3d","totalAssets()":"01e1d114","totalPrincipal()":"4b1533b2","totalShares()":"3a98ef39","totalSpendableYield()":"2e017c07","withdrawPrincipal(uint256)":"658e28a4","xcmRouter()":"e1d20600"}}}}}