{"src/XCMRouter.sol":{"XCMRouter":{"abi":[{"inputs":[],"stateMutability":"nonpayable","type":"constructor"},{"anonymous":false,"inputs":[{"indexed":false,"internalType":"bytes","name":"message","type":"bytes"}],"name":"XCMExecuted","type":"event"},{"anonymous":false,"inputs":[{"indexed":false,"internalType":"bytes","name":"dest","type":"bytes"},{"indexed":false,"internalType":"bytes","name":"message","type":"bytes"}],"name":"XCMSent","type":"event"},{"inputs":[],"name":"ASSET_CONVERSION_PALLET_INDEX","outputs":[{"internalType":"uint8","name":"","type":"uint8"}],"stateMutability":"view","type":"function"},{"inputs":[],"name":"ASSET_HUB_PARA_ID","outputs":[{"internalType":"uint32","name":"","type":"uint32"}],"stateMutability":"view","type":"function"},{"inputs":[],"name":"RELAY_CHAIN_ID","outputs":[{"internalType":"uint32","name":"","type":"uint32"}],"stateMutability":"view","type":"function"},{"inputs":[],"name":"STAKING_PRECOMPILE","outputs":[{"internalType":"address","name":"","type":"address"}],"stateMutability":"view","type":"function"},{"inputs":[],"name":"SWAP_CALL_INDEX","outputs":[{"internalType":"uint8","name":"","type":"uint8"}],"stateMutability":"view","type":"function"},{"inputs":[],"name":"XCM_PRECOMPILE","outputs":[{"internalType":"address","name":"","type":"address"}],"stateMutability":"view","type":"function"},{"inputs":[{"internalType":"address","name":"asset","type":"address"},{"internalType":"uint256","name":"amount","type":"uint256"}],"name":"buildLendOnAssetHub","outputs":[{"internalType":"bytes","name":"payload","type":"bytes"}],"stateMutability":"pure","type":"function"},{"inputs":[{"internalType":"uint256","name":"amount","type":"uint256"}],"name":"buildStakeOnRelay","outputs":[{"internalType":"bytes","name":"payload","type":"bytes"}],"stateMutability":"pure","type":"function"},{"inputs":[{"internalType":"address","name":"assetIn","type":"address"},{"internalType":"address","name":"assetOut","type":"address"},{"internalType":"uint256","name":"amountIn","type":"uint256"},{"internalType":"uint256","name":"amountOutMin","type":"uint256"}],"name":"buildSwapOnAssetHub","outputs":[{"internalType":"bytes","name":"payload","type":"bytes"}],"stateMutability":"pure","type":"function"},{"inputs":[{"internalType":"address","name":"asset","type":"address"},{"internalType":"uint256","name":"amount","type":"uint256"}],"name":"buildTransferToAssetHub","outputs":[{"internalType":"bytes","name":"payload","type":"bytes"}],"stateMutability":"pure","type":"function"},{"inputs":[{"internalType":"address","name":"account","type":"address"}],"name":"getNativeBonded","outputs":[{"internalType":"uint256","name":"","type":"uint256"}],"stateMutability":"view","type":"function"},{"inputs":[{"internalType":"uint256","name":"amount","type":"uint256"}],"name":"nativeBond","outputs":[],"stateMutability":"nonpayable","type":"function"},{"inputs":[{"internalType":"address[]","name":"targets","type":"address[]"}],"name":"nativeNominate","outputs":[],"stateMutability":"nonpayable","type":"function"},{"inputs":[{"internalType":"uint256","name":"amount","type":"uint256"}],"name":"nativeUnbond","outputs":[],"stateMutability":"nonpayable","type":"function"},{"inputs":[],"name":"owner","outputs":[{"internalType":"address","name":"","type":"address"}],"stateMutability":"view","type":"function"},{"inputs":[{"internalType":"bytes","name":"payload","type":"bytes"}],"name":"sendToAssetHub","outputs":[],"stateMutability":"nonpayable","type":"function"},{"inputs":[{"internalType":"bytes","name":"payload","type":"bytes"}],"name":"sendToRelay","outputs":[],"stateMutability":"nonpayable","type":"function"},{"inputs":[{"internalType":"address","name":"_xcm","type":"address"},{"internalType":"address","name":"_staking","type":"address"}],"name":"setPrecompileAddresses","outputs":[],"stateMutability":"nonpayable","type":"function"},{"inputs":[{"internalType":"address","name":"_treasury","type":"address"}],"name":"setTreasury","outputs":[],"stateMutability":"nonpayable","type":"function"},{"inputs":[],"name":"treasury","outputs":[{"internalType":"address","name":"","type":"address"}],"stateMutability":"view","type":"function"}],"evm":{"bytecode":{"linkReferences":{},"object":"608080604052346100415760018060a01b0319620a000081600054161760005561080381600154161760015533906002541617600255610df390816100478239f35b600080fdfe608060409080825260048036101561001657600080fd5b600092833560e01c9283630685614214610a4c57508263077120cc14610a245782630cb9f3ad146109fb57826314dadaaa146109e057826318d71636146109955782632d3f8d54146109795782633f7070221461090f57826355480d17146108f257826357d3c71a146107f557826361d027b3146107cc57826379b15de0146106d55782637ae40a11146106735782638bac5ab5146105d7578383638d4831881461054c575082638da5cb5b14610523578263927620db1461049e57826392df829514610307578263a58be0c3146101f7579083918363b375e04a1461015a5750505063f0f442601461010857600080fd5b3461015757602036600319011261015757610121610b86565b6002546001600160a01b03919061013b9083163314610c83565b166bffffffffffffffffffffffff60a01b600354161760035580f35b80fd5b829350346101f35760203660031901126101f3576003546001600160a01b03908116331480156101e6575b61018e90610bb2565b6001541691823b156101e157839260248492845195869384926313ef4f1960e11b84528035908401525af19081156101d857506101c85750f35b6101d190610a65565b6101575780f35b513d84823e3d90fd5b505050fd5b5060025481163314610185565b5050fd5b8382346103035760209260206003193601126102ff5767ffffffffffffffff82358181116102fb57366023820112156102fb57808401359182116102fb573660248360051b830101116102fb576003546001600160a01b0392908316331480156102ee575b61026590610bb2565b600196836001541693843b156102ea579190818651976319f2fdad60e01b8952602060248a01918a01525260246044880194019288905b8382106102c05789808a8a8282808c0381838f5af19081156101d857506101c85750f35b90919293948535908282168092036102e55790815283019483019392918a019061029c565b600080fd5b8780fd5b506002548316331461025c565b8480fd5b8280fd5b5080fd5b83346101575760803660031901126101575761049a610324610b86565b9261048b610330610b9c565b61044761034d610347610341610cc6565b98610d78565b92610d78565b9161044260438651926020998a916103a483870191600160fb1b83528760219a826103818d945180928a8787019101610b3e565b8201610395825180938a8785019101610b3e565b01036001810189520187610aab565b895161042d8482019260008452600160f81b8b840152600560f81b602284015260006023840152601783526103d883610a8f565b6103fb8d51998a97600f60f81b90890152868d8901525180926022890190610b3e565b8501916001600160801b03198060443560801b16602285015260643560801b1660328401525180936042840190610b3e565b01906042820152036023810184520182610aab565b610d19565b958351968791600160fa1b88840152610468815180928a8787019101610b3e565b820161047c825180938a8785019101610b3e565b01036001810187520185610aab565b51928284938452830190610b61565b0390f35b8334610157578160031936011261015757506104b8610b86565b9061049a6104cd6104c7610cc6565b93610d78565b9161048b6021610447835161044260328260209961140360f01b8b8301526104fe815180928d602286019101610b3e565b81016001600160801b031960243560801b166022820152036012810184520182610aab565b83903461030357816003193601126103035760025490516001600160a01b039091168152602090f35b925090346101f35760203660031901126101f3576003546001600160a01b03908116331480156105ca575b61058090610bb2565b60015416803b156101e157604484928451958693849263d5c90b2960e01b84528035908401528160248401525af19081156101d857506105be575080f35b6105c790610a65565b80f35b5060025481163314610577565b83903461030357602092836003193601126102ff57836105f5610b86565b600154845163f19e2a2160e01b81526001600160a01b039283169481019490945283916024918391165afa928315610668578093610636575b505051908152f35b909192508382813d8311610661575b61064f8183610aab565b8101031261015757505190838061062e565b503d610645565b8251903d90823e3d90fd5b839034610303573660031901126101575761068c610b86565b610694610b9c565b6002546001600160a01b0391906106ae9083163314610c83565b816bffffffffffffffffffffffff60a01b9316838554161784551690600154161760015580f35b9150346102ff578261073460206106eb36610acd565b809460018060a01b038060035416331480156107bf575b61070b90610bb2565b610713610cf8565b95869181541692895196879586948593637f0a3bf960e01b85528401610c16565b03925af19081156107b55793610776610780927fb896fa5daa5aaa810dbe2375ff4785c955bc7e1423e43094570a9f841329a7dd968891610786575b50610c3e565b5192839283610c16565b0390a180f35b6107a8915060203d6020116107ae575b6107a08183610aab565b810190610bfe565b38610770565b503d610796565b84513d87823e3d90fd5b5060025481163314610702565b83903461030357816003193601126103035760035490516001600160a01b039091168152602090f35b833461015757816003193601126101575761049a610811610b86565b9261048b60216024359461082c610826610cc6565b97610d78565b84516108c560478260209a8b82019587875260648d825190830190610854818d880184610b3e565b85016108946001600160801b031994858760801b168e840152600d60f81b60318401528c6032840152600360fa1b60338401525180936034840190610b3e565b01920460801b166034820152600160fa1b968760448301528060458301526046820152036027810184520182610aab565b61047c8651998a948a8601526108e3815180928c8989019101610b3e565b84019151809386840190610b3e565b839034610303578160031936011261030357602090516103e88152f35b9150346102ff57602091826003193601126109755761048b602161044761049a94610938610cf8565b8551600760f81b89820152913560801b6fffffffffffffffffffffffffffffffff1916602283015260328201989098526013815261044281610a8f565b8380fd5b83903461030357816003193601126103035760209051600f8152f35b9150346102ff578261073460206109ab36610acd565b809460018060a01b038060035416331480156109d3575b6109cb90610bb2565b610713610cc6565b50600254811633146109c2565b83903461030357816003193601126103035751908152602090f35b83903461030357816003193601126103035760015490516001600160a01b039091168152602090f35b839034610303578160031936011261030357905490516001600160a01b039091168152602090f35b8490346103035781600319360112610303576020918152f35b67ffffffffffffffff8111610a7957604052565b634e487b7160e01b600052604160045260246000fd5b6040810190811067ffffffffffffffff821117610a7957604052565b90601f8019910116810190811067ffffffffffffffff821117610a7957604052565b60206003198201126102e55767ffffffffffffffff6004358181116102e557826023820112156102e5578060040135918211610a795760405192610b1b601f8401601f191660200185610aab565b828452602483830101116102e55781600092602460209301838601378301015290565b60005b838110610b515750506000910152565b8181015183820152602001610b41565b90602091610b7a81518092818552858086019101610b3e565b601f01601f1916010190565b600435906001600160a01b03821682036102e557565b602435906001600160a01b03821682036102e557565b15610bb957565b60405162461bcd60e51b815260206004820152601760248201527f58434d526f757465723a20756e617574686f72697a65640000000000000000006044820152606490fd5b908160209103126102e5575180151581036102e55790565b9091610c2d610c3b93604084526040840190610b61565b916020818403910152610b61565b90565b15610c4557565b60405162461bcd60e51b81526020600482015260166024820152751610d3549bdd5d195c8e881cd95b990819985a5b195960521b6044820152606490fd5b15610c8a57565b60405162461bcd60e51b81526020600482015260146024820152732c21a6a937baba32b91d103737ba1037bbb732b960611b6044820152606490fd5b604051600160f81b60208201819052602182015260006022820152607d60e31b602382015260078152610c3b81610a8f565b604051600160f81b60208201526000602182015260028152610c3b81610a8f565b610c3b60336040518093600360f91b602083015260006021830152600160f81b6022830152621dcd6560c91b602383015261027160c41b602b830152610d688151809260208686019101610b3e565b8101036013810184520182610aab565b60405160006020820152600160f81b6021820152600560f81b602282015260609190911b6bffffffffffffffffffffffff1916602382015260178152610c3b81610a8f56fea264697066735822122062667e35933d9463d7c891e26674e71b7ed04cd8a1d0fa60b793c5cfd2f297b564736f6c63430008180033","opcodes":"PUSH1 0x80 DUP1 PUSH1 0x40 MSTORE CALLVALUE PUSH2 0x41 JUMPI PUSH1 0x1 DUP1 PUSH1 0xA0 SHL SUB NOT PUSH3 0xA0000 DUP2 PUSH1 0x0 SLOAD AND OR PUSH1 0x0 SSTORE PUSH2 0x803 DUP2 PUSH1 0x1 SLOAD AND OR PUSH1 0x1 SSTORE CALLER SWAP1 PUSH1 0x2 SLOAD AND OR PUSH1 0x2 SSTORE PUSH2 0xDF3 SWAP1 DUP2 PUSH2 0x47 DUP3 CODECOPY RETURN JUMPDEST PUSH1 0x0 DUP1 REVERT INVALID PUSH1 0x80 PUSH1 0x40 SWAP1 DUP1 DUP3 MSTORE PUSH1 0x4 DUP1 CALLDATASIZE LT ISZERO PUSH2 0x16 JUMPI PUSH1 0x0 DUP1 REVERT JUMPDEST PUSH1 0x0 SWAP3 DUP4 CALLDATALOAD PUSH1 0xE0 SHR SWAP3 DUP4 PUSH4 0x6856142 EQ PUSH2 0xA4C JUMPI POP DUP3 PUSH4 0x77120CC EQ PUSH2 0xA24 JUMPI DUP3 PUSH4 0xCB9F3AD EQ PUSH2 0x9FB JUMPI DUP3 PUSH4 0x14DADAAA EQ PUSH2 0x9E0 JUMPI DUP3 PUSH4 0x18D71636 EQ PUSH2 0x995 JUMPI DUP3 PUSH4 0x2D3F8D54 EQ PUSH2 0x979 JUMPI DUP3 PUSH4 0x3F707022 EQ PUSH2 0x90F JUMPI DUP3 PUSH4 0x55480D17 EQ PUSH2 0x8F2 JUMPI DUP3 PUSH4 0x57D3C71A EQ PUSH2 0x7F5 JUMPI DUP3 PUSH4 0x61D027B3 EQ PUSH2 0x7CC JUMPI DUP3 PUSH4 0x79B15DE0 EQ PUSH2 0x6D5 JUMPI DUP3 PUSH4 0x7AE40A11 EQ PUSH2 0x673 JUMPI DUP3 PUSH4 0x8BAC5AB5 EQ PUSH2 0x5D7 JUMPI DUP4 DUP4 PUSH4 0x8D483188 EQ PUSH2 0x54C JUMPI POP DUP3 PUSH4 0x8DA5CB5B EQ PUSH2 0x523 JUMPI DUP3 PUSH4 0x927620DB EQ PUSH2 0x49E JUMPI DUP3 PUSH4 0x92DF8295 EQ PUSH2 0x307 JUMPI DUP3 PUSH4 0xA58BE0C3 EQ PUSH2 0x1F7 JUMPI SWAP1 DUP4 SWAP2 DUP4 PUSH4 0xB375E04A EQ PUSH2 0x15A JUMPI POP POP POP PUSH4 0xF0F44260 EQ PUSH2 0x108 JUMPI PUSH1 0x0 DUP1 REVERT JUMPDEST CALLVALUE PUSH2 0x157 JUMPI PUSH1 0x20 CALLDATASIZE PUSH1 0x3 NOT ADD SLT PUSH2 0x157 JUMPI PUSH2 0x121 PUSH2 0xB86 JUMP JUMPDEST PUSH1 0x2 SLOAD PUSH1 0x1 PUSH1 0x1 PUSH1 0xA0 SHL SUB SWAP2 SWAP1 PUSH2 0x13B SWAP1 DUP4 AND CALLER EQ PUSH2 0xC83 JUMP JUMPDEST AND PUSH12 0xFFFFFFFFFFFFFFFFFFFFFFFF PUSH1 0xA0 SHL PUSH1 0x3 SLOAD AND OR PUSH1 0x3 SSTORE DUP1 RETURN JUMPDEST DUP1 REVERT JUMPDEST DUP3 SWAP4 POP CALLVALUE PUSH2 0x1F3 JUMPI PUSH1 0x20 CALLDATASIZE PUSH1 0x3 NOT ADD SLT PUSH2 0x1F3 JUMPI PUSH1 0x3 SLOAD PUSH1 0x1 PUSH1 0x1 PUSH1 0xA0 SHL SUB SWAP1 DUP2 AND CALLER EQ DUP1 ISZERO PUSH2 0x1E6 JUMPI JUMPDEST PUSH2 0x18E SWAP1 PUSH2 0xBB2 JUMP JUMPDEST PUSH1 0x1 SLOAD AND SWAP2 DUP3 EXTCODESIZE ISZERO PUSH2 0x1E1 JUMPI DUP4 SWAP3 PUSH1 0x24 DUP5 SWAP3 DUP5 MLOAD SWAP6 DUP7 SWAP4 DUP5 SWAP3 PUSH4 0x13EF4F19 PUSH1 0xE1 SHL DUP5 MSTORE DUP1 CALLDATALOAD SWAP1 DUP5 ADD MSTORE GAS CALL SWAP1 DUP2 ISZERO PUSH2 0x1D8 JUMPI POP PUSH2 0x1C8 JUMPI POP RETURN JUMPDEST PUSH2 0x1D1 SWAP1 PUSH2 0xA65 JUMP JUMPDEST PUSH2 0x157 JUMPI DUP1 RETURN JUMPDEST MLOAD RETURNDATASIZE DUP5 DUP3 RETURNDATACOPY RETURNDATASIZE SWAP1 REVERT JUMPDEST POP POP POP REVERT JUMPDEST POP PUSH1 0x2 SLOAD DUP2 AND CALLER EQ PUSH2 0x185 JUMP JUMPDEST POP POP REVERT JUMPDEST DUP4 DUP3 CALLVALUE PUSH2 0x303 JUMPI PUSH1 0x20 SWAP3 PUSH1 0x20 PUSH1 0x3 NOT CALLDATASIZE ADD SLT PUSH2 0x2FF JUMPI PUSH8 0xFFFFFFFFFFFFFFFF DUP3 CALLDATALOAD DUP2 DUP2 GT PUSH2 0x2FB JUMPI CALLDATASIZE PUSH1 0x23 DUP3 ADD SLT ISZERO PUSH2 0x2FB JUMPI DUP1 DUP5 ADD CALLDATALOAD SWAP2 DUP3 GT PUSH2 0x2FB JUMPI CALLDATASIZE PUSH1 0x24 DUP4 PUSH1 0x5 SHL DUP4 ADD ADD GT PUSH2 0x2FB JUMPI PUSH1 0x3 SLOAD PUSH1 0x1 PUSH1 0x1 PUSH1 0xA0 SHL SUB SWAP3 SWAP1 DUP4 AND CALLER EQ DUP1 ISZERO PUSH2 0x2EE JUMPI JUMPDEST PUSH2 0x265 SWAP1 PUSH2 0xBB2 JUMP JUMPDEST PUSH1 0x1 SWAP7 DUP4 PUSH1 0x1 SLOAD AND SWAP4 DUP5 EXTCODESIZE ISZERO PUSH2 0x2EA JUMPI SWAP2 SWAP1 DUP2 DUP7 MLOAD SWAP8 PUSH4 0x19F2FDAD PUSH1 0xE0 SHL DUP10 MSTORE PUSH1 0x20 PUSH1 0x24 DUP11 ADD SWAP2 DUP11 ADD MSTORE MSTORE PUSH1 0x24 PUSH1 0x44 DUP9 ADD SWAP5 ADD SWAP3 DUP9 SWAP1 JUMPDEST DUP4 DUP3 LT PUSH2 0x2C0 JUMPI DUP10 DUP1 DUP11 DUP11 DUP3 DUP3 DUP1 DUP13 SUB DUP2 DUP4 DUP16 GAS CALL SWAP1 DUP2 ISZERO PUSH2 0x1D8 JUMPI POP PUSH2 0x1C8 JUMPI POP RETURN JUMPDEST SWAP1 SWAP2 SWAP3 SWAP4 SWAP5 DUP6 CALLDATALOAD SWAP1 DUP3 DUP3 AND DUP1 SWAP3 SUB PUSH2 0x2E5 JUMPI SWAP1 DUP2 MSTORE DUP4 ADD SWAP5 DUP4 ADD SWAP4 SWAP3 SWAP2 DUP11 ADD SWAP1 PUSH2 0x29C JUMP JUMPDEST PUSH1 0x0 DUP1 REVERT JUMPDEST DUP8 DUP1 REVERT JUMPDEST POP PUSH1 0x2 SLOAD DUP4 AND CALLER EQ PUSH2 0x25C JUMP JUMPDEST DUP5 DUP1 REVERT JUMPDEST DUP3 DUP1 REVERT JUMPDEST POP DUP1 REVERT JUMPDEST DUP4 CALLVALUE PUSH2 0x157 JUMPI PUSH1 0x80 CALLDATASIZE PUSH1 0x3 NOT ADD SLT PUSH2 0x157 JUMPI PUSH2 0x49A PUSH2 0x324 PUSH2 0xB86 JUMP JUMPDEST SWAP3 PUSH2 0x48B PUSH2 0x330 PUSH2 0xB9C JUMP JUMPDEST PUSH2 0x447 PUSH2 0x34D PUSH2 0x347 PUSH2 0x341 PUSH2 0xCC6 JUMP JUMPDEST SWAP9 PUSH2 0xD78 JUMP JUMPDEST SWAP3 PUSH2 0xD78 JUMP JUMPDEST SWAP2 PUSH2 0x442 PUSH1 0x43 DUP7 MLOAD SWAP3 PUSH1 0x20 SWAP10 DUP11 SWAP2 PUSH2 0x3A4 DUP4 DUP8 ADD SWAP2 PUSH1 0x1 PUSH1 0xFB SHL DUP4 MSTORE DUP8 PUSH1 0x21 SWAP11 DUP3 PUSH2 0x381 DUP14 SWAP5 MLOAD DUP1 SWAP3 DUP11 DUP8 DUP8 ADD SWAP2 ADD PUSH2 0xB3E JUMP JUMPDEST DUP3 ADD PUSH2 0x395 DUP3 MLOAD DUP1 SWAP4 DUP11 DUP8 DUP6 ADD SWAP2 ADD PUSH2 0xB3E JUMP JUMPDEST ADD SUB PUSH1 0x1 DUP2 ADD DUP10 MSTORE ADD DUP8 PUSH2 0xAAB JUMP JUMPDEST DUP10 MLOAD PUSH2 0x42D DUP5 DUP3 ADD SWAP3 PUSH1 0x0 DUP5 MSTORE PUSH1 0x1 PUSH1 0xF8 SHL DUP12 DUP5 ADD MSTORE PUSH1 0x5 PUSH1 0xF8 SHL PUSH1 0x22 DUP5 ADD MSTORE PUSH1 0x0 PUSH1 0x23 DUP5 ADD MSTORE PUSH1 0x17 DUP4 MSTORE PUSH2 0x3D8 DUP4 PUSH2 0xA8F JUMP JUMPDEST PUSH2 0x3FB DUP14 MLOAD SWAP10 DUP11 SWAP8 PUSH1 0xF PUSH1 0xF8 SHL SWAP1 DUP10 ADD MSTORE DUP7 DUP14 DUP10 ADD MSTORE MLOAD DUP1 SWAP3 PUSH1 0x22 DUP10 ADD SWAP1 PUSH2 0xB3E JUMP JUMPDEST DUP6 ADD SWAP2 PUSH1 0x1 PUSH1 0x1 PUSH1 0x80 SHL SUB NOT DUP1 PUSH1 0x44 CALLDATALOAD PUSH1 0x80 SHL AND PUSH1 0x22 DUP6 ADD MSTORE PUSH1 0x64 CALLDATALOAD PUSH1 0x80 SHL AND PUSH1 0x32 DUP5 ADD MSTORE MLOAD DUP1 SWAP4 PUSH1 0x42 DUP5 ADD SWAP1 PUSH2 0xB3E JUMP JUMPDEST ADD SWAP1 PUSH1 0x42 DUP3 ADD MSTORE SUB PUSH1 0x23 DUP2 ADD DUP5 MSTORE ADD DUP3 PUSH2 0xAAB JUMP JUMPDEST PUSH2 0xD19 JUMP JUMPDEST SWAP6 DUP4 MLOAD SWAP7 DUP8 SWAP2 PUSH1 0x1 PUSH1 0xFA SHL DUP9 DUP5 ADD MSTORE PUSH2 0x468 DUP2 MLOAD DUP1 SWAP3 DUP11 DUP8 DUP8 ADD SWAP2 ADD PUSH2 0xB3E JUMP JUMPDEST DUP3 ADD PUSH2 0x47C DUP3 MLOAD DUP1 SWAP4 DUP11 DUP8 DUP6 ADD SWAP2 ADD PUSH2 0xB3E JUMP JUMPDEST ADD SUB PUSH1 0x1 DUP2 ADD DUP8 MSTORE ADD DUP6 PUSH2 0xAAB JUMP JUMPDEST MLOAD SWAP3 DUP3 DUP5 SWAP4 DUP5 MSTORE DUP4 ADD SWAP1 PUSH2 0xB61 JUMP JUMPDEST SUB SWAP1 RETURN JUMPDEST DUP4 CALLVALUE PUSH2 0x157 JUMPI DUP2 PUSH1 0x3 NOT CALLDATASIZE ADD SLT PUSH2 0x157 JUMPI POP PUSH2 0x4B8 PUSH2 0xB86 JUMP JUMPDEST SWAP1 PUSH2 0x49A PUSH2 0x4CD PUSH2 0x4C7 PUSH2 0xCC6 JUMP JUMPDEST SWAP4 PUSH2 0xD78 JUMP JUMPDEST SWAP2 PUSH2 0x48B PUSH1 0x21 PUSH2 0x447 DUP4 MLOAD PUSH2 0x442 PUSH1 0x32 DUP3 PUSH1 0x20 SWAP10 PUSH2 0x1403 PUSH1 0xF0 SHL DUP12 DUP4 ADD MSTORE PUSH2 0x4FE DUP2 MLOAD DUP1 SWAP3 DUP14 PUSH1 0x22 DUP7 ADD SWAP2 ADD PUSH2 0xB3E JUMP JUMPDEST DUP2 ADD PUSH1 0x1 PUSH1 0x1 PUSH1 0x80 SHL SUB NOT PUSH1 0x24 CALLDATALOAD PUSH1 0x80 SHL AND PUSH1 0x22 DUP3 ADD MSTORE SUB PUSH1 0x12 DUP2 ADD DUP5 MSTORE ADD DUP3 PUSH2 0xAAB JUMP JUMPDEST DUP4 SWAP1 CALLVALUE PUSH2 0x303 JUMPI DUP2 PUSH1 0x3 NOT CALLDATASIZE ADD SLT PUSH2 0x303 JUMPI PUSH1 0x2 SLOAD SWAP1 MLOAD PUSH1 0x1 PUSH1 0x1 PUSH1 0xA0 SHL SUB SWAP1 SWAP2 AND DUP2 MSTORE PUSH1 0x20 SWAP1 RETURN JUMPDEST SWAP3 POP SWAP1 CALLVALUE PUSH2 0x1F3 JUMPI PUSH1 0x20 CALLDATASIZE PUSH1 0x3 NOT ADD SLT PUSH2 0x1F3 JUMPI PUSH1 0x3 SLOAD PUSH1 0x1 PUSH1 0x1 PUSH1 0xA0 SHL SUB SWAP1 DUP2 AND CALLER EQ DUP1 ISZERO PUSH2 0x5CA JUMPI JUMPDEST PUSH2 0x580 SWAP1 PUSH2 0xBB2 JUMP JUMPDEST PUSH1 0x1 SLOAD AND DUP1 EXTCODESIZE ISZERO PUSH2 0x1E1 JUMPI PUSH1 0x44 DUP5 SWAP3 DUP5 MLOAD SWAP6 DUP7 SWAP4 DUP5 SWAP3 PUSH4 0xD5C90B29 PUSH1 0xE0 SHL DUP5 MSTORE DUP1 CALLDATALOAD SWAP1 DUP5 ADD MSTORE DUP2 PUSH1 0x24 DUP5 ADD MSTORE GAS CALL SWAP1 DUP2 ISZERO PUSH2 0x1D8 JUMPI POP PUSH2 0x5BE JUMPI POP DUP1 RETURN JUMPDEST PUSH2 0x5C7 SWAP1 PUSH2 0xA65 JUMP JUMPDEST DUP1 RETURN JUMPDEST POP PUSH1 0x2 SLOAD DUP2 AND CALLER EQ PUSH2 0x577 JUMP JUMPDEST DUP4 SWAP1 CALLVALUE PUSH2 0x303 JUMPI PUSH1 0x20 SWAP3 DUP4 PUSH1 0x3 NOT CALLDATASIZE ADD SLT PUSH2 0x2FF JUMPI DUP4 PUSH2 0x5F5 PUSH2 0xB86 JUMP JUMPDEST PUSH1 0x1 SLOAD DUP5 MLOAD PUSH4 0xF19E2A21 PUSH1 0xE0 SHL DUP2 MSTORE PUSH1 0x1 PUSH1 0x1 PUSH1 0xA0 SHL SUB SWAP3 DUP4 AND SWAP5 DUP2 ADD SWAP5 SWAP1 SWAP5 MSTORE DUP4 SWAP2 PUSH1 0x24 SWAP2 DUP4 SWAP2 AND GAS STATICCALL SWAP3 DUP4 ISZERO PUSH2 0x668 JUMPI DUP1 SWAP4 PUSH2 0x636 JUMPI JUMPDEST POP POP MLOAD SWAP1 DUP2 MSTORE RETURN JUMPDEST SWAP1 SWAP2 SWAP3 POP DUP4 DUP3 DUP2 RETURNDATASIZE DUP4 GT PUSH2 0x661 JUMPI JUMPDEST PUSH2 0x64F DUP2 DUP4 PUSH2 0xAAB JUMP JUMPDEST DUP2 ADD SUB SLT PUSH2 0x157 JUMPI POP MLOAD SWAP1 DUP4 DUP1 PUSH2 0x62E JUMP JUMPDEST POP RETURNDATASIZE PUSH2 0x645 JUMP JUMPDEST DUP3 MLOAD SWAP1 RETURNDATASIZE SWAP1 DUP3 RETURNDATACOPY RETURNDATASIZE SWAP1 REVERT JUMPDEST DUP4 SWAP1 CALLVALUE PUSH2 0x303 JUMPI CALLDATASIZE PUSH1 0x3 NOT ADD SLT PUSH2 0x157 JUMPI PUSH2 0x68C PUSH2 0xB86 JUMP JUMPDEST PUSH2 0x694 PUSH2 0xB9C JUMP JUMPDEST PUSH1 0x2 SLOAD PUSH1 0x1 PUSH1 0x1 PUSH1 0xA0 SHL SUB SWAP2 SWAP1 PUSH2 0x6AE SWAP1 DUP4 AND CALLER EQ PUSH2 0xC83 JUMP JUMPDEST DUP2 PUSH12 0xFFFFFFFFFFFFFFFFFFFFFFFF PUSH1 0xA0 SHL SWAP4 AND DUP4 DUP6 SLOAD AND OR DUP5 SSTORE AND SWAP1 PUSH1 0x1 SLOAD AND OR PUSH1 0x1 SSTORE DUP1 RETURN JUMPDEST SWAP2 POP CALLVALUE PUSH2 0x2FF JUMPI DUP3 PUSH2 0x734 PUSH1 0x20 PUSH2 0x6EB CALLDATASIZE PUSH2 0xACD JUMP JUMPDEST DUP1 SWAP5 PUSH1 0x1 DUP1 PUSH1 0xA0 SHL SUB DUP1 PUSH1 0x3 SLOAD AND CALLER EQ DUP1 ISZERO PUSH2 0x7BF JUMPI JUMPDEST PUSH2 0x70B SWAP1 PUSH2 0xBB2 JUMP JUMPDEST PUSH2 0x713 PUSH2 0xCF8 JUMP JUMPDEST SWAP6 DUP7 SWAP2 DUP2 SLOAD AND SWAP3 DUP10 MLOAD SWAP7 DUP8 SWAP6 DUP7 SWAP5 DUP6 SWAP4 PUSH4 0x7F0A3BF9 PUSH1 0xE0 SHL DUP6 MSTORE DUP5 ADD PUSH2 0xC16 JUMP JUMPDEST SUB SWAP3 GAS CALL SWAP1 DUP2 ISZERO PUSH2 0x7B5 JUMPI SWAP4 PUSH2 0x776 PUSH2 0x780 SWAP3 PUSH32 0xB896FA5DAA5AAA810DBE2375FF4785C955BC7E1423E43094570A9F841329A7DD SWAP7 DUP9 SWAP2 PUSH2 0x786 JUMPI JUMPDEST POP PUSH2 0xC3E JUMP JUMPDEST MLOAD SWAP3 DUP4 SWAP3 DUP4 PUSH2 0xC16 JUMP JUMPDEST SUB SWAP1 LOG1 DUP1 RETURN JUMPDEST PUSH2 0x7A8 SWAP2 POP PUSH1 0x20 RETURNDATASIZE PUSH1 0x20 GT PUSH2 0x7AE JUMPI JUMPDEST PUSH2 0x7A0 DUP2 DUP4 PUSH2 0xAAB JUMP JUMPDEST DUP2 ADD SWAP1 PUSH2 0xBFE JUMP JUMPDEST CODESIZE PUSH2 0x770 JUMP JUMPDEST POP RETURNDATASIZE PUSH2 0x796 JUMP JUMPDEST DUP5 MLOAD RETURNDATASIZE DUP8 DUP3 RETURNDATACOPY RETURNDATASIZE SWAP1 REVERT JUMPDEST POP PUSH1 0x2 SLOAD DUP2 AND CALLER EQ PUSH2 0x702 JUMP JUMPDEST DUP4 SWAP1 CALLVALUE PUSH2 0x303 JUMPI DUP2 PUSH1 0x3 NOT CALLDATASIZE ADD SLT PUSH2 0x303 JUMPI PUSH1 0x3 SLOAD SWAP1 MLOAD PUSH1 0x1 PUSH1 0x1 PUSH1 0xA0 SHL SUB SWAP1 SWAP2 AND DUP2 MSTORE PUSH1 0x20 SWAP1 RETURN JUMPDEST DUP4 CALLVALUE PUSH2 0x157 JUMPI DUP2 PUSH1 0x3 NOT CALLDATASIZE ADD SLT PUSH2 0x157 JUMPI PUSH2 0x49A PUSH2 0x811 PUSH2 0xB86 JUMP JUMPDEST SWAP3 PUSH2 0x48B PUSH1 0x21 PUSH1 0x24 CALLDATALOAD SWAP5 PUSH2 0x82C PUSH2 0x826 PUSH2 0xCC6 JUMP JUMPDEST SWAP8 PUSH2 0xD78 JUMP JUMPDEST DUP5 MLOAD PUSH2 0x8C5 PUSH1 0x47 DUP3 PUSH1 0x20 SWAP11 DUP12 DUP3 ADD SWAP6 DUP8 DUP8 MSTORE PUSH1 0x64 DUP14 DUP3 MLOAD SWAP1 DUP4 ADD SWAP1 PUSH2 0x854 DUP2 DUP14 DUP9 ADD DUP5 PUSH2 0xB3E JUMP JUMPDEST DUP6 ADD PUSH2 0x894 PUSH1 0x1 PUSH1 0x1 PUSH1 0x80 SHL SUB NOT SWAP5 DUP6 DUP8 PUSH1 0x80 SHL AND DUP15 DUP5 ADD MSTORE PUSH1 0xD PUSH1 0xF8 SHL PUSH1 0x31 DUP5 ADD MSTORE DUP13 PUSH1 0x32 DUP5 ADD MSTORE PUSH1 0x3 PUSH1 0xFA SHL PUSH1 0x33 DUP5 ADD MSTORE MLOAD DUP1 SWAP4 PUSH1 0x34 DUP5 ADD SWAP1 PUSH2 0xB3E JUMP JUMPDEST ADD SWAP3 DIV PUSH1 0x80 SHL AND PUSH1 0x34 DUP3 ADD MSTORE PUSH1 0x1 PUSH1 0xFA SHL SWAP7 DUP8 PUSH1 0x44 DUP4 ADD MSTORE DUP1 PUSH1 0x45 DUP4 ADD MSTORE PUSH1 0x46 DUP3 ADD MSTORE SUB PUSH1 0x27 DUP2 ADD DUP5 MSTORE ADD DUP3 PUSH2 0xAAB JUMP JUMPDEST PUSH2 0x47C DUP7 MLOAD SWAP10 DUP11 SWAP5 DUP11 DUP7 ADD MSTORE PUSH2 0x8E3 DUP2 MLOAD DUP1 SWAP3 DUP13 DUP10 DUP10 ADD SWAP2 ADD PUSH2 0xB3E JUMP JUMPDEST DUP5 ADD SWAP2 MLOAD DUP1 SWAP4 DUP7 DUP5 ADD SWAP1 PUSH2 0xB3E JUMP JUMPDEST DUP4 SWAP1 CALLVALUE PUSH2 0x303 JUMPI DUP2 PUSH1 0x3 NOT CALLDATASIZE ADD SLT PUSH2 0x303 JUMPI PUSH1 0x20 SWAP1 MLOAD PUSH2 0x3E8 DUP2 MSTORE RETURN JUMPDEST SWAP2 POP CALLVALUE PUSH2 0x2FF JUMPI PUSH1 0x20 SWAP2 DUP3 PUSH1 0x3 NOT CALLDATASIZE ADD SLT PUSH2 0x975 JUMPI PUSH2 0x48B PUSH1 0x21 PUSH2 0x447 PUSH2 0x49A SWAP5 PUSH2 0x938 PUSH2 0xCF8 JUMP JUMPDEST DUP6 MLOAD PUSH1 0x7 PUSH1 0xF8 SHL DUP10 DUP3 ADD MSTORE SWAP2 CALLDATALOAD PUSH1 0x80 SHL PUSH16 0xFFFFFFFFFFFFFFFFFFFFFFFFFFFFFFFF NOT AND PUSH1 0x22 DUP4 ADD MSTORE PUSH1 0x32 DUP3 ADD SWAP9 SWAP1 SWAP9 MSTORE PUSH1 0x13 DUP2 MSTORE PUSH2 0x442 DUP2 PUSH2 0xA8F JUMP JUMPDEST DUP4 DUP1 REVERT JUMPDEST DUP4 SWAP1 CALLVALUE PUSH2 0x303 JUMPI DUP2 PUSH1 0x3 NOT CALLDATASIZE ADD SLT PUSH2 0x303 JUMPI PUSH1 0x20 SWAP1 MLOAD PUSH1 0xF DUP2 MSTORE RETURN JUMPDEST SWAP2 POP CALLVALUE PUSH2 0x2FF JUMPI DUP3 PUSH2 0x734 PUSH1 0x20 PUSH2 0x9AB CALLDATASIZE PUSH2 0xACD JUMP JUMPDEST DUP1 SWAP5 PUSH1 0x1 DUP1 PUSH1 0xA0 SHL SUB DUP1 PUSH1 0x3 SLOAD AND CALLER EQ DUP1 ISZERO PUSH2 0x9D3 JUMPI JUMPDEST PUSH2 0x9CB SWAP1 PUSH2 0xBB2 JUMP JUMPDEST PUSH2 0x713 PUSH2 0xCC6 JUMP JUMPDEST POP PUSH1 0x2 SLOAD DUP2 AND CALLER EQ PUSH2 0x9C2 JUMP JUMPDEST DUP4 SWAP1 CALLVALUE PUSH2 0x303 JUMPI DUP2 PUSH1 0x3 NOT CALLDATASIZE ADD SLT PUSH2 0x303 JUMPI MLOAD SWAP1 DUP2 MSTORE PUSH1 0x20 SWAP1 RETURN JUMPDEST DUP4 SWAP1 CALLVALUE PUSH2 0x303 JUMPI DUP2 PUSH1 0x3 NOT CALLDATASIZE ADD SLT PUSH2 0x303 JUMPI PUSH1 0x1 SLOAD SWAP1 MLOAD PUSH1 0x1 PUSH1 0x1 PUSH1 0xA0 SHL SUB SWAP1 SWAP2 AND DUP2 MSTORE PUSH1 0x20 SWAP1 RETURN JUMPDEST DUP4 SWAP1 CALLVALUE PUSH2 0x303 JUMPI DUP2 PUSH1 0x3 NOT CALLDATASIZE ADD SLT PUSH2 0x303 JUMPI SWAP1 SLOAD SWAP1 MLOAD PUSH1 0x1 PUSH1 0x1 PUSH1 0xA0 SHL SUB SWAP1 SWAP2 AND DUP2 MSTORE PUSH1 0x20 SWAP1 RETURN JUMPDEST DUP5 SWAP1 CALLVALUE PUSH2 0x303 JUMPI DUP2 PUSH1 0x3 NOT CALLDATASIZE ADD SLT PUSH2 0x303 JUMPI PUSH1 0x20 SWAP2 DUP2 MSTORE RETURN JUMPDEST PUSH8 0xFFFFFFFFFFFFFFFF DUP2 GT PUSH2 0xA79 JUMPI PUSH1 0x40 MSTORE JUMP JUMPDEST PUSH4 0x4E487B71 PUSH1 0xE0 SHL PUSH1 0x0 MSTORE PUSH1 0x41 PUSH1 0x4 MSTORE PUSH1 0x24 PUSH1 0x0 REVERT JUMPDEST PUSH1 0x40 DUP2 ADD SWAP1 DUP2 LT PUSH8 0xFFFFFFFFFFFFFFFF DUP3 GT OR PUSH2 0xA79 JUMPI PUSH1 0x40 MSTORE JUMP JUMPDEST SWAP1 PUSH1 0x1F DUP1 NOT SWAP2 ADD AND DUP2 ADD SWAP1 DUP2 LT PUSH8 0xFFFFFFFFFFFFFFFF DUP3 GT OR PUSH2 0xA79 JUMPI PUSH1 0x40 MSTORE JUMP JUMPDEST PUSH1 0x20 PUSH1 0x3 NOT DUP3 ADD SLT PUSH2 0x2E5 JUMPI PUSH8 0xFFFFFFFFFFFFFFFF PUSH1 0x4 CALLDATALOAD DUP2 DUP2 GT PUSH2 0x2E5 JUMPI DUP3 PUSH1 0x23 DUP3 ADD SLT ISZERO PUSH2 0x2E5 JUMPI DUP1 PUSH1 0x4 ADD CALLDATALOAD SWAP2 DUP3 GT PUSH2 0xA79 JUMPI PUSH1 0x40 MLOAD SWAP3 PUSH2 0xB1B PUSH1 0x1F DUP5 ADD PUSH1 0x1F NOT AND PUSH1 0x20 ADD DUP6 PUSH2 0xAAB JUMP JUMPDEST DUP3 DUP5 MSTORE PUSH1 0x24 DUP4 DUP4 ADD ADD GT PUSH2 0x2E5 JUMPI DUP2 PUSH1 0x0 SWAP3 PUSH1 0x24 PUSH1 0x20 SWAP4 ADD DUP4 DUP7 ADD CALLDATACOPY DUP4 ADD ADD MSTORE SWAP1 JUMP JUMPDEST PUSH1 0x0 JUMPDEST DUP4 DUP2 LT PUSH2 0xB51 JUMPI POP POP PUSH1 0x0 SWAP2 ADD MSTORE JUMP JUMPDEST DUP2 DUP2 ADD MLOAD DUP4 DUP3 ADD MSTORE PUSH1 0x20 ADD PUSH2 0xB41 JUMP JUMPDEST SWAP1 PUSH1 0x20 SWAP2 PUSH2 0xB7A DUP2 MLOAD DUP1 SWAP3 DUP2 DUP6 MSTORE DUP6 DUP1 DUP7 ADD SWAP2 ADD PUSH2 0xB3E JUMP JUMPDEST PUSH1 0x1F ADD PUSH1 0x1F NOT AND ADD ADD SWAP1 JUMP JUMPDEST PUSH1 0x4 CALLDATALOAD SWAP1 PUSH1 0x1 PUSH1 0x1 PUSH1 0xA0 SHL SUB DUP3 AND DUP3 SUB PUSH2 0x2E5 JUMPI JUMP JUMPDEST PUSH1 0x24 CALLDATALOAD SWAP1 PUSH1 0x1 PUSH1 0x1 PUSH1 0xA0 SHL SUB DUP3 AND DUP3 SUB PUSH2 0x2E5 JUMPI JUMP JUMPDEST ISZERO PUSH2 0xBB9 JUMPI JUMP JUMPDEST PUSH1 0x40 MLOAD PUSH3 0x461BCD PUSH1 0xE5 SHL DUP2 MSTORE PUSH1 0x20 PUSH1 0x4 DUP3 ADD MSTORE PUSH1 0x17 PUSH1 0x24 DUP3 ADD MSTORE PUSH32 0x58434D526F757465723A20756E617574686F72697A6564000000000000000000 PUSH1 0x44 DUP3 ADD MSTORE PUSH1 0x64 SWAP1 REVERT JUMPDEST SWAP1 DUP2 PUSH1 0x20 SWAP2 SUB SLT PUSH2 0x2E5 JUMPI MLOAD DUP1 ISZERO ISZERO DUP2 SUB PUSH2 0x2E5 JUMPI SWAP1 JUMP JUMPDEST SWAP1 SWAP2 PUSH2 0xC2D PUSH2 0xC3B SWAP4 PUSH1 0x40 DUP5 MSTORE PUSH1 0x40 DUP5 ADD SWAP1 PUSH2 0xB61 JUMP JUMPDEST SWAP2 PUSH1 0x20 DUP2 DUP5 SUB SWAP2 ADD MSTORE PUSH2 0xB61 JUMP JUMPDEST SWAP1 JUMP JUMPDEST ISZERO PUSH2 0xC45 JUMPI JUMP JUMPDEST PUSH1 0x40 MLOAD PUSH3 0x461BCD PUSH1 0xE5 SHL DUP2 MSTORE PUSH1 0x20 PUSH1 0x4 DUP3 ADD MSTORE PUSH1 0x16 PUSH1 0x24 DUP3 ADD MSTORE PUSH22 0x1610D3549BDD5D195C8E881CD95B990819985A5B1959 PUSH1 0x52 SHL PUSH1 0x44 DUP3 ADD MSTORE PUSH1 0x64 SWAP1 REVERT JUMPDEST ISZERO PUSH2 0xC8A JUMPI JUMP JUMPDEST PUSH1 0x40 MLOAD PUSH3 0x461BCD PUSH1 0xE5 SHL DUP2 MSTORE PUSH1 0x20 PUSH1 0x4 DUP3 ADD MSTORE PUSH1 0x14 PUSH1 0x24 DUP3 ADD MSTORE PUSH20 0x2C21A6A937BABA32B91D103737BA1037BBB732B9 PUSH1 0x61 SHL PUSH1 0x44 DUP3 ADD MSTORE PUSH1 0x64 SWAP1 REVERT JUMPDEST PUSH1 0x40 MLOAD PUSH1 0x1 PUSH1 0xF8 SHL PUSH1 0x20 DUP3 ADD DUP2 SWAP1 MSTORE PUSH1 0x21 DUP3 ADD MSTORE PUSH1 0x0 PUSH1 0x22 DUP3 ADD MSTORE PUSH1 0x7D PUSH1 0xE3 SHL PUSH1 0x23 DUP3 ADD MSTORE PUSH1 0x7 DUP2 MSTORE PUSH2 0xC3B DUP2 PUSH2 0xA8F JUMP JUMPDEST PUSH1 0x40 MLOAD PUSH1 0x1 PUSH1 0xF8 SHL PUSH1 0x20 DUP3 ADD MSTORE PUSH1 0x0 PUSH1 0x21 DUP3 ADD MSTORE PUSH1 0x2 DUP2 MSTORE PUSH2 0xC3B DUP2 PUSH2 0xA8F JUMP JUMPDEST PUSH2 0xC3B PUSH1 0x33 PUSH1 0x40 MLOAD DUP1 SWAP4 PUSH1 0x3 PUSH1 0xF9 SHL PUSH1 0x20 DUP4 ADD MSTORE PUSH1 0x0 PUSH1 0x21 DUP4 ADD MSTORE PUSH1 0x1 PUSH1 0xF8 SHL PUSH1 0x22 DUP4 ADD MSTORE PUSH3 0x1DCD65 PUSH1 0xC9 SHL PUSH1 0x23 DUP4 ADD MSTORE PUSH2 0x271 PUSH1 0xC4 SHL PUSH1 0x2B DUP4 ADD MSTORE PUSH2 0xD68 DUP2 MLOAD DUP1 SWAP3 PUSH1 0x20 DUP7 DUP7 ADD SWAP2 ADD PUSH2 0xB3E JUMP JUMPDEST DUP2 ADD SUB PUSH1 0x13 DUP2 ADD DUP5 MSTORE ADD DUP3 PUSH2 0xAAB JUMP JUMPDEST PUSH1 0x40 MLOAD PUSH1 0x0 PUSH1 0x20 DUP3 ADD MSTORE PUSH1 0x1 PUSH1 0xF8 SHL PUSH1 0x21 DUP3 ADD MSTORE PUSH1 0x5 PUSH1 0xF8 SHL PUSH1 0x22 DUP3 ADD MSTORE PUSH1 0x60 SWAP2 SWAP1 SWAP2 SHL PUSH12 0xFFFFFFFFFFFFFFFFFFFFFFFF NOT AND PUSH1 0x23 DUP3 ADD MSTORE PUSH1 0x17 DUP2 MSTORE PUSH2 0xC3B DUP2 PUSH2 0xA8F JUMP INVALID LOG2 PUSH5 0x6970667358 0x22 SLT KECCAK256 PUSH3 0x667E35 SWAP4 RETURNDATASIZE SWAP5 PUSH4 0xD7C891E2 PUSH7 0x74E71B7ED04CD8 LOG1 0xD0 STATICCALL PUSH1 0xB7 SWAP4 0xC5 0xCF 0xD2 CALLCODE SWAP8 0xB5 PUSH5 0x736F6C6343 STOP ADDMOD XOR STOP CALLER "},"methodIdentifiers":{"ASSET_CONVERSION_PALLET_INDEX()":"2d3f8d54","ASSET_HUB_PARA_ID()":"55480d17","RELAY_CHAIN_ID()":"06856142","STAKING_PRECOMPILE()":"0cb9f3ad","SWAP_CALL_INDEX()":"14dadaaa","XCM_PRECOMPILE()":"077120cc","buildLendOnAssetHub(address,uint256)":"927620db","buildStakeOnRelay(uint256)":"3f707022","buildSwapOnAssetHub(address,address,uint256,uint256)":"92df8295","buildTransferToAssetHub(address,uint256)":"57d3c71a","getNativeBonded(address)":"8bac5ab5","nativeBond(uint256)":"8d483188","nativeNominate(address[])":"a58be0c3","nativeUnbond(uint256)":"b375e04a","owner()":"8da5cb5b","sendToAssetHub(bytes)":"18d71636","sendToRelay(bytes)":"79b15de0","setPrecompileAddresses(address,address)":"7ae40a11","setTreasury(address)":"f0f44260","treasury()":"61d027b3"}}}}}