{"src/strategies/YieldStrategy.sol":{"LendingStrategy":{"abi":[{"inputs":[{"internalType":"address","name":"_asset","type":"address"}],"stateMutability":"nonpayable","type":"constructor"},{"anonymous":false,"inputs":[{"indexed":false,"internalType":"uint256","name":"amount","type":"uint256"}],"name":"Divested","type":"event"},{"anonymous":false,"inputs":[{"indexed":false,"internalType":"uint256","name":"amount","type":"uint256"}],"name":"Invested","type":"event"},{"anonymous":false,"inputs":[{"indexed":false,"internalType":"uint256","name":"amount","type":"uint256"}],"name":"YieldHarvested","type":"event"},{"inputs":[],"name":"accruedYield","outputs":[{"internalType":"uint256","name":"","type":"uint256"}],"stateMutability":"view","type":"function"},{"inputs":[],"name":"asset","outputs":[{"internalType":"address","name":"","type":"address"}],"stateMutability":"view","type":"function"},{"inputs":[{"internalType":"uint256","name":"amount","type":"uint256"}],"name":"divest","outputs":[],"stateMutability":"nonpayable","type":"function"},{"inputs":[],"name":"harvestYield","outputs":[{"internalType":"uint256","name":"","type":"uint256"}],"stateMutability":"nonpayable","type":"function"},{"inputs":[{"internalType":"uint256","name":"amount","type":"uint256"}],"name":"invest","outputs":[],"stateMutability":"nonpayable","type":"function"},{"inputs":[],"name":"invested","outputs":[{"internalType":"uint256","name":"","type":"uint256"}],"stateMutability":"view","type":"function"},{"inputs":[],"name":"owner","outputs":[{"internalType":"address","name":"","type":"address"}],"stateMutability":"view","type":"function"},{"inputs":[{"internalType":"uint256","name":"_bps","type":"uint256"}],"name":"setYieldRate","outputs":[],"stateMutability":"nonpayable","type":"function"},{"inputs":[],"name":"totalValue","outputs":[{"internalType":"uint256","name":"","type":"uint256"}],"stateMutability":"view","type":"function"},{"inputs":[],"name":"yieldRateBps","outputs":[{"internalType":"uint256","name":"","type":"uint256"}],"stateMutability":"view","type":"function"}],"evm":{"bytecode":{"linkReferences":{},"object":"60803461007f57601f61053e38819003918201601f19168301916001600160401b038311848410176100845780849260209460405283398101031261007f57516001600160a01b0381169081900361007f57601e60035560018060a01b03193381600054161760005560045416176004556040516104a3908161009b8239f35b600080fd5b634e487b7160e01b600052604160045260246000fdfe608060408181526004918236101561001657600080fd5b600092833560e01c9182631411dab0146103e8575081632afcf4801461039757816338d52e0f1461036f5781634019fb33146103505781638ca17995146101ac5781638da5cb5b14610184578163cafb220214610165578163d4c3eea01461013a578163e8d991d1146100b4575063f3a6a4a31461009357600080fd5b346100b057816003193601126100b0576020906003549051908152f35b5080fd5b8284346101375780600319360112610137576001549260035493848102948186041490151715610124576020836127108604906100f38260025461044a565b6002557feb2d114a827fe0da3db4c0e374010959cf461f7ed76987aeff51666dea9add9b838251848152a151908152f35b634e487b7160e01b825260119052602490fd5b80fd5b5050346100b057816003193601126100b05760209061015e6001546002549061044a565b9051908152f35b5050346100b057816003193601126100b0576020906001549051908152f35b5050346100b057816003193601126100b057905490516001600160a01b039091168152602090f35b839150346100b0576020908160031936011261034c57803590600154808311610311578281039081116102fe576001558054855163a9059cbb60e01b81523381840152602481018490529084908290604490829089906001600160a01b03165af19081156102f4578591610290575b501561024d57507f0dbc40ccd4fca1b5bf46f23e99aaefe371e661e9ca0c45dc1b79e5e321d3b99d929351908152a180f35b845162461bcd60e51b8152908101839052601860248201527f4c656e64696e673a207472616e73666572206661696c656400000000000000006044820152606490fd5b9050833d85116102ed575b601f8101601f1916820167ffffffffffffffff8111838210176102da57859183918952810103126102d6575180151581036102d6578661021b565b8480fd5b634e487b7160e01b875260418452602487fd5b503d61029b565b86513d87823e3d90fd5b634e487b7160e01b855260118252602485fd5b855162461bcd60e51b8152808301859052601560248201527413195b991a5b99ce881a5b9cdd59999a58da595b9d605a1b6044820152606490fd5b8280fd5b5050346100b057816003193601126100b0576020906002549051908152f35b90503461034c578260031936011261034c575490516001600160a01b03909116815260209150f35b90503461034c57602036600319011261034c577fac9f7997c30b6a3cc9c74953898b5de154359339c7ec0d6d70ceb98e55db1a4b9160209135906103dd8260015461044a565b60015551908152a180f35b8492503461034c57602036600319011261034c5782546001600160a01b0316330361041557503560035580f35b602060649262461bcd60e51b835282015260126024820152712632b73234b7339d103737ba1037bbb732b960711b6044820152fd5b9190820180921161045757565b634e487b7160e01b600052601160045260246000fdfea2646970667358221220cf990f67a66c0df31589fee707dedfa2401d1f26b50aba4bb11ae9c0e941d62164736f6c63430008180033","opcodes":"PUSH1 0x80 CALLVALUE PUSH2 0x7F JUMPI PUSH1 0x1F PUSH2 0x53E CODESIZE DUP2 SWAP1 SUB SWAP2 DUP3 ADD PUSH1 0x1F NOT AND DUP4 ADD SWAP2 PUSH1 0x1 PUSH1 0x1 PUSH1 0x40 SHL SUB DUP4 GT DUP5 DUP5 LT OR PUSH2 0x84 JUMPI DUP1 DUP5 SWAP3 PUSH1 0x20 SWAP5 PUSH1 0x40 MSTORE DUP4 CODECOPY DUP2 ADD SUB SLT PUSH2 0x7F JUMPI MLOAD PUSH1 0x1 PUSH1 0x1 PUSH1 0xA0 SHL SUB DUP2 AND SWAP1 DUP2 SWAP1 SUB PUSH2 0x7F JUMPI PUSH1 0x1E PUSH1 0x3 SSTORE PUSH1 0x1 DUP1 PUSH1 0xA0 SHL SUB NOT CALLER DUP2 PUSH1 0x0 SLOAD AND OR PUSH1 0x0 SSTORE PUSH1 0x4 SLOAD AND OR PUSH1 0x4 SSTORE PUSH1 0x40 MLOAD PUSH2 0x4A3 SWAP1 DUP2 PUSH2 0x9B DUP3 CODECOPY RETURN JUMPDEST PUSH1 0x0 DUP1 REVERT JUMPDEST PUSH4 0x4E487B71 PUSH1 0xE0 SHL PUSH1 0x0 MSTORE PUSH1 0x41 PUSH1 0x4 MSTORE PUSH1 0x24 PUSH1 0x0 REVERT INVALID PUSH1 0x80 PUSH1 0x40 DUP2 DUP2 MSTORE PUSH1 0x4 SWAP2 DUP3 CALLDATASIZE LT ISZERO PUSH2 0x16 JUMPI PUSH1 0x0 DUP1 REVERT JUMPDEST PUSH1 0x0 SWAP3 DUP4 CALLDATALOAD PUSH1 0xE0 SHR SWAP2 DUP3 PUSH4 0x1411DAB0 EQ PUSH2 0x3E8 JUMPI POP DUP2 PUSH4 0x2AFCF480 EQ PUSH2 0x397 JUMPI DUP2 PUSH4 0x38D52E0F EQ PUSH2 0x36F JUMPI DUP2 PUSH4 0x4019FB33 EQ PUSH2 0x350 JUMPI DUP2 PUSH4 0x8CA17995 EQ PUSH2 0x1AC JUMPI DUP2 PUSH4 0x8DA5CB5B EQ PUSH2 0x184 JUMPI DUP2 PUSH4 0xCAFB2202 EQ PUSH2 0x165 JUMPI DUP2 PUSH4 0xD4C3EEA0 EQ PUSH2 0x13A JUMPI DUP2 PUSH4 0xE8D991D1 EQ PUSH2 0xB4 JUMPI POP PUSH4 0xF3A6A4A3 EQ PUSH2 0x93 JUMPI PUSH1 0x0 DUP1 REVERT JUMPDEST CALLVALUE PUSH2 0xB0 JUMPI DUP2 PUSH1 0x3 NOT CALLDATASIZE ADD SLT PUSH2 0xB0 JUMPI PUSH1 0x20 SWAP1 PUSH1 0x3 SLOAD SWAP1 MLOAD SWAP1 DUP2 MSTORE RETURN JUMPDEST POP DUP1 REVERT JUMPDEST DUP3 DUP5 CALLVALUE PUSH2 0x137 JUMPI DUP1 PUSH1 0x3 NOT CALLDATASIZE ADD SLT PUSH2 0x137 JUMPI PUSH1 0x1 SLOAD SWAP3 PUSH1 0x3 SLOAD SWAP4 DUP5 DUP2 MUL SWAP5 DUP2 DUP7 DIV EQ SWAP1 ISZERO OR ISZERO PUSH2 0x124 JUMPI PUSH1 0x20 DUP4 PUSH2 0x2710 DUP7 DIV SWAP1 PUSH2 0xF3 DUP3 PUSH1 0x2 SLOAD PUSH2 0x44A JUMP JUMPDEST PUSH1 0x2 SSTORE PUSH32 0xEB2D114A827FE0DA3DB4C0E374010959CF461F7ED76987AEFF51666DEA9ADD9B DUP4 DUP3 MLOAD DUP5 DUP2 MSTORE LOG1 MLOAD SWAP1 DUP2 MSTORE RETURN JUMPDEST PUSH4 0x4E487B71 PUSH1 0xE0 SHL DUP3 MSTORE PUSH1 0x11 SWAP1 MSTORE PUSH1 0x24 SWAP1 REVERT JUMPDEST DUP1 REVERT JUMPDEST POP POP CALLVALUE PUSH2 0xB0 JUMPI DUP2 PUSH1 0x3 NOT CALLDATASIZE ADD SLT PUSH2 0xB0 JUMPI PUSH1 0x20 SWAP1 PUSH2 0x15E PUSH1 0x1 SLOAD PUSH1 0x2 SLOAD SWAP1 PUSH2 0x44A JUMP JUMPDEST SWAP1 MLOAD SWAP1 DUP2 MSTORE RETURN JUMPDEST POP POP CALLVALUE PUSH2 0xB0 JUMPI DUP2 PUSH1 0x3 NOT CALLDATASIZE ADD SLT PUSH2 0xB0 JUMPI PUSH1 0x20 SWAP1 PUSH1 0x1 SLOAD SWAP1 MLOAD SWAP1 DUP2 MSTORE RETURN JUMPDEST POP POP CALLVALUE PUSH2 0xB0 JUMPI DUP2 PUSH1 0x3 NOT CALLDATASIZE ADD SLT PUSH2 0xB0 JUMPI SWAP1 SLOAD SWAP1 MLOAD PUSH1 0x1 PUSH1 0x1 PUSH1 0xA0 SHL SUB SWAP1 SWAP2 AND DUP2 MSTORE PUSH1 0x20 SWAP1 RETURN JUMPDEST DUP4 SWAP2 POP CALLVALUE PUSH2 0xB0 JUMPI PUSH1 0x20 SWAP1 DUP2 PUSH1 0x3 NOT CALLDATASIZE ADD SLT PUSH2 0x34C JUMPI DUP1 CALLDATALOAD SWAP1 PUSH1 0x1 SLOAD DUP1 DUP4 GT PUSH2 0x311 JUMPI DUP3 DUP2 SUB SWAP1 DUP2 GT PUSH2 0x2FE JUMPI PUSH1 0x1 SSTORE DUP1 SLOAD DUP6 MLOAD PUSH4 0xA9059CBB PUSH1 0xE0 SHL DUP2 MSTORE CALLER DUP2 DUP5 ADD MSTORE PUSH1 0x24 DUP2 ADD DUP5 SWAP1 MSTORE SWAP1 DUP5 SWAP1 DUP3 SWAP1 PUSH1 0x44 SWAP1 DUP3 SWAP1 DUP10 SWAP1 PUSH1 0x1 PUSH1 0x1 PUSH1 0xA0 SHL SUB AND GAS CALL SWAP1 DUP2 ISZERO PUSH2 0x2F4 JUMPI DUP6 SWAP2 PUSH2 0x290 JUMPI JUMPDEST POP ISZERO PUSH2 0x24D JUMPI POP PUSH32 0xDBC40CCD4FCA1B5BF46F23E99AAEFE371E661E9CA0C45DC1B79E5E321D3B99D SWAP3 SWAP4 MLOAD SWAP1 DUP2 MSTORE LOG1 DUP1 RETURN JUMPDEST DUP5 MLOAD PUSH3 0x461BCD PUSH1 0xE5 SHL DUP2 MSTORE SWAP1 DUP2 ADD DUP4 SWAP1 MSTORE PUSH1 0x18 PUSH1 0x24 DUP3 ADD MSTORE PUSH32 0x4C656E64696E673A207472616E73666572206661696C65640000000000000000 PUSH1 0x44 DUP3 ADD MSTORE PUSH1 0x64 SWAP1 REVERT JUMPDEST SWAP1 POP DUP4 RETURNDATASIZE DUP6 GT PUSH2 0x2ED JUMPI JUMPDEST PUSH1 0x1F DUP2 ADD PUSH1 0x1F NOT AND DUP3 ADD PUSH8 0xFFFFFFFFFFFFFFFF DUP2 GT DUP4 DUP3 LT OR PUSH2 0x2DA JUMPI DUP6 SWAP2 DUP4 SWAP2 DUP10 MSTORE DUP2 ADD SUB SLT PUSH2 0x2D6 JUMPI MLOAD DUP1 ISZERO ISZERO DUP2 SUB PUSH2 0x2D6 JUMPI DUP7 PUSH2 0x21B JUMP JUMPDEST DUP5 DUP1 REVERT JUMPDEST PUSH4 0x4E487B71 PUSH1 0xE0 SHL DUP8 MSTORE PUSH1 0x41 DUP5 MSTORE PUSH1 0x24 DUP8 REVERT JUMPDEST POP RETURNDATASIZE PUSH2 0x29B JUMP JUMPDEST DUP7 MLOAD RETURNDATASIZE DUP8 DUP3 RETURNDATACOPY RETURNDATASIZE SWAP1 REVERT JUMPDEST PUSH4 0x4E487B71 PUSH1 0xE0 SHL DUP6 MSTORE PUSH1 0x11 DUP3 MSTORE PUSH1 0x24 DUP6 REVERT JUMPDEST DUP6 MLOAD PUSH3 0x461BCD PUSH1 0xE5 SHL DUP2 MSTORE DUP1 DUP4 ADD DUP6 SWAP1 MSTORE PUSH1 0x15 PUSH1 0x24 DUP3 ADD MSTORE PUSH21 0x13195B991A5B99CE881A5B9CDD59999A58DA595B9D PUSH1 0x5A SHL PUSH1 0x44 DUP3 ADD MSTORE PUSH1 0x64 SWAP1 REVERT JUMPDEST DUP3 DUP1 REVERT JUMPDEST POP POP CALLVALUE PUSH2 0xB0 JUMPI DUP2 PUSH1 0x3 NOT CALLDATASIZE ADD SLT PUSH2 0xB0 JUMPI PUSH1 0x20 SWAP1 PUSH1 0x2 SLOAD SWAP1 MLOAD SWAP1 DUP2 MSTORE RETURN JUMPDEST SWAP1 POP CALLVALUE PUSH2 0x34C JUMPI DUP3 PUSH1 0x3 NOT CALLDATASIZE ADD SLT PUSH2 0x34C JUMPI SLOAD SWAP1 MLOAD PUSH1 0x1 PUSH1 0x1 PUSH1 0xA0 SHL SUB SWAP1 SWAP2 AND DUP2 MSTORE PUSH1 0x20 SWAP2 POP RETURN JUMPDEST SWAP1 POP CALLVALUE PUSH2 0x34C JUMPI PUSH1 0x20 CALLDATASIZE PUSH1 0x3 NOT ADD SLT PUSH2 0x34C JUMPI PUSH32 0xAC9F7997C30B6A3CC9C74953898B5DE154359339C7EC0D6D70CEB98E55DB1A4B SWAP2 PUSH1 0x20 SWAP2 CALLDATALOAD SWAP1 PUSH2 0x3DD DUP3 PUSH1 0x1 SLOAD PUSH2 0x44A JUMP JUMPDEST PUSH1 0x1 SSTORE MLOAD SWAP1 DUP2 MSTORE LOG1 DUP1 RETURN JUMPDEST DUP5 SWAP3 POP CALLVALUE PUSH2 0x34C JUMPI PUSH1 0x20 CALLDATASIZE PUSH1 0x3 NOT ADD SLT PUSH2 0x34C JUMPI DUP3 SLOAD PUSH1 0x1 PUSH1 0x1 PUSH1 0xA0 SHL SUB AND CALLER SUB PUSH2 0x415 JUMPI POP CALLDATALOAD PUSH1 0x3 SSTORE DUP1 RETURN JUMPDEST PUSH1 0x20 PUSH1 0x64 SWAP3 PUSH3 0x461BCD PUSH1 0xE5 SHL DUP4 MSTORE DUP3 ADD MSTORE PUSH1 0x12 PUSH1 0x24 DUP3 ADD MSTORE PUSH18 0x2632B73234B7339D103737BA1037BBB732B9 PUSH1 0x71 SHL PUSH1 0x44 DUP3 ADD MSTORE REVERT JUMPDEST SWAP2 SWAP1 DUP3 ADD DUP1 SWAP3 GT PUSH2 0x457 JUMPI JUMP JUMPDEST PUSH4 0x4E487B71 PUSH1 0xE0 SHL PUSH1 0x0 MSTORE PUSH1 0x11 PUSH1 0x4 MSTORE PUSH1 0x24 PUSH1 0x0 REVERT INVALID LOG2 PUSH5 0x6970667358 0x22 SLT KECCAK256 0xCF SWAP10 0xF PUSH8 0xA66C0DF31589FEE7 SMOD 0xDE 0xDF LOG2 BLOCKHASH SAR 0x1F 0x26 0xB5 EXP 0xBA 0x4B 0xB1 BYTE 0xE9 0xC0 0xE9 COINBASE 0xD6 0x21 PUSH5 0x736F6C6343 STOP ADDMOD XOR STOP CALLER "},"methodIdentifiers":{"accruedYield()":"4019fb33","asset()":"38d52e0f","divest(uint256)":"8ca17995","harvestYield()":"e8d991d1","invest(uint256)":"2afcf480","invested()":"cafb2202","owner()":"8da5cb5b","setYieldRate(uint256)":"1411dab0","totalValue()":"d4c3eea0","yieldRateBps()":"f3a6a4a3"}}}}}