{"src/mocks/MockXcm.sol":{"MockXcm":{"abi":[{"anonymous":false,"inputs":[{"indexed":false,"internalType":"bytes","name":"message","type":"bytes"}],"name":"XcmExecuted","type":"event"},{"anonymous":false,"inputs":[{"indexed":false,"internalType":"bytes","name":"dest","type":"bytes"},{"indexed":false,"internalType":"bytes","name":"message","type":"bytes"}],"name":"XcmSent","type":"event"},{"inputs":[{"internalType":"bytes","name":"message","type":"bytes"},{"internalType":"bytes","name":"","type":"bytes"}],"name":"execute","outputs":[{"internalType":"bool","name":"success","type":"bool"}],"stateMutability":"nonpayable","type":"function"},{"inputs":[{"internalType":"bytes","name":"dest","type":"bytes"},{"internalType":"bytes","name":"message","type":"bytes"}],"name":"send","outputs":[{"internalType":"bool","name":"success","type":"bool"}],"stateMutability":"nonpayable","type":"function"},{"inputs":[{"internalType":"bytes","name":"","type":"bytes"}],"name":"weighMessage","outputs":[{"internalType":"uint64","name":"refTime","type":"uint64"},{"internalType":"uint64","name":"proofSize","type":"uint64"}],"stateMutability":"pure","type":"function"}],"evm":{"bytecode":{"linkReferences":{},"object":"6080806040523461001657610212908161001c8239f35b600080fdfe60806040818152600436101561001457600080fd5b600091823560e01c9081631f6a1eb9146100f65750806347400c23146100ab57637f0a3bf91461004357600080fd5b346100a7576020907f50332e75544dc8985c608696cb932a0b259cd5706c9bc0daf8b44cdc05aa22ba61009d61007836610170565b610090879593949551958695898752898701916101bb565b91848303898601526101bb565b0390a15160018152f35b5080fd5b5090346100f35760203660031901126100f3576004359067ffffffffffffffff82116100f357506100e090369060040161013d565b50508051620f4240815260646020820152f35b80fd5b8284346100f357507f440a12289c6dfbf171a6ae243d453cb9088ac512ff11d2f165372063bb3455928260209361009d61012f36610170565b5050878452878401916101bb565b9181601f8401121561016b5782359167ffffffffffffffff831161016b576020838186019501011161016b57565b600080fd5b604060031982011261016b5767ffffffffffffffff9160043583811161016b578261019d9160040161013d565b9390939260243591821161016b576101b79160040161013d565b9091565b908060209392818452848401376000828201840152601f01601f191601019056fea2646970667358221220e958da3e7ca736d716288b6c1b2dfa2582911c33769b19efd5a8d4963110e60b64736f6c63430008180033","opcodes":"PUSH1 0x80 DUP1 PUSH1 0x40 MSTORE CALLVALUE PUSH2 0x16 JUMPI PUSH2 0x212 SWAP1 DUP2 PUSH2 0x1C DUP3 CODECOPY RETURN JUMPDEST PUSH1 0x0 DUP1 REVERT INVALID PUSH1 0x80 PUSH1 0x40 DUP2 DUP2 MSTORE PUSH1 0x4 CALLDATASIZE LT ISZERO PUSH2 0x14 JUMPI PUSH1 0x0 DUP1 REVERT JUMPDEST PUSH1 0x0 SWAP2 DUP3 CALLDATALOAD PUSH1 0xE0 SHR SWAP1 DUP2 PUSH4 0x1F6A1EB9 EQ PUSH2 0xF6 JUMPI POP DUP1 PUSH4 0x47400C23 EQ PUSH2 0xAB JUMPI PUSH4 0x7F0A3BF9 EQ PUSH2 0x43 JUMPI PUSH1 0x0 DUP1 REVERT JUMPDEST CALLVALUE PUSH2 0xA7 JUMPI PUSH1 0x20 SWAP1 PUSH32 0x50332E75544DC8985C608696CB932A0B259CD5706C9BC0DAF8B44CDC05AA22BA PUSH2 0x9D PUSH2 0x78 CALLDATASIZE PUSH2 0x170 JUMP JUMPDEST PUSH2 0x90 DUP8 SWAP6 SWAP4 SWAP5 SWAP6 MLOAD SWAP6 DUP7 SWAP6 DUP10 DUP8 MSTORE DUP10 DUP8 ADD SWAP2 PUSH2 0x1BB JUMP JUMPDEST SWAP2 DUP5 DUP4 SUB DUP10 DUP7 ADD MSTORE PUSH2 0x1BB JUMP JUMPDEST SUB SWAP1 LOG1 MLOAD PUSH1 0x1 DUP2 MSTORE RETURN JUMPDEST POP DUP1 REVERT JUMPDEST POP SWAP1 CALLVALUE PUSH2 0xF3 JUMPI PUSH1 0x20 CALLDATASIZE PUSH1 0x3 NOT ADD SLT PUSH2 0xF3 JUMPI PUSH1 0x4 CALLDATALOAD SWAP1 PUSH8 0xFFFFFFFFFFFFFFFF DUP3 GT PUSH2 0xF3 JUMPI POP PUSH2 0xE0 SWAP1 CALLDATASIZE SWAP1 PUSH1 0x4 ADD PUSH2 0x13D JUMP JUMPDEST POP POP DUP1 MLOAD PUSH3 0xF4240 DUP2 MSTORE PUSH1 0x64 PUSH1 0x20 DUP3 ADD MSTORE RETURN JUMPDEST DUP1 REVERT JUMPDEST DUP3 DUP5 CALLVALUE PUSH2 0xF3 JUMPI POP PUSH32 0x440A12289C6DFBF171A6AE243D453CB9088AC512FF11D2F165372063BB345592 DUP3 PUSH1 0x20 SWAP4 PUSH2 0x9D PUSH2 0x12F CALLDATASIZE PUSH2 0x170 JUMP JUMPDEST POP POP DUP8 DUP5 MSTORE DUP8 DUP5 ADD SWAP2 PUSH2 0x1BB JUMP JUMPDEST SWAP2 DUP2 PUSH1 0x1F DUP5 ADD SLT ISZERO PUSH2 0x16B JUMPI DUP3 CALLDATALOAD SWAP2 PUSH8 0xFFFFFFFFFFFFFFFF DUP4 GT PUSH2 0x16B JUMPI PUSH1 0x20 DUP4 DUP2 DUP7 ADD SWAP6 ADD ADD GT PUSH2 0x16B JUMPI JUMP JUMPDEST PUSH1 0x0 DUP1 REVERT JUMPDEST PUSH1 0x40 PUSH1 0x3 NOT DUP3 ADD SLT PUSH2 0x16B JUMPI PUSH8 0xFFFFFFFFFFFFFFFF SWAP2 PUSH1 0x4 CALLDATALOAD DUP4 DUP2 GT PUSH2 0x16B JUMPI DUP3 PUSH2 0x19D SWAP2 PUSH1 0x4 ADD PUSH2 0x13D JUMP JUMPDEST SWAP4 SWAP1 SWAP4 SWAP3 PUSH1 0x24 CALLDATALOAD SWAP2 DUP3 GT PUSH2 0x16B JUMPI PUSH2 0x1B7 SWAP2 PUSH1 0x4 ADD PUSH2 0x13D JUMP JUMPDEST SWAP1 SWAP2 JUMP JUMPDEST SWAP1 DUP1 PUSH1 0x20 SWAP4 SWAP3 DUP2 DUP5 MSTORE DUP5 DUP5 ADD CALLDATACOPY PUSH1 0x0 DUP3 DUP3 ADD DUP5 ADD MSTORE PUSH1 0x1F ADD PUSH1 0x1F NOT AND ADD ADD SWAP1 JUMP INVALID LOG2 PUSH5 0x6970667358 0x22 SLT KECCAK256 0xE9 PC 0xDA RETURNDATACOPY PUSH29 0xA736D716288B6C1B2DFA2582911C33769B19EFD5A8D4963110E60B6473 PUSH16 0x6C634300081800330000000000000000 "},"methodIdentifiers":{"execute(bytes,bytes)":"1f6a1eb9","send(bytes,bytes)":"7f0a3bf9","weighMessage(bytes)":"47400c23"}}}}}