{"src/strategies/YieldStrategy.sol":{"DOTStakingStrategy":{"abi":[{"inputs":[],"stateMutability":"nonpayable","type":"constructor"},{"anonymous":false,"inputs":[{"indexed":false,"internalType":"uint256","name":"amount","type":"uint256"}],"name":"Divested","type":"event"},{"anonymous":false,"inputs":[{"indexed":false,"internalType":"uint256","name":"amount","type":"uint256"}],"name":"Invested","type":"event"},{"anonymous":false,"inputs":[{"indexed":false,"internalType":"uint256","name":"amount","type":"uint256"}],"name":"YieldHarvested","type":"event"},{"inputs":[],"name":"accruedYield","outputs":[{"internalType":"uint256","name":"","type":"uint256"}],"stateMutability":"view","type":"function"},{"inputs":[{"internalType":"uint256","name":"amount","type":"uint256"}],"name":"divest","outputs":[],"stateMutability":"nonpayable","type":"function"},{"inputs":[],"name":"harvestYield","outputs":[{"internalType":"uint256","name":"","type":"uint256"}],"stateMutability":"nonpayable","type":"function"},{"inputs":[{"internalType":"uint256","name":"amount","type":"uint256"}],"name":"invest","outputs":[],"stateMutability":"nonpayable","type":"function"},{"inputs":[],"name":"invested","outputs":[{"internalType":"uint256","name":"","type":"uint256"}],"stateMutability":"view","type":"function"},{"inputs":[],"name":"owner","outputs":[{"internalType":"address","name":"","type":"address"}],"stateMutability":"view","type":"function"},{"inputs":[{"internalType":"uint256","name":"_bps","type":"uint256"}],"name":"setYieldRate","outputs":[],"stateMutability":"nonpayable","type":"function"},{"inputs":[],"name":"totalValue","outputs":[{"internalType":"uint256","name":"","type":"uint256"}],"stateMutability":"view","type":"function"},{"inputs":[],"name":"yieldRateBps","outputs":[{"internalType":"uint256","name":"","type":"uint256"}],"stateMutability":"view","type":"function"}],"evm":{"bytecode":{"linkReferences":{},"object":"6080806040523461002d576032600355600080546001600160a01b0319163317905561038390816100338239f35b600080fdfe608060408181526004918236101561001657600080fd5b600092833560e01c9182631411dab0146102c5575081632afcf480146102705781634019fb33146102515781638ca17995146101a15781638da5cb5b14610179578163cafb22021461015a578163d4c3eea01461012f578163e8d991d1146100a9575063f3a6a4a31461008857600080fd5b346100a557816003193601126100a5576020906003549051908152f35b5080fd5b82843461012c578060031936011261012c576001549260035493848102948186041490151715610119576020836127108604906100e88260025461032a565b6002557feb2d114a827fe0da3db4c0e374010959cf461f7ed76987aeff51666dea9add9b838251848152a151908152f35b634e487b7160e01b825260119052602490fd5b80fd5b5050346100a557816003193601126100a5576020906101536001546002549061032a565b9051908152f35b5050346100a557816003193601126100a5576020906001549051908152f35b5050346100a557816003193601126100a557905490516001600160a01b039091168152602090f35b8383346100a55760203660031901126100a55782359060015480831161020e578281039081116101fb57600155519081527f0dbc40ccd4fca1b5bf46f23e99aaefe371e661e9ca0c45dc1b79e5e321d3b99d90602090a180f35b634e487b7160e01b845260118552602484fd5b815162461bcd60e51b8152602081870152601860248201527f444f545374616b696e673a20696e73756666696369656e7400000000000000006044820152606490fd5b5050346100a557816003193601126100a5576020906002549051908152f35b9050346102c15760203660031901126102c1577fac9f7997c30b6a3cc9c74953898b5de154359339c7ec0d6d70ceb98e55db1a4b9160209135906102b68260015461032a565b60015551908152a180f35b8280fd5b849250346102c15760203660031901126102c15782546001600160a01b031633036102f257503560035580f35b602060649262461bcd60e51b835282015260156024820152742227aa29ba30b5b4b7339d103737ba1037bbb732b960591b6044820152fd5b9190820180921161033757565b634e487b7160e01b600052601160045260246000fdfea264697066735822122091a868f2f8abc8faf7306eb89bfb330bd8aaafd873781368c7580272547b647864736f6c63430008180033","opcodes":"PUSH1 0x80 DUP1 PUSH1 0x40 MSTORE CALLVALUE PUSH2 0x2D JUMPI PUSH1 0x32 PUSH1 0x3 SSTORE PUSH1 0x0 DUP1 SLOAD PUSH1 0x1 PUSH1 0x1 PUSH1 0xA0 SHL SUB NOT AND CALLER OR SWAP1 SSTORE PUSH2 0x383 SWAP1 DUP2 PUSH2 0x33 DUP3 CODECOPY RETURN JUMPDEST PUSH1 0x0 DUP1 REVERT INVALID PUSH1 0x80 PUSH1 0x40 DUP2 DUP2 MSTORE PUSH1 0x4 SWAP2 DUP3 CALLDATASIZE LT ISZERO PUSH2 0x16 JUMPI PUSH1 0x0 DUP1 REVERT JUMPDEST PUSH1 0x0 SWAP3 DUP4 CALLDATALOAD PUSH1 0xE0 SHR SWAP2 DUP3 PUSH4 0x1411DAB0 EQ PUSH2 0x2C5 JUMPI POP DUP2 PUSH4 0x2AFCF480 EQ PUSH2 0x270 JUMPI DUP2 PUSH4 0x4019FB33 EQ PUSH2 0x251 JUMPI DUP2 PUSH4 0x8CA17995 EQ PUSH2 0x1A1 JUMPI DUP2 PUSH4 0x8DA5CB5B EQ PUSH2 0x179 JUMPI DUP2 PUSH4 0xCAFB2202 EQ PUSH2 0x15A JUMPI DUP2 PUSH4 0xD4C3EEA0 EQ PUSH2 0x12F JUMPI DUP2 PUSH4 0xE8D991D1 EQ PUSH2 0xA9 JUMPI POP PUSH4 0xF3A6A4A3 EQ PUSH2 0x88 JUMPI PUSH1 0x0 DUP1 REVERT JUMPDEST CALLVALUE PUSH2 0xA5 JUMPI DUP2 PUSH1 0x3 NOT CALLDATASIZE ADD SLT PUSH2 0xA5 JUMPI PUSH1 0x20 SWAP1 PUSH1 0x3 SLOAD SWAP1 MLOAD SWAP1 DUP2 MSTORE RETURN JUMPDEST POP DUP1 REVERT JUMPDEST DUP3 DUP5 CALLVALUE PUSH2 0x12C JUMPI DUP1 PUSH1 0x3 NOT CALLDATASIZE ADD SLT PUSH2 0x12C JUMPI PUSH1 0x1 SLOAD SWAP3 PUSH1 0x3 SLOAD SWAP4 DUP5 DUP2 MUL SWAP5 DUP2 DUP7 DIV EQ SWAP1 ISZERO OR ISZERO PUSH2 0x119 JUMPI PUSH1 0x20 DUP4 PUSH2 0x2710 DUP7 DIV SWAP1 PUSH2 0xE8 DUP3 PUSH1 0x2 SLOAD PUSH2 0x32A JUMP JUMPDEST PUSH1 0x2 SSTORE PUSH32 0xEB2D114A827FE0DA3DB4C0E374010959CF461F7ED76987AEFF51666DEA9ADD9B DUP4 DUP3 MLOAD DUP5 DUP2 MSTORE LOG1 MLOAD SWAP1 DUP2 MSTORE RETURN JUMPDEST PUSH4 0x4E487B71 PUSH1 0xE0 SHL DUP3 MSTORE PUSH1 0x11 SWAP1 MSTORE PUSH1 0x24 SWAP1 REVERT JUMPDEST DUP1 REVERT JUMPDEST POP POP CALLVALUE PUSH2 0xA5 JUMPI DUP2 PUSH1 0x3 NOT CALLDATASIZE ADD SLT PUSH2 0xA5 JUMPI PUSH1 0x20 SWAP1 PUSH2 0x153 PUSH1 0x1 SLOAD PUSH1 0x2 SLOAD SWAP1 PUSH2 0x32A JUMP JUMPDEST SWAP1 MLOAD SWAP1 DUP2 MSTORE RETURN JUMPDEST POP POP CALLVALUE PUSH2 0xA5 JUMPI DUP2 PUSH1 0x3 NOT CALLDATASIZE ADD SLT PUSH2 0xA5 JUMPI PUSH1 0x20 SWAP1 PUSH1 0x1 SLOAD SWAP1 MLOAD SWAP1 DUP2 MSTORE RETURN JUMPDEST POP POP CALLVALUE PUSH2 0xA5 JUMPI DUP2 PUSH1 0x3 NOT CALLDATASIZE ADD SLT PUSH2 0xA5 JUMPI SWAP1 SLOAD SWAP1 MLOAD PUSH1 0x1 PUSH1 0x1 PUSH1 0xA0 SHL SUB SWAP1 SWAP2 AND DUP2 MSTORE PUSH1 0x20 SWAP1 RETURN JUMPDEST DUP4 DUP4 CALLVALUE PUSH2 0xA5 JUMPI PUSH1 0x20 CALLDATASIZE PUSH1 0x3 NOT ADD SLT PUSH2 0xA5 JUMPI DUP3 CALLDATALOAD SWAP1 PUSH1 0x1 SLOAD DUP1 DUP4 GT PUSH2 0x20E JUMPI DUP3 DUP2 SUB SWAP1 DUP2 GT PUSH2 0x1FB JUMPI PUSH1 0x1 SSTORE MLOAD SWAP1 DUP2 MSTORE PUSH32 0xDBC40CCD4FCA1B5BF46F23E99AAEFE371E661E9CA0C45DC1B79E5E321D3B99D SWAP1 PUSH1 0x20 SWAP1 LOG1 DUP1 RETURN JUMPDEST PUSH4 0x4E487B71 PUSH1 0xE0 SHL DUP5 MSTORE PUSH1 0x11 DUP6 MSTORE PUSH1 0x24 DUP5 REVERT JUMPDEST DUP2 MLOAD PUSH3 0x461BCD PUSH1 0xE5 SHL DUP2 MSTORE PUSH1 0x20 DUP2 DUP8 ADD MSTORE PUSH1 0x18 PUSH1 0x24 DUP3 ADD MSTORE PUSH32 0x444F545374616B696E673A20696E73756666696369656E740000000000000000 PUSH1 0x44 DUP3 ADD MSTORE PUSH1 0x64 SWAP1 REVERT JUMPDEST POP POP CALLVALUE PUSH2 0xA5 JUMPI DUP2 PUSH1 0x3 NOT CALLDATASIZE ADD SLT PUSH2 0xA5 JUMPI PUSH1 0x20 SWAP1 PUSH1 0x2 SLOAD SWAP1 MLOAD SWAP1 DUP2 MSTORE RETURN JUMPDEST SWAP1 POP CALLVALUE PUSH2 0x2C1 JUMPI PUSH1 0x20 CALLDATASIZE PUSH1 0x3 NOT ADD SLT PUSH2 0x2C1 JUMPI PUSH32 0xAC9F7997C30B6A3CC9C74953898B5DE154359339C7EC0D6D70CEB98E55DB1A4B SWAP2 PUSH1 0x20 SWAP2 CALLDATALOAD SWAP1 PUSH2 0x2B6 DUP3 PUSH1 0x1 SLOAD PUSH2 0x32A JUMP JUMPDEST PUSH1 0x1 SSTORE MLOAD SWAP1 DUP2 MSTORE LOG1 DUP1 RETURN JUMPDEST DUP3 DUP1 REVERT JUMPDEST DUP5 SWAP3 POP CALLVALUE PUSH2 0x2C1 JUMPI PUSH1 0x20 CALLDATASIZE PUSH1 0x3 NOT ADD SLT PUSH2 0x2C1 JUMPI DUP3 SLOAD PUSH1 0x1 PUSH1 0x1 PUSH1 0xA0 SHL SUB AND CALLER SUB PUSH2 0x2F2 JUMPI POP CALLDATALOAD PUSH1 0x3 SSTORE DUP1 RETURN JUMPDEST PUSH1 0x20 PUSH1 0x64 SWAP3 PUSH3 0x461BCD PUSH1 0xE5 SHL DUP4 MSTORE DUP3 ADD MSTORE PUSH1 0x15 PUSH1 0x24 DUP3 ADD MSTORE PUSH21 0x2227AA29BA30B5B4B7339D103737BA1037BBB732B9 PUSH1 0x59 SHL PUSH1 0x44 DUP3 ADD MSTORE REVERT JUMPDEST SWAP2 SWAP1 DUP3 ADD DUP1 SWAP3 GT PUSH2 0x337 JUMPI JUMP JUMPDEST PUSH4 0x4E487B71 PUSH1 0xE0 SHL PUSH1 0x0 MSTORE PUSH1 0x11 PUSH1 0x4 MSTORE PUSH1 0x24 PUSH1 0x0 REVERT INVALID LOG2 PUSH5 0x6970667358 0x22 SLT KECCAK256 SWAP2 0xA8 PUSH9 0xF2F8ABC8FAF7306EB8 SWAP12 0xFB CALLER SIGNEXTEND 0xD8 0xAA 0xAF 0xD8 PUSH20 0x781368C7580272547B647864736F6C6343000818 STOP CALLER "},"methodIdentifiers":{"accruedYield()":"4019fb33","divest(uint256)":"8ca17995","harvestYield()":"e8d991d1","invest(uint256)":"2afcf480","invested()":"cafb2202","owner()":"8da5cb5b","setYieldRate(uint256)":"1411dab0","totalValue()":"d4c3eea0","yieldRateBps()":"f3a6a4a3"}}}}}