{"src/XCMRouter.sol":{"XCMRouter":{"abi":[{"inputs":[],"stateMutability":"nonpayable","type":"constructor"},{"anonymous":false,"inputs":[{"indexed":false,"internalType":"bytes","name":"message","type":"bytes"}],"name":"XCMExecuted","type":"event"},{"anonymous":false,"inputs":[{"indexed":false,"internalType":"bytes","name":"dest","type":"bytes"},{"indexed":false,"internalType":"bytes","name":"message","type":"bytes"}],"name":"XCMSent","type":"event"},{"inputs":[],"name":"ASSET_HUB_PARA_ID","outputs":[{"internalType":"uint32","name":"","type":"uint32"}],"stateMutability":"view","type":"function"},{"inputs":[],"name":"RELAY_CHAIN_ID","outputs":[{"internalType":"uint32","name":"","type":"uint32"}],"stateMutability":"view","type":"function"},{"inputs":[],"name":"XCM_PRECOMPILE","outputs":[{"internalType":"address","name":"","type":"address"}],"stateMutability":"view","type":"function"},{"inputs":[{"internalType":"address","name":"asset","type":"address"},{"internalType":"uint256","name":"amount","type":"uint256"}],"name":"buildLendOnAssetHub","outputs":[{"internalType":"bytes","name":"payload","type":"bytes"}],"stateMutability":"pure","type":"function"},{"inputs":[{"internalType":"uint256","name":"amount","type":"uint256"}],"name":"buildStakeOnRelay","outputs":[{"internalType":"bytes","name":"payload","type":"bytes"}],"stateMutability":"pure","type":"function"},{"inputs":[{"internalType":"address","name":"asset","type":"address"},{"internalType":"uint256","name":"amount","type":"uint256"}],"name":"buildTransferToAssetHub","outputs":[{"internalType":"bytes","name":"payload","type":"bytes"}],"stateMutability":"pure","type":"function"},{"inputs":[],"name":"owner","outputs":[{"internalType":"address","name":"","type":"address"}],"stateMutability":"view","type":"function"},{"inputs":[{"internalType":"bytes","name":"payload","type":"bytes"}],"name":"sendToAssetHub","outputs":[],"stateMutability":"nonpayable","type":"function"},{"inputs":[{"internalType":"bytes","name":"payload","type":"bytes"}],"name":"sendToRelay","outputs":[],"stateMutability":"nonpayable","type":"function"},{"inputs":[{"internalType":"address","name":"_treasury","type":"address"}],"name":"setTreasury","outputs":[],"stateMutability":"nonpayable","type":"function"},{"inputs":[],"name":"treasury","outputs":[{"internalType":"address","name":"","type":"address"}],"stateMutability":"view","type":"function"}],"evm":{"bytecode":{"linkReferences":{},"object":"6080806040523461002857600080546001600160a01b03191633179055610864908161002e8239f35b600080fdfe60806040818152600436101561001457600080fd5b600091823560e01c908163068561421461052557508063077120cc1461050857806318d71636146104d05780633f7070221461046557806355480d171461044957806357d3c71a1461034b57806361d027b31461032357806379b15de01461022f5780638da5cb5b14610208578063927620db146101235763f0f442601461009b57600080fd5b3461011f57602036600319011261011f576100b4610650565b82546001600160a01b039290831633036100e55750166bffffffffffffffffffffffff60a01b600154161760015580f35b5162461bcd60e51b81526020600482015260146024820152732c21a6a937baba32b91d103737ba1037bbb732b960611b6044820152606490fd5b5080fd5b5090346102055781600319360112610205575061013e610650565b9061020161015361014d610737565b936107e9565b916101f260216101ae83516101a960328260209961140360f01b8b830152610184815180928d602286019101610608565b81016001600160801b031960243560801b166022820152036012810184520182610570565b61078a565b958351968791600160fa1b888401526101cf815180928a8787019101610608565b82016101e3825180938a8785019101610608565b01036001810187520185610570565b5192828493845283019061062b565b0390f35b80fd5b503461011f578160031936011261011f57905490516001600160a01b039091168152602090f35b503461011f5761023e36610592565b60015461026090336001600160a01b0391821614908115610316575b50610666565b610268610769565b8251637f0a3bf960e01b8152602081806102868686600484016106ca565b038188620a00005af190811561030c57936102cd6102d7927fb896fa5daa5aaa810dbe2375ff4785c955bc7e1423e43094570a9f841329a7dd9688916102dd575b506106f2565b51928392836106ca565b0390a180f35b6102ff915060203d602011610305575b6102f78183610570565b8101906106b2565b386102c7565b503d6102ed565b84513d87823e3d90fd5b905084541633143861025a565b503461011f578160031936011261011f5760015490516001600160a01b039091168152602090f35b509034610205578160031936011261020557610201610368610650565b926101f260216024359461038361037d610737565b976107e9565b845161041c60478260209a8b82019587875260648d8251908301906103ab818d880184610608565b85016103eb6001600160801b031994858760801b168e840152600d60f81b60318401528c6032840152600360fa1b60338401525180936034840190610608565b01920460801b166034820152600160fa1b968760448301528060458301526046820152036027810184520182610570565b6101e38651998a948a86015261043a815180928c8989019101610608565b84019151809386840190610608565b503461011f578160031936011261011f57602090516103e88152f35b503461011f57602090816003193601126104cc57610201906101f260216101ae61048d610769565b8451600760f81b8882015260043560801b6fffffffffffffffffffffffffffffffff19166022820152603281019890985260138852966101a98161053e565b8280fd5b503461011f576104df36610592565b60015461050090336001600160a01b03918216149081156103165750610666565b610268610737565b503461011f578160031936011261011f5760209051620a00008152f35b83903461011f578160031936011261011f576020918152f35b6040810190811067ffffffffffffffff82111761055a57604052565b634e487b7160e01b600052604160045260246000fd5b90601f8019910116810190811067ffffffffffffffff82111761055a57604052565b60206003198201126106035767ffffffffffffffff600435818111610603578260238201121561060357806004013591821161055a57604051926105e0601f8401601f191660200185610570565b828452602483830101116106035781600092602460209301838601378301015290565b600080fd5b60005b83811061061b5750506000910152565b818101518382015260200161060b565b9060209161064481518092818552858086019101610608565b601f01601f1916010190565b600435906001600160a01b038216820361060357565b1561066d57565b60405162461bcd60e51b815260206004820152601760248201527f58434d526f757465723a20756e617574686f72697a65640000000000000000006044820152606490fd5b90816020910312610603575180151581036106035790565b90916106e16106ef9360408452604084019061062b565b91602081840391015261062b565b90565b156106f957565b60405162461bcd60e51b81526020600482015260166024820152751610d3549bdd5d195c8e881cd95b990819985a5b195960521b6044820152606490fd5b604051600160f81b60208201819052602182015260006022820152607d60e31b6023820152600781526106ef8161053e565b604051600160f81b602082015260006021820152600281526106ef8161053e565b6106ef60336040518093600360f91b602083015260006021830152600160f81b6022830152621dcd6560c91b602383015261027160c41b602b8301526107d98151809260208686019101610608565b8101036013810184520182610570565b60405160006020820152600160f81b6021820152600560f81b602282015260609190911b6bffffffffffffffffffffffff19166023820152601781526106ef8161053e56fea264697066735822122081e77897583785c7d86fa6b3b00609e9287bc3d6599a9a073013e4ef5d97f50f64736f6c63430008180033","opcodes":"PUSH1 0x80 DUP1 PUSH1 0x40 MSTORE CALLVALUE PUSH2 0x28 JUMPI PUSH1 0x0 DUP1 SLOAD PUSH1 0x1 PUSH1 0x1 PUSH1 0xA0 SHL SUB NOT AND CALLER OR SWAP1 SSTORE PUSH2 0x864 SWAP1 DUP2 PUSH2 0x2E DUP3 CODECOPY RETURN JUMPDEST PUSH1 0x0 DUP1 REVERT INVALID PUSH1 0x80 PUSH1 0x40 DUP2 DUP2 MSTORE PUSH1 0x4 CALLDATASIZE LT ISZERO PUSH2 0x14 JUMPI PUSH1 0x0 DUP1 REVERT JUMPDEST PUSH1 0x0 SWAP2 DUP3 CALLDATALOAD PUSH1 0xE0 SHR SWAP1 DUP2 PUSH4 0x6856142 EQ PUSH2 0x525 JUMPI POP DUP1 PUSH4 0x77120CC EQ PUSH2 0x508 JUMPI DUP1 PUSH4 0x18D71636 EQ PUSH2 0x4D0 JUMPI DUP1 PUSH4 0x3F707022 EQ PUSH2 0x465 JUMPI DUP1 PUSH4 0x55480D17 EQ PUSH2 0x449 JUMPI DUP1 PUSH4 0x57D3C71A EQ PUSH2 0x34B JUMPI DUP1 PUSH4 0x61D027B3 EQ PUSH2 0x323 JUMPI DUP1 PUSH4 0x79B15DE0 EQ PUSH2 0x22F JUMPI DUP1 PUSH4 0x8DA5CB5B EQ PUSH2 0x208 JUMPI DUP1 PUSH4 0x927620DB EQ PUSH2 0x123 JUMPI PUSH4 0xF0F44260 EQ PUSH2 0x9B JUMPI PUSH1 0x0 DUP1 REVERT JUMPDEST CALLVALUE PUSH2 0x11F JUMPI PUSH1 0x20 CALLDATASIZE PUSH1 0x3 NOT ADD SLT PUSH2 0x11F JUMPI PUSH2 0xB4 PUSH2 0x650 JUMP JUMPDEST DUP3 SLOAD PUSH1 0x1 PUSH1 0x1 PUSH1 0xA0 SHL SUB SWAP3 SWAP1 DUP4 AND CALLER SUB PUSH2 0xE5 JUMPI POP AND PUSH12 0xFFFFFFFFFFFFFFFFFFFFFFFF PUSH1 0xA0 SHL PUSH1 0x1 SLOAD AND OR PUSH1 0x1 SSTORE DUP1 RETURN JUMPDEST MLOAD PUSH3 0x461BCD PUSH1 0xE5 SHL DUP2 MSTORE PUSH1 0x20 PUSH1 0x4 DUP3 ADD MSTORE PUSH1 0x14 PUSH1 0x24 DUP3 ADD MSTORE PUSH20 0x2C21A6A937BABA32B91D103737BA1037BBB732B9 PUSH1 0x61 SHL PUSH1 0x44 DUP3 ADD MSTORE PUSH1 0x64 SWAP1 REVERT JUMPDEST POP DUP1 REVERT JUMPDEST POP SWAP1 CALLVALUE PUSH2 0x205 JUMPI DUP2 PUSH1 0x3 NOT CALLDATASIZE ADD SLT PUSH2 0x205 JUMPI POP PUSH2 0x13E PUSH2 0x650 JUMP JUMPDEST SWAP1 PUSH2 0x201 PUSH2 0x153 PUSH2 0x14D PUSH2 0x737 JUMP JUMPDEST SWAP4 PUSH2 0x7E9 JUMP JUMPDEST SWAP2 PUSH2 0x1F2 PUSH1 0x21 PUSH2 0x1AE DUP4 MLOAD PUSH2 0x1A9 PUSH1 0x32 DUP3 PUSH1 0x20 SWAP10 PUSH2 0x1403 PUSH1 0xF0 SHL DUP12 DUP4 ADD MSTORE PUSH2 0x184 DUP2 MLOAD DUP1 SWAP3 DUP14 PUSH1 0x22 DUP7 ADD SWAP2 ADD PUSH2 0x608 JUMP JUMPDEST DUP2 ADD PUSH1 0x1 PUSH1 0x1 PUSH1 0x80 SHL SUB NOT PUSH1 0x24 CALLDATALOAD PUSH1 0x80 SHL AND PUSH1 0x22 DUP3 ADD MSTORE SUB PUSH1 0x12 DUP2 ADD DUP5 MSTORE ADD DUP3 PUSH2 0x570 JUMP JUMPDEST PUSH2 0x78A JUMP JUMPDEST SWAP6 DUP4 MLOAD SWAP7 DUP8 SWAP2 PUSH1 0x1 PUSH1 0xFA SHL DUP9 DUP5 ADD MSTORE PUSH2 0x1CF DUP2 MLOAD DUP1 SWAP3 DUP11 DUP8 DUP8 ADD SWAP2 ADD PUSH2 0x608 JUMP JUMPDEST DUP3 ADD PUSH2 0x1E3 DUP3 MLOAD DUP1 SWAP4 DUP11 DUP8 DUP6 ADD SWAP2 ADD PUSH2 0x608 JUMP JUMPDEST ADD SUB PUSH1 0x1 DUP2 ADD DUP8 MSTORE ADD DUP6 PUSH2 0x570 JUMP JUMPDEST MLOAD SWAP3 DUP3 DUP5 SWAP4 DUP5 MSTORE DUP4 ADD SWAP1 PUSH2 0x62B JUMP JUMPDEST SUB SWAP1 RETURN JUMPDEST DUP1 REVERT JUMPDEST POP CALLVALUE PUSH2 0x11F JUMPI DUP2 PUSH1 0x3 NOT CALLDATASIZE ADD SLT PUSH2 0x11F JUMPI SWAP1 SLOAD SWAP1 MLOAD PUSH1 0x1 PUSH1 0x1 PUSH1 0xA0 SHL SUB SWAP1 SWAP2 AND DUP2 MSTORE PUSH1 0x20 SWAP1 RETURN JUMPDEST POP CALLVALUE PUSH2 0x11F JUMPI PUSH2 0x23E CALLDATASIZE PUSH2 0x592 JUMP JUMPDEST PUSH1 0x1 SLOAD PUSH2 0x260 SWAP1 CALLER PUSH1 0x1 PUSH1 0x1 PUSH1 0xA0 SHL SUB SWAP2 DUP3 AND EQ SWAP1 DUP2 ISZERO PUSH2 0x316 JUMPI JUMPDEST POP PUSH2 0x666 JUMP JUMPDEST PUSH2 0x268 PUSH2 0x769 JUMP JUMPDEST DUP3 MLOAD PUSH4 0x7F0A3BF9 PUSH1 0xE0 SHL DUP2 MSTORE PUSH1 0x20 DUP2 DUP1 PUSH2 0x286 DUP7 DUP7 PUSH1 0x4 DUP5 ADD PUSH2 0x6CA JUMP JUMPDEST SUB DUP2 DUP9 PUSH3 0xA0000 GAS CALL SWAP1 DUP2 ISZERO PUSH2 0x30C JUMPI SWAP4 PUSH2 0x2CD PUSH2 0x2D7 SWAP3 PUSH32 0xB896FA5DAA5AAA810DBE2375FF4785C955BC7E1423E43094570A9F841329A7DD SWAP7 DUP9 SWAP2 PUSH2 0x2DD JUMPI JUMPDEST POP PUSH2 0x6F2 JUMP JUMPDEST MLOAD SWAP3 DUP4 SWAP3 DUP4 PUSH2 0x6CA JUMP JUMPDEST SUB SWAP1 LOG1 DUP1 RETURN JUMPDEST PUSH2 0x2FF SWAP2 POP PUSH1 0x20 RETURNDATASIZE PUSH1 0x20 GT PUSH2 0x305 JUMPI JUMPDEST PUSH2 0x2F7 DUP2 DUP4 PUSH2 0x570 JUMP JUMPDEST DUP2 ADD SWAP1 PUSH2 0x6B2 JUMP JUMPDEST CODESIZE PUSH2 0x2C7 JUMP JUMPDEST POP RETURNDATASIZE PUSH2 0x2ED JUMP JUMPDEST DUP5 MLOAD RETURNDATASIZE DUP8 DUP3 RETURNDATACOPY RETURNDATASIZE SWAP1 REVERT JUMPDEST SWAP1 POP DUP5 SLOAD AND CALLER EQ CODESIZE PUSH2 0x25A JUMP JUMPDEST POP CALLVALUE PUSH2 0x11F JUMPI DUP2 PUSH1 0x3 NOT CALLDATASIZE ADD SLT PUSH2 0x11F JUMPI PUSH1 0x1 SLOAD SWAP1 MLOAD PUSH1 0x1 PUSH1 0x1 PUSH1 0xA0 SHL SUB SWAP1 SWAP2 AND DUP2 MSTORE PUSH1 0x20 SWAP1 RETURN JUMPDEST POP SWAP1 CALLVALUE PUSH2 0x205 JUMPI DUP2 PUSH1 0x3 NOT CALLDATASIZE ADD SLT PUSH2 0x205 JUMPI PUSH2 0x201 PUSH2 0x368 PUSH2 0x650 JUMP JUMPDEST SWAP3 PUSH2 0x1F2 PUSH1 0x21 PUSH1 0x24 CALLDATALOAD SWAP5 PUSH2 0x383 PUSH2 0x37D PUSH2 0x737 JUMP JUMPDEST SWAP8 PUSH2 0x7E9 JUMP JUMPDEST DUP5 MLOAD PUSH2 0x41C PUSH1 0x47 DUP3 PUSH1 0x20 SWAP11 DUP12 DUP3 ADD SWAP6 DUP8 DUP8 MSTORE PUSH1 0x64 DUP14 DUP3 MLOAD SWAP1 DUP4 ADD SWAP1 PUSH2 0x3AB DUP2 DUP14 DUP9 ADD DUP5 PUSH2 0x608 JUMP JUMPDEST DUP6 ADD PUSH2 0x3EB PUSH1 0x1 PUSH1 0x1 PUSH1 0x80 SHL SUB NOT SWAP5 DUP6 DUP8 PUSH1 0x80 SHL AND DUP15 DUP5 ADD MSTORE PUSH1 0xD PUSH1 0xF8 SHL PUSH1 0x31 DUP5 ADD MSTORE DUP13 PUSH1 0x32 DUP5 ADD MSTORE PUSH1 0x3 PUSH1 0xFA SHL PUSH1 0x33 DUP5 ADD MSTORE MLOAD DUP1 SWAP4 PUSH1 0x34 DUP5 ADD SWAP1 PUSH2 0x608 JUMP JUMPDEST ADD SWAP3 DIV PUSH1 0x80 SHL AND PUSH1 0x34 DUP3 ADD MSTORE PUSH1 0x1 PUSH1 0xFA SHL SWAP7 DUP8 PUSH1 0x44 DUP4 ADD MSTORE DUP1 PUSH1 0x45 DUP4 ADD MSTORE PUSH1 0x46 DUP3 ADD MSTORE SUB PUSH1 0x27 DUP2 ADD DUP5 MSTORE ADD DUP3 PUSH2 0x570 JUMP JUMPDEST PUSH2 0x1E3 DUP7 MLOAD SWAP10 DUP11 SWAP5 DUP11 DUP7 ADD MSTORE PUSH2 0x43A DUP2 MLOAD DUP1 SWAP3 DUP13 DUP10 DUP10 ADD SWAP2 ADD PUSH2 0x608 JUMP JUMPDEST DUP5 ADD SWAP2 MLOAD DUP1 SWAP4 DUP7 DUP5 ADD SWAP1 PUSH2 0x608 JUMP JUMPDEST POP CALLVALUE PUSH2 0x11F JUMPI DUP2 PUSH1 0x3 NOT CALLDATASIZE ADD SLT PUSH2 0x11F JUMPI PUSH1 0x20 SWAP1 MLOAD PUSH2 0x3E8 DUP2 MSTORE RETURN JUMPDEST POP CALLVALUE PUSH2 0x11F JUMPI PUSH1 0x20 SWAP1 DUP2 PUSH1 0x3 NOT CALLDATASIZE ADD SLT PUSH2 0x4CC JUMPI PUSH2 0x201 SWAP1 PUSH2 0x1F2 PUSH1 0x21 PUSH2 0x1AE PUSH2 0x48D PUSH2 0x769 JUMP JUMPDEST DUP5 MLOAD PUSH1 0x7 PUSH1 0xF8 SHL DUP9 DUP3 ADD MSTORE PUSH1 0x4 CALLDATALOAD PUSH1 0x80 SHL PUSH16 0xFFFFFFFFFFFFFFFFFFFFFFFFFFFFFFFF NOT AND PUSH1 0x22 DUP3 ADD MSTORE PUSH1 0x32 DUP2 ADD SWAP9 SWAP1 SWAP9 MSTORE PUSH1 0x13 DUP9 MSTORE SWAP7 PUSH2 0x1A9 DUP2 PUSH2 0x53E JUMP JUMPDEST DUP3 DUP1 REVERT JUMPDEST POP CALLVALUE PUSH2 0x11F JUMPI PUSH2 0x4DF CALLDATASIZE PUSH2 0x592 JUMP JUMPDEST PUSH1 0x1 SLOAD PUSH2 0x500 SWAP1 CALLER PUSH1 0x1 PUSH1 0x1 PUSH1 0xA0 SHL SUB SWAP2 DUP3 AND EQ SWAP1 DUP2 ISZERO PUSH2 0x316 JUMPI POP PUSH2 0x666 JUMP JUMPDEST PUSH2 0x268 PUSH2 0x737 JUMP JUMPDEST POP CALLVALUE PUSH2 0x11F JUMPI DUP2 PUSH1 0x3 NOT CALLDATASIZE ADD SLT PUSH2 0x11F JUMPI PUSH1 0x20 SWAP1 MLOAD PUSH3 0xA0000 DUP2 MSTORE RETURN JUMPDEST DUP4 SWAP1 CALLVALUE PUSH2 0x11F JUMPI DUP2 PUSH1 0x3 NOT CALLDATASIZE ADD SLT PUSH2 0x11F JUMPI PUSH1 0x20 SWAP2 DUP2 MSTORE RETURN JUMPDEST PUSH1 0x40 DUP2 ADD SWAP1 DUP2 LT PUSH8 0xFFFFFFFFFFFFFFFF DUP3 GT OR PUSH2 0x55A JUMPI PUSH1 0x40 MSTORE JUMP JUMPDEST PUSH4 0x4E487B71 PUSH1 0xE0 SHL PUSH1 0x0 MSTORE PUSH1 0x41 PUSH1 0x4 MSTORE PUSH1 0x24 PUSH1 0x0 REVERT JUMPDEST SWAP1 PUSH1 0x1F DUP1 NOT SWAP2 ADD AND DUP2 ADD SWAP1 DUP2 LT PUSH8 0xFFFFFFFFFFFFFFFF DUP3 GT OR PUSH2 0x55A JUMPI PUSH1 0x40 MSTORE JUMP JUMPDEST PUSH1 0x20 PUSH1 0x3 NOT DUP3 ADD SLT PUSH2 0x603 JUMPI PUSH8 0xFFFFFFFFFFFFFFFF PUSH1 0x4 CALLDATALOAD DUP2 DUP2 GT PUSH2 0x603 JUMPI DUP3 PUSH1 0x23 DUP3 ADD SLT ISZERO PUSH2 0x603 JUMPI DUP1 PUSH1 0x4 ADD CALLDATALOAD SWAP2 DUP3 GT PUSH2 0x55A JUMPI PUSH1 0x40 MLOAD SWAP3 PUSH2 0x5E0 PUSH1 0x1F DUP5 ADD PUSH1 0x1F NOT AND PUSH1 0x20 ADD DUP6 PUSH2 0x570 JUMP JUMPDEST DUP3 DUP5 MSTORE PUSH1 0x24 DUP4 DUP4 ADD ADD GT PUSH2 0x603 JUMPI DUP2 PUSH1 0x0 SWAP3 PUSH1 0x24 PUSH1 0x20 SWAP4 ADD DUP4 DUP7 ADD CALLDATACOPY DUP4 ADD ADD MSTORE SWAP1 JUMP JUMPDEST PUSH1 0x0 DUP1 REVERT JUMPDEST PUSH1 0x0 JUMPDEST DUP4 DUP2 LT PUSH2 0x61B JUMPI POP POP PUSH1 0x0 SWAP2 ADD MSTORE JUMP JUMPDEST DUP2 DUP2 ADD MLOAD DUP4 DUP3 ADD MSTORE PUSH1 0x20 ADD PUSH2 0x60B JUMP JUMPDEST SWAP1 PUSH1 0x20 SWAP2 PUSH2 0x644 DUP2 MLOAD DUP1 SWAP3 DUP2 DUP6 MSTORE DUP6 DUP1 DUP7 ADD SWAP2 ADD PUSH2 0x608 JUMP JUMPDEST PUSH1 0x1F ADD PUSH1 0x1F NOT AND ADD ADD SWAP1 JUMP JUMPDEST PUSH1 0x4 CALLDATALOAD SWAP1 PUSH1 0x1 PUSH1 0x1 PUSH1 0xA0 SHL SUB DUP3 AND DUP3 SUB PUSH2 0x603 JUMPI JUMP JUMPDEST ISZERO PUSH2 0x66D JUMPI JUMP JUMPDEST PUSH1 0x40 MLOAD PUSH3 0x461BCD PUSH1 0xE5 SHL DUP2 MSTORE PUSH1 0x20 PUSH1 0x4 DUP3 ADD MSTORE PUSH1 0x17 PUSH1 0x24 DUP3 ADD MSTORE PUSH32 0x58434D526F757465723A20756E617574686F72697A6564000000000000000000 PUSH1 0x44 DUP3 ADD MSTORE PUSH1 0x64 SWAP1 REVERT JUMPDEST SWAP1 DUP2 PUSH1 0x20 SWAP2 SUB SLT PUSH2 0x603 JUMPI MLOAD DUP1 ISZERO ISZERO DUP2 SUB PUSH2 0x603 JUMPI SWAP1 JUMP JUMPDEST SWAP1 SWAP2 PUSH2 0x6E1 PUSH2 0x6EF SWAP4 PUSH1 0x40 DUP5 MSTORE PUSH1 0x40 DUP5 ADD SWAP1 PUSH2 0x62B JUMP JUMPDEST SWAP2 PUSH1 0x20 DUP2 DUP5 SUB SWAP2 ADD MSTORE PUSH2 0x62B JUMP JUMPDEST SWAP1 JUMP JUMPDEST ISZERO PUSH2 0x6F9 JUMPI JUMP JUMPDEST PUSH1 0x40 MLOAD PUSH3 0x461BCD PUSH1 0xE5 SHL DUP2 MSTORE PUSH1 0x20 PUSH1 0x4 DUP3 ADD MSTORE PUSH1 0x16 PUSH1 0x24 DUP3 ADD MSTORE PUSH22 0x1610D3549BDD5D195C8E881CD95B990819985A5B1959 PUSH1 0x52 SHL PUSH1 0x44 DUP3 ADD MSTORE PUSH1 0x64 SWAP1 REVERT JUMPDEST PUSH1 0x40 MLOAD PUSH1 0x1 PUSH1 0xF8 SHL PUSH1 0x20 DUP3 ADD DUP2 SWAP1 MSTORE PUSH1 0x21 DUP3 ADD MSTORE PUSH1 0x0 PUSH1 0x22 DUP3 ADD MSTORE PUSH1 0x7D PUSH1 0xE3 SHL PUSH1 0x23 DUP3 ADD MSTORE PUSH1 0x7 DUP2 MSTORE PUSH2 0x6EF DUP2 PUSH2 0x53E JUMP JUMPDEST PUSH1 0x40 MLOAD PUSH1 0x1 PUSH1 0xF8 SHL PUSH1 0x20 DUP3 ADD MSTORE PUSH1 0x0 PUSH1 0x21 DUP3 ADD MSTORE PUSH1 0x2 DUP2 MSTORE PUSH2 0x6EF DUP2 PUSH2 0x53E JUMP JUMPDEST PUSH2 0x6EF PUSH1 0x33 PUSH1 0x40 MLOAD DUP1 SWAP4 PUSH1 0x3 PUSH1 0xF9 SHL PUSH1 0x20 DUP4 ADD MSTORE PUSH1 0x0 PUSH1 0x21 DUP4 ADD MSTORE PUSH1 0x1 PUSH1 0xF8 SHL PUSH1 0x22 DUP4 ADD MSTORE PUSH3 0x1DCD65 PUSH1 0xC9 SHL PUSH1 0x23 DUP4 ADD MSTORE PUSH2 0x271 PUSH1 0xC4 SHL PUSH1 0x2B DUP4 ADD MSTORE PUSH2 0x7D9 DUP2 MLOAD DUP1 SWAP3 PUSH1 0x20 DUP7 DUP7 ADD SWAP2 ADD PUSH2 0x608 JUMP JUMPDEST DUP2 ADD SUB PUSH1 0x13 DUP2 ADD DUP5 MSTORE ADD DUP3 PUSH2 0x570 JUMP JUMPDEST PUSH1 0x40 MLOAD PUSH1 0x0 PUSH1 0x20 DUP3 ADD MSTORE PUSH1 0x1 PUSH1 0xF8 SHL PUSH1 0x21 DUP3 ADD MSTORE PUSH1 0x5 PUSH1 0xF8 SHL PUSH1 0x22 DUP3 ADD MSTORE PUSH1 0x60 SWAP2 SWAP1 SWAP2 SHL PUSH12 0xFFFFFFFFFFFFFFFFFFFFFFFF NOT AND PUSH1 0x23 DUP3 ADD MSTORE PUSH1 0x17 DUP2 MSTORE PUSH2 0x6EF DUP2 PUSH2 0x53E JUMP INVALID LOG2 PUSH5 0x6970667358 0x22 SLT KECCAK256 DUP2 0xE7 PUSH25 0x97583785C7D86FA6B3B00609E9287BC3D6599A9A073013E4EF TSTORE SWAP8 CREATE2 0xF PUSH5 0x736F6C6343 STOP ADDMOD XOR STOP CALLER "},"methodIdentifiers":{"ASSET_HUB_PARA_ID()":"55480d17","RELAY_CHAIN_ID()":"06856142","XCM_PRECOMPILE()":"077120cc","buildLendOnAssetHub(address,uint256)":"927620db","buildStakeOnRelay(uint256)":"3f707022","buildTransferToAssetHub(address,uint256)":"57d3c71a","owner()":"8da5cb5b","sendToAssetHub(bytes)":"18d71636","sendToRelay(bytes)":"79b15de0","setTreasury(address)":"f0f44260","treasury()":"61d027b3"}}}}}