{"src/strategies/AssetHubLendingStrategy.sol":{"AssetHubLendingStrategy":{"abi":[{"inputs":[{"internalType":"address","name":"_xcmRouter","type":"address"},{"internalType":"address","name":"_asset","type":"address"}],"stateMutability":"nonpayable","type":"constructor"},{"anonymous":false,"inputs":[{"indexed":false,"internalType":"uint256","name":"amount","type":"uint256"}],"name":"StrategyDivested","type":"event"},{"anonymous":false,"inputs":[{"indexed":false,"internalType":"uint256","name":"amount","type":"uint256"}],"name":"StrategyInvested","type":"event"},{"inputs":[],"name":"asset","outputs":[{"internalType":"address","name":"","type":"address"}],"stateMutability":"view","type":"function"},{"inputs":[{"internalType":"uint256","name":"amount","type":"uint256"}],"name":"divest","outputs":[],"stateMutability":"nonpayable","type":"function"},{"inputs":[],"name":"harvestYield","outputs":[{"internalType":"uint256","name":"","type":"uint256"}],"stateMutability":"nonpayable","type":"function"},{"inputs":[{"internalType":"uint256","name":"amount","type":"uint256"}],"name":"invest","outputs":[],"stateMutability":"nonpayable","type":"function"},{"inputs":[],"name":"invested","outputs":[{"internalType":"uint256","name":"","type":"uint256"}],"stateMutability":"view","type":"function"},{"inputs":[],"name":"lastHarvested","outputs":[{"internalType":"uint256","name":"","type":"uint256"}],"stateMutability":"view","type":"function"},{"inputs":[],"name":"owner","outputs":[{"internalType":"address","name":"","type":"address"}],"stateMutability":"view","type":"function"},{"inputs":[],"name":"totalValue","outputs":[{"internalType":"uint256","name":"","type":"uint256"}],"stateMutability":"view","type":"function"},{"inputs":[],"name":"xcmRouter","outputs":[{"internalType":"contract XCMRouter","name":"","type":"address"}],"stateMutability":"view","type":"function"}],"evm":{"bytecode":{"linkReferences":{},"object":"60803461009257601f6105eb38819003918201601f19168301916001600160401b0383118484101761009757808492604094855283398101031261009257610052602061004b836100ad565b92016100ad565b9060018060a01b0319913383600054161760005560018060a01b038092168360015416176001551690600254161760025560405161052990816100c28239f35b600080fd5b634e487b7160e01b600052604160045260246000fd5b51906001600160a01b03821682036100925756fe608060408181526004918236101561001657600080fd5b600092833560e01c9182632afcf480146101fd5750816338d52e0f146101d45781636422ca16146101b65781638ca179951461011b575080638da5cb5b146100f4578063cafb2202146100d6578063d4c3eea0146100d6578063e1d20600146100ae5763e8d991d11461008857600080fd5b346100aa57816003193601126100aa576020906100a36104a2565b9051908152f35b5080fd5b50346100aa57816003193601126100aa5760015490516001600160a01b039091168152602090f35b50346100aa57816003193601126100aa576020906003549051908152f35b50346100aa57816003193601126100aa57905490516001600160a01b039091168152602090f35b919050346101b25760203660031901126101b25760035482359281841161017757509160209161016c827ff22b8ebdf5c7e49487fd0b33a034e6cab36e92ea0117bc9ca1587c72058747bf9561047f565b60035551908152a180f35b606490602084519162461bcd60e51b8352820152601560248201527413195b991a5b99ce881a5b9cdd59999a58da595b9d605a1b6044820152fd5b8280fd5b9050346101b257826003193601126101b25760209250549051908152f35b5050346100aa57816003193601126100aa5760025490516001600160a01b039091168152602090f35b838591346101b257602091826003193601126104205784359182156103e85750600154600254825163927620db60e01b81526001600160a01b03918216888201526024810185905291168582604481845afa9182156103de57869261033f575b50803b1561033b57848691888360448751809781968295630c6b8b1b60e11b845283015261029a8c8251928391826024870152868601910161045c565b601f01601f191681010301925af1801561033157610303575b506003548281018091116102f0577fc68748140896ba027a48ebf3a24735d0afb4ab835f92c4815ddb34f9d6dfd18a94955060035551908152a180f35b634e487b7160e01b855260118652602485fd5b67ffffffffffffffff819592951161031e57845292856102b3565b634e487b7160e01b825260418652602482fd5b82513d87823e3d90fd5b8580fd5b9091503d8087833e6103518183610424565b81019085818303126103da57805167ffffffffffffffff918282116103d6570182601f820112156103bf5780519182116103c35784519261039b601f8401601f1916890185610424565b8284528783830101116103bf57906103b89187808501910161045c565b908761025d565b8780fd5b634e487b7160e01b885260418952602488fd5b8880fd5b8680fd5b83513d88823e3d90fd5b62461bcd60e51b8152858101849052601460248201527313195b991a5b99ce881e995c9bc8185b5bdd5b9d60621b6044820152606490fd5b8380fd5b90601f8019910116810190811067ffffffffffffffff82111761044657604052565b634e487b7160e01b600052604160045260246000fd5b60005b83811061046f5750506000910152565b818101518382015260200161045f565b9190820391821161048c57565b634e487b7160e01b600052601160045260246000fd5b6104ae6004544261047f565b610e1081106104ed57600354600a810290808204600a148115171561048c578202600a0291811591830414171561048c5763bbf81e0090426004550490565b5060009056fea2646970667358221220bf3743b906b473ece3a6b5e874b875f5abff462e1394793fc87b7d537961c83964736f6c63430008180033","opcodes":"PUSH1 0x80 CALLVALUE PUSH2 0x92 JUMPI PUSH1 0x1F PUSH2 0x5EB CODESIZE DUP2 SWAP1 SUB SWAP2 DUP3 ADD PUSH1 0x1F NOT AND DUP4 ADD SWAP2 PUSH1 0x1 PUSH1 0x1 PUSH1 0x40 SHL SUB DUP4 GT DUP5 DUP5 LT OR PUSH2 0x97 JUMPI DUP1 DUP5 SWAP3 PUSH1 0x40 SWAP5 DUP6 MSTORE DUP4 CODECOPY DUP2 ADD SUB SLT PUSH2 0x92 JUMPI PUSH2 0x52 PUSH1 0x20 PUSH2 0x4B DUP4 PUSH2 0xAD JUMP JUMPDEST SWAP3 ADD PUSH2 0xAD JUMP JUMPDEST SWAP1 PUSH1 0x1 DUP1 PUSH1 0xA0 SHL SUB NOT SWAP2 CALLER DUP4 PUSH1 0x0 SLOAD AND OR PUSH1 0x0 SSTORE PUSH1 0x1 DUP1 PUSH1 0xA0 SHL SUB DUP1 SWAP3 AND DUP4 PUSH1 0x1 SLOAD AND OR PUSH1 0x1 SSTORE AND SWAP1 PUSH1 0x2 SLOAD AND OR PUSH1 0x2 SSTORE PUSH1 0x40 MLOAD PUSH2 0x529 SWAP1 DUP2 PUSH2 0xC2 DUP3 CODECOPY RETURN JUMPDEST PUSH1 0x0 DUP1 REVERT JUMPDEST PUSH4 0x4E487B71 PUSH1 0xE0 SHL PUSH1 0x0 MSTORE PUSH1 0x41 PUSH1 0x4 MSTORE PUSH1 0x24 PUSH1 0x0 REVERT JUMPDEST MLOAD SWAP1 PUSH1 0x1 PUSH1 0x1 PUSH1 0xA0 SHL SUB DUP3 AND DUP3 SUB PUSH2 0x92 JUMPI JUMP INVALID PUSH1 0x80 PUSH1 0x40 DUP2 DUP2 MSTORE PUSH1 0x4 SWAP2 DUP3 CALLDATASIZE LT ISZERO PUSH2 0x16 JUMPI PUSH1 0x0 DUP1 REVERT JUMPDEST PUSH1 0x0 SWAP3 DUP4 CALLDATALOAD PUSH1 0xE0 SHR SWAP2 DUP3 PUSH4 0x2AFCF480 EQ PUSH2 0x1FD JUMPI POP DUP2 PUSH4 0x38D52E0F EQ PUSH2 0x1D4 JUMPI DUP2 PUSH4 0x6422CA16 EQ PUSH2 0x1B6 JUMPI DUP2 PUSH4 0x8CA17995 EQ PUSH2 0x11B JUMPI POP DUP1 PUSH4 0x8DA5CB5B EQ PUSH2 0xF4 JUMPI DUP1 PUSH4 0xCAFB2202 EQ PUSH2 0xD6 JUMPI DUP1 PUSH4 0xD4C3EEA0 EQ PUSH2 0xD6 JUMPI DUP1 PUSH4 0xE1D20600 EQ PUSH2 0xAE JUMPI PUSH4 0xE8D991D1 EQ PUSH2 0x88 JUMPI PUSH1 0x0 DUP1 REVERT JUMPDEST CALLVALUE PUSH2 0xAA JUMPI DUP2 PUSH1 0x3 NOT CALLDATASIZE ADD SLT PUSH2 0xAA JUMPI PUSH1 0x20 SWAP1 PUSH2 0xA3 PUSH2 0x4A2 JUMP JUMPDEST SWAP1 MLOAD SWAP1 DUP2 MSTORE RETURN JUMPDEST POP DUP1 REVERT JUMPDEST POP CALLVALUE PUSH2 0xAA JUMPI DUP2 PUSH1 0x3 NOT CALLDATASIZE ADD SLT PUSH2 0xAA JUMPI PUSH1 0x1 SLOAD SWAP1 MLOAD PUSH1 0x1 PUSH1 0x1 PUSH1 0xA0 SHL SUB SWAP1 SWAP2 AND DUP2 MSTORE PUSH1 0x20 SWAP1 RETURN JUMPDEST POP CALLVALUE PUSH2 0xAA JUMPI DUP2 PUSH1 0x3 NOT CALLDATASIZE ADD SLT PUSH2 0xAA JUMPI PUSH1 0x20 SWAP1 PUSH1 0x3 SLOAD SWAP1 MLOAD SWAP1 DUP2 MSTORE RETURN JUMPDEST POP CALLVALUE PUSH2 0xAA JUMPI DUP2 PUSH1 0x3 NOT CALLDATASIZE ADD SLT PUSH2 0xAA JUMPI SWAP1 SLOAD SWAP1 MLOAD PUSH1 0x1 PUSH1 0x1 PUSH1 0xA0 SHL SUB SWAP1 SWAP2 AND DUP2 MSTORE PUSH1 0x20 SWAP1 RETURN JUMPDEST SWAP2 SWAP1 POP CALLVALUE PUSH2 0x1B2 JUMPI PUSH1 0x20 CALLDATASIZE PUSH1 0x3 NOT ADD SLT PUSH2 0x1B2 JUMPI PUSH1 0x3 SLOAD DUP3 CALLDATALOAD SWAP3 DUP2 DUP5 GT PUSH2 0x177 JUMPI POP SWAP2 PUSH1 0x20 SWAP2 PUSH2 0x16C DUP3 PUSH32 0xF22B8EBDF5C7E49487FD0B33A034E6CAB36E92EA0117BC9CA1587C72058747BF SWAP6 PUSH2 0x47F JUMP JUMPDEST PUSH1 0x3 SSTORE MLOAD SWAP1 DUP2 MSTORE LOG1 DUP1 RETURN JUMPDEST PUSH1 0x64 SWAP1 PUSH1 0x20 DUP5 MLOAD SWAP2 PUSH3 0x461BCD PUSH1 0xE5 SHL DUP4 MSTORE DUP3 ADD MSTORE PUSH1 0x15 PUSH1 0x24 DUP3 ADD MSTORE PUSH21 0x13195B991A5B99CE881A5B9CDD59999A58DA595B9D PUSH1 0x5A SHL PUSH1 0x44 DUP3 ADD MSTORE REVERT JUMPDEST DUP3 DUP1 REVERT JUMPDEST SWAP1 POP CALLVALUE PUSH2 0x1B2 JUMPI DUP3 PUSH1 0x3 NOT CALLDATASIZE ADD SLT PUSH2 0x1B2 JUMPI PUSH1 0x20 SWAP3 POP SLOAD SWAP1 MLOAD SWAP1 DUP2 MSTORE RETURN JUMPDEST POP POP CALLVALUE PUSH2 0xAA JUMPI DUP2 PUSH1 0x3 NOT CALLDATASIZE ADD SLT PUSH2 0xAA JUMPI PUSH1 0x2 SLOAD SWAP1 MLOAD PUSH1 0x1 PUSH1 0x1 PUSH1 0xA0 SHL SUB SWAP1 SWAP2 AND DUP2 MSTORE PUSH1 0x20 SWAP1 RETURN JUMPDEST DUP4 DUP6 SWAP2 CALLVALUE PUSH2 0x1B2 JUMPI PUSH1 0x20 SWAP2 DUP3 PUSH1 0x3 NOT CALLDATASIZE ADD SLT PUSH2 0x420 JUMPI DUP5 CALLDATALOAD SWAP2 DUP3 ISZERO PUSH2 0x3E8 JUMPI POP PUSH1 0x1 SLOAD PUSH1 0x2 SLOAD DUP3 MLOAD PUSH4 0x927620DB PUSH1 0xE0 SHL DUP2 MSTORE PUSH1 0x1 PUSH1 0x1 PUSH1 0xA0 SHL SUB SWAP2 DUP3 AND DUP9 DUP3 ADD MSTORE PUSH1 0x24 DUP2 ADD DUP6 SWAP1 MSTORE SWAP2 AND DUP6 DUP3 PUSH1 0x44 DUP2 DUP5 GAS STATICCALL SWAP2 DUP3 ISZERO PUSH2 0x3DE JUMPI DUP7 SWAP3 PUSH2 0x33F JUMPI JUMPDEST POP DUP1 EXTCODESIZE ISZERO PUSH2 0x33B JUMPI DUP5 DUP7 SWAP2 DUP9 DUP4 PUSH1 0x44 DUP8 MLOAD DUP1 SWAP8 DUP2 SWAP7 DUP3 SWAP6 PUSH4 0xC6B8B1B PUSH1 0xE1 SHL DUP5 MSTORE DUP4 ADD MSTORE PUSH2 0x29A DUP13 DUP3 MLOAD SWAP3 DUP4 SWAP2 DUP3 PUSH1 0x24 DUP8 ADD MSTORE DUP7 DUP7 ADD SWAP2 ADD PUSH2 0x45C JUMP JUMPDEST PUSH1 0x1F ADD PUSH1 0x1F NOT AND DUP2 ADD SUB ADD SWAP3 GAS CALL DUP1 ISZERO PUSH2 0x331 JUMPI PUSH2 0x303 JUMPI JUMPDEST POP PUSH1 0x3 SLOAD DUP3 DUP2 ADD DUP1 SWAP2 GT PUSH2 0x2F0 JUMPI PUSH32 0xC68748140896BA027A48EBF3A24735D0AFB4AB835F92C4815DDB34F9D6DFD18A SWAP5 SWAP6 POP PUSH1 0x3 SSTORE MLOAD SWAP1 DUP2 MSTORE LOG1 DUP1 RETURN JUMPDEST PUSH4 0x4E487B71 PUSH1 0xE0 SHL DUP6 MSTORE PUSH1 0x11 DUP7 MSTORE PUSH1 0x24 DUP6 REVERT JUMPDEST PUSH8 0xFFFFFFFFFFFFFFFF DUP2 SWAP6 SWAP3 SWAP6 GT PUSH2 0x31E JUMPI DUP5 MSTORE SWAP3 DUP6 PUSH2 0x2B3 JUMP JUMPDEST PUSH4 0x4E487B71 PUSH1 0xE0 SHL DUP3 MSTORE PUSH1 0x41 DUP7 MSTORE PUSH1 0x24 DUP3 REVERT JUMPDEST DUP3 MLOAD RETURNDATASIZE DUP8 DUP3 RETURNDATACOPY RETURNDATASIZE SWAP1 REVERT JUMPDEST DUP6 DUP1 REVERT JUMPDEST SWAP1 SWAP2 POP RETURNDATASIZE DUP1 DUP8 DUP4 RETURNDATACOPY PUSH2 0x351 DUP2 DUP4 PUSH2 0x424 JUMP JUMPDEST DUP2 ADD SWAP1 DUP6 DUP2 DUP4 SUB SLT PUSH2 0x3DA JUMPI DUP1 MLOAD PUSH8 0xFFFFFFFFFFFFFFFF SWAP2 DUP3 DUP3 GT PUSH2 0x3D6 JUMPI ADD DUP3 PUSH1 0x1F DUP3 ADD SLT ISZERO PUSH2 0x3BF JUMPI DUP1 MLOAD SWAP2 DUP3 GT PUSH2 0x3C3 JUMPI DUP5 MLOAD SWAP3 PUSH2 0x39B PUSH1 0x1F DUP5 ADD PUSH1 0x1F NOT AND DUP10 ADD DUP6 PUSH2 0x424 JUMP JUMPDEST DUP3 DUP5 MSTORE DUP8 DUP4 DUP4 ADD ADD GT PUSH2 0x3BF JUMPI SWAP1 PUSH2 0x3B8 SWAP2 DUP8 DUP1 DUP6 ADD SWAP2 ADD PUSH2 0x45C JUMP JUMPDEST SWAP1 DUP8 PUSH2 0x25D JUMP JUMPDEST DUP8 DUP1 REVERT JUMPDEST PUSH4 0x4E487B71 PUSH1 0xE0 SHL DUP9 MSTORE PUSH1 0x41 DUP10 MSTORE PUSH1 0x24 DUP9 REVERT JUMPDEST DUP9 DUP1 REVERT JUMPDEST DUP7 DUP1 REVERT JUMPDEST DUP4 MLOAD RETURNDATASIZE DUP9 DUP3 RETURNDATACOPY RETURNDATASIZE SWAP1 REVERT JUMPDEST PUSH3 0x461BCD PUSH1 0xE5 SHL DUP2 MSTORE DUP6 DUP2 ADD DUP5 SWAP1 MSTORE PUSH1 0x14 PUSH1 0x24 DUP3 ADD MSTORE PUSH20 0x13195B991A5B99CE881E995C9BC8185B5BDD5B9D PUSH1 0x62 SHL PUSH1 0x44 DUP3 ADD MSTORE PUSH1 0x64 SWAP1 REVERT JUMPDEST DUP4 DUP1 REVERT JUMPDEST SWAP1 PUSH1 0x1F DUP1 NOT SWAP2 ADD AND DUP2 ADD SWAP1 DUP2 LT PUSH8 0xFFFFFFFFFFFFFFFF DUP3 GT OR PUSH2 0x446 JUMPI PUSH1 0x40 MSTORE JUMP JUMPDEST PUSH4 0x4E487B71 PUSH1 0xE0 SHL PUSH1 0x0 MSTORE PUSH1 0x41 PUSH1 0x4 MSTORE PUSH1 0x24 PUSH1 0x0 REVERT JUMPDEST PUSH1 0x0 JUMPDEST DUP4 DUP2 LT PUSH2 0x46F JUMPI POP POP PUSH1 0x0 SWAP2 ADD MSTORE JUMP JUMPDEST DUP2 DUP2 ADD MLOAD DUP4 DUP3 ADD MSTORE PUSH1 0x20 ADD PUSH2 0x45F JUMP JUMPDEST SWAP2 SWAP1 DUP3 SUB SWAP2 DUP3 GT PUSH2 0x48C JUMPI JUMP JUMPDEST PUSH4 0x4E487B71 PUSH1 0xE0 SHL PUSH1 0x0 MSTORE PUSH1 0x11 PUSH1 0x4 MSTORE PUSH1 0x24 PUSH1 0x0 REVERT JUMPDEST PUSH2 0x4AE PUSH1 0x4 SLOAD TIMESTAMP PUSH2 0x47F JUMP JUMPDEST PUSH2 0xE10 DUP2 LT PUSH2 0x4ED JUMPI PUSH1 0x3 SLOAD PUSH1 0xA DUP2 MUL SWAP1 DUP1 DUP3 DIV PUSH1 0xA EQ DUP2 ISZERO OR ISZERO PUSH2 0x48C JUMPI DUP3 MUL PUSH1 0xA MUL SWAP2 DUP2 ISZERO SWAP2 DUP4 DIV EQ OR ISZERO PUSH2 0x48C JUMPI PUSH4 0xBBF81E00 SWAP1 TIMESTAMP PUSH1 0x4 SSTORE DIV SWAP1 JUMP JUMPDEST POP PUSH1 0x0 SWAP1 JUMP INVALID LOG2 PUSH5 0x6970667358 0x22 SLT KECCAK256 0xBF CALLDATACOPY NUMBER 0xB9 MOD 0xB4 PUSH20 0xECE3A6B5E874B875F5ABFF462E1394793FC87B7D MSTORE8 PUSH26 0x61C83964736F6C63430008180033000000000000000000000000 "},"methodIdentifiers":{"asset()":"38d52e0f","divest(uint256)":"8ca17995","harvestYield()":"e8d991d1","invest(uint256)":"2afcf480","invested()":"cafb2202","lastHarvested()":"6422ca16","owner()":"8da5cb5b","totalValue()":"d4c3eea0","xcmRouter()":"e1d20600"}}}}}