{"src/AutoTreasury.sol":{"AutoTreasury":{"abi":[{"inputs":[{"internalType":"address","name":"_xcmRouter","type":"address"}],"stateMutability":"nonpayable","type":"constructor"},{"anonymous":false,"inputs":[{"indexed":true,"internalType":"address","name":"asset","type":"address"}],"name":"AssetAdded","type":"event"},{"anonymous":false,"inputs":[{"indexed":true,"internalType":"address","name":"user","type":"address"},{"indexed":true,"internalType":"address","name":"asset","type":"address"},{"indexed":false,"internalType":"uint256","name":"amount","type":"uint256"},{"indexed":false,"internalType":"uint256","name":"sharesMinted","type":"uint256"}],"name":"Deposited","type":"event"},{"anonymous":false,"inputs":[{"indexed":false,"internalType":"uint256","name":"timestamp","type":"uint256"}],"name":"Rebalanced","type":"event"},{"anonymous":false,"inputs":[{"indexed":true,"internalType":"address","name":"strategy","type":"address"}],"name":"StrategyAdded","type":"event"},{"anonymous":false,"inputs":[{"indexed":true,"internalType":"address","name":"strategy","type":"address"}],"name":"StrategyRemoved","type":"event"},{"anonymous":false,"inputs":[{"indexed":true,"internalType":"address","name":"user","type":"address"},{"indexed":false,"internalType":"uint256","name":"sharesBurned","type":"uint256"},{"indexed":false,"internalType":"uint256","name":"amountReturned","type":"uint256"}],"name":"Withdrawn","type":"event"},{"anonymous":false,"inputs":[{"indexed":true,"internalType":"address","name":"asset","type":"address"},{"indexed":false,"internalType":"uint256","name":"amount","type":"uint256"},{"indexed":false,"internalType":"bytes","name":"xcmPayload","type":"bytes"}],"name":"XCMTransferTriggered","type":"event"},{"anonymous":false,"inputs":[{"indexed":true,"internalType":"address","name":"user","type":"address"},{"indexed":false,"internalType":"uint256","name":"amount","type":"uint256"}],"name":"YieldClaimed","type":"event"},{"inputs":[{"internalType":"address","name":"asset","type":"address"}],"name":"addAsset","outputs":[],"stateMutability":"nonpayable","type":"function"},{"inputs":[{"internalType":"contract YieldStrategy","name":"strategy","type":"address"}],"name":"addStrategy","outputs":[],"stateMutability":"nonpayable","type":"function"},{"inputs":[],"name":"assetCount","outputs":[{"internalType":"uint256","name":"","type":"uint256"}],"stateMutability":"view","type":"function"},{"inputs":[{"internalType":"uint256","name":"","type":"uint256"}],"name":"assetList","outputs":[{"internalType":"address","name":"","type":"address"}],"stateMutability":"view","type":"function"},{"inputs":[],"name":"claimYield","outputs":[],"stateMutability":"nonpayable","type":"function"},{"inputs":[{"internalType":"address","name":"asset","type":"address"},{"internalType":"uint256","name":"amount","type":"uint256"}],"name":"deposit","outputs":[],"stateMutability":"nonpayable","type":"function"},{"inputs":[],"name":"owner","outputs":[{"internalType":"address","name":"","type":"address"}],"stateMutability":"view","type":"function"},{"inputs":[{"internalType":"address","name":"user","type":"address"}],"name":"pendingYield","outputs":[{"internalType":"uint256","name":"","type":"uint256"}],"stateMutability":"view","type":"function"},{"inputs":[],"name":"rebalance","outputs":[],"stateMutability":"nonpayable","type":"function"},{"inputs":[{"internalType":"contract YieldStrategy","name":"strategy","type":"address"}],"name":"removeStrategy","outputs":[],"stateMutability":"nonpayable","type":"function"},{"inputs":[],"name":"sharePrice","outputs":[{"internalType":"uint256","name":"","type":"uint256"}],"stateMutability":"view","type":"function"},{"inputs":[{"internalType":"address","name":"","type":"address"}],"name":"shares","outputs":[{"internalType":"uint256","name":"","type":"uint256"}],"stateMutability":"view","type":"function"},{"inputs":[{"internalType":"uint256","name":"","type":"uint256"}],"name":"strategies","outputs":[{"internalType":"contract YieldStrategy","name":"","type":"address"}],"stateMutability":"view","type":"function"},{"inputs":[],"name":"strategyCount","outputs":[{"internalType":"uint256","name":"","type":"uint256"}],"stateMutability":"view","type":"function"},{"inputs":[{"internalType":"address","name":"","type":"address"}],"name":"strategyIndex","outputs":[{"internalType":"uint256","name":"","type":"uint256"}],"stateMutability":"view","type":"function"},{"inputs":[{"internalType":"address","name":"","type":"address"}],"name":"supportedAssets","outputs":[{"internalType":"bool","name":"","type":"bool"}],"stateMutability":"view","type":"function"},{"inputs":[],"name":"totalAssets","outputs":[{"internalType":"uint256","name":"","type":"uint256"}],"stateMutability":"view","type":"function"},{"inputs":[{"internalType":"address","name":"","type":"address"}],"name":"totalDeposited","outputs":[{"internalType":"uint256","name":"","type":"uint256"}],"stateMutability":"view","type":"function"},{"inputs":[],"name":"totalShares","outputs":[{"internalType":"uint256","name":"","type":"uint256"}],"stateMutability":"view","type":"function"},{"inputs":[],"name":"totalYieldAccrued","outputs":[{"internalType":"uint256","name":"","type":"uint256"}],"stateMutability":"view","type":"function"},{"inputs":[{"internalType":"address","name":"asset","type":"address"},{"internalType":"uint256","name":"amount","type":"uint256"}],"name":"triggerXCMTransfer","outputs":[],"stateMutability":"nonpayable","type":"function"},{"inputs":[{"internalType":"uint256","name":"shareAmount","type":"uint256"}],"name":"withdraw","outputs":[],"stateMutability":"nonpayable","type":"function"},{"inputs":[],"name":"xcmRouter","outputs":[{"internalType":"contract XCMRouter","name":"","type":"address"}],"stateMutability":"view","type":"function"},{"inputs":[{"internalType":"address","name":"","type":"address"}],"name":"yieldClaimed","outputs":[{"internalType":"uint256","name":"","type":"uint256"}],"stateMutability":"view","type":"function"}],"evm":{"bytecode":{"linkReferences":{},"object":"60803461007a57601f6119fe38819003918201601f19168301916001600160401b0383118484101761007f5780849260209460405283398101031261007a57516001600160a01b0381169081900361007a5760018060a01b031933816000541617600055600154161760015560405161196890816100968239f35b600080fd5b634e487b7160e01b600052604160045260246000fdfe6040608081526004908136101561001557600080fd5b600091823560e01c90816301e1d114146114b15781631145152614611479578163175188e8146112c557816322068b44146112a6578163223e5479146111ac578163298410e51461108f5781632e1a7d4d14610db15781633a98ef3914610d92578163406cf22914610a7c57816345bba69714610a4457816347e7ef24146108c3578163530554811461088b5781637d7c2a1c1461060657816387269729146105e95781638da5cb5b146105c157816391731c66146102a7578163a0b4b3011461027c578163bd81579e1461023f578163c7bf198014610212578163ce7c2ac2146101da578163d574ea3d1461019257508063e1d206001461016a578063eafe7a741461014c5763ee6c3bf21461012b57600080fd5b346101485781600319360112610148576020906009549051908152f35b5080fd5b50346101485781600319360112610148576020906005549051908152f35b503461014857816003193601126101485760015490516001600160a01b039091168152602090f35b9050346101d65760203660031901126101d65735916007548310156101d357506101bd6020926114e9565b905491519160018060a01b039160031b1c168152f35b80fd5b8280fd5b5050346101485760203660031901126101485760209181906001600160a01b036102026114ce565b1681526002845220549051908152f35b505034610148576020366003190112610148576020906102386102336114ce565b6118ad565b9051908152f35b9050346101d65760203660031901126101d65760209260ff918391906001600160a01b0361026b6114ce565b168252855220541690519015158152f35b9050346101d65760203660031901126101d65735916005548310156101d357506101bd602092611536565b9050346101d657816003193601126101d6576102c16114ce565b9060243560018060a01b036102da818754163314611730565b6102e58215156117d4565b84516370a0823160e01b8152308482015284821694602094909185816024818a5afa80156105b75785918a91610586575b501061053857600154875163095ea7b360e01b81529084166001600160a01b031682820190815260208101869052899291908790829081906040010381868c5af1801561052e576103a49584928892610501575b506001548b51632be9e38d60e11b81526001600160a01b039097168588019081526020810193909352959695169486918291604090910190565b0381865afa9384156104f757829461044f575b50823b15610148578751630c6b8b1b60e11b81529081018690529182908183816103e46024820189611888565b03925af18015610445579561043092917fb7601b2b4ca3afa837769c4aeed7ebeaac7a39144481681131486c7e5d2ee6cd9697610436575b508080519586958652850152830190611888565b0390a280f35b61043f9061156d565b3861041c565b86513d89823e3d90fd5b915092503d8089833e6104628183611597565b81019085818303126104f357805167ffffffffffffffff918282116104ef57019082601f830112156104eb5781519081116104d857908992918951926104b189601f19601f8501160185611597565b8184528882840101116104d4576104cd91888085019101611865565b92386103b7565b8380fd5b634e487b7160e01b8a526041855260248afd5b8980fd5b8a80fd5b8880fd5b88513d84823e3d90fd5b610520908a3d8c11610527575b6105188183611597565b8101906117bc565b503861036a565b503d61050e565b89513d85823e3d90fd5b865162461bcd60e51b8152908101859052602260248201527f4175746f54726561737572793a20696e73756666696369656e742062616c616e604482015261636560f01b6064820152608490fd5b809250878092503d83116105b0575b61059f8183611597565b810103126104f35784905138610316565b503d610595565b88513d8b823e3d90fd5b505034610148578160031936011261014857905490516001600160a01b039091168152602090f35b505034610148578160031936011261014857602090610238611820565b8284346101d357806003193601126101d35780546001600160a01b0393906106319085163314611730565b60075492831561084857825b60055481101561081b578561065182611536565b919054600392831b1c16908351906370a0823160e01b8252308683015260209060249082848381885afa9384156108115789946107e2575b5066038d7ea4c6800084106107d557885b8a81106106b1575050505050506001905b0161063d565b6106c78b869b9a99989c9394969d95979d61179c565b868d898c8c856106ed575b5050505050506001019a94929a99959697989391909961069a565b9161073694939186938b6107008a6114e9565b9054908d1b1c1692519687958694859363a9059cbb60e01b8552840160209093929193604081019460018060a01b031681520152565b03925af180156107cb576107ae575b5084610750836114e9565b905490861b1c1690813b156104ef578a90878b838c5195869485936255f9e960e71b85528401525af180156107a4579060019291610795575b5090868d898c8c6106d2565b61079e9061156d565b8d610789565b88513d8c823e3d90fd5b6107c490883d8a11610527576105188183611597565b508d610745565b89513d8d823e3d90fd5b50505050506001906106ab565b9093508281813d831161080a575b6107fa8183611597565b810103126104f35751928b610689565b503d6107f0565b87513d8b823e3d90fd5b837fc306af072396b02bf3a9782c10065cc7ff4aa842934a43f0b76f997b291237c860208451428152a180f35b906020606492519162461bcd60e51b8352820152601b60248201527f4175746f54726561737572793a206e6f207374726174656769657300000000006044820152fd5b5050346101485760203660031901126101485760209181906001600160a01b036108b36114ce565b1681526006845220549051908152f35b919050346101d657806003193601126101d6576108de6114ce565b6024359060018060a01b031691828552602084815260ff828720541615610a025761090a8315156117d4565b6109126115dc565b8251956323b872dd60e01b8752339087015230602487015283604487015281866064818a895af19586156109f8577ff5681f9d0db1b911ac18ee83d515a1cf1051853a9eae418316a2fdf7dea427c59495966109db575b5060035490816109c357505083905b3387526002815282872061098d8382546115b9565b905561099b826003546115b9565b600355858752600681528287206109b38682546115b9565b905582519485528401523392a380f35b6109d06109d59287611789565b61179c565b90610978565b6109f190833d8511610527576105188183611597565b5038610969565b83513d89823e3d90fd5b8490606492519162461bcd60e51b8352820152601f60248201527f4175746f54726561737572793a20756e737570706f72746564206173736574006044820152fd5b5050346101485760203660031901126101485760209181906001600160a01b03610a6c6114ce565b168152600a845220549051908152f35b8383346101485781600319360112610148573382526020916002835281812054928315610d5057819482955b600754871015610b4357838383610abe8a6114e9565b9054895163e8d991d160e01b815294859392849260039190911b1c6001600160a01b03165af1908115610b39578591610b07575b50610aff906001926115b9565b960195610aa8565b90508381813d8311610b32575b610b1e8183611597565b81010312610b2e57516001610af2565b8480fd5b503d610b14565b86513d87823e3d90fd5b94610b55610b5e9294966009546115b9565b80600955611789565b92610b6e6003946003549061179c565b92338652600a8352610b83828720548561177c565b938415610d0e57338752600a845282872055855b600554811015610ce357836024610bad83611536565b905486516370a0823160e01b815230878201526001600160a01b039490939092849283918d1b1c86165afa908115610cd9579087918a91610ca8575b501015610bf95750600101610b97565b918492610c4297610c0a8894611536565b9054911b1c169088855180998195829463a9059cbb60e01b84523390840160209093929193604081019460018060a01b031681520152565b03925af1938415610c9e577fc04825ba3f383b602255d2a13065a68e325c65c9e0ed5d031ea2b06f641873af9394610c81575b505b519283523392a280f35b610c9790833d8511610527576105188183611597565b5085610c75565b81513d87823e3d90fd5b809250878092503d8311610cd2575b610cc18183611597565b810103126104f3578690518a610be9565b503d610cb7565b85513d8b823e3d90fd5b50507fc04825ba3f383b602255d2a13065a68e325c65c9e0ed5d031ea2b06f641873af929350610c77565b5082606492519162461bcd60e51b8352820152601e60248201527f4175746f54726561737572793a206e6f7468696e6720746f20636c61696d00006044820152fd5b8460649184519162461bcd60e51b8352820152601760248201527f4175746f54726561737572793a206e6f207368617265730000000000000000006044820152fd5b5050346101485781600319360112610148576020906003549051908152f35b905082346101d3576020928360031936011261014857823590811561104d573383526002855281818420541061100157610df2610dec6115dc565b83611789565b93610e0160039586549061179c565b9033855260028752828520610e1785825461177c565b9055610e2484875461177c565b86558495855b600554811015610ff557886024610e4083611536565b905488516370a0823160e01b815230888201526001600160a01b03949093909284928391891b1c86165afa908115610811578b9493929187918b91610fbd575b501015610e935750600101909150610e2a565b9394959697985090915082610ea782611536565b9054885163a9059cbb60e01b815233888201908152602081018a905290938d93859390881b1c169082908d90829060400103925af180156108115790610ef39291610fa0575b50611536565b9054911b1c16855260068652828520610f0d83825461177c565b905560015b15610f4a57507f92ccf450a286a957af52509bc1c9939d1a6a481783e142e41e2499f0bb66ebc692939482519485528401523392a280f35b825162461bcd60e51b8152908101869052602a60248201527f4175746f54726561737572793a20696e73756666696369656e74207661756c74604482015269206c697175696469747960b01b6064820152608490fd5b610fb6908b3d8d11610527576105188183611597565b508a610eed565b929394958092508391503d8311610fee575b610fd98183611597565b810103126104f35790858b949392518d610e80565b503d610fcf565b50509091929394610f12565b5162461bcd60e51b8152808401859052602160248201527f4175746f54726561737572793a20696e73756666696369656e742073686172656044820152607360f81b6064820152608490fd5b5162461bcd60e51b8152808401859052601960248201527f4175746f54726561737572793a207a65726f20736861726573000000000000006044820152606490fd5b9050346101d65760203660031901126101d6576110aa6114ce565b83546001600160a01b0391906110c39083163314611730565b16918284528160205260ff818520541661116957828452816020528320600160ff1982541617905560055490600160401b821015611156575061112d611110826001859401600555611536565b819391549060031b9160018060a01b03809116831b921b19161790565b90557f0e3c58ebfb2e7465fbb1c32e6b4f40c3c4f5ca77e8218a386aff8617831260d78280a280f35b634e487b7160e01b845260419052602483fd5b906020606492519162461bcd60e51b8352820152601f60248201527f4175746f54726561737572793a20616c726561647920737570706f72746564006044820152fd5b919050346101d65760203660031901126101d65781356001600160a01b038181169391849003610b2e576111e4908554163314611730565b8284526008602052818420546112645760075490600160401b82101561125157506112196111108260018694016007556114e9565b90556007549082845260086020528320557f3f008fd510eae7a9e7bee13513d7b83bef8003d488b5a3d0b0da4de71d6846f18280a280f35b634e487b7160e01b855260419052602484fd5b6020606492519162461bcd60e51b8352820152601d60248201527f4175746f54726561737572793a207374726174656779206578697374730000006044820152fd5b5050346101485781600319360112610148576020906007549051908152f35b919050346101d6576020806003193601126104d4576001600160a01b0383358181169490859003611475576112fe828754163314611730565b8486526008835283862054908115611434576007546000199290838101908111611421578382019082821161140e579081869282036113ab575b5050505060075490811561139857509186949391600893019061135a826114e9565b909182549160031b1b19169055600755848452528120557f09a1db4b80c32706328728508c941a6b954f31eb5affd32f236c1fd405f8fea48280a280f35b634e487b7160e01b885260319052602487fd5b6113c86113ec6113f393856113bf856114e9565b949054926114e9565b92909460031b1c169083549060031b9160018060a01b03809116831b921b19161790565b90556114e9565b90549060031b1c168852600885528588205538838180611338565b634e487b7160e01b8a526011845260248afd5b634e487b7160e01b895260118352602489fd5b606490848087519262461bcd60e51b845283015260248201527f4175746f54726561737572793a207374726174656779206e6f7420666f756e646044820152fd5b8580fd5b5050346101485760203660031901126101485760209181906001600160a01b036114a16114ce565b1681526008845220549051908152f35b5050346101485781600319360112610148576020906102386115dc565b600435906001600160a01b03821682036114e457565b600080fd5b6007548110156115205760076000527fa66cc928b5edb82af9bd49922954155ab7b0942694bea4ce44661d9a8736c6880190600090565b634e487b7160e01b600052603260045260246000fd5b6005548110156115205760056000527f036b6384b5eca791c62761152d0c79bb0604c104a5fb6f4eb0703f3154bb3db00190600090565b67ffffffffffffffff811161158157604052565b634e487b7160e01b600052604160045260246000fd5b90601f8019910116810190811067ffffffffffffffff82111761158157604052565b919082018092116115c657565b634e487b7160e01b600052601160045260246000fd5b6000806005545b80821061169957505060006007545b8082106115fe57505090565b9091611609836114e9565b9054604080516306a61f7560e51b81529092909160209182918491600491839160031b1c6001600160a01b03165afa92831561168f575060009261165e575b5050611656906001926115b9565b9201906115f2565b81819392933d8311611688575b6116758183611597565b810103126101d357505181611656611648565b503d61166b565b513d6000823e3d90fd5b90916116a483611536565b9054604080516370a0823160e01b81523060048201529092909160209182918491602491839160031b1c6001600160a01b03165afa92831561168f57506000926116ff575b50506116f7906001926115b9565b9201906115e3565b81819392933d8311611729575b6117168183611597565b810103126101d3575051816116f76116e9565b503d61170c565b1561173757565b60405162461bcd60e51b815260206004820152601760248201527f4175746f54726561737572793a206e6f74206f776e65720000000000000000006044820152606490fd5b919082039182116115c657565b818102929181159184041417156115c657565b81156117a6570490565b634e487b7160e01b600052601260045260246000fd5b908160209103126114e4575180151581036114e45790565b156117db57565b60405162461bcd60e51b815260206004820152601960248201527f4175746f54726561737572793a207a65726f20616d6f756e74000000000000006044820152606490fd5b6003548015611858576118316115dc565b90670de0b6b3a7640000918281029281840414901517156115c6576118559161179c565b90565b50670de0b6b3a764000090565b60005b8381106118785750506000910152565b8181015183820152602001611868565b906020916118a181518092818552858086019101611865565b601f01601f1916010190565b60035480158015611912575b61190b576118e66009549260018060a01b0316916109d06000948486526002602052604086205490611789565b908252600a6020526040822054908181111561190657611855925061177c565b505090565b5050600090565b506001600160a01b038216600090815260026020526040902054156118b956fea26469706673582212203e281833f5c93e6386ed3bd785eef9d269b8ca6c530a43d28552b619d3fd37d164736f6c63430008180033","opcodes":"PUSH1 0x80 CALLVALUE PUSH2 0x7A JUMPI PUSH1 0x1F PUSH2 0x19FE CODESIZE DUP2 SWAP1 SUB SWAP2 DUP3 ADD PUSH1 0x1F NOT AND DUP4 ADD SWAP2 PUSH1 0x1 PUSH1 0x1 PUSH1 0x40 SHL SUB DUP4 GT DUP5 DUP5 LT OR PUSH2 0x7F JUMPI DUP1 DUP5 SWAP3 PUSH1 0x20 SWAP5 PUSH1 0x40 MSTORE DUP4 CODECOPY DUP2 ADD SUB SLT PUSH2 0x7A JUMPI MLOAD PUSH1 0x1 PUSH1 0x1 PUSH1 0xA0 SHL SUB DUP2 AND SWAP1 DUP2 SWAP1 SUB PUSH2 0x7A JUMPI PUSH1 0x1 DUP1 PUSH1 0xA0 SHL SUB NOT CALLER DUP2 PUSH1 0x0 SLOAD AND OR PUSH1 0x0 SSTORE PUSH1 0x1 SLOAD AND OR PUSH1 0x1 SSTORE PUSH1 0x40 MLOAD PUSH2 0x1968 SWAP1 DUP2 PUSH2 0x96 DUP3 CODECOPY RETURN JUMPDEST PUSH1 0x0 DUP1 REVERT JUMPDEST PUSH4 0x4E487B71 PUSH1 0xE0 SHL PUSH1 0x0 MSTORE PUSH1 0x41 PUSH1 0x4 MSTORE PUSH1 0x24 PUSH1 0x0 REVERT INVALID PUSH1 0x40 PUSH1 0x80 DUP2 MSTORE PUSH1 0x4 SWAP1 DUP2 CALLDATASIZE LT ISZERO PUSH2 0x15 JUMPI PUSH1 0x0 DUP1 REVERT JUMPDEST PUSH1 0x0 SWAP2 DUP3 CALLDATALOAD PUSH1 0xE0 SHR SWAP1 DUP2 PUSH4 0x1E1D114 EQ PUSH2 0x14B1 JUMPI DUP2 PUSH4 0x11451526 EQ PUSH2 0x1479 JUMPI DUP2 PUSH4 0x175188E8 EQ PUSH2 0x12C5 JUMPI DUP2 PUSH4 0x22068B44 EQ PUSH2 0x12A6 JUMPI DUP2 PUSH4 0x223E5479 EQ PUSH2 0x11AC JUMPI DUP2 PUSH4 0x298410E5 EQ PUSH2 0x108F JUMPI DUP2 PUSH4 0x2E1A7D4D EQ PUSH2 0xDB1 JUMPI DUP2 PUSH4 0x3A98EF39 EQ PUSH2 0xD92 JUMPI DUP2 PUSH4 0x406CF229 EQ PUSH2 0xA7C JUMPI DUP2 PUSH4 0x45BBA697 EQ PUSH2 0xA44 JUMPI DUP2 PUSH4 0x47E7EF24 EQ PUSH2 0x8C3 JUMPI DUP2 PUSH4 0x53055481 EQ PUSH2 0x88B JUMPI DUP2 PUSH4 0x7D7C2A1C EQ PUSH2 0x606 JUMPI DUP2 PUSH4 0x87269729 EQ PUSH2 0x5E9 JUMPI DUP2 PUSH4 0x8DA5CB5B EQ PUSH2 0x5C1 JUMPI DUP2 PUSH4 0x91731C66 EQ PUSH2 0x2A7 JUMPI DUP2 PUSH4 0xA0B4B301 EQ PUSH2 0x27C JUMPI DUP2 PUSH4 0xBD81579E EQ PUSH2 0x23F JUMPI DUP2 PUSH4 0xC7BF1980 EQ PUSH2 0x212 JUMPI DUP2 PUSH4 0xCE7C2AC2 EQ PUSH2 0x1DA JUMPI DUP2 PUSH4 0xD574EA3D EQ PUSH2 0x192 JUMPI POP DUP1 PUSH4 0xE1D20600 EQ PUSH2 0x16A JUMPI DUP1 PUSH4 0xEAFE7A74 EQ PUSH2 0x14C JUMPI PUSH4 0xEE6C3BF2 EQ PUSH2 0x12B JUMPI PUSH1 0x0 DUP1 REVERT JUMPDEST CALLVALUE PUSH2 0x148 JUMPI DUP2 PUSH1 0x3 NOT CALLDATASIZE ADD SLT PUSH2 0x148 JUMPI PUSH1 0x20 SWAP1 PUSH1 0x9 SLOAD SWAP1 MLOAD SWAP1 DUP2 MSTORE RETURN JUMPDEST POP DUP1 REVERT JUMPDEST POP CALLVALUE PUSH2 0x148 JUMPI DUP2 PUSH1 0x3 NOT CALLDATASIZE ADD SLT PUSH2 0x148 JUMPI PUSH1 0x20 SWAP1 PUSH1 0x5 SLOAD SWAP1 MLOAD SWAP1 DUP2 MSTORE RETURN JUMPDEST POP CALLVALUE PUSH2 0x148 JUMPI DUP2 PUSH1 0x3 NOT CALLDATASIZE ADD SLT PUSH2 0x148 JUMPI PUSH1 0x1 SLOAD SWAP1 MLOAD PUSH1 0x1 PUSH1 0x1 PUSH1 0xA0 SHL SUB SWAP1 SWAP2 AND DUP2 MSTORE PUSH1 0x20 SWAP1 RETURN JUMPDEST SWAP1 POP CALLVALUE PUSH2 0x1D6 JUMPI PUSH1 0x20 CALLDATASIZE PUSH1 0x3 NOT ADD SLT PUSH2 0x1D6 JUMPI CALLDATALOAD SWAP2 PUSH1 0x7 SLOAD DUP4 LT ISZERO PUSH2 0x1D3 JUMPI POP PUSH2 0x1BD PUSH1 0x20 SWAP3 PUSH2 0x14E9 JUMP JUMPDEST SWAP1 SLOAD SWAP2 MLOAD SWAP2 PUSH1 0x1 DUP1 PUSH1 0xA0 SHL SUB SWAP2 PUSH1 0x3 SHL SHR AND DUP2 MSTORE RETURN JUMPDEST DUP1 REVERT JUMPDEST DUP3 DUP1 REVERT JUMPDEST POP POP CALLVALUE PUSH2 0x148 JUMPI PUSH1 0x20 CALLDATASIZE PUSH1 0x3 NOT ADD SLT PUSH2 0x148 JUMPI PUSH1 0x20 SWAP2 DUP2 SWAP1 PUSH1 0x1 PUSH1 0x1 PUSH1 0xA0 SHL SUB PUSH2 0x202 PUSH2 0x14CE JUMP JUMPDEST AND DUP2 MSTORE PUSH1 0x2 DUP5 MSTORE KECCAK256 SLOAD SWAP1 MLOAD SWAP1 DUP2 MSTORE RETURN JUMPDEST POP POP CALLVALUE PUSH2 0x148 JUMPI PUSH1 0x20 CALLDATASIZE PUSH1 0x3 NOT ADD SLT PUSH2 0x148 JUMPI PUSH1 0x20 SWAP1 PUSH2 0x238 PUSH2 0x233 PUSH2 0x14CE JUMP JUMPDEST PUSH2 0x18AD JUMP JUMPDEST SWAP1 MLOAD SWAP1 DUP2 MSTORE RETURN JUMPDEST SWAP1 POP CALLVALUE PUSH2 0x1D6 JUMPI PUSH1 0x20 CALLDATASIZE PUSH1 0x3 NOT ADD SLT PUSH2 0x1D6 JUMPI PUSH1 0x20 SWAP3 PUSH1 0xFF SWAP2 DUP4 SWAP2 SWAP1 PUSH1 0x1 PUSH1 0x1 PUSH1 0xA0 SHL SUB PUSH2 0x26B PUSH2 0x14CE JUMP JUMPDEST AND DUP3 MSTORE DUP6 MSTORE KECCAK256 SLOAD AND SWAP1 MLOAD SWAP1 ISZERO ISZERO DUP2 MSTORE RETURN JUMPDEST SWAP1 POP CALLVALUE PUSH2 0x1D6 JUMPI PUSH1 0x20 CALLDATASIZE PUSH1 0x3 NOT ADD SLT PUSH2 0x1D6 JUMPI CALLDATALOAD SWAP2 PUSH1 0x5 SLOAD DUP4 LT ISZERO PUSH2 0x1D3 JUMPI POP PUSH2 0x1BD PUSH1 0x20 SWAP3 PUSH2 0x1536 JUMP JUMPDEST SWAP1 POP CALLVALUE PUSH2 0x1D6 JUMPI DUP2 PUSH1 0x3 NOT CALLDATASIZE ADD SLT PUSH2 0x1D6 JUMPI PUSH2 0x2C1 PUSH2 0x14CE JUMP JUMPDEST SWAP1 PUSH1 0x24 CALLDATALOAD PUSH1 0x1 DUP1 PUSH1 0xA0 SHL SUB PUSH2 0x2DA DUP2 DUP8 SLOAD AND CALLER EQ PUSH2 0x1730 JUMP JUMPDEST PUSH2 0x2E5 DUP3 ISZERO ISZERO PUSH2 0x17D4 JUMP JUMPDEST DUP5 MLOAD PUSH4 0x70A08231 PUSH1 0xE0 SHL DUP2 MSTORE ADDRESS DUP5 DUP3 ADD MSTORE DUP5 DUP3 AND SWAP5 PUSH1 0x20 SWAP5 SWAP1 SWAP2 DUP6 DUP2 PUSH1 0x24 DUP2 DUP11 GAS STATICCALL DUP1 ISZERO PUSH2 0x5B7 JUMPI DUP6 SWAP2 DUP11 SWAP2 PUSH2 0x586 JUMPI JUMPDEST POP LT PUSH2 0x538 JUMPI PUSH1 0x1 SLOAD DUP8 MLOAD PUSH4 0x95EA7B3 PUSH1 0xE0 SHL DUP2 MSTORE SWAP1 DUP5 AND PUSH1 0x1 PUSH1 0x1 PUSH1 0xA0 SHL SUB AND DUP3 DUP3 ADD SWAP1 DUP2 MSTORE PUSH1 0x20 DUP2 ADD DUP7 SWAP1 MSTORE DUP10 SWAP3 SWAP2 SWAP1 DUP8 SWAP1 DUP3 SWAP1 DUP2 SWAP1 PUSH1 0x40 ADD SUB DUP2 DUP7 DUP13 GAS CALL DUP1 ISZERO PUSH2 0x52E JUMPI PUSH2 0x3A4 SWAP6 DUP5 SWAP3 DUP9 SWAP3 PUSH2 0x501 JUMPI JUMPDEST POP PUSH1 0x1 SLOAD DUP12 MLOAD PUSH4 0x2BE9E38D PUSH1 0xE1 SHL DUP2 MSTORE PUSH1 0x1 PUSH1 0x1 PUSH1 0xA0 SHL SUB SWAP1 SWAP8 AND DUP6 DUP9 ADD SWAP1 DUP2 MSTORE PUSH1 0x20 DUP2 ADD SWAP4 SWAP1 SWAP4 MSTORE SWAP6 SWAP7 SWAP6 AND SWAP5 DUP7 SWAP2 DUP3 SWAP2 PUSH1 0x40 SWAP1 SWAP2 ADD SWAP1 JUMP JUMPDEST SUB DUP2 DUP7 GAS STATICCALL SWAP4 DUP5 ISZERO PUSH2 0x4F7 JUMPI DUP3 SWAP5 PUSH2 0x44F JUMPI JUMPDEST POP DUP3 EXTCODESIZE ISZERO PUSH2 0x148 JUMPI DUP8 MLOAD PUSH4 0xC6B8B1B PUSH1 0xE1 SHL DUP2 MSTORE SWAP1 DUP2 ADD DUP7 SWAP1 MSTORE SWAP2 DUP3 SWAP1 DUP2 DUP4 DUP2 PUSH2 0x3E4 PUSH1 0x24 DUP3 ADD DUP10 PUSH2 0x1888 JUMP JUMPDEST SUB SWAP3 GAS CALL DUP1 ISZERO PUSH2 0x445 JUMPI SWAP6 PUSH2 0x430 SWAP3 SWAP2 PUSH32 0xB7601B2B4CA3AFA837769C4AEED7EBEAAC7A39144481681131486C7E5D2EE6CD SWAP7 SWAP8 PUSH2 0x436 JUMPI JUMPDEST POP DUP1 DUP1 MLOAD SWAP6 DUP7 SWAP6 DUP7 MSTORE DUP6 ADD MSTORE DUP4 ADD SWAP1 PUSH2 0x1888 JUMP JUMPDEST SUB SWAP1 LOG2 DUP1 RETURN JUMPDEST PUSH2 0x43F SWAP1 PUSH2 0x156D JUMP JUMPDEST CODESIZE PUSH2 0x41C JUMP JUMPDEST DUP7 MLOAD RETURNDATASIZE DUP10 DUP3 RETURNDATACOPY RETURNDATASIZE SWAP1 REVERT JUMPDEST SWAP2 POP SWAP3 POP RETURNDATASIZE DUP1 DUP10 DUP4 RETURNDATACOPY PUSH2 0x462 DUP2 DUP4 PUSH2 0x1597 JUMP JUMPDEST DUP2 ADD SWAP1 DUP6 DUP2 DUP4 SUB SLT PUSH2 0x4F3 JUMPI DUP1 MLOAD PUSH8 0xFFFFFFFFFFFFFFFF SWAP2 DUP3 DUP3 GT PUSH2 0x4EF JUMPI ADD SWAP1 DUP3 PUSH1 0x1F DUP4 ADD SLT ISZERO PUSH2 0x4EB JUMPI DUP2 MLOAD SWAP1 DUP2 GT PUSH2 0x4D8 JUMPI SWAP1 DUP10 SWAP3 SWAP2 DUP10 MLOAD SWAP3 PUSH2 0x4B1 DUP10 PUSH1 0x1F NOT PUSH1 0x1F DUP6 ADD AND ADD DUP6 PUSH2 0x1597 JUMP JUMPDEST DUP2 DUP5 MSTORE DUP9 DUP3 DUP5 ADD ADD GT PUSH2 0x4D4 JUMPI PUSH2 0x4CD SWAP2 DUP9 DUP1 DUP6 ADD SWAP2 ADD PUSH2 0x1865 JUMP JUMPDEST SWAP3 CODESIZE PUSH2 0x3B7 JUMP JUMPDEST DUP4 DUP1 REVERT JUMPDEST PUSH4 0x4E487B71 PUSH1 0xE0 SHL DUP11 MSTORE PUSH1 0x41 DUP6 MSTORE PUSH1 0x24 DUP11 REVERT JUMPDEST DUP10 DUP1 REVERT JUMPDEST DUP11 DUP1 REVERT JUMPDEST DUP9 DUP1 REVERT JUMPDEST DUP9 MLOAD RETURNDATASIZE DUP5 DUP3 RETURNDATACOPY RETURNDATASIZE SWAP1 REVERT JUMPDEST PUSH2 0x520 SWAP1 DUP11 RETURNDATASIZE DUP13 GT PUSH2 0x527 JUMPI JUMPDEST PUSH2 0x518 DUP2 DUP4 PUSH2 0x1597 JUMP JUMPDEST DUP2 ADD SWAP1 PUSH2 0x17BC JUMP JUMPDEST POP CODESIZE PUSH2 0x36A JUMP JUMPDEST POP RETURNDATASIZE PUSH2 0x50E JUMP JUMPDEST DUP10 MLOAD RETURNDATASIZE DUP6 DUP3 RETURNDATACOPY RETURNDATASIZE SWAP1 REVERT JUMPDEST DUP7 MLOAD PUSH3 0x461BCD PUSH1 0xE5 SHL DUP2 MSTORE SWAP1 DUP2 ADD DUP6 SWAP1 MSTORE PUSH1 0x22 PUSH1 0x24 DUP3 ADD MSTORE PUSH32 0x4175746F54726561737572793A20696E73756666696369656E742062616C616E PUSH1 0x44 DUP3 ADD MSTORE PUSH2 0x6365 PUSH1 0xF0 SHL PUSH1 0x64 DUP3 ADD MSTORE PUSH1 0x84 SWAP1 REVERT JUMPDEST DUP1 SWAP3 POP DUP8 DUP1 SWAP3 POP RETURNDATASIZE DUP4 GT PUSH2 0x5B0 JUMPI JUMPDEST PUSH2 0x59F DUP2 DUP4 PUSH2 0x1597 JUMP JUMPDEST DUP2 ADD SUB SLT PUSH2 0x4F3 JUMPI DUP5 SWAP1 MLOAD CODESIZE PUSH2 0x316 JUMP JUMPDEST POP RETURNDATASIZE PUSH2 0x595 JUMP JUMPDEST DUP9 MLOAD RETURNDATASIZE DUP12 DUP3 RETURNDATACOPY RETURNDATASIZE SWAP1 REVERT JUMPDEST POP POP CALLVALUE PUSH2 0x148 JUMPI DUP2 PUSH1 0x3 NOT CALLDATASIZE ADD SLT PUSH2 0x148 JUMPI SWAP1 SLOAD SWAP1 MLOAD PUSH1 0x1 PUSH1 0x1 PUSH1 0xA0 SHL SUB SWAP1 SWAP2 AND DUP2 MSTORE PUSH1 0x20 SWAP1 RETURN JUMPDEST POP POP CALLVALUE PUSH2 0x148 JUMPI DUP2 PUSH1 0x3 NOT CALLDATASIZE ADD SLT PUSH2 0x148 JUMPI PUSH1 0x20 SWAP1 PUSH2 0x238 PUSH2 0x1820 JUMP JUMPDEST DUP3 DUP5 CALLVALUE PUSH2 0x1D3 JUMPI DUP1 PUSH1 0x3 NOT CALLDATASIZE ADD SLT PUSH2 0x1D3 JUMPI DUP1 SLOAD PUSH1 0x1 PUSH1 0x1 PUSH1 0xA0 SHL SUB SWAP4 SWAP1 PUSH2 0x631 SWAP1 DUP6 AND CALLER EQ PUSH2 0x1730 JUMP JUMPDEST PUSH1 0x7 SLOAD SWAP3 DUP4 ISZERO PUSH2 0x848 JUMPI DUP3 JUMPDEST PUSH1 0x5 SLOAD DUP2 LT ISZERO PUSH2 0x81B JUMPI DUP6 PUSH2 0x651 DUP3 PUSH2 0x1536 JUMP JUMPDEST SWAP2 SWAP1 SLOAD PUSH1 0x3 SWAP3 DUP4 SHL SHR AND SWAP1 DUP4 MLOAD SWAP1 PUSH4 0x70A08231 PUSH1 0xE0 SHL DUP3 MSTORE ADDRESS DUP7 DUP4 ADD MSTORE PUSH1 0x20 SWAP1 PUSH1 0x24 SWAP1 DUP3 DUP5 DUP4 DUP2 DUP9 GAS STATICCALL SWAP4 DUP5 ISZERO PUSH2 0x811 JUMPI DUP10 SWAP5 PUSH2 0x7E2 JUMPI JUMPDEST POP PUSH7 0x38D7EA4C68000 DUP5 LT PUSH2 0x7D5 JUMPI DUP9 JUMPDEST DUP11 DUP2 LT PUSH2 0x6B1 JUMPI POP POP POP POP POP POP PUSH1 0x1 SWAP1 JUMPDEST ADD PUSH2 0x63D JUMP JUMPDEST PUSH2 0x6C7 DUP12 DUP7 SWAP12 SWAP11 SWAP10 SWAP9 SWAP13 SWAP4 SWAP5 SWAP7 SWAP14 SWAP6 SWAP8 SWAP14 PUSH2 0x179C JUMP JUMPDEST DUP7 DUP14 DUP10 DUP13 DUP13 DUP6 PUSH2 0x6ED JUMPI JUMPDEST POP POP POP POP POP POP PUSH1 0x1 ADD SWAP11 SWAP5 SWAP3 SWAP11 SWAP10 SWAP6 SWAP7 SWAP8 SWAP9 SWAP4 SWAP2 SWAP1 SWAP10 PUSH2 0x69A JUMP JUMPDEST SWAP2 PUSH2 0x736 SWAP5 SWAP4 SWAP2 DUP7 SWAP4 DUP12 PUSH2 0x700 DUP11 PUSH2 0x14E9 JUMP JUMPDEST SWAP1 SLOAD SWAP1 DUP14 SHL SHR AND SWAP3 MLOAD SWAP7 DUP8 SWAP6 DUP7 SWAP5 DUP6 SWAP4 PUSH4 0xA9059CBB PUSH1 0xE0 SHL DUP6 MSTORE DUP5 ADD PUSH1 0x20 SWAP1 SWAP4 SWAP3 SWAP2 SWAP4 PUSH1 0x40 DUP2 ADD SWAP5 PUSH1 0x1 DUP1 PUSH1 0xA0 SHL SUB AND DUP2 MSTORE ADD MSTORE JUMP JUMPDEST SUB SWAP3 GAS CALL DUP1 ISZERO PUSH2 0x7CB JUMPI PUSH2 0x7AE JUMPI JUMPDEST POP DUP5 PUSH2 0x750 DUP4 PUSH2 0x14E9 JUMP JUMPDEST SWAP1 SLOAD SWAP1 DUP7 SHL SHR AND SWAP1 DUP2 EXTCODESIZE ISZERO PUSH2 0x4EF JUMPI DUP11 SWAP1 DUP8 DUP12 DUP4 DUP13 MLOAD SWAP6 DUP7 SWAP5 DUP6 SWAP4 PUSH3 0x55F9E9 PUSH1 0xE7 SHL DUP6 MSTORE DUP5 ADD MSTORE GAS CALL DUP1 ISZERO PUSH2 0x7A4 JUMPI SWAP1 PUSH1 0x1 SWAP3 SWAP2 PUSH2 0x795 JUMPI JUMPDEST POP SWAP1 DUP7 DUP14 DUP10 DUP13 DUP13 PUSH2 0x6D2 JUMP JUMPDEST PUSH2 0x79E SWAP1 PUSH2 0x156D JUMP JUMPDEST DUP14 PUSH2 0x789 JUMP JUMPDEST DUP9 MLOAD RETURNDATASIZE DUP13 DUP3 RETURNDATACOPY RETURNDATASIZE SWAP1 REVERT JUMPDEST PUSH2 0x7C4 SWAP1 DUP9 RETURNDATASIZE DUP11 GT PUSH2 0x527 JUMPI PUSH2 0x518 DUP2 DUP4 PUSH2 0x1597 JUMP JUMPDEST POP DUP14 PUSH2 0x745 JUMP JUMPDEST DUP10 MLOAD RETURNDATASIZE DUP14 DUP3 RETURNDATACOPY RETURNDATASIZE SWAP1 REVERT JUMPDEST POP POP POP POP POP PUSH1 0x1 SWAP1 PUSH2 0x6AB JUMP JUMPDEST SWAP1 SWAP4 POP DUP3 DUP2 DUP2 RETURNDATASIZE DUP4 GT PUSH2 0x80A JUMPI JUMPDEST PUSH2 0x7FA DUP2 DUP4 PUSH2 0x1597 JUMP JUMPDEST DUP2 ADD SUB SLT PUSH2 0x4F3 JUMPI MLOAD SWAP3 DUP12 PUSH2 0x689 JUMP JUMPDEST POP RETURNDATASIZE PUSH2 0x7F0 JUMP JUMPDEST DUP8 MLOAD RETURNDATASIZE DUP12 DUP3 RETURNDATACOPY RETURNDATASIZE SWAP1 REVERT JUMPDEST DUP4 PUSH32 0xC306AF072396B02BF3A9782C10065CC7FF4AA842934A43F0B76F997B291237C8 PUSH1 0x20 DUP5 MLOAD TIMESTAMP DUP2 MSTORE LOG1 DUP1 RETURN JUMPDEST SWAP1 PUSH1 0x20 PUSH1 0x64 SWAP3 MLOAD SWAP2 PUSH3 0x461BCD PUSH1 0xE5 SHL DUP4 MSTORE DUP3 ADD MSTORE PUSH1 0x1B PUSH1 0x24 DUP3 ADD MSTORE PUSH32 0x4175746F54726561737572793A206E6F20737472617465676965730000000000 PUSH1 0x44 DUP3 ADD MSTORE REVERT JUMPDEST POP POP CALLVALUE PUSH2 0x148 JUMPI PUSH1 0x20 CALLDATASIZE PUSH1 0x3 NOT ADD SLT PUSH2 0x148 JUMPI PUSH1 0x20 SWAP2 DUP2 SWAP1 PUSH1 0x1 PUSH1 0x1 PUSH1 0xA0 SHL SUB PUSH2 0x8B3 PUSH2 0x14CE JUMP JUMPDEST AND DUP2 MSTORE PUSH1 0x6 DUP5 MSTORE KECCAK256 SLOAD SWAP1 MLOAD SWAP1 DUP2 MSTORE RETURN JUMPDEST SWAP2 SWAP1 POP CALLVALUE PUSH2 0x1D6 JUMPI DUP1 PUSH1 0x3 NOT CALLDATASIZE ADD SLT PUSH2 0x1D6 JUMPI PUSH2 0x8DE PUSH2 0x14CE JUMP JUMPDEST PUSH1 0x24 CALLDATALOAD SWAP1 PUSH1 0x1 DUP1 PUSH1 0xA0 SHL SUB AND SWAP2 DUP3 DUP6 MSTORE PUSH1 0x20 DUP5 DUP2 MSTORE PUSH1 0xFF DUP3 DUP8 KECCAK256 SLOAD AND ISZERO PUSH2 0xA02 JUMPI PUSH2 0x90A DUP4 ISZERO ISZERO PUSH2 0x17D4 JUMP JUMPDEST PUSH2 0x912 PUSH2 0x15DC JUMP JUMPDEST DUP3 MLOAD SWAP6 PUSH4 0x23B872DD PUSH1 0xE0 SHL DUP8 MSTORE CALLER SWAP1 DUP8 ADD MSTORE ADDRESS PUSH1 0x24 DUP8 ADD MSTORE DUP4 PUSH1 0x44 DUP8 ADD MSTORE DUP2 DUP7 PUSH1 0x64 DUP2 DUP11 DUP10 GAS CALL SWAP6 DUP7 ISZERO PUSH2 0x9F8 JUMPI PUSH32 0xF5681F9D0DB1B911AC18EE83D515A1CF1051853A9EAE418316A2FDF7DEA427C5 SWAP5 SWAP6 SWAP7 PUSH2 0x9DB JUMPI JUMPDEST POP PUSH1 0x3 SLOAD SWAP1 DUP2 PUSH2 0x9C3 JUMPI POP POP DUP4 SWAP1 JUMPDEST CALLER DUP8 MSTORE PUSH1 0x2 DUP2 MSTORE DUP3 DUP8 KECCAK256 PUSH2 0x98D DUP4 DUP3 SLOAD PUSH2 0x15B9 JUMP JUMPDEST SWAP1 SSTORE PUSH2 0x99B DUP3 PUSH1 0x3 SLOAD PUSH2 0x15B9 JUMP JUMPDEST PUSH1 0x3 SSTORE DUP6 DUP8 MSTORE PUSH1 0x6 DUP2 MSTORE DUP3 DUP8 KECCAK256 PUSH2 0x9B3 DUP7 DUP3 SLOAD PUSH2 0x15B9 JUMP JUMPDEST SWAP1 SSTORE DUP3 MLOAD SWAP5 DUP6 MSTORE DUP5 ADD MSTORE CALLER SWAP3 LOG3 DUP1 RETURN JUMPDEST PUSH2 0x9D0 PUSH2 0x9D5 SWAP3 DUP8 PUSH2 0x1789 JUMP JUMPDEST PUSH2 0x179C JUMP JUMPDEST SWAP1 PUSH2 0x978 JUMP JUMPDEST PUSH2 0x9F1 SWAP1 DUP4 RETURNDATASIZE DUP6 GT PUSH2 0x527 JUMPI PUSH2 0x518 DUP2 DUP4 PUSH2 0x1597 JUMP JUMPDEST POP CODESIZE PUSH2 0x969 JUMP JUMPDEST DUP4 MLOAD RETURNDATASIZE DUP10 DUP3 RETURNDATACOPY RETURNDATASIZE SWAP1 REVERT JUMPDEST DUP5 SWAP1 PUSH1 0x64 SWAP3 MLOAD SWAP2 PUSH3 0x461BCD PUSH1 0xE5 SHL DUP4 MSTORE DUP3 ADD MSTORE PUSH1 0x1F PUSH1 0x24 DUP3 ADD MSTORE PUSH32 0x4175746F54726561737572793A20756E737570706F7274656420617373657400 PUSH1 0x44 DUP3 ADD MSTORE REVERT JUMPDEST POP POP CALLVALUE PUSH2 0x148 JUMPI PUSH1 0x20 CALLDATASIZE PUSH1 0x3 NOT ADD SLT PUSH2 0x148 JUMPI PUSH1 0x20 SWAP2 DUP2 SWAP1 PUSH1 0x1 PUSH1 0x1 PUSH1 0xA0 SHL SUB PUSH2 0xA6C PUSH2 0x14CE JUMP JUMPDEST AND DUP2 MSTORE PUSH1 0xA DUP5 MSTORE KECCAK256 SLOAD SWAP1 MLOAD SWAP1 DUP2 MSTORE RETURN JUMPDEST DUP4 DUP4 CALLVALUE PUSH2 0x148 JUMPI DUP2 PUSH1 0x3 NOT CALLDATASIZE ADD SLT PUSH2 0x148 JUMPI CALLER DUP3 MSTORE PUSH1 0x20 SWAP2 PUSH1 0x2 DUP4 MSTORE DUP2 DUP2 KECCAK256 SLOAD SWAP3 DUP4 ISZERO PUSH2 0xD50 JUMPI DUP2 SWAP5 DUP3 SWAP6 JUMPDEST PUSH1 0x7 SLOAD DUP8 LT ISZERO PUSH2 0xB43 JUMPI DUP4 DUP4 DUP4 PUSH2 0xABE DUP11 PUSH2 0x14E9 JUMP JUMPDEST SWAP1 SLOAD DUP10 MLOAD PUSH4 0xE8D991D1 PUSH1 0xE0 SHL DUP2 MSTORE SWAP5 DUP6 SWAP4 SWAP3 DUP5 SWAP3 PUSH1 0x3 SWAP2 SWAP1 SWAP2 SHL SHR PUSH1 0x1 PUSH1 0x1 PUSH1 0xA0 SHL SUB AND GAS CALL SWAP1 DUP2 ISZERO PUSH2 0xB39 JUMPI DUP6 SWAP2 PUSH2 0xB07 JUMPI JUMPDEST POP PUSH2 0xAFF SWAP1 PUSH1 0x1 SWAP3 PUSH2 0x15B9 JUMP JUMPDEST SWAP7 ADD SWAP6 PUSH2 0xAA8 JUMP JUMPDEST SWAP1 POP DUP4 DUP2 DUP2 RETURNDATASIZE DUP4 GT PUSH2 0xB32 JUMPI JUMPDEST PUSH2 0xB1E DUP2 DUP4 PUSH2 0x1597 JUMP JUMPDEST DUP2 ADD SUB SLT PUSH2 0xB2E JUMPI MLOAD PUSH1 0x1 PUSH2 0xAF2 JUMP JUMPDEST DUP5 DUP1 REVERT JUMPDEST POP RETURNDATASIZE PUSH2 0xB14 JUMP JUMPDEST DUP7 MLOAD RETURNDATASIZE DUP8 DUP3 RETURNDATACOPY RETURNDATASIZE SWAP1 REVERT JUMPDEST SWAP5 PUSH2 0xB55 PUSH2 0xB5E SWAP3 SWAP5 SWAP7 PUSH1 0x9 SLOAD PUSH2 0x15B9 JUMP JUMPDEST DUP1 PUSH1 0x9 SSTORE PUSH2 0x1789 JUMP JUMPDEST SWAP3 PUSH2 0xB6E PUSH1 0x3 SWAP5 PUSH1 0x3 SLOAD SWAP1 PUSH2 0x179C JUMP JUMPDEST SWAP3 CALLER DUP7 MSTORE PUSH1 0xA DUP4 MSTORE PUSH2 0xB83 DUP3 DUP8 KECCAK256 SLOAD DUP6 PUSH2 0x177C JUMP JUMPDEST SWAP4 DUP5 ISZERO PUSH2 0xD0E JUMPI CALLER DUP8 MSTORE PUSH1 0xA DUP5 MSTORE DUP3 DUP8 KECCAK256 SSTORE DUP6 JUMPDEST PUSH1 0x5 SLOAD DUP2 LT ISZERO PUSH2 0xCE3 JUMPI DUP4 PUSH1 0x24 PUSH2 0xBAD DUP4 PUSH2 0x1536 JUMP JUMPDEST SWAP1 SLOAD DUP7 MLOAD PUSH4 0x70A08231 PUSH1 0xE0 SHL DUP2 MSTORE ADDRESS DUP8 DUP3 ADD MSTORE PUSH1 0x1 PUSH1 0x1 PUSH1 0xA0 SHL SUB SWAP5 SWAP1 SWAP4 SWAP1 SWAP3 DUP5 SWAP3 DUP4 SWAP2 DUP14 SHL SHR DUP7 AND GAS STATICCALL SWAP1 DUP2 ISZERO PUSH2 0xCD9 JUMPI SWAP1 DUP8 SWAP2 DUP11 SWAP2 PUSH2 0xCA8 JUMPI JUMPDEST POP LT ISZERO PUSH2 0xBF9 JUMPI POP PUSH1 0x1 ADD PUSH2 0xB97 JUMP JUMPDEST SWAP2 DUP5 SWAP3 PUSH2 0xC42 SWAP8 PUSH2 0xC0A DUP9 SWAP5 PUSH2 0x1536 JUMP JUMPDEST SWAP1 SLOAD SWAP2 SHL SHR AND SWAP1 DUP9 DUP6 MLOAD DUP1 SWAP10 DUP2 SWAP6 DUP3 SWAP5 PUSH4 0xA9059CBB PUSH1 0xE0 SHL DUP5 MSTORE CALLER SWAP1 DUP5 ADD PUSH1 0x20 SWAP1 SWAP4 SWAP3 SWAP2 SWAP4 PUSH1 0x40 DUP2 ADD SWAP5 PUSH1 0x1 DUP1 PUSH1 0xA0 SHL SUB AND DUP2 MSTORE ADD MSTORE JUMP JUMPDEST SUB SWAP3 GAS CALL SWAP4 DUP5 ISZERO PUSH2 0xC9E JUMPI PUSH32 0xC04825BA3F383B602255D2A13065A68E325C65C9E0ED5D031EA2B06F641873AF SWAP4 SWAP5 PUSH2 0xC81 JUMPI JUMPDEST POP JUMPDEST MLOAD SWAP3 DUP4 MSTORE CALLER SWAP3 LOG2 DUP1 RETURN JUMPDEST PUSH2 0xC97 SWAP1 DUP4 RETURNDATASIZE DUP6 GT PUSH2 0x527 JUMPI PUSH2 0x518 DUP2 DUP4 PUSH2 0x1597 JUMP JUMPDEST POP DUP6 PUSH2 0xC75 JUMP JUMPDEST DUP2 MLOAD RETURNDATASIZE DUP8 DUP3 RETURNDATACOPY RETURNDATASIZE SWAP1 REVERT JUMPDEST DUP1 SWAP3 POP DUP8 DUP1 SWAP3 POP RETURNDATASIZE DUP4 GT PUSH2 0xCD2 JUMPI JUMPDEST PUSH2 0xCC1 DUP2 DUP4 PUSH2 0x1597 JUMP JUMPDEST DUP2 ADD SUB SLT PUSH2 0x4F3 JUMPI DUP7 SWAP1 MLOAD DUP11 PUSH2 0xBE9 JUMP JUMPDEST POP RETURNDATASIZE PUSH2 0xCB7 JUMP JUMPDEST DUP6 MLOAD RETURNDATASIZE DUP12 DUP3 RETURNDATACOPY RETURNDATASIZE SWAP1 REVERT JUMPDEST POP POP PUSH32 0xC04825BA3F383B602255D2A13065A68E325C65C9E0ED5D031EA2B06F641873AF SWAP3 SWAP4 POP PUSH2 0xC77 JUMP JUMPDEST POP DUP3 PUSH1 0x64 SWAP3 MLOAD SWAP2 PUSH3 0x461BCD PUSH1 0xE5 SHL DUP4 MSTORE DUP3 ADD MSTORE PUSH1 0x1E PUSH1 0x24 DUP3 ADD MSTORE PUSH32 0x4175746F54726561737572793A206E6F7468696E6720746F20636C61696D0000 PUSH1 0x44 DUP3 ADD MSTORE REVERT JUMPDEST DUP5 PUSH1 0x64 SWAP2 DUP5 MLOAD SWAP2 PUSH3 0x461BCD PUSH1 0xE5 SHL DUP4 MSTORE DUP3 ADD MSTORE PUSH1 0x17 PUSH1 0x24 DUP3 ADD MSTORE PUSH32 0x4175746F54726561737572793A206E6F20736861726573000000000000000000 PUSH1 0x44 DUP3 ADD MSTORE REVERT JUMPDEST POP POP CALLVALUE PUSH2 0x148 JUMPI DUP2 PUSH1 0x3 NOT CALLDATASIZE ADD SLT PUSH2 0x148 JUMPI PUSH1 0x20 SWAP1 PUSH1 0x3 SLOAD SWAP1 MLOAD SWAP1 DUP2 MSTORE RETURN JUMPDEST SWAP1 POP DUP3 CALLVALUE PUSH2 0x1D3 JUMPI PUSH1 0x20 SWAP3 DUP4 PUSH1 0x3 NOT CALLDATASIZE ADD SLT PUSH2 0x148 JUMPI DUP3 CALLDATALOAD SWAP1 DUP2 ISZERO PUSH2 0x104D JUMPI CALLER DUP4 MSTORE PUSH1 0x2 DUP6 MSTORE DUP2 DUP2 DUP5 KECCAK256 SLOAD LT PUSH2 0x1001 JUMPI PUSH2 0xDF2 PUSH2 0xDEC PUSH2 0x15DC JUMP JUMPDEST DUP4 PUSH2 0x1789 JUMP JUMPDEST SWAP4 PUSH2 0xE01 PUSH1 0x3 SWAP6 DUP7 SLOAD SWAP1 PUSH2 0x179C JUMP JUMPDEST SWAP1 CALLER DUP6 MSTORE PUSH1 0x2 DUP8 MSTORE DUP3 DUP6 KECCAK256 PUSH2 0xE17 DUP6 DUP3 SLOAD PUSH2 0x177C JUMP JUMPDEST SWAP1 SSTORE PUSH2 0xE24 DUP5 DUP8 SLOAD PUSH2 0x177C JUMP JUMPDEST DUP7 SSTORE DUP5 SWAP6 DUP6 JUMPDEST PUSH1 0x5 SLOAD DUP2 LT ISZERO PUSH2 0xFF5 JUMPI DUP9 PUSH1 0x24 PUSH2 0xE40 DUP4 PUSH2 0x1536 JUMP JUMPDEST SWAP1 SLOAD DUP9 MLOAD PUSH4 0x70A08231 PUSH1 0xE0 SHL DUP2 MSTORE ADDRESS DUP9 DUP3 ADD MSTORE PUSH1 0x1 PUSH1 0x1 PUSH1 0xA0 SHL SUB SWAP5 SWAP1 SWAP4 SWAP1 SWAP3 DUP5 SWAP3 DUP4 SWAP2 DUP10 SHL SHR DUP7 AND GAS STATICCALL SWAP1 DUP2 ISZERO PUSH2 0x811 JUMPI DUP12 SWAP5 SWAP4 SWAP3 SWAP2 DUP8 SWAP2 DUP12 SWAP2 PUSH2 0xFBD JUMPI JUMPDEST POP LT ISZERO PUSH2 0xE93 JUMPI POP PUSH1 0x1 ADD SWAP1 SWAP2 POP PUSH2 0xE2A JUMP JUMPDEST SWAP4 SWAP5 SWAP6 SWAP7 SWAP8 SWAP9 POP SWAP1 SWAP2 POP DUP3 PUSH2 0xEA7 DUP3 PUSH2 0x1536 JUMP JUMPDEST SWAP1 SLOAD DUP9 MLOAD PUSH4 0xA9059CBB PUSH1 0xE0 SHL DUP2 MSTORE CALLER DUP9 DUP3 ADD SWAP1 DUP2 MSTORE PUSH1 0x20 DUP2 ADD DUP11 SWAP1 MSTORE SWAP1 SWAP4 DUP14 SWAP4 DUP6 SWAP4 SWAP1 DUP9 SHL SHR AND SWAP1 DUP3 SWAP1 DUP14 SWAP1 DUP3 SWAP1 PUSH1 0x40 ADD SUB SWAP3 GAS CALL DUP1 ISZERO PUSH2 0x811 JUMPI SWAP1 PUSH2 0xEF3 SWAP3 SWAP2 PUSH2 0xFA0 JUMPI JUMPDEST POP PUSH2 0x1536 JUMP JUMPDEST SWAP1 SLOAD SWAP2 SHL SHR AND DUP6 MSTORE PUSH1 0x6 DUP7 MSTORE DUP3 DUP6 KECCAK256 PUSH2 0xF0D DUP4 DUP3 SLOAD PUSH2 0x177C JUMP JUMPDEST SWAP1 SSTORE PUSH1 0x1 JUMPDEST ISZERO PUSH2 0xF4A JUMPI POP PUSH32 0x92CCF450A286A957AF52509BC1C9939D1A6A481783E142E41E2499F0BB66EBC6 SWAP3 SWAP4 SWAP5 DUP3 MLOAD SWAP5 DUP6 MSTORE DUP5 ADD MSTORE CALLER SWAP3 LOG2 DUP1 RETURN JUMPDEST DUP3 MLOAD PUSH3 0x461BCD PUSH1 0xE5 SHL DUP2 MSTORE SWAP1 DUP2 ADD DUP7 SWAP1 MSTORE PUSH1 0x2A PUSH1 0x24 DUP3 ADD MSTORE PUSH32 0x4175746F54726561737572793A20696E73756666696369656E74207661756C74 PUSH1 0x44 DUP3 ADD MSTORE PUSH10 0x206C6971756964697479 PUSH1 0xB0 SHL PUSH1 0x64 DUP3 ADD MSTORE PUSH1 0x84 SWAP1 REVERT JUMPDEST PUSH2 0xFB6 SWAP1 DUP12 RETURNDATASIZE DUP14 GT PUSH2 0x527 JUMPI PUSH2 0x518 DUP2 DUP4 PUSH2 0x1597 JUMP JUMPDEST POP DUP11 PUSH2 0xEED JUMP JUMPDEST SWAP3 SWAP4 SWAP5 SWAP6 DUP1 SWAP3 POP DUP4 SWAP2 POP RETURNDATASIZE DUP4 GT PUSH2 0xFEE JUMPI JUMPDEST PUSH2 0xFD9 DUP2 DUP4 PUSH2 0x1597 JUMP JUMPDEST DUP2 ADD SUB SLT PUSH2 0x4F3 JUMPI SWAP1 DUP6 DUP12 SWAP5 SWAP4 SWAP3 MLOAD DUP14 PUSH2 0xE80 JUMP JUMPDEST POP RETURNDATASIZE PUSH2 0xFCF JUMP JUMPDEST POP POP SWAP1 SWAP2 SWAP3 SWAP4 SWAP5 PUSH2 0xF12 JUMP JUMPDEST MLOAD PUSH3 0x461BCD PUSH1 0xE5 SHL DUP2 MSTORE DUP1 DUP5 ADD DUP6 SWAP1 MSTORE PUSH1 0x21 PUSH1 0x24 DUP3 ADD MSTORE PUSH32 0x4175746F54726561737572793A20696E73756666696369656E74207368617265 PUSH1 0x44 DUP3 ADD MSTORE PUSH1 0x73 PUSH1 0xF8 SHL PUSH1 0x64 DUP3 ADD MSTORE PUSH1 0x84 SWAP1 REVERT JUMPDEST MLOAD PUSH3 0x461BCD PUSH1 0xE5 SHL DUP2 MSTORE DUP1 DUP5 ADD DUP6 SWAP1 MSTORE PUSH1 0x19 PUSH1 0x24 DUP3 ADD MSTORE PUSH32 0x4175746F54726561737572793A207A65726F2073686172657300000000000000 PUSH1 0x44 DUP3 ADD MSTORE PUSH1 0x64 SWAP1 REVERT JUMPDEST SWAP1 POP CALLVALUE PUSH2 0x1D6 JUMPI PUSH1 0x20 CALLDATASIZE PUSH1 0x3 NOT ADD SLT PUSH2 0x1D6 JUMPI PUSH2 0x10AA PUSH2 0x14CE JUMP JUMPDEST DUP4 SLOAD PUSH1 0x1 PUSH1 0x1 PUSH1 0xA0 SHL SUB SWAP2 SWAP1 PUSH2 0x10C3 SWAP1 DUP4 AND CALLER EQ PUSH2 0x1730 JUMP JUMPDEST AND SWAP2 DUP3 DUP5 MSTORE DUP2 PUSH1 0x20 MSTORE PUSH1 0xFF DUP2 DUP6 KECCAK256 SLOAD AND PUSH2 0x1169 JUMPI DUP3 DUP5 MSTORE DUP2 PUSH1 0x20 MSTORE DUP4 KECCAK256 PUSH1 0x1 PUSH1 0xFF NOT DUP3 SLOAD AND OR SWAP1 SSTORE PUSH1 0x5 SLOAD SWAP1 PUSH1 0x1 PUSH1 0x40 SHL DUP3 LT ISZERO PUSH2 0x1156 JUMPI POP PUSH2 0x112D PUSH2 0x1110 DUP3 PUSH1 0x1 DUP6 SWAP5 ADD PUSH1 0x5 SSTORE PUSH2 0x1536 JUMP JUMPDEST DUP2 SWAP4 SWAP2 SLOAD SWAP1 PUSH1 0x3 SHL SWAP2 PUSH1 0x1 DUP1 PUSH1 0xA0 SHL SUB DUP1 SWAP2 AND DUP4 SHL SWAP3 SHL NOT AND OR SWAP1 JUMP JUMPDEST SWAP1 SSTORE PUSH32 0xE3C58EBFB2E7465FBB1C32E6B4F40C3C4F5CA77E8218A386AFF8617831260D7 DUP3 DUP1 LOG2 DUP1 RETURN JUMPDEST PUSH4 0x4E487B71 PUSH1 0xE0 SHL DUP5 MSTORE PUSH1 0x41 SWAP1 MSTORE PUSH1 0x24 DUP4 REVERT JUMPDEST SWAP1 PUSH1 0x20 PUSH1 0x64 SWAP3 MLOAD SWAP2 PUSH3 0x461BCD PUSH1 0xE5 SHL DUP4 MSTORE DUP3 ADD MSTORE PUSH1 0x1F PUSH1 0x24 DUP3 ADD MSTORE PUSH32 0x4175746F54726561737572793A20616C726561647920737570706F7274656400 PUSH1 0x44 DUP3 ADD MSTORE REVERT JUMPDEST SWAP2 SWAP1 POP CALLVALUE PUSH2 0x1D6 JUMPI PUSH1 0x20 CALLDATASIZE PUSH1 0x3 NOT ADD SLT PUSH2 0x1D6 JUMPI DUP2 CALLDATALOAD PUSH1 0x1 PUSH1 0x1 PUSH1 0xA0 SHL SUB DUP2 DUP2 AND SWAP4 SWAP2 DUP5 SWAP1 SUB PUSH2 0xB2E JUMPI PUSH2 0x11E4 SWAP1 DUP6 SLOAD AND CALLER EQ PUSH2 0x1730 JUMP JUMPDEST DUP3 DUP5 MSTORE PUSH1 0x8 PUSH1 0x20 MSTORE DUP2 DUP5 KECCAK256 SLOAD PUSH2 0x1264 JUMPI PUSH1 0x7 SLOAD SWAP1 PUSH1 0x1 PUSH1 0x40 SHL DUP3 LT ISZERO PUSH2 0x1251 JUMPI POP PUSH2 0x1219 PUSH2 0x1110 DUP3 PUSH1 0x1 DUP7 SWAP5 ADD PUSH1 0x7 SSTORE PUSH2 0x14E9 JUMP JUMPDEST SWAP1 SSTORE PUSH1 0x7 SLOAD SWAP1 DUP3 DUP5 MSTORE PUSH1 0x8 PUSH1 0x20 MSTORE DUP4 KECCAK256 SSTORE PUSH32 0x3F008FD510EAE7A9E7BEE13513D7B83BEF8003D488B5A3D0B0DA4DE71D6846F1 DUP3 DUP1 LOG2 DUP1 RETURN JUMPDEST PUSH4 0x4E487B71 PUSH1 0xE0 SHL DUP6 MSTORE PUSH1 0x41 SWAP1 MSTORE PUSH1 0x24 DUP5 REVERT JUMPDEST PUSH1 0x20 PUSH1 0x64 SWAP3 MLOAD SWAP2 PUSH3 0x461BCD PUSH1 0xE5 SHL DUP4 MSTORE DUP3 ADD MSTORE PUSH1 0x1D PUSH1 0x24 DUP3 ADD MSTORE PUSH32 0x4175746F54726561737572793A20737472617465677920657869737473000000 PUSH1 0x44 DUP3 ADD MSTORE REVERT JUMPDEST POP POP CALLVALUE PUSH2 0x148 JUMPI DUP2 PUSH1 0x3 NOT CALLDATASIZE ADD SLT PUSH2 0x148 JUMPI PUSH1 0x20 SWAP1 PUSH1 0x7 SLOAD SWAP1 MLOAD SWAP1 DUP2 MSTORE RETURN JUMPDEST SWAP2 SWAP1 POP CALLVALUE PUSH2 0x1D6 JUMPI PUSH1 0x20 DUP1 PUSH1 0x3 NOT CALLDATASIZE ADD SLT PUSH2 0x4D4 JUMPI PUSH1 0x1 PUSH1 0x1 PUSH1 0xA0 SHL SUB DUP4 CALLDATALOAD DUP2 DUP2 AND SWAP5 SWAP1 DUP6 SWAP1 SUB PUSH2 0x1475 JUMPI PUSH2 0x12FE DUP3 DUP8 SLOAD AND CALLER EQ PUSH2 0x1730 JUMP JUMPDEST DUP5 DUP7 MSTORE PUSH1 0x8 DUP4 MSTORE DUP4 DUP7 KECCAK256 SLOAD SWAP1 DUP2 ISZERO PUSH2 0x1434 JUMPI PUSH1 0x7 SLOAD PUSH1 0x0 NOT SWAP3 SWAP1 DUP4 DUP2 ADD SWAP1 DUP2 GT PUSH2 0x1421 JUMPI DUP4 DUP3 ADD SWAP1 DUP3 DUP3 GT PUSH2 0x140E JUMPI SWAP1 DUP2 DUP7 SWAP3 DUP3 SUB PUSH2 0x13AB JUMPI JUMPDEST POP POP POP POP PUSH1 0x7 SLOAD SWAP1 DUP2 ISZERO PUSH2 0x1398 JUMPI POP SWAP2 DUP7 SWAP5 SWAP4 SWAP2 PUSH1 0x8 SWAP4 ADD SWAP1 PUSH2 0x135A DUP3 PUSH2 0x14E9 JUMP JUMPDEST SWAP1 SWAP2 DUP3 SLOAD SWAP2 PUSH1 0x3 SHL SHL NOT AND SWAP1 SSTORE PUSH1 0x7 SSTORE DUP5 DUP5 MSTORE MSTORE DUP2 KECCAK256 SSTORE PUSH32 0x9A1DB4B80C32706328728508C941A6B954F31EB5AFFD32F236C1FD405F8FEA4 DUP3 DUP1 LOG2 DUP1 RETURN JUMPDEST PUSH4 0x4E487B71 PUSH1 0xE0 SHL DUP9 MSTORE PUSH1 0x31 SWAP1 MSTORE PUSH1 0x24 DUP8 REVERT JUMPDEST PUSH2 0x13C8 PUSH2 0x13EC PUSH2 0x13F3 SWAP4 DUP6 PUSH2 0x13BF DUP6 PUSH2 0x14E9 JUMP JUMPDEST SWAP5 SWAP1 SLOAD SWAP3 PUSH2 0x14E9 JUMP JUMPDEST SWAP3 SWAP1 SWAP5 PUSH1 0x3 SHL SHR AND SWAP1 DUP4 SLOAD SWAP1 PUSH1 0x3 SHL SWAP2 PUSH1 0x1 DUP1 PUSH1 0xA0 SHL SUB DUP1 SWAP2 AND DUP4 SHL SWAP3 SHL NOT AND OR SWAP1 JUMP JUMPDEST SWAP1 SSTORE PUSH2 0x14E9 JUMP JUMPDEST SWAP1 SLOAD SWAP1 PUSH1 0x3 SHL SHR AND DUP9 MSTORE PUSH1 0x8 DUP6 MSTORE DUP6 DUP9 KECCAK256 SSTORE CODESIZE DUP4 DUP2 DUP1 PUSH2 0x1338 JUMP JUMPDEST PUSH4 0x4E487B71 PUSH1 0xE0 SHL DUP11 MSTORE PUSH1 0x11 DUP5 MSTORE PUSH1 0x24 DUP11 REVERT JUMPDEST PUSH4 0x4E487B71 PUSH1 0xE0 SHL DUP10 MSTORE PUSH1 0x11 DUP4 MSTORE PUSH1 0x24 DUP10 REVERT JUMPDEST PUSH1 0x64 SWAP1 DUP5 DUP1 DUP8 MLOAD SWAP3 PUSH3 0x461BCD PUSH1 0xE5 SHL DUP5 MSTORE DUP4 ADD MSTORE PUSH1 0x24 DUP3 ADD MSTORE PUSH32 0x4175746F54726561737572793A207374726174656779206E6F7420666F756E64 PUSH1 0x44 DUP3 ADD MSTORE REVERT JUMPDEST DUP6 DUP1 REVERT JUMPDEST POP POP CALLVALUE PUSH2 0x148 JUMPI PUSH1 0x20 CALLDATASIZE PUSH1 0x3 NOT ADD SLT PUSH2 0x148 JUMPI PUSH1 0x20 SWAP2 DUP2 SWAP1 PUSH1 0x1 PUSH1 0x1 PUSH1 0xA0 SHL SUB PUSH2 0x14A1 PUSH2 0x14CE JUMP JUMPDEST AND DUP2 MSTORE PUSH1 0x8 DUP5 MSTORE KECCAK256 SLOAD SWAP1 MLOAD SWAP1 DUP2 MSTORE RETURN JUMPDEST POP POP CALLVALUE PUSH2 0x148 JUMPI DUP2 PUSH1 0x3 NOT CALLDATASIZE ADD SLT PUSH2 0x148 JUMPI PUSH1 0x20 SWAP1 PUSH2 0x238 PUSH2 0x15DC JUMP JUMPDEST PUSH1 0x4 CALLDATALOAD SWAP1 PUSH1 0x1 PUSH1 0x1 PUSH1 0xA0 SHL SUB DUP3 AND DUP3 SUB PUSH2 0x14E4 JUMPI JUMP JUMPDEST PUSH1 0x0 DUP1 REVERT JUMPDEST PUSH1 0x7 SLOAD DUP2 LT ISZERO PUSH2 0x1520 JUMPI PUSH1 0x7 PUSH1 0x0 MSTORE PUSH32 0xA66CC928B5EDB82AF9BD49922954155AB7B0942694BEA4CE44661D9A8736C688 ADD SWAP1 PUSH1 0x0 SWAP1 JUMP JUMPDEST PUSH4 0x4E487B71 PUSH1 0xE0 SHL PUSH1 0x0 MSTORE PUSH1 0x32 PUSH1 0x4 MSTORE PUSH1 0x24 PUSH1 0x0 REVERT JUMPDEST PUSH1 0x5 SLOAD DUP2 LT ISZERO PUSH2 0x1520 JUMPI PUSH1 0x5 PUSH1 0x0 MSTORE PUSH32 0x36B6384B5ECA791C62761152D0C79BB0604C104A5FB6F4EB0703F3154BB3DB0 ADD SWAP1 PUSH1 0x0 SWAP1 JUMP JUMPDEST PUSH8 0xFFFFFFFFFFFFFFFF DUP2 GT PUSH2 0x1581 JUMPI PUSH1 0x40 MSTORE JUMP JUMPDEST PUSH4 0x4E487B71 PUSH1 0xE0 SHL PUSH1 0x0 MSTORE PUSH1 0x41 PUSH1 0x4 MSTORE PUSH1 0x24 PUSH1 0x0 REVERT JUMPDEST SWAP1 PUSH1 0x1F DUP1 NOT SWAP2 ADD AND DUP2 ADD SWAP1 DUP2 LT PUSH8 0xFFFFFFFFFFFFFFFF DUP3 GT OR PUSH2 0x1581 JUMPI PUSH1 0x40 MSTORE JUMP JUMPDEST SWAP2 SWAP1 DUP3 ADD DUP1 SWAP3 GT PUSH2 0x15C6 JUMPI JUMP JUMPDEST PUSH4 0x4E487B71 PUSH1 0xE0 SHL PUSH1 0x0 MSTORE PUSH1 0x11 PUSH1 0x4 MSTORE PUSH1 0x24 PUSH1 0x0 REVERT JUMPDEST PUSH1 0x0 DUP1 PUSH1 0x5 SLOAD JUMPDEST DUP1 DUP3 LT PUSH2 0x1699 JUMPI POP POP PUSH1 0x0 PUSH1 0x7 SLOAD JUMPDEST DUP1 DUP3 LT PUSH2 0x15FE JUMPI POP POP SWAP1 JUMP JUMPDEST SWAP1 SWAP2 PUSH2 0x1609 DUP4 PUSH2 0x14E9 JUMP JUMPDEST SWAP1 SLOAD PUSH1 0x40 DUP1 MLOAD PUSH4 0x6A61F75 PUSH1 0xE5 SHL DUP2 MSTORE SWAP1 SWAP3 SWAP1 SWAP2 PUSH1 0x20 SWAP2 DUP3 SWAP2 DUP5 SWAP2 PUSH1 0x4 SWAP2 DUP4 SWAP2 PUSH1 0x3 SHL SHR PUSH1 0x1 PUSH1 0x1 PUSH1 0xA0 SHL SUB AND GAS STATICCALL SWAP3 DUP4 ISZERO PUSH2 0x168F JUMPI POP PUSH1 0x0 SWAP3 PUSH2 0x165E JUMPI JUMPDEST POP POP PUSH2 0x1656 SWAP1 PUSH1 0x1 SWAP3 PUSH2 0x15B9 JUMP JUMPDEST SWAP3 ADD SWAP1 PUSH2 0x15F2 JUMP JUMPDEST DUP2 DUP2 SWAP4 SWAP3 SWAP4 RETURNDATASIZE DUP4 GT PUSH2 0x1688 JUMPI JUMPDEST PUSH2 0x1675 DUP2 DUP4 PUSH2 0x1597 JUMP JUMPDEST DUP2 ADD SUB SLT PUSH2 0x1D3 JUMPI POP MLOAD DUP2 PUSH2 0x1656 PUSH2 0x1648 JUMP JUMPDEST POP RETURNDATASIZE PUSH2 0x166B JUMP JUMPDEST MLOAD RETURNDATASIZE PUSH1 0x0 DUP3 RETURNDATACOPY RETURNDATASIZE SWAP1 REVERT JUMPDEST SWAP1 SWAP2 PUSH2 0x16A4 DUP4 PUSH2 0x1536 JUMP JUMPDEST SWAP1 SLOAD PUSH1 0x40 DUP1 MLOAD PUSH4 0x70A08231 PUSH1 0xE0 SHL DUP2 MSTORE ADDRESS PUSH1 0x4 DUP3 ADD MSTORE SWAP1 SWAP3 SWAP1 SWAP2 PUSH1 0x20 SWAP2 DUP3 SWAP2 DUP5 SWAP2 PUSH1 0x24 SWAP2 DUP4 SWAP2 PUSH1 0x3 SHL SHR PUSH1 0x1 PUSH1 0x1 PUSH1 0xA0 SHL SUB AND GAS STATICCALL SWAP3 DUP4 ISZERO PUSH2 0x168F JUMPI POP PUSH1 0x0 SWAP3 PUSH2 0x16FF JUMPI JUMPDEST POP POP PUSH2 0x16F7 SWAP1 PUSH1 0x1 SWAP3 PUSH2 0x15B9 JUMP JUMPDEST SWAP3 ADD SWAP1 PUSH2 0x15E3 JUMP JUMPDEST DUP2 DUP2 SWAP4 SWAP3 SWAP4 RETURNDATASIZE DUP4 GT PUSH2 0x1729 JUMPI JUMPDEST PUSH2 0x1716 DUP2 DUP4 PUSH2 0x1597 JUMP JUMPDEST DUP2 ADD SUB SLT PUSH2 0x1D3 JUMPI POP MLOAD DUP2 PUSH2 0x16F7 PUSH2 0x16E9 JUMP JUMPDEST POP RETURNDATASIZE PUSH2 0x170C JUMP JUMPDEST ISZERO PUSH2 0x1737 JUMPI JUMP JUMPDEST PUSH1 0x40 MLOAD PUSH3 0x461BCD PUSH1 0xE5 SHL DUP2 MSTORE PUSH1 0x20 PUSH1 0x4 DUP3 ADD MSTORE PUSH1 0x17 PUSH1 0x24 DUP3 ADD MSTORE PUSH32 0x4175746F54726561737572793A206E6F74206F776E6572000000000000000000 PUSH1 0x44 DUP3 ADD MSTORE PUSH1 0x64 SWAP1 REVERT JUMPDEST SWAP2 SWAP1 DUP3 SUB SWAP2 DUP3 GT PUSH2 0x15C6 JUMPI JUMP JUMPDEST DUP2 DUP2 MUL SWAP3 SWAP2 DUP2 ISZERO SWAP2 DUP5 DIV EQ OR ISZERO PUSH2 0x15C6 JUMPI JUMP JUMPDEST DUP2 ISZERO PUSH2 0x17A6 JUMPI DIV SWAP1 JUMP JUMPDEST PUSH4 0x4E487B71 PUSH1 0xE0 SHL PUSH1 0x0 MSTORE PUSH1 0x12 PUSH1 0x4 MSTORE PUSH1 0x24 PUSH1 0x0 REVERT JUMPDEST SWAP1 DUP2 PUSH1 0x20 SWAP2 SUB SLT PUSH2 0x14E4 JUMPI MLOAD DUP1 ISZERO ISZERO DUP2 SUB PUSH2 0x14E4 JUMPI SWAP1 JUMP JUMPDEST ISZERO PUSH2 0x17DB JUMPI JUMP JUMPDEST PUSH1 0x40 MLOAD PUSH3 0x461BCD PUSH1 0xE5 SHL DUP2 MSTORE PUSH1 0x20 PUSH1 0x4 DUP3 ADD MSTORE PUSH1 0x19 PUSH1 0x24 DUP3 ADD MSTORE PUSH32 0x4175746F54726561737572793A207A65726F20616D6F756E7400000000000000 PUSH1 0x44 DUP3 ADD MSTORE PUSH1 0x64 SWAP1 REVERT JUMPDEST PUSH1 0x3 SLOAD DUP1 ISZERO PUSH2 0x1858 JUMPI PUSH2 0x1831 PUSH2 0x15DC JUMP JUMPDEST SWAP1 PUSH8 0xDE0B6B3A7640000 SWAP2 DUP3 DUP2 MUL SWAP3 DUP2 DUP5 DIV EQ SWAP1 ISZERO OR ISZERO PUSH2 0x15C6 JUMPI PUSH2 0x1855 SWAP2 PUSH2 0x179C JUMP JUMPDEST SWAP1 JUMP JUMPDEST POP PUSH8 0xDE0B6B3A7640000 SWAP1 JUMP JUMPDEST PUSH1 0x0 JUMPDEST DUP4 DUP2 LT PUSH2 0x1878 JUMPI POP POP PUSH1 0x0 SWAP2 ADD MSTORE JUMP JUMPDEST DUP2 DUP2 ADD MLOAD DUP4 DUP3 ADD MSTORE PUSH1 0x20 ADD PUSH2 0x1868 JUMP JUMPDEST SWAP1 PUSH1 0x20 SWAP2 PUSH2 0x18A1 DUP2 MLOAD DUP1 SWAP3 DUP2 DUP6 MSTORE DUP6 DUP1 DUP7 ADD SWAP2 ADD PUSH2 0x1865 JUMP JUMPDEST PUSH1 0x1F ADD PUSH1 0x1F NOT AND ADD ADD SWAP1 JUMP JUMPDEST PUSH1 0x3 SLOAD DUP1 ISZERO DUP1 ISZERO PUSH2 0x1912 JUMPI JUMPDEST PUSH2 0x190B JUMPI PUSH2 0x18E6 PUSH1 0x9 SLOAD SWAP3 PUSH1 0x1 DUP1 PUSH1 0xA0 SHL SUB AND SWAP2 PUSH2 0x9D0 PUSH1 0x0 SWAP5 DUP5 DUP7 MSTORE PUSH1 0x2 PUSH1 0x20 MSTORE PUSH1 0x40 DUP7 KECCAK256 SLOAD SWAP1 PUSH2 0x1789 JUMP JUMPDEST SWAP1 DUP3 MSTORE PUSH1 0xA PUSH1 0x20 MSTORE PUSH1 0x40 DUP3 KECCAK256 SLOAD SWAP1 DUP2 DUP2 GT ISZERO PUSH2 0x1906 JUMPI PUSH2 0x1855 SWAP3 POP PUSH2 0x177C JUMP JUMPDEST POP POP SWAP1 JUMP JUMPDEST POP POP PUSH1 0x0 SWAP1 JUMP JUMPDEST POP PUSH1 0x1 PUSH1 0x1 PUSH1 0xA0 SHL SUB DUP3 AND PUSH1 0x0 SWAP1 DUP2 MSTORE PUSH1 0x2 PUSH1 0x20 MSTORE PUSH1 0x40 SWAP1 KECCAK256 SLOAD ISZERO PUSH2 0x18B9 JUMP INVALID LOG2 PUSH5 0x6970667358 0x22 SLT KECCAK256 RETURNDATACOPY 0x28 XOR CALLER CREATE2 0xC9 RETURNDATACOPY PUSH4 0x86ED3BD7 DUP6 0xEE 0xF9 0xD2 PUSH10 0xB8CA6C530A43D28552B6 NOT 0xD3 REVERT CALLDATACOPY 0xD1 PUSH5 0x736F6C6343 STOP ADDMOD XOR STOP CALLER "},"methodIdentifiers":{"addAsset(address)":"298410e5","addStrategy(address)":"223e5479","assetCount()":"eafe7a74","assetList(uint256)":"a0b4b301","claimYield()":"406cf229","deposit(address,uint256)":"47e7ef24","owner()":"8da5cb5b","pendingYield(address)":"c7bf1980","rebalance()":"7d7c2a1c","removeStrategy(address)":"175188e8","sharePrice()":"87269729","shares(address)":"ce7c2ac2","strategies(uint256)":"d574ea3d","strategyCount()":"22068b44","strategyIndex(address)":"11451526","supportedAssets(address)":"bd81579e","totalAssets()":"01e1d114","totalDeposited(address)":"53055481","totalShares()":"3a98ef39","totalYieldAccrued()":"ee6c3bf2","triggerXCMTransfer(address,uint256)":"91731c66","withdraw(uint256)":"2e1a7d4d","xcmRouter()":"e1d20600","yieldClaimed(address)":"45bba697"}}}}}