{"src/AutoTreasury.sol":{"AutoTreasury":{"abi":[{"inputs":[{"internalType":"address","name":"_xcmRouter","type":"address"},{"internalType":"address","name":"_primaryAsset","type":"address"}],"stateMutability":"nonpayable","type":"constructor"},{"anonymous":false,"inputs":[{"indexed":true,"internalType":"address","name":"user","type":"address"},{"indexed":false,"internalType":"uint32","name":"targetParaId","type":"uint32"},{"indexed":false,"internalType":"address","name":"targetAsset","type":"address"},{"indexed":false,"internalType":"uint256","name":"yieldAmount","type":"uint256"}],"name":"CrossChainPayment","type":"event"},{"anonymous":false,"inputs":[{"indexed":true,"internalType":"address","name":"user","type":"address"},{"indexed":false,"internalType":"uint256","name":"amount","type":"uint256"}],"name":"Saved","type":"event"},{"anonymous":false,"inputs":[{"indexed":true,"internalType":"address","name":"user","type":"address"},{"indexed":false,"internalType":"uint256","name":"principalAmount","type":"uint256"}],"name":"Withdrawn","type":"event"},{"anonymous":false,"inputs":[{"indexed":false,"internalType":"uint256","name":"totalYield","type":"uint256"}],"name":"YieldHarvested","type":"event"},{"inputs":[{"internalType":"contract YieldStrategy","name":"strategy","type":"address"}],"name":"addStrategy","outputs":[],"stateMutability":"nonpayable","type":"function"},{"inputs":[],"name":"owner","outputs":[{"internalType":"address","name":"","type":"address"}],"stateMutability":"view","type":"function"},{"inputs":[{"internalType":"uint32","name":"targetParaId","type":"uint32"},{"internalType":"address","name":"targetAsset","type":"address"},{"internalType":"uint256","name":"yieldAmount","type":"uint256"}],"name":"payWithYield","outputs":[],"stateMutability":"nonpayable","type":"function"},{"inputs":[],"name":"primaryAsset","outputs":[{"internalType":"address","name":"","type":"address"}],"stateMutability":"view","type":"function"},{"inputs":[{"internalType":"address","name":"","type":"address"}],"name":"principal","outputs":[{"internalType":"uint256","name":"","type":"uint256"}],"stateMutability":"view","type":"function"},{"inputs":[],"name":"rebalance","outputs":[],"stateMutability":"nonpayable","type":"function"},{"inputs":[{"internalType":"uint256","name":"amount","type":"uint256"}],"name":"save","outputs":[],"stateMutability":"nonpayable","type":"function"},{"inputs":[],"name":"sharePrice","outputs":[{"internalType":"uint256","name":"","type":"uint256"}],"stateMutability":"view","type":"function"},{"inputs":[{"internalType":"address","name":"","type":"address"}],"name":"shares","outputs":[{"internalType":"uint256","name":"","type":"uint256"}],"stateMutability":"view","type":"function"},{"inputs":[{"internalType":"address","name":"","type":"address"}],"name":"spendableYield","outputs":[{"internalType":"uint256","name":"","type":"uint256"}],"stateMutability":"view","type":"function"},{"inputs":[{"internalType":"uint256","name":"","type":"uint256"}],"name":"strategies","outputs":[{"internalType":"contract YieldStrategy","name":"","type":"address"}],"stateMutability":"view","type":"function"},{"inputs":[],"name":"strategyCount","outputs":[{"internalType":"uint256","name":"","type":"uint256"}],"stateMutability":"view","type":"function"},{"inputs":[],"name":"totalAssets","outputs":[{"internalType":"uint256","name":"","type":"uint256"}],"stateMutability":"view","type":"function"},{"inputs":[],"name":"totalPrincipal","outputs":[{"internalType":"uint256","name":"","type":"uint256"}],"stateMutability":"view","type":"function"},{"inputs":[],"name":"totalShares","outputs":[{"internalType":"uint256","name":"","type":"uint256"}],"stateMutability":"view","type":"function"},{"inputs":[],"name":"totalSpendableYield","outputs":[{"internalType":"uint256","name":"","type":"uint256"}],"stateMutability":"view","type":"function"},{"inputs":[{"internalType":"uint256","name":"amount","type":"uint256"}],"name":"withdrawPrincipal","outputs":[],"stateMutability":"nonpayable","type":"function"},{"inputs":[],"name":"xcmRouter","outputs":[{"internalType":"contract XCMRouter","name":"","type":"address"}],"stateMutability":"view","type":"function"}],"evm":{"bytecode":{"linkReferences":{},"object":"60803461009257601f61128038819003918201601f19168301916001600160401b0383118484101761009757808492604094855283398101031261009257610052602061004b836100ad565b92016100ad565b9060018060a01b0319913383600054161760005560018060a01b03809216836001541617600155169060085416176008556040516111be90816100c28239f35b600080fd5b634e487b7160e01b600052604160045260246000fd5b51906001600160a01b03821682036100925756fe6040608081526004908136101561001557600080fd5b600091823560e01c90816301e1d11414610d375781631b86202714610bc957816322068b4414610baa578163223e547914610b245781632ce0f9d614610aec5781632e017c0714610acd578163372b0261146107e85781633a98ef39146107c95781634b1533b2146107aa578163658e28a4146104605781637d7c2a1c1461023f578163872697291461021b5781638da5cb5b146101f3578163ce7c2ac2146101bb578163d574ea3d14610177578163e1d206001461014e578163e4f2460114610114575063e58d777a146100e957600080fd5b3461011057816003193601126101105760085490516001600160a01b039091168152602090f35b5080fd5b90503461014a57602036600319011261014a5760209282916001600160a01b0361013c610d54565b168252845220549051908152f35b8280fd5b50503461011057816003193601126101105760015490516001600160a01b039091168152602090f35b90503461014a57602036600319011261014a5735916009548310156101b857506101a2602092610d6a565b905491519160018060a01b039160031b1c168152f35b80fd5b5050346101105760203660031901126101105760209181906001600160a01b036101e3610d54565b1681526006845220549051908152f35b505034610110578160031936011261011057905490516001600160a01b039091168152602090f35b505034610110578160031936011261011057602090610238611010565b9051908152f35b90503461014a578260031936011261014a5782546001600160a01b03929061026a9084163314610f94565b60089280600854168251916370a0823160e01b83523085840152602092838160248181965afa908115610456578891610424575b50605a810290808204605a14901517156104115790606488949392049687151580610406575b6102cc578480f35b6102db60099860095490610f74565b93855b89548110156103f05787898386808754168a8c6103376102fd89610d6a565b91905493600399519889978896879563a9059cbb60e01b87528d1b1c1690840160209093929193604081019460018060a01b031681520152565b03925af180156103e657908692916103b9575b5061035483610d6a565b9054911b1c16803b156103b5578787878c838d5195869485936255f9e960e71b85528401525af180156103ab57908891610393575b50506001016102de565b61039c90610db7565b6103a7578638610389565b8680fd5b89513d8a823e3d90fd5b8780fd5b6103d890853d87116103df575b6103d08183610de1565b810190610f49565b503861034a565b503d6103c6565b8a513d8b823e3d90fd5b5050505050505050505038808083818080808480f35b5060095415156102c4565b634e487b7160e01b885260118652602488fd5b90508381813d831161044f575b61043b8183610de1565b8101031261044a57513861029e565b600080fd5b503d610431565b85513d8a823e3d90fd5b9190503461014a576020806003193601126107a65782359182151580610792575b156107455761048e611055565b61049a60075484610f61565b936104f26104ad60039660035490610f74565b338852600285528388206104c2878254610fe0565b90556104d086600354610fe0565b600355338852600685528388206104e8828254610fe0565b9055600754610fe0565b60075560018060a01b0380600854169583516370a0823160e01b815230848201528581602481819b5afa90811561073b57899161070e575b508681106105cb575b5050600854835163a9059cbb60e01b81523393810193845260208401879052965084928792909116908290899082906040015b03925af19384156105c1577f7084f5476618d8e60b11ef0d7d3f06914655adb8793e28ff7f018d4c76d505d593946105a4575b50519283523392a280f35b6105ba90833d85116103df576103d08183610de1565b5038610599565b81513d87823e3d90fd5b6105d59087610fe0565b90885b6009548110156106fd578487856105ee84610d6a565b905490861b1c168851928380926306a61f7560e51b82525afa9081156106f3578b916106c6575b50808411156106bf575b8061062e575b506001016105d8565b8a8561063b849694610d6a565b905490861b1c16803b156101105781838d8a838d519586948593638ca1799560e01b85528401525af180156106b55761069d575b505061067a91610fe0565b9182156106875738610625565b5050506105669550839185915b91819350610533565b6106a690610db7565b6106b1578a3861066f565b8a80fd5b89513d84823e3d90fd5b508261061f565b90508781813d83116106ec575b6106dd8183610de1565b8101031261044a575138610615565b503d6106d3565b87513d8d823e3d90fd5b505050610566955083918591610694565b90508581813d8311610734575b6107258183610de1565b8101031261044a57513861052a565b503d61071b565b85513d8b823e3d90fd5b5162461bcd60e51b815292830152506024808201527f4175746f54726561737572793a20696e73756666696369656e74207072696e636044820152631a5c185b60e21b6064820152608490fd5b503385526002825282818620541015610481565b8380fd5b5050346101105781600319360112610110576020906003549051908152f35b5050346101105781600319360112610110576020906007549051908152f35b90503461014a57606036600319011261014a5780359163ffffffff83168093036107a6576001600160a01b03916024358381169190829003610ac95760443593610830611055565b338752602091808352858589205410610a88578790338252808452858220610859888254610fe0565b905561086787600554610fe0565b60055582600154169280600854168751946392df829560e01b865281848701528760248701528960448701528460648701528486608481845afa958615610a7e57918a91889387986109c8575b508a5163095ea7b360e01b81526001600160a01b03909116868201908152602081019390935292918391908290889082906040015b03925af180156109be576109a1575b5060015416803b1561014a5784918360448951809781968295630c6b8b1b60e11b8452830152610936815180928160248601528c8686019101610fed565b601f01601f191681010301925af1801561099757610984575b5082519485528401528201527f205226a99e5bf7b3494fbd62b0ff42f9263b8f348fa4ee0a2824aecc2023124f60603392a280f35b61099090969196610db7565b943861094f565b84513d89823e3d90fd5b6109b790863d88116103df576103d08183610de1565b50386108f8565b88513d86823e3d90fd5b9495965096509150503d808c843e6109e08184610de1565b8201918681840312610a7a57805167ffffffffffffffff91828211610a7657019183601f84011215610a72578251918211610a5f57908c95949392918a5193610a328a601f19601f8601160186610de1565b8285528983850101116103a75783610a558d938b9586806108e999019101610fed565b97909192936108b4565b634e487b7160e01b8d526041865260248dfd5b8c80fd5b8d80fd5b8b80fd5b89513d87823e3d90fd5b606490838087519262461bcd60e51b845283015260248201527f4175746f54726561737572793a20696e73756666696369656e74207969656c646044820152fd5b8580fd5b5050346101105781600319360112610110576020906005549051908152f35b5050346101105760203660031901126101105760209181906001600160a01b03610b14610d54565b1681526002845220549051908152f35b839034610110576020366003190112610110576001600160a01b0390803582811691908290036107a657610b5c838554163314610f94565b6009549068010000000000000000821015610b975750806001610b829201600955610d6a565b909283549160031b92831b921b191617905580f35b634e487b7160e01b855260419052602484fd5b5050346101105781600319360112610110576020906009549051908152f35b839150346101105760208060031936011261014a578135918215610cf65793818495610bf3611055565b60085483516323b872dd60e01b81523392810192909252306024830152604482018690529095869160649183916001600160a01b03165af19384156105c1577fed23a82fe3387ce0bc3ec900dee36d8ca8c965f8dc65c02281a59f7e9e69728c9394610cd9575b5060075480610cbb5750610cae845b33875260028452828720610c7e878254610e03565b9055610c8c86600354610e03565b60035533875260068452828720610ca4828254610e03565b9055600754610e03565b600755519283523392a280f35b610cd4610ccb610cae9287610f61565b60035490610f74565b610c69565b610cef90833d85116103df576103d08183610de1565b5085610c5a565b60649185519162461bcd60e51b8352820152601960248201527f4175746f54726561737572793a207a65726f20616d6f756e74000000000000006044820152fd5b505034610110578160031936011261011057602090610238610e26565b600435906001600160a01b038216820361044a57565b600954811015610da15760096000527f6e1540171b6c0c960b71a7020d9f60077f6af931a8bbf590da0223dacf75c7af0190600090565b634e487b7160e01b600052603260045260246000fd5b67ffffffffffffffff8111610dcb57604052565b634e487b7160e01b600052604160045260246000fd5b90601f8019910116810190811067ffffffffffffffff821117610dcb57604052565b91908201809211610e1057565b634e487b7160e01b600052601160045260246000fd5b60018060a01b03806008541660408051926370a0823160e01b84528360049330600483015281602460209788935afa908115610f3d57600091610f10575b5093929190600093600954935b848610610e815750505050505090565b909192939495838383610e938a610d6a565b91905491895194859384926306a61f7560e51b845260031b1c165afa908115610f0557600091610ed7575b50610ecb90600192610e03565b96019493929190610e71565b908482813d8311610efe575b610eed8183610de1565b810103126101b85750516001610ebe565b503d610ee3565b86513d6000823e3d90fd5b90508481813d8311610f36575b610f278183610de1565b8101031261044a575138610e64565b503d610f1d565b6040513d6000823e3d90fd5b9081602091031261044a5751801515810361044a5790565b81810292918115918404141715610e1057565b8115610f7e570490565b634e487b7160e01b600052601260045260246000fd5b15610f9b57565b60405162461bcd60e51b815260206004820152601760248201527f4175746f54726561737572793a206e6f74206f776e65720000000000000000006044820152606490fd5b91908203918211610e1057565b60005b8381106110005750506000910152565b8181015183820152602001610ff0565b600754801561104857611021610e26565b90670de0b6b3a764000091828102928184041490151715610e105761104591610f74565b90565b50670de0b6b3a764000090565b6007541561118657600090815b6009548310156111025761107583610d6a565b905460409182519163e8d991d160e01b8352826004816000602095869560018060a01b039160031b1c165af19283156110f857506000926110c7575b50506110bf90600192610e03565b920191611062565b81819392933d83116110f1575b6110de8183610de1565b810103126101b8575051816110bf6110b1565b503d6110d4565b513d6000823e3d90fd5b9091508061110d5750565b60208161113d7feb2d114a827fe0da3db4c0e374010959cf461f7ed76987aeff51666dea9add9b93600554610e03565b600555336000526006825261116361115a60406000205483610f61565b60075490610f74565b336000526004835261117b6040600020918254610e03565b9055604051908152a1565b56fea2646970667358221220275d9e6437c6312f64140bdc7e69a424d23cd94ed76538d54b27425fb09ab4b564736f6c63430008180033","opcodes":"PUSH1 0x80 CALLVALUE PUSH2 0x92 JUMPI PUSH1 0x1F PUSH2 0x1280 CODESIZE DUP2 SWAP1 SUB SWAP2 DUP3 ADD PUSH1 0x1F NOT AND DUP4 ADD SWAP2 PUSH1 0x1 PUSH1 0x1 PUSH1 0x40 SHL SUB DUP4 GT DUP5 DUP5 LT OR PUSH2 0x97 JUMPI DUP1 DUP5 SWAP3 PUSH1 0x40 SWAP5 DUP6 MSTORE DUP4 CODECOPY DUP2 ADD SUB SLT PUSH2 0x92 JUMPI PUSH2 0x52 PUSH1 0x20 PUSH2 0x4B DUP4 PUSH2 0xAD JUMP JUMPDEST SWAP3 ADD PUSH2 0xAD JUMP JUMPDEST SWAP1 PUSH1 0x1 DUP1 PUSH1 0xA0 SHL SUB NOT SWAP2 CALLER DUP4 PUSH1 0x0 SLOAD AND OR PUSH1 0x0 SSTORE PUSH1 0x1 DUP1 PUSH1 0xA0 SHL SUB DUP1 SWAP3 AND DUP4 PUSH1 0x1 SLOAD AND OR PUSH1 0x1 SSTORE AND SWAP1 PUSH1 0x8 SLOAD AND OR PUSH1 0x8 SSTORE PUSH1 0x40 MLOAD PUSH2 0x11BE SWAP1 DUP2 PUSH2 0xC2 DUP3 CODECOPY RETURN JUMPDEST PUSH1 0x0 DUP1 REVERT JUMPDEST PUSH4 0x4E487B71 PUSH1 0xE0 SHL PUSH1 0x0 MSTORE PUSH1 0x41 PUSH1 0x4 MSTORE PUSH1 0x24 PUSH1 0x0 REVERT JUMPDEST MLOAD SWAP1 PUSH1 0x1 PUSH1 0x1 PUSH1 0xA0 SHL SUB DUP3 AND DUP3 SUB PUSH2 0x92 JUMPI JUMP INVALID PUSH1 0x40 PUSH1 0x80 DUP2 MSTORE PUSH1 0x4 SWAP1 DUP2 CALLDATASIZE LT ISZERO PUSH2 0x15 JUMPI PUSH1 0x0 DUP1 REVERT JUMPDEST PUSH1 0x0 SWAP2 DUP3 CALLDATALOAD PUSH1 0xE0 SHR SWAP1 DUP2 PUSH4 0x1E1D114 EQ PUSH2 0xD37 JUMPI DUP2 PUSH4 0x1B862027 EQ PUSH2 0xBC9 JUMPI DUP2 PUSH4 0x22068B44 EQ PUSH2 0xBAA JUMPI DUP2 PUSH4 0x223E5479 EQ PUSH2 0xB24 JUMPI DUP2 PUSH4 0x2CE0F9D6 EQ PUSH2 0xAEC JUMPI DUP2 PUSH4 0x2E017C07 EQ PUSH2 0xACD JUMPI DUP2 PUSH4 0x372B0261 EQ PUSH2 0x7E8 JUMPI DUP2 PUSH4 0x3A98EF39 EQ PUSH2 0x7C9 JUMPI DUP2 PUSH4 0x4B1533B2 EQ PUSH2 0x7AA JUMPI DUP2 PUSH4 0x658E28A4 EQ PUSH2 0x460 JUMPI DUP2 PUSH4 0x7D7C2A1C EQ PUSH2 0x23F JUMPI DUP2 PUSH4 0x87269729 EQ PUSH2 0x21B JUMPI DUP2 PUSH4 0x8DA5CB5B EQ PUSH2 0x1F3 JUMPI DUP2 PUSH4 0xCE7C2AC2 EQ PUSH2 0x1BB JUMPI DUP2 PUSH4 0xD574EA3D EQ PUSH2 0x177 JUMPI DUP2 PUSH4 0xE1D20600 EQ PUSH2 0x14E JUMPI DUP2 PUSH4 0xE4F24601 EQ PUSH2 0x114 JUMPI POP PUSH4 0xE58D777A EQ PUSH2 0xE9 JUMPI PUSH1 0x0 DUP1 REVERT JUMPDEST CALLVALUE PUSH2 0x110 JUMPI DUP2 PUSH1 0x3 NOT CALLDATASIZE ADD SLT PUSH2 0x110 JUMPI PUSH1 0x8 SLOAD SWAP1 MLOAD PUSH1 0x1 PUSH1 0x1 PUSH1 0xA0 SHL SUB SWAP1 SWAP2 AND DUP2 MSTORE PUSH1 0x20 SWAP1 RETURN JUMPDEST POP DUP1 REVERT JUMPDEST SWAP1 POP CALLVALUE PUSH2 0x14A JUMPI PUSH1 0x20 CALLDATASIZE PUSH1 0x3 NOT ADD SLT PUSH2 0x14A JUMPI PUSH1 0x20 SWAP3 DUP3 SWAP2 PUSH1 0x1 PUSH1 0x1 PUSH1 0xA0 SHL SUB PUSH2 0x13C PUSH2 0xD54 JUMP JUMPDEST AND DUP3 MSTORE DUP5 MSTORE KECCAK256 SLOAD SWAP1 MLOAD SWAP1 DUP2 MSTORE RETURN JUMPDEST DUP3 DUP1 REVERT JUMPDEST POP POP CALLVALUE PUSH2 0x110 JUMPI DUP2 PUSH1 0x3 NOT CALLDATASIZE ADD SLT PUSH2 0x110 JUMPI PUSH1 0x1 SLOAD SWAP1 MLOAD PUSH1 0x1 PUSH1 0x1 PUSH1 0xA0 SHL SUB SWAP1 SWAP2 AND DUP2 MSTORE PUSH1 0x20 SWAP1 RETURN JUMPDEST SWAP1 POP CALLVALUE PUSH2 0x14A JUMPI PUSH1 0x20 CALLDATASIZE PUSH1 0x3 NOT ADD SLT PUSH2 0x14A JUMPI CALLDATALOAD SWAP2 PUSH1 0x9 SLOAD DUP4 LT ISZERO PUSH2 0x1B8 JUMPI POP PUSH2 0x1A2 PUSH1 0x20 SWAP3 PUSH2 0xD6A JUMP JUMPDEST SWAP1 SLOAD SWAP2 MLOAD SWAP2 PUSH1 0x1 DUP1 PUSH1 0xA0 SHL SUB SWAP2 PUSH1 0x3 SHL SHR AND DUP2 MSTORE RETURN JUMPDEST DUP1 REVERT JUMPDEST POP POP CALLVALUE PUSH2 0x110 JUMPI PUSH1 0x20 CALLDATASIZE PUSH1 0x3 NOT ADD SLT PUSH2 0x110 JUMPI PUSH1 0x20 SWAP2 DUP2 SWAP1 PUSH1 0x1 PUSH1 0x1 PUSH1 0xA0 SHL SUB PUSH2 0x1E3 PUSH2 0xD54 JUMP JUMPDEST AND DUP2 MSTORE PUSH1 0x6 DUP5 MSTORE KECCAK256 SLOAD SWAP1 MLOAD SWAP1 DUP2 MSTORE RETURN JUMPDEST POP POP CALLVALUE PUSH2 0x110 JUMPI DUP2 PUSH1 0x3 NOT CALLDATASIZE ADD SLT PUSH2 0x110 JUMPI SWAP1 SLOAD SWAP1 MLOAD PUSH1 0x1 PUSH1 0x1 PUSH1 0xA0 SHL SUB SWAP1 SWAP2 AND DUP2 MSTORE PUSH1 0x20 SWAP1 RETURN JUMPDEST POP POP CALLVALUE PUSH2 0x110 JUMPI DUP2 PUSH1 0x3 NOT CALLDATASIZE ADD SLT PUSH2 0x110 JUMPI PUSH1 0x20 SWAP1 PUSH2 0x238 PUSH2 0x1010 JUMP JUMPDEST SWAP1 MLOAD SWAP1 DUP2 MSTORE RETURN JUMPDEST SWAP1 POP CALLVALUE PUSH2 0x14A JUMPI DUP3 PUSH1 0x3 NOT CALLDATASIZE ADD SLT PUSH2 0x14A JUMPI DUP3 SLOAD PUSH1 0x1 PUSH1 0x1 PUSH1 0xA0 SHL SUB SWAP3 SWAP1 PUSH2 0x26A SWAP1 DUP5 AND CALLER EQ PUSH2 0xF94 JUMP JUMPDEST PUSH1 0x8 SWAP3 DUP1 PUSH1 0x8 SLOAD AND DUP3 MLOAD SWAP2 PUSH4 0x70A08231 PUSH1 0xE0 SHL DUP4 MSTORE ADDRESS DUP6 DUP5 ADD MSTORE PUSH1 0x20 SWAP3 DUP4 DUP2 PUSH1 0x24 DUP2 DUP2 SWAP7 GAS STATICCALL SWAP1 DUP2 ISZERO PUSH2 0x456 JUMPI DUP9 SWAP2 PUSH2 0x424 JUMPI JUMPDEST POP PUSH1 0x5A DUP2 MUL SWAP1 DUP1 DUP3 DIV PUSH1 0x5A EQ SWAP1 ISZERO OR ISZERO PUSH2 0x411 JUMPI SWAP1 PUSH1 0x64 DUP9 SWAP5 SWAP4 SWAP3 DIV SWAP7 DUP8 ISZERO ISZERO DUP1 PUSH2 0x406 JUMPI JUMPDEST PUSH2 0x2CC JUMPI DUP5 DUP1 RETURN JUMPDEST PUSH2 0x2DB PUSH1 0x9 SWAP9 PUSH1 0x9 SLOAD SWAP1 PUSH2 0xF74 JUMP JUMPDEST SWAP4 DUP6 JUMPDEST DUP10 SLOAD DUP2 LT ISZERO PUSH2 0x3F0 JUMPI DUP8 DUP10 DUP4 DUP7 DUP1 DUP8 SLOAD AND DUP11 DUP13 PUSH2 0x337 PUSH2 0x2FD DUP10 PUSH2 0xD6A JUMP JUMPDEST SWAP2 SWAP1 SLOAD SWAP4 PUSH1 0x3 SWAP10 MLOAD SWAP9 DUP10 SWAP8 DUP9 SWAP7 DUP8 SWAP6 PUSH4 0xA9059CBB PUSH1 0xE0 SHL DUP8 MSTORE DUP14 SHL SHR AND SWAP1 DUP5 ADD PUSH1 0x20 SWAP1 SWAP4 SWAP3 SWAP2 SWAP4 PUSH1 0x40 DUP2 ADD SWAP5 PUSH1 0x1 DUP1 PUSH1 0xA0 SHL SUB AND DUP2 MSTORE ADD MSTORE JUMP JUMPDEST SUB SWAP3 GAS CALL DUP1 ISZERO PUSH2 0x3E6 JUMPI SWAP1 DUP7 SWAP3 SWAP2 PUSH2 0x3B9 JUMPI JUMPDEST POP PUSH2 0x354 DUP4 PUSH2 0xD6A JUMP JUMPDEST SWAP1 SLOAD SWAP2 SHL SHR AND DUP1 EXTCODESIZE ISZERO PUSH2 0x3B5 JUMPI DUP8 DUP8 DUP8 DUP13 DUP4 DUP14 MLOAD SWAP6 DUP7 SWAP5 DUP6 SWAP4 PUSH3 0x55F9E9 PUSH1 0xE7 SHL DUP6 MSTORE DUP5 ADD MSTORE GAS CALL DUP1 ISZERO PUSH2 0x3AB JUMPI SWAP1 DUP9 SWAP2 PUSH2 0x393 JUMPI JUMPDEST POP POP PUSH1 0x1 ADD PUSH2 0x2DE JUMP JUMPDEST PUSH2 0x39C SWAP1 PUSH2 0xDB7 JUMP JUMPDEST PUSH2 0x3A7 JUMPI DUP7 CODESIZE PUSH2 0x389 JUMP JUMPDEST DUP7 DUP1 REVERT JUMPDEST DUP10 MLOAD RETURNDATASIZE DUP11 DUP3 RETURNDATACOPY RETURNDATASIZE SWAP1 REVERT JUMPDEST DUP8 DUP1 REVERT JUMPDEST PUSH2 0x3D8 SWAP1 DUP6 RETURNDATASIZE DUP8 GT PUSH2 0x3DF JUMPI JUMPDEST PUSH2 0x3D0 DUP2 DUP4 PUSH2 0xDE1 JUMP JUMPDEST DUP2 ADD SWAP1 PUSH2 0xF49 JUMP JUMPDEST POP CODESIZE PUSH2 0x34A JUMP JUMPDEST POP RETURNDATASIZE PUSH2 0x3C6 JUMP JUMPDEST DUP11 MLOAD RETURNDATASIZE DUP12 DUP3 RETURNDATACOPY RETURNDATASIZE SWAP1 REVERT JUMPDEST POP POP POP POP POP POP POP POP POP POP CODESIZE DUP1 DUP1 DUP4 DUP2 DUP1 DUP1 DUP1 DUP5 DUP1 RETURN JUMPDEST POP PUSH1 0x9 SLOAD ISZERO ISZERO PUSH2 0x2C4 JUMP JUMPDEST PUSH4 0x4E487B71 PUSH1 0xE0 SHL DUP9 MSTORE PUSH1 0x11 DUP7 MSTORE PUSH1 0x24 DUP9 REVERT JUMPDEST SWAP1 POP DUP4 DUP2 DUP2 RETURNDATASIZE DUP4 GT PUSH2 0x44F JUMPI JUMPDEST PUSH2 0x43B DUP2 DUP4 PUSH2 0xDE1 JUMP JUMPDEST DUP2 ADD SUB SLT PUSH2 0x44A JUMPI MLOAD CODESIZE PUSH2 0x29E JUMP JUMPDEST PUSH1 0x0 DUP1 REVERT JUMPDEST POP RETURNDATASIZE PUSH2 0x431 JUMP JUMPDEST DUP6 MLOAD RETURNDATASIZE DUP11 DUP3 RETURNDATACOPY RETURNDATASIZE SWAP1 REVERT JUMPDEST SWAP2 SWAP1 POP CALLVALUE PUSH2 0x14A JUMPI PUSH1 0x20 DUP1 PUSH1 0x3 NOT CALLDATASIZE ADD SLT PUSH2 0x7A6 JUMPI DUP3 CALLDATALOAD SWAP2 DUP3 ISZERO ISZERO DUP1 PUSH2 0x792 JUMPI JUMPDEST ISZERO PUSH2 0x745 JUMPI PUSH2 0x48E PUSH2 0x1055 JUMP JUMPDEST PUSH2 0x49A PUSH1 0x7 SLOAD DUP5 PUSH2 0xF61 JUMP JUMPDEST SWAP4 PUSH2 0x4F2 PUSH2 0x4AD PUSH1 0x3 SWAP7 PUSH1 0x3 SLOAD SWAP1 PUSH2 0xF74 JUMP JUMPDEST CALLER DUP9 MSTORE PUSH1 0x2 DUP6 MSTORE DUP4 DUP9 KECCAK256 PUSH2 0x4C2 DUP8 DUP3 SLOAD PUSH2 0xFE0 JUMP JUMPDEST SWAP1 SSTORE PUSH2 0x4D0 DUP7 PUSH1 0x3 SLOAD PUSH2 0xFE0 JUMP JUMPDEST PUSH1 0x3 SSTORE CALLER DUP9 MSTORE PUSH1 0x6 DUP6 MSTORE DUP4 DUP9 KECCAK256 PUSH2 0x4E8 DUP3 DUP3 SLOAD PUSH2 0xFE0 JUMP JUMPDEST SWAP1 SSTORE PUSH1 0x7 SLOAD PUSH2 0xFE0 JUMP JUMPDEST PUSH1 0x7 SSTORE PUSH1 0x1 DUP1 PUSH1 0xA0 SHL SUB DUP1 PUSH1 0x8 SLOAD AND SWAP6 DUP4 MLOAD PUSH4 0x70A08231 PUSH1 0xE0 SHL DUP2 MSTORE ADDRESS DUP5 DUP3 ADD MSTORE DUP6 DUP2 PUSH1 0x24 DUP2 DUP2 SWAP12 GAS STATICCALL SWAP1 DUP2 ISZERO PUSH2 0x73B JUMPI DUP10 SWAP2 PUSH2 0x70E JUMPI JUMPDEST POP DUP7 DUP2 LT PUSH2 0x5CB JUMPI JUMPDEST POP POP PUSH1 0x8 SLOAD DUP4 MLOAD PUSH4 0xA9059CBB PUSH1 0xE0 SHL DUP2 MSTORE CALLER SWAP4 DUP2 ADD SWAP4 DUP5 MSTORE PUSH1 0x20 DUP5 ADD DUP8 SWAP1 MSTORE SWAP7 POP DUP5 SWAP3 DUP8 SWAP3 SWAP1 SWAP2 AND SWAP1 DUP3 SWAP1 DUP10 SWAP1 DUP3 SWAP1 PUSH1 0x40 ADD JUMPDEST SUB SWAP3 GAS CALL SWAP4 DUP5 ISZERO PUSH2 0x5C1 JUMPI PUSH32 0x7084F5476618D8E60B11EF0D7D3F06914655ADB8793E28FF7F018D4C76D505D5 SWAP4 SWAP5 PUSH2 0x5A4 JUMPI JUMPDEST POP MLOAD SWAP3 DUP4 MSTORE CALLER SWAP3 LOG2 DUP1 RETURN JUMPDEST PUSH2 0x5BA SWAP1 DUP4 RETURNDATASIZE DUP6 GT PUSH2 0x3DF JUMPI PUSH2 0x3D0 DUP2 DUP4 PUSH2 0xDE1 JUMP JUMPDEST POP CODESIZE PUSH2 0x599 JUMP JUMPDEST DUP2 MLOAD RETURNDATASIZE DUP8 DUP3 RETURNDATACOPY RETURNDATASIZE SWAP1 REVERT JUMPDEST PUSH2 0x5D5 SWAP1 DUP8 PUSH2 0xFE0 JUMP JUMPDEST SWAP1 DUP9 JUMPDEST PUSH1 0x9 SLOAD DUP2 LT ISZERO PUSH2 0x6FD JUMPI DUP5 DUP8 DUP6 PUSH2 0x5EE DUP5 PUSH2 0xD6A JUMP JUMPDEST SWAP1 SLOAD SWAP1 DUP7 SHL SHR AND DUP9 MLOAD SWAP3 DUP4 DUP1 SWAP3 PUSH4 0x6A61F75 PUSH1 0xE5 SHL DUP3 MSTORE GAS STATICCALL SWAP1 DUP2 ISZERO PUSH2 0x6F3 JUMPI DUP12 SWAP2 PUSH2 0x6C6 JUMPI JUMPDEST POP DUP1 DUP5 GT ISZERO PUSH2 0x6BF JUMPI JUMPDEST DUP1 PUSH2 0x62E JUMPI JUMPDEST POP PUSH1 0x1 ADD PUSH2 0x5D8 JUMP JUMPDEST DUP11 DUP6 PUSH2 0x63B DUP5 SWAP7 SWAP5 PUSH2 0xD6A JUMP JUMPDEST SWAP1 SLOAD SWAP1 DUP7 SHL SHR AND DUP1 EXTCODESIZE ISZERO PUSH2 0x110 JUMPI DUP2 DUP4 DUP14 DUP11 DUP4 DUP14 MLOAD SWAP6 DUP7 SWAP5 DUP6 SWAP4 PUSH4 0x8CA17995 PUSH1 0xE0 SHL DUP6 MSTORE DUP5 ADD MSTORE GAS CALL DUP1 ISZERO PUSH2 0x6B5 JUMPI PUSH2 0x69D JUMPI JUMPDEST POP POP PUSH2 0x67A SWAP2 PUSH2 0xFE0 JUMP JUMPDEST SWAP2 DUP3 ISZERO PUSH2 0x687 JUMPI CODESIZE PUSH2 0x625 JUMP JUMPDEST POP POP POP PUSH2 0x566 SWAP6 POP DUP4 SWAP2 DUP6 SWAP2 JUMPDEST SWAP2 DUP2 SWAP4 POP PUSH2 0x533 JUMP JUMPDEST PUSH2 0x6A6 SWAP1 PUSH2 0xDB7 JUMP JUMPDEST PUSH2 0x6B1 JUMPI DUP11 CODESIZE PUSH2 0x66F JUMP JUMPDEST DUP11 DUP1 REVERT JUMPDEST DUP10 MLOAD RETURNDATASIZE DUP5 DUP3 RETURNDATACOPY RETURNDATASIZE SWAP1 REVERT JUMPDEST POP DUP3 PUSH2 0x61F JUMP JUMPDEST SWAP1 POP DUP8 DUP2 DUP2 RETURNDATASIZE DUP4 GT PUSH2 0x6EC JUMPI JUMPDEST PUSH2 0x6DD DUP2 DUP4 PUSH2 0xDE1 JUMP JUMPDEST DUP2 ADD SUB SLT PUSH2 0x44A JUMPI MLOAD CODESIZE PUSH2 0x615 JUMP JUMPDEST POP RETURNDATASIZE PUSH2 0x6D3 JUMP JUMPDEST DUP8 MLOAD RETURNDATASIZE DUP14 DUP3 RETURNDATACOPY RETURNDATASIZE SWAP1 REVERT JUMPDEST POP POP POP PUSH2 0x566 SWAP6 POP DUP4 SWAP2 DUP6 SWAP2 PUSH2 0x694 JUMP JUMPDEST SWAP1 POP DUP6 DUP2 DUP2 RETURNDATASIZE DUP4 GT PUSH2 0x734 JUMPI JUMPDEST PUSH2 0x725 DUP2 DUP4 PUSH2 0xDE1 JUMP JUMPDEST DUP2 ADD SUB SLT PUSH2 0x44A JUMPI MLOAD CODESIZE PUSH2 0x52A JUMP JUMPDEST POP RETURNDATASIZE PUSH2 0x71B JUMP JUMPDEST DUP6 MLOAD RETURNDATASIZE DUP12 DUP3 RETURNDATACOPY RETURNDATASIZE SWAP1 REVERT JUMPDEST MLOAD PUSH3 0x461BCD PUSH1 0xE5 SHL DUP2 MSTORE SWAP3 DUP4 ADD MSTORE POP PUSH1 0x24 DUP1 DUP3 ADD MSTORE PUSH32 0x4175746F54726561737572793A20696E73756666696369656E74207072696E63 PUSH1 0x44 DUP3 ADD MSTORE PUSH4 0x1A5C185B PUSH1 0xE2 SHL PUSH1 0x64 DUP3 ADD MSTORE PUSH1 0x84 SWAP1 REVERT JUMPDEST POP CALLER DUP6 MSTORE PUSH1 0x2 DUP3 MSTORE DUP3 DUP2 DUP7 KECCAK256 SLOAD LT ISZERO PUSH2 0x481 JUMP JUMPDEST DUP4 DUP1 REVERT JUMPDEST POP POP CALLVALUE PUSH2 0x110 JUMPI DUP2 PUSH1 0x3 NOT CALLDATASIZE ADD SLT PUSH2 0x110 JUMPI PUSH1 0x20 SWAP1 PUSH1 0x3 SLOAD SWAP1 MLOAD SWAP1 DUP2 MSTORE RETURN JUMPDEST POP POP CALLVALUE PUSH2 0x110 JUMPI DUP2 PUSH1 0x3 NOT CALLDATASIZE ADD SLT PUSH2 0x110 JUMPI PUSH1 0x20 SWAP1 PUSH1 0x7 SLOAD SWAP1 MLOAD SWAP1 DUP2 MSTORE RETURN JUMPDEST SWAP1 POP CALLVALUE PUSH2 0x14A JUMPI PUSH1 0x60 CALLDATASIZE PUSH1 0x3 NOT ADD SLT PUSH2 0x14A JUMPI DUP1 CALLDATALOAD SWAP2 PUSH4 0xFFFFFFFF DUP4 AND DUP1 SWAP4 SUB PUSH2 0x7A6 JUMPI PUSH1 0x1 PUSH1 0x1 PUSH1 0xA0 SHL SUB SWAP2 PUSH1 0x24 CALLDATALOAD DUP4 DUP2 AND SWAP2 SWAP1 DUP3 SWAP1 SUB PUSH2 0xAC9 JUMPI PUSH1 0x44 CALLDATALOAD SWAP4 PUSH2 0x830 PUSH2 0x1055 JUMP JUMPDEST CALLER DUP8 MSTORE PUSH1 0x20 SWAP2 DUP1 DUP4 MSTORE DUP6 DUP6 DUP10 KECCAK256 SLOAD LT PUSH2 0xA88 JUMPI DUP8 SWAP1 CALLER DUP3 MSTORE DUP1 DUP5 MSTORE DUP6 DUP3 KECCAK256 PUSH2 0x859 DUP9 DUP3 SLOAD PUSH2 0xFE0 JUMP JUMPDEST SWAP1 SSTORE PUSH2 0x867 DUP8 PUSH1 0x5 SLOAD PUSH2 0xFE0 JUMP JUMPDEST PUSH1 0x5 SSTORE DUP3 PUSH1 0x1 SLOAD AND SWAP3 DUP1 PUSH1 0x8 SLOAD AND DUP8 MLOAD SWAP5 PUSH4 0x92DF8295 PUSH1 0xE0 SHL DUP7 MSTORE DUP2 DUP5 DUP8 ADD MSTORE DUP8 PUSH1 0x24 DUP8 ADD MSTORE DUP10 PUSH1 0x44 DUP8 ADD MSTORE DUP5 PUSH1 0x64 DUP8 ADD MSTORE DUP5 DUP7 PUSH1 0x84 DUP2 DUP5 GAS STATICCALL SWAP6 DUP7 ISZERO PUSH2 0xA7E JUMPI SWAP2 DUP11 SWAP2 DUP9 SWAP4 DUP8 SWAP9 PUSH2 0x9C8 JUMPI JUMPDEST POP DUP11 MLOAD PUSH4 0x95EA7B3 PUSH1 0xE0 SHL DUP2 MSTORE PUSH1 0x1 PUSH1 0x1 PUSH1 0xA0 SHL SUB SWAP1 SWAP2 AND DUP7 DUP3 ADD SWAP1 DUP2 MSTORE PUSH1 0x20 DUP2 ADD SWAP4 SWAP1 SWAP4 MSTORE SWAP3 SWAP2 DUP4 SWAP2 SWAP1 DUP3 SWAP1 DUP9 SWAP1 DUP3 SWAP1 PUSH1 0x40 ADD JUMPDEST SUB SWAP3 GAS CALL DUP1 ISZERO PUSH2 0x9BE JUMPI PUSH2 0x9A1 JUMPI JUMPDEST POP PUSH1 0x1 SLOAD AND DUP1 EXTCODESIZE ISZERO PUSH2 0x14A JUMPI DUP5 SWAP2 DUP4 PUSH1 0x44 DUP10 MLOAD DUP1 SWAP8 DUP2 SWAP7 DUP3 SWAP6 PUSH4 0xC6B8B1B PUSH1 0xE1 SHL DUP5 MSTORE DUP4 ADD MSTORE PUSH2 0x936 DUP2 MLOAD DUP1 SWAP3 DUP2 PUSH1 0x24 DUP7 ADD MSTORE DUP13 DUP7 DUP7 ADD SWAP2 ADD PUSH2 0xFED JUMP JUMPDEST PUSH1 0x1F ADD PUSH1 0x1F NOT AND DUP2 ADD SUB ADD SWAP3 GAS CALL DUP1 ISZERO PUSH2 0x997 JUMPI PUSH2 0x984 JUMPI JUMPDEST POP DUP3 MLOAD SWAP5 DUP6 MSTORE DUP5 ADD MSTORE DUP3 ADD MSTORE PUSH32 0x205226A99E5BF7B3494FBD62B0FF42F9263B8F348FA4EE0A2824AECC2023124F PUSH1 0x60 CALLER SWAP3 LOG2 DUP1 RETURN JUMPDEST PUSH2 0x990 SWAP1 SWAP7 SWAP2 SWAP7 PUSH2 0xDB7 JUMP JUMPDEST SWAP5 CODESIZE PUSH2 0x94F JUMP JUMPDEST DUP5 MLOAD RETURNDATASIZE DUP10 DUP3 RETURNDATACOPY RETURNDATASIZE SWAP1 REVERT JUMPDEST PUSH2 0x9B7 SWAP1 DUP7 RETURNDATASIZE DUP9 GT PUSH2 0x3DF JUMPI PUSH2 0x3D0 DUP2 DUP4 PUSH2 0xDE1 JUMP JUMPDEST POP CODESIZE PUSH2 0x8F8 JUMP JUMPDEST DUP9 MLOAD RETURNDATASIZE DUP7 DUP3 RETURNDATACOPY RETURNDATASIZE SWAP1 REVERT JUMPDEST SWAP5 SWAP6 SWAP7 POP SWAP7 POP SWAP2 POP POP RETURNDATASIZE DUP1 DUP13 DUP5 RETURNDATACOPY PUSH2 0x9E0 DUP2 DUP5 PUSH2 0xDE1 JUMP JUMPDEST DUP3 ADD SWAP2 DUP7 DUP2 DUP5 SUB SLT PUSH2 0xA7A JUMPI DUP1 MLOAD PUSH8 0xFFFFFFFFFFFFFFFF SWAP2 DUP3 DUP3 GT PUSH2 0xA76 JUMPI ADD SWAP2 DUP4 PUSH1 0x1F DUP5 ADD SLT ISZERO PUSH2 0xA72 JUMPI DUP3 MLOAD SWAP2 DUP3 GT PUSH2 0xA5F JUMPI SWAP1 DUP13 SWAP6 SWAP5 SWAP4 SWAP3 SWAP2 DUP11 MLOAD SWAP4 PUSH2 0xA32 DUP11 PUSH1 0x1F NOT PUSH1 0x1F DUP7 ADD AND ADD DUP7 PUSH2 0xDE1 JUMP JUMPDEST DUP3 DUP6 MSTORE DUP10 DUP4 DUP6 ADD ADD GT PUSH2 0x3A7 JUMPI DUP4 PUSH2 0xA55 DUP14 SWAP4 DUP12 SWAP6 DUP7 DUP1 PUSH2 0x8E9 SWAP10 ADD SWAP2 ADD PUSH2 0xFED JUMP JUMPDEST SWAP8 SWAP1 SWAP2 SWAP3 SWAP4 PUSH2 0x8B4 JUMP JUMPDEST PUSH4 0x4E487B71 PUSH1 0xE0 SHL DUP14 MSTORE PUSH1 0x41 DUP7 MSTORE PUSH1 0x24 DUP14 REVERT JUMPDEST DUP13 DUP1 REVERT JUMPDEST DUP14 DUP1 REVERT JUMPDEST DUP12 DUP1 REVERT JUMPDEST DUP10 MLOAD RETURNDATASIZE DUP8 DUP3 RETURNDATACOPY RETURNDATASIZE SWAP1 REVERT JUMPDEST PUSH1 0x64 SWAP1 DUP4 DUP1 DUP8 MLOAD SWAP3 PUSH3 0x461BCD PUSH1 0xE5 SHL DUP5 MSTORE DUP4 ADD MSTORE PUSH1 0x24 DUP3 ADD MSTORE PUSH32 0x4175746F54726561737572793A20696E73756666696369656E74207969656C64 PUSH1 0x44 DUP3 ADD MSTORE REVERT JUMPDEST DUP6 DUP1 REVERT JUMPDEST POP POP CALLVALUE PUSH2 0x110 JUMPI DUP2 PUSH1 0x3 NOT CALLDATASIZE ADD SLT PUSH2 0x110 JUMPI PUSH1 0x20 SWAP1 PUSH1 0x5 SLOAD SWAP1 MLOAD SWAP1 DUP2 MSTORE RETURN JUMPDEST POP POP CALLVALUE PUSH2 0x110 JUMPI PUSH1 0x20 CALLDATASIZE PUSH1 0x3 NOT ADD SLT PUSH2 0x110 JUMPI PUSH1 0x20 SWAP2 DUP2 SWAP1 PUSH1 0x1 PUSH1 0x1 PUSH1 0xA0 SHL SUB PUSH2 0xB14 PUSH2 0xD54 JUMP JUMPDEST AND DUP2 MSTORE PUSH1 0x2 DUP5 MSTORE KECCAK256 SLOAD SWAP1 MLOAD SWAP1 DUP2 MSTORE RETURN JUMPDEST DUP4 SWAP1 CALLVALUE PUSH2 0x110 JUMPI PUSH1 0x20 CALLDATASIZE PUSH1 0x3 NOT ADD SLT PUSH2 0x110 JUMPI PUSH1 0x1 PUSH1 0x1 PUSH1 0xA0 SHL SUB SWAP1 DUP1 CALLDATALOAD DUP3 DUP2 AND SWAP2 SWAP1 DUP3 SWAP1 SUB PUSH2 0x7A6 JUMPI PUSH2 0xB5C DUP4 DUP6 SLOAD AND CALLER EQ PUSH2 0xF94 JUMP JUMPDEST PUSH1 0x9 SLOAD SWAP1 PUSH9 0x10000000000000000 DUP3 LT ISZERO PUSH2 0xB97 JUMPI POP DUP1 PUSH1 0x1 PUSH2 0xB82 SWAP3 ADD PUSH1 0x9 SSTORE PUSH2 0xD6A JUMP JUMPDEST SWAP1 SWAP3 DUP4 SLOAD SWAP2 PUSH1 0x3 SHL SWAP3 DUP4 SHL SWAP3 SHL NOT AND OR SWAP1 SSTORE DUP1 RETURN JUMPDEST PUSH4 0x4E487B71 PUSH1 0xE0 SHL DUP6 MSTORE PUSH1 0x41 SWAP1 MSTORE PUSH1 0x24 DUP5 REVERT JUMPDEST POP POP CALLVALUE PUSH2 0x110 JUMPI DUP2 PUSH1 0x3 NOT CALLDATASIZE ADD SLT PUSH2 0x110 JUMPI PUSH1 0x20 SWAP1 PUSH1 0x9 SLOAD SWAP1 MLOAD SWAP1 DUP2 MSTORE RETURN JUMPDEST DUP4 SWAP2 POP CALLVALUE PUSH2 0x110 JUMPI PUSH1 0x20 DUP1 PUSH1 0x3 NOT CALLDATASIZE ADD SLT PUSH2 0x14A JUMPI DUP2 CALLDATALOAD SWAP2 DUP3 ISZERO PUSH2 0xCF6 JUMPI SWAP4 DUP2 DUP5 SWAP6 PUSH2 0xBF3 PUSH2 0x1055 JUMP JUMPDEST PUSH1 0x8 SLOAD DUP4 MLOAD PUSH4 0x23B872DD PUSH1 0xE0 SHL DUP2 MSTORE CALLER SWAP3 DUP2 ADD SWAP3 SWAP1 SWAP3 MSTORE ADDRESS PUSH1 0x24 DUP4 ADD MSTORE PUSH1 0x44 DUP3 ADD DUP7 SWAP1 MSTORE SWAP1 SWAP6 DUP7 SWAP2 PUSH1 0x64 SWAP2 DUP4 SWAP2 PUSH1 0x1 PUSH1 0x1 PUSH1 0xA0 SHL SUB AND GAS CALL SWAP4 DUP5 ISZERO PUSH2 0x5C1 JUMPI PUSH32 0xED23A82FE3387CE0BC3EC900DEE36D8CA8C965F8DC65C02281A59F7E9E69728C SWAP4 SWAP5 PUSH2 0xCD9 JUMPI JUMPDEST POP PUSH1 0x7 SLOAD DUP1 PUSH2 0xCBB JUMPI POP PUSH2 0xCAE DUP5 JUMPDEST CALLER DUP8 MSTORE PUSH1 0x2 DUP5 MSTORE DUP3 DUP8 KECCAK256 PUSH2 0xC7E DUP8 DUP3 SLOAD PUSH2 0xE03 JUMP JUMPDEST SWAP1 SSTORE PUSH2 0xC8C DUP7 PUSH1 0x3 SLOAD PUSH2 0xE03 JUMP JUMPDEST PUSH1 0x3 SSTORE CALLER DUP8 MSTORE PUSH1 0x6 DUP5 MSTORE DUP3 DUP8 KECCAK256 PUSH2 0xCA4 DUP3 DUP3 SLOAD PUSH2 0xE03 JUMP JUMPDEST SWAP1 SSTORE PUSH1 0x7 SLOAD PUSH2 0xE03 JUMP JUMPDEST PUSH1 0x7 SSTORE MLOAD SWAP3 DUP4 MSTORE CALLER SWAP3 LOG2 DUP1 RETURN JUMPDEST PUSH2 0xCD4 PUSH2 0xCCB PUSH2 0xCAE SWAP3 DUP8 PUSH2 0xF61 JUMP JUMPDEST PUSH1 0x3 SLOAD SWAP1 PUSH2 0xF74 JUMP JUMPDEST PUSH2 0xC69 JUMP JUMPDEST PUSH2 0xCEF SWAP1 DUP4 RETURNDATASIZE DUP6 GT PUSH2 0x3DF JUMPI PUSH2 0x3D0 DUP2 DUP4 PUSH2 0xDE1 JUMP JUMPDEST POP DUP6 PUSH2 0xC5A JUMP JUMPDEST PUSH1 0x64 SWAP2 DUP6 MLOAD SWAP2 PUSH3 0x461BCD PUSH1 0xE5 SHL DUP4 MSTORE DUP3 ADD MSTORE PUSH1 0x19 PUSH1 0x24 DUP3 ADD MSTORE PUSH32 0x4175746F54726561737572793A207A65726F20616D6F756E7400000000000000 PUSH1 0x44 DUP3 ADD MSTORE REVERT JUMPDEST POP POP CALLVALUE PUSH2 0x110 JUMPI DUP2 PUSH1 0x3 NOT CALLDATASIZE ADD SLT PUSH2 0x110 JUMPI PUSH1 0x20 SWAP1 PUSH2 0x238 PUSH2 0xE26 JUMP JUMPDEST PUSH1 0x4 CALLDATALOAD SWAP1 PUSH1 0x1 PUSH1 0x1 PUSH1 0xA0 SHL SUB DUP3 AND DUP3 SUB PUSH2 0x44A JUMPI JUMP JUMPDEST PUSH1 0x9 SLOAD DUP2 LT ISZERO PUSH2 0xDA1 JUMPI PUSH1 0x9 PUSH1 0x0 MSTORE PUSH32 0x6E1540171B6C0C960B71A7020D9F60077F6AF931A8BBF590DA0223DACF75C7AF ADD SWAP1 PUSH1 0x0 SWAP1 JUMP JUMPDEST PUSH4 0x4E487B71 PUSH1 0xE0 SHL PUSH1 0x0 MSTORE PUSH1 0x32 PUSH1 0x4 MSTORE PUSH1 0x24 PUSH1 0x0 REVERT JUMPDEST PUSH8 0xFFFFFFFFFFFFFFFF DUP2 GT PUSH2 0xDCB JUMPI PUSH1 0x40 MSTORE JUMP JUMPDEST PUSH4 0x4E487B71 PUSH1 0xE0 SHL PUSH1 0x0 MSTORE PUSH1 0x41 PUSH1 0x4 MSTORE PUSH1 0x24 PUSH1 0x0 REVERT JUMPDEST SWAP1 PUSH1 0x1F DUP1 NOT SWAP2 ADD AND DUP2 ADD SWAP1 DUP2 LT PUSH8 0xFFFFFFFFFFFFFFFF DUP3 GT OR PUSH2 0xDCB JUMPI PUSH1 0x40 MSTORE JUMP JUMPDEST SWAP2 SWAP1 DUP3 ADD DUP1 SWAP3 GT PUSH2 0xE10 JUMPI JUMP JUMPDEST PUSH4 0x4E487B71 PUSH1 0xE0 SHL PUSH1 0x0 MSTORE PUSH1 0x11 PUSH1 0x4 MSTORE PUSH1 0x24 PUSH1 0x0 REVERT JUMPDEST PUSH1 0x1 DUP1 PUSH1 0xA0 SHL SUB DUP1 PUSH1 0x8 SLOAD AND PUSH1 0x40 DUP1 MLOAD SWAP3 PUSH4 0x70A08231 PUSH1 0xE0 SHL DUP5 MSTORE DUP4 PUSH1 0x4 SWAP4 ADDRESS PUSH1 0x4 DUP4 ADD MSTORE DUP2 PUSH1 0x24 PUSH1 0x20 SWAP8 DUP9 SWAP4 GAS STATICCALL SWAP1 DUP2 ISZERO PUSH2 0xF3D JUMPI PUSH1 0x0 SWAP2 PUSH2 0xF10 JUMPI JUMPDEST POP SWAP4 SWAP3 SWAP2 SWAP1 PUSH1 0x0 SWAP4 PUSH1 0x9 SLOAD SWAP4 JUMPDEST DUP5 DUP7 LT PUSH2 0xE81 JUMPI POP POP POP POP POP POP SWAP1 JUMP JUMPDEST SWAP1 SWAP2 SWAP3 SWAP4 SWAP5 SWAP6 DUP4 DUP4 DUP4 PUSH2 0xE93 DUP11 PUSH2 0xD6A JUMP JUMPDEST SWAP2 SWAP1 SLOAD SWAP2 DUP10 MLOAD SWAP5 DUP6 SWAP4 DUP5 SWAP3 PUSH4 0x6A61F75 PUSH1 0xE5 SHL DUP5 MSTORE PUSH1 0x3 SHL SHR AND GAS STATICCALL SWAP1 DUP2 ISZERO PUSH2 0xF05 JUMPI PUSH1 0x0 SWAP2 PUSH2 0xED7 JUMPI JUMPDEST POP PUSH2 0xECB SWAP1 PUSH1 0x1 SWAP3 PUSH2 0xE03 JUMP JUMPDEST SWAP7 ADD SWAP5 SWAP4 SWAP3 SWAP2 SWAP1 PUSH2 0xE71 JUMP JUMPDEST SWAP1 DUP5 DUP3 DUP2 RETURNDATASIZE DUP4 GT PUSH2 0xEFE JUMPI JUMPDEST PUSH2 0xEED DUP2 DUP4 PUSH2 0xDE1 JUMP JUMPDEST DUP2 ADD SUB SLT PUSH2 0x1B8 JUMPI POP MLOAD PUSH1 0x1 PUSH2 0xEBE JUMP JUMPDEST POP RETURNDATASIZE PUSH2 0xEE3 JUMP JUMPDEST DUP7 MLOAD RETURNDATASIZE PUSH1 0x0 DUP3 RETURNDATACOPY RETURNDATASIZE SWAP1 REVERT JUMPDEST SWAP1 POP DUP5 DUP2 DUP2 RETURNDATASIZE DUP4 GT PUSH2 0xF36 JUMPI JUMPDEST PUSH2 0xF27 DUP2 DUP4 PUSH2 0xDE1 JUMP JUMPDEST DUP2 ADD SUB SLT PUSH2 0x44A JUMPI MLOAD CODESIZE PUSH2 0xE64 JUMP JUMPDEST POP RETURNDATASIZE PUSH2 0xF1D JUMP JUMPDEST PUSH1 0x40 MLOAD RETURNDATASIZE PUSH1 0x0 DUP3 RETURNDATACOPY RETURNDATASIZE SWAP1 REVERT JUMPDEST SWAP1 DUP2 PUSH1 0x20 SWAP2 SUB SLT PUSH2 0x44A JUMPI MLOAD DUP1 ISZERO ISZERO DUP2 SUB PUSH2 0x44A JUMPI SWAP1 JUMP JUMPDEST DUP2 DUP2 MUL SWAP3 SWAP2 DUP2 ISZERO SWAP2 DUP5 DIV EQ OR ISZERO PUSH2 0xE10 JUMPI JUMP JUMPDEST DUP2 ISZERO PUSH2 0xF7E JUMPI DIV SWAP1 JUMP JUMPDEST PUSH4 0x4E487B71 PUSH1 0xE0 SHL PUSH1 0x0 MSTORE PUSH1 0x12 PUSH1 0x4 MSTORE PUSH1 0x24 PUSH1 0x0 REVERT JUMPDEST ISZERO PUSH2 0xF9B JUMPI JUMP JUMPDEST PUSH1 0x40 MLOAD PUSH3 0x461BCD PUSH1 0xE5 SHL DUP2 MSTORE PUSH1 0x20 PUSH1 0x4 DUP3 ADD MSTORE PUSH1 0x17 PUSH1 0x24 DUP3 ADD MSTORE PUSH32 0x4175746F54726561737572793A206E6F74206F776E6572000000000000000000 PUSH1 0x44 DUP3 ADD MSTORE PUSH1 0x64 SWAP1 REVERT JUMPDEST SWAP2 SWAP1 DUP3 SUB SWAP2 DUP3 GT PUSH2 0xE10 JUMPI JUMP JUMPDEST PUSH1 0x0 JUMPDEST DUP4 DUP2 LT PUSH2 0x1000 JUMPI POP POP PUSH1 0x0 SWAP2 ADD MSTORE JUMP JUMPDEST DUP2 DUP2 ADD MLOAD DUP4 DUP3 ADD MSTORE PUSH1 0x20 ADD PUSH2 0xFF0 JUMP JUMPDEST PUSH1 0x7 SLOAD DUP1 ISZERO PUSH2 0x1048 JUMPI PUSH2 0x1021 PUSH2 0xE26 JUMP JUMPDEST SWAP1 PUSH8 0xDE0B6B3A7640000 SWAP2 DUP3 DUP2 MUL SWAP3 DUP2 DUP5 DIV EQ SWAP1 ISZERO OR ISZERO PUSH2 0xE10 JUMPI PUSH2 0x1045 SWAP2 PUSH2 0xF74 JUMP JUMPDEST SWAP1 JUMP JUMPDEST POP PUSH8 0xDE0B6B3A7640000 SWAP1 JUMP JUMPDEST PUSH1 0x7 SLOAD ISZERO PUSH2 0x1186 JUMPI PUSH1 0x0 SWAP1 DUP2 JUMPDEST PUSH1 0x9 SLOAD DUP4 LT ISZERO PUSH2 0x1102 JUMPI PUSH2 0x1075 DUP4 PUSH2 0xD6A JUMP JUMPDEST SWAP1 SLOAD PUSH1 0x40 SWAP2 DUP3 MLOAD SWAP2 PUSH4 0xE8D991D1 PUSH1 0xE0 SHL DUP4 MSTORE DUP3 PUSH1 0x4 DUP2 PUSH1 0x0 PUSH1 0x20 SWAP6 DUP7 SWAP6 PUSH1 0x1 DUP1 PUSH1 0xA0 SHL SUB SWAP2 PUSH1 0x3 SHL SHR AND GAS CALL SWAP3 DUP4 ISZERO PUSH2 0x10F8 JUMPI POP PUSH1 0x0 SWAP3 PUSH2 0x10C7 JUMPI JUMPDEST POP POP PUSH2 0x10BF SWAP1 PUSH1 0x1 SWAP3 PUSH2 0xE03 JUMP JUMPDEST SWAP3 ADD SWAP2 PUSH2 0x1062 JUMP JUMPDEST DUP2 DUP2 SWAP4 SWAP3 SWAP4 RETURNDATASIZE DUP4 GT PUSH2 0x10F1 JUMPI JUMPDEST PUSH2 0x10DE DUP2 DUP4 PUSH2 0xDE1 JUMP JUMPDEST DUP2 ADD SUB SLT PUSH2 0x1B8 JUMPI POP MLOAD DUP2 PUSH2 0x10BF PUSH2 0x10B1 JUMP JUMPDEST POP RETURNDATASIZE PUSH2 0x10D4 JUMP JUMPDEST MLOAD RETURNDATASIZE PUSH1 0x0 DUP3 RETURNDATACOPY RETURNDATASIZE SWAP1 REVERT JUMPDEST SWAP1 SWAP2 POP DUP1 PUSH2 0x110D JUMPI POP JUMP JUMPDEST PUSH1 0x20 DUP2 PUSH2 0x113D PUSH32 0xEB2D114A827FE0DA3DB4C0E374010959CF461F7ED76987AEFF51666DEA9ADD9B SWAP4 PUSH1 0x5 SLOAD PUSH2 0xE03 JUMP JUMPDEST PUSH1 0x5 SSTORE CALLER PUSH1 0x0 MSTORE PUSH1 0x6 DUP3 MSTORE PUSH2 0x1163 PUSH2 0x115A PUSH1 0x40 PUSH1 0x0 KECCAK256 SLOAD DUP4 PUSH2 0xF61 JUMP JUMPDEST PUSH1 0x7 SLOAD SWAP1 PUSH2 0xF74 JUMP JUMPDEST CALLER PUSH1 0x0 MSTORE PUSH1 0x4 DUP4 MSTORE PUSH2 0x117B PUSH1 0x40 PUSH1 0x0 KECCAK256 SWAP2 DUP3 SLOAD PUSH2 0xE03 JUMP JUMPDEST SWAP1 SSTORE PUSH1 0x40 MLOAD SWAP1 DUP2 MSTORE LOG1 JUMP JUMPDEST JUMP INVALID LOG2 PUSH5 0x6970667358 0x22 SLT KECCAK256 0x27 TSTORE SWAP15 PUSH5 0x37C6312F64 EQ SIGNEXTEND 0xDC PUSH31 0x69A424D23CD94ED76538D54B27425FB09AB4B564736F6C6343000818003300 "},"methodIdentifiers":{"addStrategy(address)":"223e5479","owner()":"8da5cb5b","payWithYield(uint32,address,uint256)":"372b0261","primaryAsset()":"e58d777a","principal(address)":"2ce0f9d6","rebalance()":"7d7c2a1c","save(uint256)":"1b862027","sharePrice()":"87269729","shares(address)":"ce7c2ac2","spendableYield(address)":"e4f24601","strategies(uint256)":"d574ea3d","strategyCount()":"22068b44","totalAssets()":"01e1d114","totalPrincipal()":"4b1533b2","totalShares()":"3a98ef39","totalSpendableYield()":"2e017c07","withdrawPrincipal(uint256)":"658e28a4","xcmRouter()":"e1d20600"}}}}}