{"src/AutoTreasury.sol":{"AutoTreasury":{"abi":[{"inputs":[{"internalType":"address","name":"_xcmRouter","type":"address"}],"stateMutability":"nonpayable","type":"constructor"},{"anonymous":false,"inputs":[{"indexed":true,"internalType":"address","name":"asset","type":"address"}],"name":"AssetAdded","type":"event"},{"anonymous":false,"inputs":[{"indexed":true,"internalType":"address","name":"user","type":"address"},{"indexed":true,"internalType":"address","name":"asset","type":"address"},{"indexed":false,"internalType":"uint256","name":"amount","type":"uint256"},{"indexed":false,"internalType":"uint256","name":"sharesMinted","type":"uint256"}],"name":"Deposited","type":"event"},{"anonymous":false,"inputs":[{"indexed":false,"internalType":"uint256","name":"timestamp","type":"uint256"}],"name":"Rebalanced","type":"event"},{"anonymous":false,"inputs":[{"indexed":true,"internalType":"address","name":"strategy","type":"address"}],"name":"StrategyAdded","type":"event"},{"anonymous":false,"inputs":[{"indexed":true,"internalType":"address","name":"strategy","type":"address"}],"name":"StrategyRemoved","type":"event"},{"anonymous":false,"inputs":[{"indexed":true,"internalType":"address","name":"user","type":"address"},{"indexed":false,"internalType":"uint256","name":"sharesBurned","type":"uint256"},{"indexed":false,"internalType":"uint256","name":"amountReturned","type":"uint256"}],"name":"Withdrawn","type":"event"},{"anonymous":false,"inputs":[{"indexed":true,"internalType":"address","name":"asset","type":"address"},{"indexed":false,"internalType":"uint256","name":"amount","type":"uint256"},{"indexed":false,"internalType":"bytes","name":"xcmPayload","type":"bytes"}],"name":"XCMTransferTriggered","type":"event"},{"anonymous":false,"inputs":[{"indexed":true,"internalType":"address","name":"user","type":"address"},{"indexed":false,"internalType":"uint256","name":"amount","type":"uint256"}],"name":"YieldClaimed","type":"event"},{"inputs":[{"internalType":"address","name":"asset","type":"address"}],"name":"addAsset","outputs":[],"stateMutability":"nonpayable","type":"function"},{"inputs":[{"internalType":"contract YieldStrategy","name":"strategy","type":"address"}],"name":"addStrategy","outputs":[],"stateMutability":"nonpayable","type":"function"},{"inputs":[],"name":"assetCount","outputs":[{"internalType":"uint256","name":"","type":"uint256"}],"stateMutability":"view","type":"function"},{"inputs":[{"internalType":"uint256","name":"","type":"uint256"}],"name":"assetList","outputs":[{"internalType":"address","name":"","type":"address"}],"stateMutability":"view","type":"function"},{"inputs":[],"name":"claimYield","outputs":[],"stateMutability":"nonpayable","type":"function"},{"inputs":[],"name":"collectFees","outputs":[],"stateMutability":"nonpayable","type":"function"},{"inputs":[{"internalType":"address","name":"asset","type":"address"},{"internalType":"uint256","name":"amount","type":"uint256"}],"name":"deposit","outputs":[],"stateMutability":"nonpayable","type":"function"},{"inputs":[{"internalType":"address","name":"asset","type":"address"},{"internalType":"uint256","name":"amount","type":"uint256"}],"name":"emergencyWithdraw","outputs":[],"stateMutability":"nonpayable","type":"function"},{"inputs":[],"name":"owner","outputs":[{"internalType":"address","name":"","type":"address"}],"stateMutability":"view","type":"function"},{"inputs":[],"name":"paused","outputs":[{"internalType":"bool","name":"","type":"bool"}],"stateMutability":"view","type":"function"},{"inputs":[{"internalType":"address","name":"user","type":"address"}],"name":"pendingYield","outputs":[{"internalType":"uint256","name":"","type":"uint256"}],"stateMutability":"view","type":"function"},{"inputs":[],"name":"protocolFeeBps","outputs":[{"internalType":"uint256","name":"","type":"uint256"}],"stateMutability":"view","type":"function"},{"inputs":[],"name":"rebalance","outputs":[],"stateMutability":"nonpayable","type":"function"},{"inputs":[{"internalType":"contract YieldStrategy","name":"strategy","type":"address"}],"name":"removeStrategy","outputs":[],"stateMutability":"nonpayable","type":"function"},{"inputs":[{"internalType":"bool","name":"_paused","type":"bool"}],"name":"setPaused","outputs":[],"stateMutability":"nonpayable","type":"function"},{"inputs":[],"name":"sharePrice","outputs":[{"internalType":"uint256","name":"","type":"uint256"}],"stateMutability":"view","type":"function"},{"inputs":[{"internalType":"address","name":"","type":"address"}],"name":"shares","outputs":[{"internalType":"uint256","name":"","type":"uint256"}],"stateMutability":"view","type":"function"},{"inputs":[{"internalType":"uint256","name":"","type":"uint256"}],"name":"strategies","outputs":[{"internalType":"contract YieldStrategy","name":"","type":"address"}],"stateMutability":"view","type":"function"},{"inputs":[],"name":"strategyCount","outputs":[{"internalType":"uint256","name":"","type":"uint256"}],"stateMutability":"view","type":"function"},{"inputs":[{"internalType":"address","name":"","type":"address"}],"name":"strategyIndex","outputs":[{"internalType":"uint256","name":"","type":"uint256"}],"stateMutability":"view","type":"function"},{"inputs":[{"internalType":"address","name":"","type":"address"}],"name":"supportedAssets","outputs":[{"internalType":"bool","name":"","type":"bool"}],"stateMutability":"view","type":"function"},{"inputs":[],"name":"totalAssets","outputs":[{"internalType":"uint256","name":"","type":"uint256"}],"stateMutability":"view","type":"function"},{"inputs":[{"internalType":"address","name":"","type":"address"}],"name":"totalDeposited","outputs":[{"internalType":"uint256","name":"","type":"uint256"}],"stateMutability":"view","type":"function"},{"inputs":[],"name":"totalFeesAccrued","outputs":[{"internalType":"uint256","name":"","type":"uint256"}],"stateMutability":"view","type":"function"},{"inputs":[],"name":"totalShares","outputs":[{"internalType":"uint256","name":"","type":"uint256"}],"stateMutability":"view","type":"function"},{"inputs":[],"name":"totalYieldAccrued","outputs":[{"internalType":"uint256","name":"","type":"uint256"}],"stateMutability":"view","type":"function"},{"inputs":[{"internalType":"address","name":"asset","type":"address"},{"internalType":"uint256","name":"amount","type":"uint256"}],"name":"triggerXCMTransfer","outputs":[],"stateMutability":"nonpayable","type":"function"},{"inputs":[{"internalType":"uint256","name":"shareAmount","type":"uint256"}],"name":"withdraw","outputs":[],"stateMutability":"nonpayable","type":"function"},{"inputs":[],"name":"xcmRouter","outputs":[{"internalType":"contract XCMRouter","name":"","type":"address"}],"stateMutability":"view","type":"function"},{"inputs":[{"internalType":"address","name":"","type":"address"}],"name":"yieldClaimed","outputs":[{"internalType":"uint256","name":"","type":"uint256"}],"stateMutability":"view","type":"function"}],"evm":{"bytecode":{"linkReferences":{},"object":"60803461007f57601f611d0138819003918201601f19168301916001600160401b038311848410176100845780849260209460405283398101031261007f57516001600160a01b0381169081900361007f5760c8600c5560018060a01b0319338160005416176000556001541617600155604051611c66908161009b8239f35b600080fd5b634e487b7160e01b600052604160045260246000fdfe6040608081526004908136101561001557600080fd5b600091823560e01c90816301e1d11414611738578163114515261461170057816316c38b3c146116bd578163175188e81461150957816322068b44146114ea578163223e5479146113f0578163298410e5146112d35781632e1a7d4d14610f2857816335659fb814610f095781633a98ef3914610eea578163406cf22914610c6e57816345bba69714610c3657816347e7ef2414610aa35781635305548114610a6b5781635c975abb14610a4757816373f38ee014610a285781637d7c2a1c14610787578163872697291461076a5781638da5cb5b1461074257816391731c661461043857816395ccea67146103b3578163a0b4b30114610388578163bd81579e1461034b578163c7bf19801461031e578163c879657214610254578163ce7c2ac21461021c578163d574ea3d146101d457508063e1d20600146101ac578063eafe7a741461018e5763ee6c3bf21461016d57600080fd5b3461018a578160031936011261018a576020906009549051908152f35b5080fd5b503461018a578160031936011261018a576020906005549051908152f35b503461018a578160031936011261018a5760015490516001600160a01b039091168152602090f35b90503461021857602036600319011261021857359160075483101561021557506101ff602092611770565b905491519160018060a01b039160031b1c168152f35b80fd5b8280fd5b50503461018a57602036600319011261018a5760209181906001600160a01b03610244611755565b1681526002845220549051908152f35b9190503461021857826003193601126102185782546102d0926020916001600160a01b03919082166102873382146119eb565b86600d549381600d556102986117f4565b9054885163a9059cbb60e01b81526001600160a01b039095169585019586526020860196909652929788959394869491859160400190565b039460031b1c165af190811561031557506102e9575080f35b61030a9060203d60201161030e575b6103028183611852565b810190611aba565b5080f35b503d6102f8565b513d84823e3d90fd5b50503461018a57602036600319011261018a5760209061034461033f611755565b611bab565b9051908152f35b9050346102185760203660031901126102185760209260ff918391906001600160a01b03610377611755565b168252855220541690519015158152f35b90503461021857602036600319011261021857359160055483101561021557506101ff6020926117bd565b919050346102185780600319360112610218576020610423926103d4611755565b85546001600160a01b039081169087906103ef3384146119eb565b865163a9059cbb60e01b81526001600160a01b03909316948301948552602435602086015291968794859391849160400190565b0393165af190811561031557506102e9575080f35b905034610218578160031936011261021857610452611755565b9060243560018060a01b0361046b8187541633146119eb565b610476821515611ad2565b84516370a0823160e01b8152308482015284821694602094909185816024818a5afa80156107385785918a91610707575b50106106b957600154875163095ea7b360e01b81529084166001600160a01b031682820190815260208101869052899291908790829081906040010381868c5af180156106af576105359584928892610692575b506001548b51632be9e38d60e11b81526001600160a01b039097168588019081526020810193909352959695169486918291604090910190565b0381865afa9384156106885782946105e0575b50823b1561018a578751630c6b8b1b60e11b81529081018690529182908183816105756024820189611b86565b03925af180156105d657956105c192917fb7601b2b4ca3afa837769c4aeed7ebeaac7a39144481681131486c7e5d2ee6cd96976105c7575b508080519586958652850152830190611b86565b0390a280f35b6105d090611828565b386105ad565b86513d89823e3d90fd5b915092503d8089833e6105f38183611852565b810190858183031261068457805167ffffffffffffffff9182821161068057019082601f8301121561067c578151908111610669579089929189519261064289601f19601f8501160185611852565b8184528882840101116106655761065e91888085019101611b63565b9238610548565b8380fd5b634e487b7160e01b8a526041855260248afd5b8980fd5b8a80fd5b8880fd5b88513d84823e3d90fd5b6106a8908a3d8c1161030e576103028183611852565b50386104fb565b89513d85823e3d90fd5b865162461bcd60e51b8152908101859052602260248201527f4175746f54726561737572793a20696e73756666696369656e742062616c616e604482015261636560f01b6064820152608490fd5b809250878092503d8311610731575b6107208183611852565b8101031261068457849051386104a7565b503d610716565b88513d8b823e3d90fd5b50503461018a578160031936011261018a57905490516001600160a01b039091168152602090f35b50503461018a578160031936011261018a57602090610344611b1e565b90503461021857826003193601126102185782546001600160a01b0393906107b290851633146119eb565b6007549182156109e557815b6005548110156109b857856107d2826117bd565b919054600392831b1c169086516370a0823160e01b8152308582015260209160249183818481885afa9081156109ae57889161097d575b5066038d7ea4c68000811061097057875b898110610831575050505050506001905b016107be565b889b9394959b9a969a50836108446117f4565b905490851b1c168c0361095f578160011c5b868d898c8c85610877575b5050505050506001019a9493929a99959961081a565b916108c094939186938b61088a8a611770565b9054908d1b1c1692519687958694859363a9059cbb60e01b8552840160209093929193604081019460018060a01b031681520152565b03925af1801561095557610938575b50846108da83611770565b905490861b1c1690813b15610680578a90878b838c5195869485936255f9e960e71b85528401525af1801561092e57906001929161091f575b5090868d898c8c610861565b61092890611828565b38610913565b88513d8c823e3d90fd5b61094e90883d8a1161030e576103028183611852565b50386108cf565b89513d8d823e3d90fd5b8061096a5788610856565b81610856565b505050505060019061082b565b90508381813d83116109a7575b6109948183611852565b810103126109a3575138610809565b8780fd5b503d61098a565b8a513d8a823e3d90fd5b827fc306af072396b02bf3a9782c10065cc7ff4aa842934a43f0b76f997b291237c860208751428152a180f35b606490602085519162461bcd60e51b8352820152601b60248201527f4175746f54726561737572793a206e6f207374726174656769657300000000006044820152fd5b50503461018a578160031936011261018a57602090600d549051908152f35b50503461018a578160031936011261018a5760209060ff600b541690519015158152f35b50503461018a57602036600319011261018a5760209181906001600160a01b03610a93611755565b1681526006845220549051908152f35b91905034610218578060031936011261021857610abe611755565b60243590610ad160ff600b541615611a44565b6001600160a01b031680855260208481528386205491939160ff1615610bf457610afc831515611ad2565b610b04611897565b8251956323b872dd60e01b8752339087015230602487015283604487015281866064818a895af1958615610bea577ff5681f9d0db1b911ac18ee83d515a1cf1051853a9eae418316a2fdf7dea427c5949596610bcd575b506003549081610bb557505083905b33875260028152828720610b7f838254611874565b9055610b8d82600354611874565b60035585875260068152828720610ba5868254611874565b905582519485528401523392a380f35b610bc2610bc79287611a87565b611a9a565b90610b6a565b610be390833d851161030e576103028183611852565b5038610b5b565b83513d89823e3d90fd5b8490606492519162461bcd60e51b8352820152601f60248201527f4175746f54726561737572793a20756e737570706f72746564206173736574006044820152fd5b50503461018a57602036600319011261018a5760209181906001600160a01b03610c5e611755565b168152600a845220549051908152f35b83833461018a578160031936011261018a573382526020916002835281812054928315610ea857819482955b600754871015610d3557838383610cb08a611770565b9054895163e8d991d160e01b815294859392849260039190911b1c6001600160a01b03165af1908115610d2b578591610cf9575b50610cf190600192611874565b960195610c9a565b90508381813d8311610d24575b610d108183611852565b81010312610d2057516001610ce4565b8480fd5b503d610d06565b86513d87823e3d90fd5b9184610d85610d7c88610d73610d6b8998612710610d55600c5483611a87565b0490610d6382600d54611874565b600d55611a37565b600954611874565b80600955611a87565b60035490611a9a565b92338552600a8352610d9a8286205485611a37565b938415610e66579284819392610e019695338952600a845284892055610dbe6117f4565b9054855163a9059cbb60e01b81523393810193845260208401949094529297889360039290921b9190911c6001600160a01b03169183918a918391604090910190565b03925af1938415610e5c577fc04825ba3f383b602255d2a13065a68e325c65c9e0ed5d031ea2b06f641873af9394610e3f575b50519283523392a280f35b610e5590833d851161030e576103028183611852565b5085610e34565b81513d87823e3d90fd5b5082606492519162461bcd60e51b8352820152601e60248201527f4175746f54726561737572793a206e6f7468696e6720746f20636c61696d00006044820152fd5b8460649184519162461bcd60e51b8352820152601760248201527f4175746f54726561737572793a206e6f207368617265730000000000000000006044820152fd5b50503461018a578160031936011261018a576020906003549051908152f35b50503461018a578160031936011261018a57602090600c549051908152f35b91905034610218576020908160031936011261066557823591610f5060ff600b541615611a44565b8215611291573385526002815282828620541061124557610f78610f72611897565b84611a87565b90610f87600392835490611a9a565b9133875260028252838720610f9d868254611a37565b9055610faa858254611a37565b8155610fb46117f4565b905485516370a0823160e01b815230818a01526024986001600160a01b0394939092869183918c91839190881b1c88165afa90811561123b578a9161120e575b508581106110d5575b5061104897508484918461100f6117f4565b905490861b1c16908b8951809c8195829463a9059cbb60e01b84523390840160209093929193604081019460018060a01b031681520152565b03925af19687156110cb577f92ccf450a286a957af52509bc1c9939d1a6a481783e142e41e2499f0bb66ebc696976110ae575b506110846117f4565b9054911b1c1686526006815282862061109e838254611a37565b905582519485528401523392a280f35b6110c490843d861161030e576103028183611852565b503861107b565b85513d8a823e3d90fd5b6110df9086611a37565b97895b6007548110156111ff578286866110f884611770565b905490881b1c168a51928380926306a61f7560e51b82525afa9081156111f5578c916111c4575b50808b11156111bd575b80611138575b506001016110e2565b90998b866111458d611770565b905490881b1c16803b1561018a578190858c5180948193638ca1799560e01b8352888b8401525af180156111b357906111859392916111a4575b50611a37565b988915611192573861112f565b505061104897508484915b9150610ffd565b6111ad90611828565b3861117f565b8a513d8f823e3d90fd5b5089611129565b90508681813d83116111ee575b6111db8183611852565b810103126111ea57513861111f565b8b80fd5b503d6111d1565b89513d8e823e3d90fd5b5050611048975084849161119d565b90508481813d8311611234575b6112258183611852565b8101031261067c575138610ff4565b503d61121b565b87513d8c823e3d90fd5b8390608492519162461bcd60e51b8352820152602160248201527f4175746f54726561737572793a20696e73756666696369656e742073686172656044820152607360f81b6064820152fd5b8390606492519162461bcd60e51b8352820152601960248201527f4175746f54726561737572793a207a65726f20736861726573000000000000006044820152fd5b905034610218576020366003190112610218576112ee611755565b83546001600160a01b03919061130790831633146119eb565b16918284528160205260ff81852054166113ad57828452816020528320600160ff1982541617905560055490600160401b82101561139a57506113716113548260018594016005556117bd565b819391549060031b9160018060a01b03809116831b921b19161790565b90557f0e3c58ebfb2e7465fbb1c32e6b4f40c3c4f5ca77e8218a386aff8617831260d78280a280f35b634e487b7160e01b845260419052602483fd5b906020606492519162461bcd60e51b8352820152601f60248201527f4175746f54726561737572793a20616c726561647920737570706f72746564006044820152fd5b919050346102185760203660031901126102185781356001600160a01b038181169391849003610d20576114289085541633146119eb565b8284526008602052818420546114a85760075490600160401b821015611495575061145d611354826001869401600755611770565b90556007549082845260086020528320557f3f008fd510eae7a9e7bee13513d7b83bef8003d488b5a3d0b0da4de71d6846f18280a280f35b634e487b7160e01b855260419052602484fd5b6020606492519162461bcd60e51b8352820152601d60248201527f4175746f54726561737572793a207374726174656779206578697374730000006044820152fd5b50503461018a578160031936011261018a576020906007549051908152f35b9190503461021857602080600319360112610665576001600160a01b03833581811694908590036116b9576115428287541633146119eb565b84865260088352838620549081156116785760075460001992908381019081116116655783820190828211611652579081869282036115ef575b505050506007549081156115dc57509186949391600893019061159e82611770565b909182549160031b1b19169055600755848452528120557f09a1db4b80c32706328728508c941a6b954f31eb5affd32f236c1fd405f8fea48280a280f35b634e487b7160e01b885260319052602487fd5b61160c611630611637938561160385611770565b94905492611770565b92909460031b1c169083549060031b9160018060a01b03809116831b921b19161790565b9055611770565b90549060031b1c16885260088552858820553883818061157c565b634e487b7160e01b8a526011845260248afd5b634e487b7160e01b895260118352602489fd5b606490848087519262461bcd60e51b845283015260248201527f4175746f54726561737572793a207374726174656779206e6f7420666f756e646044820152fd5b8580fd5b83903461018a57602036600319011261018a573580151580910361018a576116ef60018060a01b0383541633146119eb565b60ff8019600b5416911617600b5580f35b50503461018a57602036600319011261018a5760209181906001600160a01b03611728611755565b1681526008845220549051908152f35b50503461018a578160031936011261018a57602090610344611897565b600435906001600160a01b038216820361176b57565b600080fd5b6007548110156117a75760076000527fa66cc928b5edb82af9bd49922954155ab7b0942694bea4ce44661d9a8736c6880190600090565b634e487b7160e01b600052603260045260246000fd5b6005548110156117a75760056000527f036b6384b5eca791c62761152d0c79bb0604c104a5fb6f4eb0703f3154bb3db00190600090565b600554156117a75760056000527f036b6384b5eca791c62761152d0c79bb0604c104a5fb6f4eb0703f3154bb3db090600090565b67ffffffffffffffff811161183c57604052565b634e487b7160e01b600052604160045260246000fd5b90601f8019910116810190811067ffffffffffffffff82111761183c57604052565b9190820180921161188157565b634e487b7160e01b600052601160045260246000fd5b6000806005545b80821061195457505060006007545b8082106118b957505090565b90916118c483611770565b9054604080516306a61f7560e51b81529092909160209182918491600491839160031b1c6001600160a01b03165afa92831561194a5750600092611919575b505061191190600192611874565b9201906118ad565b81819392933d8311611943575b6119308183611852565b8101031261021557505181611911611903565b503d611926565b513d6000823e3d90fd5b909161195f836117bd565b9054604080516370a0823160e01b81523060048201529092909160209182918491602491839160031b1c6001600160a01b03165afa92831561194a57506000926119ba575b50506119b290600192611874565b92019061189e565b81819392933d83116119e4575b6119d18183611852565b81010312610215575051816119b26119a4565b503d6119c7565b156119f257565b60405162461bcd60e51b815260206004820152601760248201527f4175746f54726561737572793a206e6f74206f776e65720000000000000000006044820152606490fd5b9190820391821161188157565b15611a4b57565b60405162461bcd60e51b8152602060048201526014602482015273105d5d1bd51c99585cdd5c9e4e881c185d5cd95960621b6044820152606490fd5b8181029291811591840414171561188157565b8115611aa4570490565b634e487b7160e01b600052601260045260246000fd5b9081602091031261176b5751801515810361176b5790565b15611ad957565b60405162461bcd60e51b815260206004820152601960248201527f4175746f54726561737572793a207a65726f20616d6f756e74000000000000006044820152606490fd5b6003548015611b5657611b2f611897565b90670de0b6b3a76400009182810292818404149015171561188157611b5391611a9a565b90565b50670de0b6b3a764000090565b60005b838110611b765750506000910152565b8181015183820152602001611b66565b90602091611b9f81518092818552858086019101611b63565b601f01601f1916010190565b60035480158015611c10575b611c0957611be46009549260018060a01b031691610bc26000948486526002602052604086205490611a87565b908252600a60205260408220549081811115611c0457611b539250611a37565b505090565b5050600090565b506001600160a01b03821660009081526002602052604090205415611bb756fea264697066735822122082dffafc2848589fa5152597987d2a820f41570da4b0632f9d2378b69ded209264736f6c63430008180033","opcodes":"PUSH1 0x80 CALLVALUE PUSH2 0x7F JUMPI PUSH1 0x1F PUSH2 0x1D01 CODESIZE DUP2 SWAP1 SUB SWAP2 DUP3 ADD PUSH1 0x1F NOT AND DUP4 ADD SWAP2 PUSH1 0x1 PUSH1 0x1 PUSH1 0x40 SHL SUB DUP4 GT DUP5 DUP5 LT OR PUSH2 0x84 JUMPI DUP1 DUP5 SWAP3 PUSH1 0x20 SWAP5 PUSH1 0x40 MSTORE DUP4 CODECOPY DUP2 ADD SUB SLT PUSH2 0x7F JUMPI MLOAD PUSH1 0x1 PUSH1 0x1 PUSH1 0xA0 SHL SUB DUP2 AND SWAP1 DUP2 SWAP1 SUB PUSH2 0x7F JUMPI PUSH1 0xC8 PUSH1 0xC SSTORE PUSH1 0x1 DUP1 PUSH1 0xA0 SHL SUB NOT CALLER DUP2 PUSH1 0x0 SLOAD AND OR PUSH1 0x0 SSTORE PUSH1 0x1 SLOAD AND OR PUSH1 0x1 SSTORE PUSH1 0x40 MLOAD PUSH2 0x1C66 SWAP1 DUP2 PUSH2 0x9B DUP3 CODECOPY RETURN JUMPDEST PUSH1 0x0 DUP1 REVERT JUMPDEST PUSH4 0x4E487B71 PUSH1 0xE0 SHL PUSH1 0x0 MSTORE PUSH1 0x41 PUSH1 0x4 MSTORE PUSH1 0x24 PUSH1 0x0 REVERT INVALID PUSH1 0x40 PUSH1 0x80 DUP2 MSTORE PUSH1 0x4 SWAP1 DUP2 CALLDATASIZE LT ISZERO PUSH2 0x15 JUMPI PUSH1 0x0 DUP1 REVERT JUMPDEST PUSH1 0x0 SWAP2 DUP3 CALLDATALOAD PUSH1 0xE0 SHR SWAP1 DUP2 PUSH4 0x1E1D114 EQ PUSH2 0x1738 JUMPI DUP2 PUSH4 0x11451526 EQ PUSH2 0x1700 JUMPI DUP2 PUSH4 0x16C38B3C EQ PUSH2 0x16BD JUMPI DUP2 PUSH4 0x175188E8 EQ PUSH2 0x1509 JUMPI DUP2 PUSH4 0x22068B44 EQ PUSH2 0x14EA JUMPI DUP2 PUSH4 0x223E5479 EQ PUSH2 0x13F0 JUMPI DUP2 PUSH4 0x298410E5 EQ PUSH2 0x12D3 JUMPI DUP2 PUSH4 0x2E1A7D4D EQ PUSH2 0xF28 JUMPI DUP2 PUSH4 0x35659FB8 EQ PUSH2 0xF09 JUMPI DUP2 PUSH4 0x3A98EF39 EQ PUSH2 0xEEA JUMPI DUP2 PUSH4 0x406CF229 EQ PUSH2 0xC6E JUMPI DUP2 PUSH4 0x45BBA697 EQ PUSH2 0xC36 JUMPI DUP2 PUSH4 0x47E7EF24 EQ PUSH2 0xAA3 JUMPI DUP2 PUSH4 0x53055481 EQ PUSH2 0xA6B JUMPI DUP2 PUSH4 0x5C975ABB EQ PUSH2 0xA47 JUMPI DUP2 PUSH4 0x73F38EE0 EQ PUSH2 0xA28 JUMPI DUP2 PUSH4 0x7D7C2A1C EQ PUSH2 0x787 JUMPI DUP2 PUSH4 0x87269729 EQ PUSH2 0x76A JUMPI DUP2 PUSH4 0x8DA5CB5B EQ PUSH2 0x742 JUMPI DUP2 PUSH4 0x91731C66 EQ PUSH2 0x438 JUMPI DUP2 PUSH4 0x95CCEA67 EQ PUSH2 0x3B3 JUMPI DUP2 PUSH4 0xA0B4B301 EQ PUSH2 0x388 JUMPI DUP2 PUSH4 0xBD81579E EQ PUSH2 0x34B JUMPI DUP2 PUSH4 0xC7BF1980 EQ PUSH2 0x31E JUMPI DUP2 PUSH4 0xC8796572 EQ PUSH2 0x254 JUMPI DUP2 PUSH4 0xCE7C2AC2 EQ PUSH2 0x21C JUMPI DUP2 PUSH4 0xD574EA3D EQ PUSH2 0x1D4 JUMPI POP DUP1 PUSH4 0xE1D20600 EQ PUSH2 0x1AC JUMPI DUP1 PUSH4 0xEAFE7A74 EQ PUSH2 0x18E JUMPI PUSH4 0xEE6C3BF2 EQ PUSH2 0x16D JUMPI PUSH1 0x0 DUP1 REVERT JUMPDEST CALLVALUE PUSH2 0x18A JUMPI DUP2 PUSH1 0x3 NOT CALLDATASIZE ADD SLT PUSH2 0x18A JUMPI PUSH1 0x20 SWAP1 PUSH1 0x9 SLOAD SWAP1 MLOAD SWAP1 DUP2 MSTORE RETURN JUMPDEST POP DUP1 REVERT JUMPDEST POP CALLVALUE PUSH2 0x18A JUMPI DUP2 PUSH1 0x3 NOT CALLDATASIZE ADD SLT PUSH2 0x18A JUMPI PUSH1 0x20 SWAP1 PUSH1 0x5 SLOAD SWAP1 MLOAD SWAP1 DUP2 MSTORE RETURN JUMPDEST POP CALLVALUE PUSH2 0x18A JUMPI DUP2 PUSH1 0x3 NOT CALLDATASIZE ADD SLT PUSH2 0x18A JUMPI PUSH1 0x1 SLOAD SWAP1 MLOAD PUSH1 0x1 PUSH1 0x1 PUSH1 0xA0 SHL SUB SWAP1 SWAP2 AND DUP2 MSTORE PUSH1 0x20 SWAP1 RETURN JUMPDEST SWAP1 POP CALLVALUE PUSH2 0x218 JUMPI PUSH1 0x20 CALLDATASIZE PUSH1 0x3 NOT ADD SLT PUSH2 0x218 JUMPI CALLDATALOAD SWAP2 PUSH1 0x7 SLOAD DUP4 LT ISZERO PUSH2 0x215 JUMPI POP PUSH2 0x1FF PUSH1 0x20 SWAP3 PUSH2 0x1770 JUMP JUMPDEST SWAP1 SLOAD SWAP2 MLOAD SWAP2 PUSH1 0x1 DUP1 PUSH1 0xA0 SHL SUB SWAP2 PUSH1 0x3 SHL SHR AND DUP2 MSTORE RETURN JUMPDEST DUP1 REVERT JUMPDEST DUP3 DUP1 REVERT JUMPDEST POP POP CALLVALUE PUSH2 0x18A JUMPI PUSH1 0x20 CALLDATASIZE PUSH1 0x3 NOT ADD SLT PUSH2 0x18A JUMPI PUSH1 0x20 SWAP2 DUP2 SWAP1 PUSH1 0x1 PUSH1 0x1 PUSH1 0xA0 SHL SUB PUSH2 0x244 PUSH2 0x1755 JUMP JUMPDEST AND DUP2 MSTORE PUSH1 0x2 DUP5 MSTORE KECCAK256 SLOAD SWAP1 MLOAD SWAP1 DUP2 MSTORE RETURN JUMPDEST SWAP2 SWAP1 POP CALLVALUE PUSH2 0x218 JUMPI DUP3 PUSH1 0x3 NOT CALLDATASIZE ADD SLT PUSH2 0x218 JUMPI DUP3 SLOAD PUSH2 0x2D0 SWAP3 PUSH1 0x20 SWAP2 PUSH1 0x1 PUSH1 0x1 PUSH1 0xA0 SHL SUB SWAP2 SWAP1 DUP3 AND PUSH2 0x287 CALLER DUP3 EQ PUSH2 0x19EB JUMP JUMPDEST DUP7 PUSH1 0xD SLOAD SWAP4 DUP2 PUSH1 0xD SSTORE PUSH2 0x298 PUSH2 0x17F4 JUMP JUMPDEST SWAP1 SLOAD DUP9 MLOAD PUSH4 0xA9059CBB PUSH1 0xE0 SHL DUP2 MSTORE PUSH1 0x1 PUSH1 0x1 PUSH1 0xA0 SHL SUB SWAP1 SWAP6 AND SWAP6 DUP6 ADD SWAP6 DUP7 MSTORE PUSH1 0x20 DUP7 ADD SWAP7 SWAP1 SWAP7 MSTORE SWAP3 SWAP8 DUP9 SWAP6 SWAP4 SWAP5 DUP7 SWAP5 SWAP2 DUP6 SWAP2 PUSH1 0x40 ADD SWAP1 JUMP JUMPDEST SUB SWAP5 PUSH1 0x3 SHL SHR AND GAS CALL SWAP1 DUP2 ISZERO PUSH2 0x315 JUMPI POP PUSH2 0x2E9 JUMPI POP DUP1 RETURN JUMPDEST PUSH2 0x30A SWAP1 PUSH1 0x20 RETURNDATASIZE PUSH1 0x20 GT PUSH2 0x30E JUMPI JUMPDEST PUSH2 0x302 DUP2 DUP4 PUSH2 0x1852 JUMP JUMPDEST DUP2 ADD SWAP1 PUSH2 0x1ABA JUMP JUMPDEST POP DUP1 RETURN JUMPDEST POP RETURNDATASIZE PUSH2 0x2F8 JUMP JUMPDEST MLOAD RETURNDATASIZE DUP5 DUP3 RETURNDATACOPY RETURNDATASIZE SWAP1 REVERT JUMPDEST POP POP CALLVALUE PUSH2 0x18A JUMPI PUSH1 0x20 CALLDATASIZE PUSH1 0x3 NOT ADD SLT PUSH2 0x18A JUMPI PUSH1 0x20 SWAP1 PUSH2 0x344 PUSH2 0x33F PUSH2 0x1755 JUMP JUMPDEST PUSH2 0x1BAB JUMP JUMPDEST SWAP1 MLOAD SWAP1 DUP2 MSTORE RETURN JUMPDEST SWAP1 POP CALLVALUE PUSH2 0x218 JUMPI PUSH1 0x20 CALLDATASIZE PUSH1 0x3 NOT ADD SLT PUSH2 0x218 JUMPI PUSH1 0x20 SWAP3 PUSH1 0xFF SWAP2 DUP4 SWAP2 SWAP1 PUSH1 0x1 PUSH1 0x1 PUSH1 0xA0 SHL SUB PUSH2 0x377 PUSH2 0x1755 JUMP JUMPDEST AND DUP3 MSTORE DUP6 MSTORE KECCAK256 SLOAD AND SWAP1 MLOAD SWAP1 ISZERO ISZERO DUP2 MSTORE RETURN JUMPDEST SWAP1 POP CALLVALUE PUSH2 0x218 JUMPI PUSH1 0x20 CALLDATASIZE PUSH1 0x3 NOT ADD SLT PUSH2 0x218 JUMPI CALLDATALOAD SWAP2 PUSH1 0x5 SLOAD DUP4 LT ISZERO PUSH2 0x215 JUMPI POP PUSH2 0x1FF PUSH1 0x20 SWAP3 PUSH2 0x17BD JUMP JUMPDEST SWAP2 SWAP1 POP CALLVALUE PUSH2 0x218 JUMPI DUP1 PUSH1 0x3 NOT CALLDATASIZE ADD SLT PUSH2 0x218 JUMPI PUSH1 0x20 PUSH2 0x423 SWAP3 PUSH2 0x3D4 PUSH2 0x1755 JUMP JUMPDEST DUP6 SLOAD PUSH1 0x1 PUSH1 0x1 PUSH1 0xA0 SHL SUB SWAP1 DUP2 AND SWAP1 DUP8 SWAP1 PUSH2 0x3EF CALLER DUP5 EQ PUSH2 0x19EB JUMP JUMPDEST DUP7 MLOAD PUSH4 0xA9059CBB PUSH1 0xE0 SHL DUP2 MSTORE PUSH1 0x1 PUSH1 0x1 PUSH1 0xA0 SHL SUB SWAP1 SWAP4 AND SWAP5 DUP4 ADD SWAP5 DUP6 MSTORE PUSH1 0x24 CALLDATALOAD PUSH1 0x20 DUP7 ADD MSTORE SWAP2 SWAP7 DUP8 SWAP5 DUP6 SWAP4 SWAP2 DUP5 SWAP2 PUSH1 0x40 ADD SWAP1 JUMP JUMPDEST SUB SWAP4 AND GAS CALL SWAP1 DUP2 ISZERO PUSH2 0x315 JUMPI POP PUSH2 0x2E9 JUMPI POP DUP1 RETURN JUMPDEST SWAP1 POP CALLVALUE PUSH2 0x218 JUMPI DUP2 PUSH1 0x3 NOT CALLDATASIZE ADD SLT PUSH2 0x218 JUMPI PUSH2 0x452 PUSH2 0x1755 JUMP JUMPDEST SWAP1 PUSH1 0x24 CALLDATALOAD PUSH1 0x1 DUP1 PUSH1 0xA0 SHL SUB PUSH2 0x46B DUP2 DUP8 SLOAD AND CALLER EQ PUSH2 0x19EB JUMP JUMPDEST PUSH2 0x476 DUP3 ISZERO ISZERO PUSH2 0x1AD2 JUMP JUMPDEST DUP5 MLOAD PUSH4 0x70A08231 PUSH1 0xE0 SHL DUP2 MSTORE ADDRESS DUP5 DUP3 ADD MSTORE DUP5 DUP3 AND SWAP5 PUSH1 0x20 SWAP5 SWAP1 SWAP2 DUP6 DUP2 PUSH1 0x24 DUP2 DUP11 GAS STATICCALL DUP1 ISZERO PUSH2 0x738 JUMPI DUP6 SWAP2 DUP11 SWAP2 PUSH2 0x707 JUMPI JUMPDEST POP LT PUSH2 0x6B9 JUMPI PUSH1 0x1 SLOAD DUP8 MLOAD PUSH4 0x95EA7B3 PUSH1 0xE0 SHL DUP2 MSTORE SWAP1 DUP5 AND PUSH1 0x1 PUSH1 0x1 PUSH1 0xA0 SHL SUB AND DUP3 DUP3 ADD SWAP1 DUP2 MSTORE PUSH1 0x20 DUP2 ADD DUP7 SWAP1 MSTORE DUP10 SWAP3 SWAP2 SWAP1 DUP8 SWAP1 DUP3 SWAP1 DUP2 SWAP1 PUSH1 0x40 ADD SUB DUP2 DUP7 DUP13 GAS CALL DUP1 ISZERO PUSH2 0x6AF JUMPI PUSH2 0x535 SWAP6 DUP5 SWAP3 DUP9 SWAP3 PUSH2 0x692 JUMPI JUMPDEST POP PUSH1 0x1 SLOAD DUP12 MLOAD PUSH4 0x2BE9E38D PUSH1 0xE1 SHL DUP2 MSTORE PUSH1 0x1 PUSH1 0x1 PUSH1 0xA0 SHL SUB SWAP1 SWAP8 AND DUP6 DUP9 ADD SWAP1 DUP2 MSTORE PUSH1 0x20 DUP2 ADD SWAP4 SWAP1 SWAP4 MSTORE SWAP6 SWAP7 SWAP6 AND SWAP5 DUP7 SWAP2 DUP3 SWAP2 PUSH1 0x40 SWAP1 SWAP2 ADD SWAP1 JUMP JUMPDEST SUB DUP2 DUP7 GAS STATICCALL SWAP4 DUP5 ISZERO PUSH2 0x688 JUMPI DUP3 SWAP5 PUSH2 0x5E0 JUMPI JUMPDEST POP DUP3 EXTCODESIZE ISZERO PUSH2 0x18A JUMPI DUP8 MLOAD PUSH4 0xC6B8B1B PUSH1 0xE1 SHL DUP2 MSTORE SWAP1 DUP2 ADD DUP7 SWAP1 MSTORE SWAP2 DUP3 SWAP1 DUP2 DUP4 DUP2 PUSH2 0x575 PUSH1 0x24 DUP3 ADD DUP10 PUSH2 0x1B86 JUMP JUMPDEST SUB SWAP3 GAS CALL DUP1 ISZERO PUSH2 0x5D6 JUMPI SWAP6 PUSH2 0x5C1 SWAP3 SWAP2 PUSH32 0xB7601B2B4CA3AFA837769C4AEED7EBEAAC7A39144481681131486C7E5D2EE6CD SWAP7 SWAP8 PUSH2 0x5C7 JUMPI JUMPDEST POP DUP1 DUP1 MLOAD SWAP6 DUP7 SWAP6 DUP7 MSTORE DUP6 ADD MSTORE DUP4 ADD SWAP1 PUSH2 0x1B86 JUMP JUMPDEST SUB SWAP1 LOG2 DUP1 RETURN JUMPDEST PUSH2 0x5D0 SWAP1 PUSH2 0x1828 JUMP JUMPDEST CODESIZE PUSH2 0x5AD JUMP JUMPDEST DUP7 MLOAD RETURNDATASIZE DUP10 DUP3 RETURNDATACOPY RETURNDATASIZE SWAP1 REVERT JUMPDEST SWAP2 POP SWAP3 POP RETURNDATASIZE DUP1 DUP10 DUP4 RETURNDATACOPY PUSH2 0x5F3 DUP2 DUP4 PUSH2 0x1852 JUMP JUMPDEST DUP2 ADD SWAP1 DUP6 DUP2 DUP4 SUB SLT PUSH2 0x684 JUMPI DUP1 MLOAD PUSH8 0xFFFFFFFFFFFFFFFF SWAP2 DUP3 DUP3 GT PUSH2 0x680 JUMPI ADD SWAP1 DUP3 PUSH1 0x1F DUP4 ADD SLT ISZERO PUSH2 0x67C JUMPI DUP2 MLOAD SWAP1 DUP2 GT PUSH2 0x669 JUMPI SWAP1 DUP10 SWAP3 SWAP2 DUP10 MLOAD SWAP3 PUSH2 0x642 DUP10 PUSH1 0x1F NOT PUSH1 0x1F DUP6 ADD AND ADD DUP6 PUSH2 0x1852 JUMP JUMPDEST DUP2 DUP5 MSTORE DUP9 DUP3 DUP5 ADD ADD GT PUSH2 0x665 JUMPI PUSH2 0x65E SWAP2 DUP9 DUP1 DUP6 ADD SWAP2 ADD PUSH2 0x1B63 JUMP JUMPDEST SWAP3 CODESIZE PUSH2 0x548 JUMP JUMPDEST DUP4 DUP1 REVERT JUMPDEST PUSH4 0x4E487B71 PUSH1 0xE0 SHL DUP11 MSTORE PUSH1 0x41 DUP6 MSTORE PUSH1 0x24 DUP11 REVERT JUMPDEST DUP10 DUP1 REVERT JUMPDEST DUP11 DUP1 REVERT JUMPDEST DUP9 DUP1 REVERT JUMPDEST DUP9 MLOAD RETURNDATASIZE DUP5 DUP3 RETURNDATACOPY RETURNDATASIZE SWAP1 REVERT JUMPDEST PUSH2 0x6A8 SWAP1 DUP11 RETURNDATASIZE DUP13 GT PUSH2 0x30E JUMPI PUSH2 0x302 DUP2 DUP4 PUSH2 0x1852 JUMP JUMPDEST POP CODESIZE PUSH2 0x4FB JUMP JUMPDEST DUP10 MLOAD RETURNDATASIZE DUP6 DUP3 RETURNDATACOPY RETURNDATASIZE SWAP1 REVERT JUMPDEST DUP7 MLOAD PUSH3 0x461BCD PUSH1 0xE5 SHL DUP2 MSTORE SWAP1 DUP2 ADD DUP6 SWAP1 MSTORE PUSH1 0x22 PUSH1 0x24 DUP3 ADD MSTORE PUSH32 0x4175746F54726561737572793A20696E73756666696369656E742062616C616E PUSH1 0x44 DUP3 ADD MSTORE PUSH2 0x6365 PUSH1 0xF0 SHL PUSH1 0x64 DUP3 ADD MSTORE PUSH1 0x84 SWAP1 REVERT JUMPDEST DUP1 SWAP3 POP DUP8 DUP1 SWAP3 POP RETURNDATASIZE DUP4 GT PUSH2 0x731 JUMPI JUMPDEST PUSH2 0x720 DUP2 DUP4 PUSH2 0x1852 JUMP JUMPDEST DUP2 ADD SUB SLT PUSH2 0x684 JUMPI DUP5 SWAP1 MLOAD CODESIZE PUSH2 0x4A7 JUMP JUMPDEST POP RETURNDATASIZE PUSH2 0x716 JUMP JUMPDEST DUP9 MLOAD RETURNDATASIZE DUP12 DUP3 RETURNDATACOPY RETURNDATASIZE SWAP1 REVERT JUMPDEST POP POP CALLVALUE PUSH2 0x18A JUMPI DUP2 PUSH1 0x3 NOT CALLDATASIZE ADD SLT PUSH2 0x18A JUMPI SWAP1 SLOAD SWAP1 MLOAD PUSH1 0x1 PUSH1 0x1 PUSH1 0xA0 SHL SUB SWAP1 SWAP2 AND DUP2 MSTORE PUSH1 0x20 SWAP1 RETURN JUMPDEST POP POP CALLVALUE PUSH2 0x18A JUMPI DUP2 PUSH1 0x3 NOT CALLDATASIZE ADD SLT PUSH2 0x18A JUMPI PUSH1 0x20 SWAP1 PUSH2 0x344 PUSH2 0x1B1E JUMP JUMPDEST SWAP1 POP CALLVALUE PUSH2 0x218 JUMPI DUP3 PUSH1 0x3 NOT CALLDATASIZE ADD SLT PUSH2 0x218 JUMPI DUP3 SLOAD PUSH1 0x1 PUSH1 0x1 PUSH1 0xA0 SHL SUB SWAP4 SWAP1 PUSH2 0x7B2 SWAP1 DUP6 AND CALLER EQ PUSH2 0x19EB JUMP JUMPDEST PUSH1 0x7 SLOAD SWAP2 DUP3 ISZERO PUSH2 0x9E5 JUMPI DUP2 JUMPDEST PUSH1 0x5 SLOAD DUP2 LT ISZERO PUSH2 0x9B8 JUMPI DUP6 PUSH2 0x7D2 DUP3 PUSH2 0x17BD JUMP JUMPDEST SWAP2 SWAP1 SLOAD PUSH1 0x3 SWAP3 DUP4 SHL SHR AND SWAP1 DUP7 MLOAD PUSH4 0x70A08231 PUSH1 0xE0 SHL DUP2 MSTORE ADDRESS DUP6 DUP3 ADD MSTORE PUSH1 0x20 SWAP2 PUSH1 0x24 SWAP2 DUP4 DUP2 DUP5 DUP2 DUP9 GAS STATICCALL SWAP1 DUP2 ISZERO PUSH2 0x9AE JUMPI DUP9 SWAP2 PUSH2 0x97D JUMPI JUMPDEST POP PUSH7 0x38D7EA4C68000 DUP2 LT PUSH2 0x970 JUMPI DUP8 JUMPDEST DUP10 DUP2 LT PUSH2 0x831 JUMPI POP POP POP POP POP POP PUSH1 0x1 SWAP1 JUMPDEST ADD PUSH2 0x7BE JUMP JUMPDEST DUP9 SWAP12 SWAP4 SWAP5 SWAP6 SWAP12 SWAP11 SWAP7 SWAP11 POP DUP4 PUSH2 0x844 PUSH2 0x17F4 JUMP JUMPDEST SWAP1 SLOAD SWAP1 DUP6 SHL SHR AND DUP13 SUB PUSH2 0x95F JUMPI DUP2 PUSH1 0x1 SHR JUMPDEST DUP7 DUP14 DUP10 DUP13 DUP13 DUP6 PUSH2 0x877 JUMPI JUMPDEST POP POP POP POP POP POP PUSH1 0x1 ADD SWAP11 SWAP5 SWAP4 SWAP3 SWAP11 SWAP10 SWAP6 SWAP10 PUSH2 0x81A JUMP JUMPDEST SWAP2 PUSH2 0x8C0 SWAP5 SWAP4 SWAP2 DUP7 SWAP4 DUP12 PUSH2 0x88A DUP11 PUSH2 0x1770 JUMP JUMPDEST SWAP1 SLOAD SWAP1 DUP14 SHL SHR AND SWAP3 MLOAD SWAP7 DUP8 SWAP6 DUP7 SWAP5 DUP6 SWAP4 PUSH4 0xA9059CBB PUSH1 0xE0 SHL DUP6 MSTORE DUP5 ADD PUSH1 0x20 SWAP1 SWAP4 SWAP3 SWAP2 SWAP4 PUSH1 0x40 DUP2 ADD SWAP5 PUSH1 0x1 DUP1 PUSH1 0xA0 SHL SUB AND DUP2 MSTORE ADD MSTORE JUMP JUMPDEST SUB SWAP3 GAS CALL DUP1 ISZERO PUSH2 0x955 JUMPI PUSH2 0x938 JUMPI JUMPDEST POP DUP5 PUSH2 0x8DA DUP4 PUSH2 0x1770 JUMP JUMPDEST SWAP1 SLOAD SWAP1 DUP7 SHL SHR AND SWAP1 DUP2 EXTCODESIZE ISZERO PUSH2 0x680 JUMPI DUP11 SWAP1 DUP8 DUP12 DUP4 DUP13 MLOAD SWAP6 DUP7 SWAP5 DUP6 SWAP4 PUSH3 0x55F9E9 PUSH1 0xE7 SHL DUP6 MSTORE DUP5 ADD MSTORE GAS CALL DUP1 ISZERO PUSH2 0x92E JUMPI SWAP1 PUSH1 0x1 SWAP3 SWAP2 PUSH2 0x91F JUMPI JUMPDEST POP SWAP1 DUP7 DUP14 DUP10 DUP13 DUP13 PUSH2 0x861 JUMP JUMPDEST PUSH2 0x928 SWAP1 PUSH2 0x1828 JUMP JUMPDEST CODESIZE PUSH2 0x913 JUMP JUMPDEST DUP9 MLOAD RETURNDATASIZE DUP13 DUP3 RETURNDATACOPY RETURNDATASIZE SWAP1 REVERT JUMPDEST PUSH2 0x94E SWAP1 DUP9 RETURNDATASIZE DUP11 GT PUSH2 0x30E JUMPI PUSH2 0x302 DUP2 DUP4 PUSH2 0x1852 JUMP JUMPDEST POP CODESIZE PUSH2 0x8CF JUMP JUMPDEST DUP10 MLOAD RETURNDATASIZE DUP14 DUP3 RETURNDATACOPY RETURNDATASIZE SWAP1 REVERT JUMPDEST DUP1 PUSH2 0x96A JUMPI DUP9 PUSH2 0x856 JUMP JUMPDEST DUP2 PUSH2 0x856 JUMP JUMPDEST POP POP POP POP POP PUSH1 0x1 SWAP1 PUSH2 0x82B JUMP JUMPDEST SWAP1 POP DUP4 DUP2 DUP2 RETURNDATASIZE DUP4 GT PUSH2 0x9A7 JUMPI JUMPDEST PUSH2 0x994 DUP2 DUP4 PUSH2 0x1852 JUMP JUMPDEST DUP2 ADD SUB SLT PUSH2 0x9A3 JUMPI MLOAD CODESIZE PUSH2 0x809 JUMP JUMPDEST DUP8 DUP1 REVERT JUMPDEST POP RETURNDATASIZE PUSH2 0x98A JUMP JUMPDEST DUP11 MLOAD RETURNDATASIZE DUP11 DUP3 RETURNDATACOPY RETURNDATASIZE SWAP1 REVERT JUMPDEST DUP3 PUSH32 0xC306AF072396B02BF3A9782C10065CC7FF4AA842934A43F0B76F997B291237C8 PUSH1 0x20 DUP8 MLOAD TIMESTAMP DUP2 MSTORE LOG1 DUP1 RETURN JUMPDEST PUSH1 0x64 SWAP1 PUSH1 0x20 DUP6 MLOAD SWAP2 PUSH3 0x461BCD PUSH1 0xE5 SHL DUP4 MSTORE DUP3 ADD MSTORE PUSH1 0x1B PUSH1 0x24 DUP3 ADD MSTORE PUSH32 0x4175746F54726561737572793A206E6F20737472617465676965730000000000 PUSH1 0x44 DUP3 ADD MSTORE REVERT JUMPDEST POP POP CALLVALUE PUSH2 0x18A JUMPI DUP2 PUSH1 0x3 NOT CALLDATASIZE ADD SLT PUSH2 0x18A JUMPI PUSH1 0x20 SWAP1 PUSH1 0xD SLOAD SWAP1 MLOAD SWAP1 DUP2 MSTORE RETURN JUMPDEST POP POP CALLVALUE PUSH2 0x18A JUMPI DUP2 PUSH1 0x3 NOT CALLDATASIZE ADD SLT PUSH2 0x18A JUMPI PUSH1 0x20 SWAP1 PUSH1 0xFF PUSH1 0xB SLOAD AND SWAP1 MLOAD SWAP1 ISZERO ISZERO DUP2 MSTORE RETURN JUMPDEST POP POP CALLVALUE PUSH2 0x18A JUMPI PUSH1 0x20 CALLDATASIZE PUSH1 0x3 NOT ADD SLT PUSH2 0x18A JUMPI PUSH1 0x20 SWAP2 DUP2 SWAP1 PUSH1 0x1 PUSH1 0x1 PUSH1 0xA0 SHL SUB PUSH2 0xA93 PUSH2 0x1755 JUMP JUMPDEST AND DUP2 MSTORE PUSH1 0x6 DUP5 MSTORE KECCAK256 SLOAD SWAP1 MLOAD SWAP1 DUP2 MSTORE RETURN JUMPDEST SWAP2 SWAP1 POP CALLVALUE PUSH2 0x218 JUMPI DUP1 PUSH1 0x3 NOT CALLDATASIZE ADD SLT PUSH2 0x218 JUMPI PUSH2 0xABE PUSH2 0x1755 JUMP JUMPDEST PUSH1 0x24 CALLDATALOAD SWAP1 PUSH2 0xAD1 PUSH1 0xFF PUSH1 0xB SLOAD AND ISZERO PUSH2 0x1A44 JUMP JUMPDEST PUSH1 0x1 PUSH1 0x1 PUSH1 0xA0 SHL SUB AND DUP1 DUP6 MSTORE PUSH1 0x20 DUP5 DUP2 MSTORE DUP4 DUP7 KECCAK256 SLOAD SWAP2 SWAP4 SWAP2 PUSH1 0xFF AND ISZERO PUSH2 0xBF4 JUMPI PUSH2 0xAFC DUP4 ISZERO ISZERO PUSH2 0x1AD2 JUMP JUMPDEST PUSH2 0xB04 PUSH2 0x1897 JUMP JUMPDEST DUP3 MLOAD SWAP6 PUSH4 0x23B872DD PUSH1 0xE0 SHL DUP8 MSTORE CALLER SWAP1 DUP8 ADD MSTORE ADDRESS PUSH1 0x24 DUP8 ADD MSTORE DUP4 PUSH1 0x44 DUP8 ADD MSTORE DUP2 DUP7 PUSH1 0x64 DUP2 DUP11 DUP10 GAS CALL SWAP6 DUP7 ISZERO PUSH2 0xBEA JUMPI PUSH32 0xF5681F9D0DB1B911AC18EE83D515A1CF1051853A9EAE418316A2FDF7DEA427C5 SWAP5 SWAP6 SWAP7 PUSH2 0xBCD JUMPI JUMPDEST POP PUSH1 0x3 SLOAD SWAP1 DUP2 PUSH2 0xBB5 JUMPI POP POP DUP4 SWAP1 JUMPDEST CALLER DUP8 MSTORE PUSH1 0x2 DUP2 MSTORE DUP3 DUP8 KECCAK256 PUSH2 0xB7F DUP4 DUP3 SLOAD PUSH2 0x1874 JUMP JUMPDEST SWAP1 SSTORE PUSH2 0xB8D DUP3 PUSH1 0x3 SLOAD PUSH2 0x1874 JUMP JUMPDEST PUSH1 0x3 SSTORE DUP6 DUP8 MSTORE PUSH1 0x6 DUP2 MSTORE DUP3 DUP8 KECCAK256 PUSH2 0xBA5 DUP7 DUP3 SLOAD PUSH2 0x1874 JUMP JUMPDEST SWAP1 SSTORE DUP3 MLOAD SWAP5 DUP6 MSTORE DUP5 ADD MSTORE CALLER SWAP3 LOG3 DUP1 RETURN JUMPDEST PUSH2 0xBC2 PUSH2 0xBC7 SWAP3 DUP8 PUSH2 0x1A87 JUMP JUMPDEST PUSH2 0x1A9A JUMP JUMPDEST SWAP1 PUSH2 0xB6A JUMP JUMPDEST PUSH2 0xBE3 SWAP1 DUP4 RETURNDATASIZE DUP6 GT PUSH2 0x30E JUMPI PUSH2 0x302 DUP2 DUP4 PUSH2 0x1852 JUMP JUMPDEST POP CODESIZE PUSH2 0xB5B JUMP JUMPDEST DUP4 MLOAD RETURNDATASIZE DUP10 DUP3 RETURNDATACOPY RETURNDATASIZE SWAP1 REVERT JUMPDEST DUP5 SWAP1 PUSH1 0x64 SWAP3 MLOAD SWAP2 PUSH3 0x461BCD PUSH1 0xE5 SHL DUP4 MSTORE DUP3 ADD MSTORE PUSH1 0x1F PUSH1 0x24 DUP3 ADD MSTORE PUSH32 0x4175746F54726561737572793A20756E737570706F7274656420617373657400 PUSH1 0x44 DUP3 ADD MSTORE REVERT JUMPDEST POP POP CALLVALUE PUSH2 0x18A JUMPI PUSH1 0x20 CALLDATASIZE PUSH1 0x3 NOT ADD SLT PUSH2 0x18A JUMPI PUSH1 0x20 SWAP2 DUP2 SWAP1 PUSH1 0x1 PUSH1 0x1 PUSH1 0xA0 SHL SUB PUSH2 0xC5E PUSH2 0x1755 JUMP JUMPDEST AND DUP2 MSTORE PUSH1 0xA DUP5 MSTORE KECCAK256 SLOAD SWAP1 MLOAD SWAP1 DUP2 MSTORE RETURN JUMPDEST DUP4 DUP4 CALLVALUE PUSH2 0x18A JUMPI DUP2 PUSH1 0x3 NOT CALLDATASIZE ADD SLT PUSH2 0x18A JUMPI CALLER DUP3 MSTORE PUSH1 0x20 SWAP2 PUSH1 0x2 DUP4 MSTORE DUP2 DUP2 KECCAK256 SLOAD SWAP3 DUP4 ISZERO PUSH2 0xEA8 JUMPI DUP2 SWAP5 DUP3 SWAP6 JUMPDEST PUSH1 0x7 SLOAD DUP8 LT ISZERO PUSH2 0xD35 JUMPI DUP4 DUP4 DUP4 PUSH2 0xCB0 DUP11 PUSH2 0x1770 JUMP JUMPDEST SWAP1 SLOAD DUP10 MLOAD PUSH4 0xE8D991D1 PUSH1 0xE0 SHL DUP2 MSTORE SWAP5 DUP6 SWAP4 SWAP3 DUP5 SWAP3 PUSH1 0x3 SWAP2 SWAP1 SWAP2 SHL SHR PUSH1 0x1 PUSH1 0x1 PUSH1 0xA0 SHL SUB AND GAS CALL SWAP1 DUP2 ISZERO PUSH2 0xD2B JUMPI DUP6 SWAP2 PUSH2 0xCF9 JUMPI JUMPDEST POP PUSH2 0xCF1 SWAP1 PUSH1 0x1 SWAP3 PUSH2 0x1874 JUMP JUMPDEST SWAP7 ADD SWAP6 PUSH2 0xC9A JUMP JUMPDEST SWAP1 POP DUP4 DUP2 DUP2 RETURNDATASIZE DUP4 GT PUSH2 0xD24 JUMPI JUMPDEST PUSH2 0xD10 DUP2 DUP4 PUSH2 0x1852 JUMP JUMPDEST DUP2 ADD SUB SLT PUSH2 0xD20 JUMPI MLOAD PUSH1 0x1 PUSH2 0xCE4 JUMP JUMPDEST DUP5 DUP1 REVERT JUMPDEST POP RETURNDATASIZE PUSH2 0xD06 JUMP JUMPDEST DUP7 MLOAD RETURNDATASIZE DUP8 DUP3 RETURNDATACOPY RETURNDATASIZE SWAP1 REVERT JUMPDEST SWAP2 DUP5 PUSH2 0xD85 PUSH2 0xD7C DUP9 PUSH2 0xD73 PUSH2 0xD6B DUP10 SWAP9 PUSH2 0x2710 PUSH2 0xD55 PUSH1 0xC SLOAD DUP4 PUSH2 0x1A87 JUMP JUMPDEST DIV SWAP1 PUSH2 0xD63 DUP3 PUSH1 0xD SLOAD PUSH2 0x1874 JUMP JUMPDEST PUSH1 0xD SSTORE PUSH2 0x1A37 JUMP JUMPDEST PUSH1 0x9 SLOAD PUSH2 0x1874 JUMP JUMPDEST DUP1 PUSH1 0x9 SSTORE PUSH2 0x1A87 JUMP JUMPDEST PUSH1 0x3 SLOAD SWAP1 PUSH2 0x1A9A JUMP JUMPDEST SWAP3 CALLER DUP6 MSTORE PUSH1 0xA DUP4 MSTORE PUSH2 0xD9A DUP3 DUP7 KECCAK256 SLOAD DUP6 PUSH2 0x1A37 JUMP JUMPDEST SWAP4 DUP5 ISZERO PUSH2 0xE66 JUMPI SWAP3 DUP5 DUP2 SWAP4 SWAP3 PUSH2 0xE01 SWAP7 SWAP6 CALLER DUP10 MSTORE PUSH1 0xA DUP5 MSTORE DUP5 DUP10 KECCAK256 SSTORE PUSH2 0xDBE PUSH2 0x17F4 JUMP JUMPDEST SWAP1 SLOAD DUP6 MLOAD PUSH4 0xA9059CBB PUSH1 0xE0 SHL DUP2 MSTORE CALLER SWAP4 DUP2 ADD SWAP4 DUP5 MSTORE PUSH1 0x20 DUP5 ADD SWAP5 SWAP1 SWAP5 MSTORE SWAP3 SWAP8 DUP9 SWAP4 PUSH1 0x3 SWAP3 SWAP1 SWAP3 SHL SWAP2 SWAP1 SWAP2 SHR PUSH1 0x1 PUSH1 0x1 PUSH1 0xA0 SHL SUB AND SWAP2 DUP4 SWAP2 DUP11 SWAP2 DUP4 SWAP2 PUSH1 0x40 SWAP1 SWAP2 ADD SWAP1 JUMP JUMPDEST SUB SWAP3 GAS CALL SWAP4 DUP5 ISZERO PUSH2 0xE5C JUMPI PUSH32 0xC04825BA3F383B602255D2A13065A68E325C65C9E0ED5D031EA2B06F641873AF SWAP4 SWAP5 PUSH2 0xE3F JUMPI JUMPDEST POP MLOAD SWAP3 DUP4 MSTORE CALLER SWAP3 LOG2 DUP1 RETURN JUMPDEST PUSH2 0xE55 SWAP1 DUP4 RETURNDATASIZE DUP6 GT PUSH2 0x30E JUMPI PUSH2 0x302 DUP2 DUP4 PUSH2 0x1852 JUMP JUMPDEST POP DUP6 PUSH2 0xE34 JUMP JUMPDEST DUP2 MLOAD RETURNDATASIZE DUP8 DUP3 RETURNDATACOPY RETURNDATASIZE SWAP1 REVERT JUMPDEST POP DUP3 PUSH1 0x64 SWAP3 MLOAD SWAP2 PUSH3 0x461BCD PUSH1 0xE5 SHL DUP4 MSTORE DUP3 ADD MSTORE PUSH1 0x1E PUSH1 0x24 DUP3 ADD MSTORE PUSH32 0x4175746F54726561737572793A206E6F7468696E6720746F20636C61696D0000 PUSH1 0x44 DUP3 ADD MSTORE REVERT JUMPDEST DUP5 PUSH1 0x64 SWAP2 DUP5 MLOAD SWAP2 PUSH3 0x461BCD PUSH1 0xE5 SHL DUP4 MSTORE DUP3 ADD MSTORE PUSH1 0x17 PUSH1 0x24 DUP3 ADD MSTORE PUSH32 0x4175746F54726561737572793A206E6F20736861726573000000000000000000 PUSH1 0x44 DUP3 ADD MSTORE REVERT JUMPDEST POP POP CALLVALUE PUSH2 0x18A JUMPI DUP2 PUSH1 0x3 NOT CALLDATASIZE ADD SLT PUSH2 0x18A JUMPI PUSH1 0x20 SWAP1 PUSH1 0x3 SLOAD SWAP1 MLOAD SWAP1 DUP2 MSTORE RETURN JUMPDEST POP POP CALLVALUE PUSH2 0x18A JUMPI DUP2 PUSH1 0x3 NOT CALLDATASIZE ADD SLT PUSH2 0x18A JUMPI PUSH1 0x20 SWAP1 PUSH1 0xC SLOAD SWAP1 MLOAD SWAP1 DUP2 MSTORE RETURN JUMPDEST SWAP2 SWAP1 POP CALLVALUE PUSH2 0x218 JUMPI PUSH1 0x20 SWAP1 DUP2 PUSH1 0x3 NOT CALLDATASIZE ADD SLT PUSH2 0x665 JUMPI DUP3 CALLDATALOAD SWAP2 PUSH2 0xF50 PUSH1 0xFF PUSH1 0xB SLOAD AND ISZERO PUSH2 0x1A44 JUMP JUMPDEST DUP3 ISZERO PUSH2 0x1291 JUMPI CALLER DUP6 MSTORE PUSH1 0x2 DUP2 MSTORE DUP3 DUP3 DUP7 KECCAK256 SLOAD LT PUSH2 0x1245 JUMPI PUSH2 0xF78 PUSH2 0xF72 PUSH2 0x1897 JUMP JUMPDEST DUP5 PUSH2 0x1A87 JUMP JUMPDEST SWAP1 PUSH2 0xF87 PUSH1 0x3 SWAP3 DUP4 SLOAD SWAP1 PUSH2 0x1A9A JUMP JUMPDEST SWAP2 CALLER DUP8 MSTORE PUSH1 0x2 DUP3 MSTORE DUP4 DUP8 KECCAK256 PUSH2 0xF9D DUP7 DUP3 SLOAD PUSH2 0x1A37 JUMP JUMPDEST SWAP1 SSTORE PUSH2 0xFAA DUP6 DUP3 SLOAD PUSH2 0x1A37 JUMP JUMPDEST DUP2 SSTORE PUSH2 0xFB4 PUSH2 0x17F4 JUMP JUMPDEST SWAP1 SLOAD DUP6 MLOAD PUSH4 0x70A08231 PUSH1 0xE0 SHL DUP2 MSTORE ADDRESS DUP2 DUP11 ADD MSTORE PUSH1 0x24 SWAP9 PUSH1 0x1 PUSH1 0x1 PUSH1 0xA0 SHL SUB SWAP5 SWAP4 SWAP1 SWAP3 DUP7 SWAP2 DUP4 SWAP2 DUP13 SWAP2 DUP4 SWAP2 SWAP1 DUP9 SHL SHR DUP9 AND GAS STATICCALL SWAP1 DUP2 ISZERO PUSH2 0x123B JUMPI DUP11 SWAP2 PUSH2 0x120E JUMPI JUMPDEST POP DUP6 DUP2 LT PUSH2 0x10D5 JUMPI JUMPDEST POP PUSH2 0x1048 SWAP8 POP DUP5 DUP5 SWAP2 DUP5 PUSH2 0x100F PUSH2 0x17F4 JUMP JUMPDEST SWAP1 SLOAD SWAP1 DUP7 SHL SHR AND SWAP1 DUP12 DUP10 MLOAD DUP1 SWAP13 DUP2 SWAP6 DUP3 SWAP5 PUSH4 0xA9059CBB PUSH1 0xE0 SHL DUP5 MSTORE CALLER SWAP1 DUP5 ADD PUSH1 0x20 SWAP1 SWAP4 SWAP3 SWAP2 SWAP4 PUSH1 0x40 DUP2 ADD SWAP5 PUSH1 0x1 DUP1 PUSH1 0xA0 SHL SUB AND DUP2 MSTORE ADD MSTORE JUMP JUMPDEST SUB SWAP3 GAS CALL SWAP7 DUP8 ISZERO PUSH2 0x10CB JUMPI PUSH32 0x92CCF450A286A957AF52509BC1C9939D1A6A481783E142E41E2499F0BB66EBC6 SWAP7 SWAP8 PUSH2 0x10AE JUMPI JUMPDEST POP PUSH2 0x1084 PUSH2 0x17F4 JUMP JUMPDEST SWAP1 SLOAD SWAP2 SHL SHR AND DUP7 MSTORE PUSH1 0x6 DUP2 MSTORE DUP3 DUP7 KECCAK256 PUSH2 0x109E DUP4 DUP3 SLOAD PUSH2 0x1A37 JUMP JUMPDEST SWAP1 SSTORE DUP3 MLOAD SWAP5 DUP6 MSTORE DUP5 ADD MSTORE CALLER SWAP3 LOG2 DUP1 RETURN JUMPDEST PUSH2 0x10C4 SWAP1 DUP5 RETURNDATASIZE DUP7 GT PUSH2 0x30E JUMPI PUSH2 0x302 DUP2 DUP4 PUSH2 0x1852 JUMP JUMPDEST POP CODESIZE PUSH2 0x107B JUMP JUMPDEST DUP6 MLOAD RETURNDATASIZE DUP11 DUP3 RETURNDATACOPY RETURNDATASIZE SWAP1 REVERT JUMPDEST PUSH2 0x10DF SWAP1 DUP7 PUSH2 0x1A37 JUMP JUMPDEST SWAP8 DUP10 JUMPDEST PUSH1 0x7 SLOAD DUP2 LT ISZERO PUSH2 0x11FF JUMPI DUP3 DUP7 DUP7 PUSH2 0x10F8 DUP5 PUSH2 0x1770 JUMP JUMPDEST SWAP1 SLOAD SWAP1 DUP9 SHL SHR AND DUP11 MLOAD SWAP3 DUP4 DUP1 SWAP3 PUSH4 0x6A61F75 PUSH1 0xE5 SHL DUP3 MSTORE GAS STATICCALL SWAP1 DUP2 ISZERO PUSH2 0x11F5 JUMPI DUP13 SWAP2 PUSH2 0x11C4 JUMPI JUMPDEST POP DUP1 DUP12 GT ISZERO PUSH2 0x11BD JUMPI JUMPDEST DUP1 PUSH2 0x1138 JUMPI JUMPDEST POP PUSH1 0x1 ADD PUSH2 0x10E2 JUMP JUMPDEST SWAP1 SWAP10 DUP12 DUP7 PUSH2 0x1145 DUP14 PUSH2 0x1770 JUMP JUMPDEST SWAP1 SLOAD SWAP1 DUP9 SHL SHR AND DUP1 EXTCODESIZE ISZERO PUSH2 0x18A JUMPI DUP2 SWAP1 DUP6 DUP13 MLOAD DUP1 SWAP5 DUP2 SWAP4 PUSH4 0x8CA17995 PUSH1 0xE0 SHL DUP4 MSTORE DUP9 DUP12 DUP5 ADD MSTORE GAS CALL DUP1 ISZERO PUSH2 0x11B3 JUMPI SWAP1 PUSH2 0x1185 SWAP4 SWAP3 SWAP2 PUSH2 0x11A4 JUMPI JUMPDEST POP PUSH2 0x1A37 JUMP JUMPDEST SWAP9 DUP10 ISZERO PUSH2 0x1192 JUMPI CODESIZE PUSH2 0x112F JUMP JUMPDEST POP POP PUSH2 0x1048 SWAP8 POP DUP5 DUP5 SWAP2 JUMPDEST SWAP2 POP PUSH2 0xFFD JUMP JUMPDEST PUSH2 0x11AD SWAP1 PUSH2 0x1828 JUMP JUMPDEST CODESIZE PUSH2 0x117F JUMP JUMPDEST DUP11 MLOAD RETURNDATASIZE DUP16 DUP3 RETURNDATACOPY RETURNDATASIZE SWAP1 REVERT JUMPDEST POP DUP10 PUSH2 0x1129 JUMP JUMPDEST SWAP1 POP DUP7 DUP2 DUP2 RETURNDATASIZE DUP4 GT PUSH2 0x11EE JUMPI JUMPDEST PUSH2 0x11DB DUP2 DUP4 PUSH2 0x1852 JUMP JUMPDEST DUP2 ADD SUB SLT PUSH2 0x11EA JUMPI MLOAD CODESIZE PUSH2 0x111F JUMP JUMPDEST DUP12 DUP1 REVERT JUMPDEST POP RETURNDATASIZE PUSH2 0x11D1 JUMP JUMPDEST DUP10 MLOAD RETURNDATASIZE DUP15 DUP3 RETURNDATACOPY RETURNDATASIZE SWAP1 REVERT JUMPDEST POP POP PUSH2 0x1048 SWAP8 POP DUP5 DUP5 SWAP2 PUSH2 0x119D JUMP JUMPDEST SWAP1 POP DUP5 DUP2 DUP2 RETURNDATASIZE DUP4 GT PUSH2 0x1234 JUMPI JUMPDEST PUSH2 0x1225 DUP2 DUP4 PUSH2 0x1852 JUMP JUMPDEST DUP2 ADD SUB SLT PUSH2 0x67C JUMPI MLOAD CODESIZE PUSH2 0xFF4 JUMP JUMPDEST POP RETURNDATASIZE PUSH2 0x121B JUMP JUMPDEST DUP8 MLOAD RETURNDATASIZE DUP13 DUP3 RETURNDATACOPY RETURNDATASIZE SWAP1 REVERT JUMPDEST DUP4 SWAP1 PUSH1 0x84 SWAP3 MLOAD SWAP2 PUSH3 0x461BCD PUSH1 0xE5 SHL DUP4 MSTORE DUP3 ADD MSTORE PUSH1 0x21 PUSH1 0x24 DUP3 ADD MSTORE PUSH32 0x4175746F54726561737572793A20696E73756666696369656E74207368617265 PUSH1 0x44 DUP3 ADD MSTORE PUSH1 0x73 PUSH1 0xF8 SHL PUSH1 0x64 DUP3 ADD MSTORE REVERT JUMPDEST DUP4 SWAP1 PUSH1 0x64 SWAP3 MLOAD SWAP2 PUSH3 0x461BCD PUSH1 0xE5 SHL DUP4 MSTORE DUP3 ADD MSTORE PUSH1 0x19 PUSH1 0x24 DUP3 ADD MSTORE PUSH32 0x4175746F54726561737572793A207A65726F2073686172657300000000000000 PUSH1 0x44 DUP3 ADD MSTORE REVERT JUMPDEST SWAP1 POP CALLVALUE PUSH2 0x218 JUMPI PUSH1 0x20 CALLDATASIZE PUSH1 0x3 NOT ADD SLT PUSH2 0x218 JUMPI PUSH2 0x12EE PUSH2 0x1755 JUMP JUMPDEST DUP4 SLOAD PUSH1 0x1 PUSH1 0x1 PUSH1 0xA0 SHL SUB SWAP2 SWAP1 PUSH2 0x1307 SWAP1 DUP4 AND CALLER EQ PUSH2 0x19EB JUMP JUMPDEST AND SWAP2 DUP3 DUP5 MSTORE DUP2 PUSH1 0x20 MSTORE PUSH1 0xFF DUP2 DUP6 KECCAK256 SLOAD AND PUSH2 0x13AD JUMPI DUP3 DUP5 MSTORE DUP2 PUSH1 0x20 MSTORE DUP4 KECCAK256 PUSH1 0x1 PUSH1 0xFF NOT DUP3 SLOAD AND OR SWAP1 SSTORE PUSH1 0x5 SLOAD SWAP1 PUSH1 0x1 PUSH1 0x40 SHL DUP3 LT ISZERO PUSH2 0x139A JUMPI POP PUSH2 0x1371 PUSH2 0x1354 DUP3 PUSH1 0x1 DUP6 SWAP5 ADD PUSH1 0x5 SSTORE PUSH2 0x17BD JUMP JUMPDEST DUP2 SWAP4 SWAP2 SLOAD SWAP1 PUSH1 0x3 SHL SWAP2 PUSH1 0x1 DUP1 PUSH1 0xA0 SHL SUB DUP1 SWAP2 AND DUP4 SHL SWAP3 SHL NOT AND OR SWAP1 JUMP JUMPDEST SWAP1 SSTORE PUSH32 0xE3C58EBFB2E7465FBB1C32E6B4F40C3C4F5CA77E8218A386AFF8617831260D7 DUP3 DUP1 LOG2 DUP1 RETURN JUMPDEST PUSH4 0x4E487B71 PUSH1 0xE0 SHL DUP5 MSTORE PUSH1 0x41 SWAP1 MSTORE PUSH1 0x24 DUP4 REVERT JUMPDEST SWAP1 PUSH1 0x20 PUSH1 0x64 SWAP3 MLOAD SWAP2 PUSH3 0x461BCD PUSH1 0xE5 SHL DUP4 MSTORE DUP3 ADD MSTORE PUSH1 0x1F PUSH1 0x24 DUP3 ADD MSTORE PUSH32 0x4175746F54726561737572793A20616C726561647920737570706F7274656400 PUSH1 0x44 DUP3 ADD MSTORE REVERT JUMPDEST SWAP2 SWAP1 POP CALLVALUE PUSH2 0x218 JUMPI PUSH1 0x20 CALLDATASIZE PUSH1 0x3 NOT ADD SLT PUSH2 0x218 JUMPI DUP2 CALLDATALOAD PUSH1 0x1 PUSH1 0x1 PUSH1 0xA0 SHL SUB DUP2 DUP2 AND SWAP4 SWAP2 DUP5 SWAP1 SUB PUSH2 0xD20 JUMPI PUSH2 0x1428 SWAP1 DUP6 SLOAD AND CALLER EQ PUSH2 0x19EB JUMP JUMPDEST DUP3 DUP5 MSTORE PUSH1 0x8 PUSH1 0x20 MSTORE DUP2 DUP5 KECCAK256 SLOAD PUSH2 0x14A8 JUMPI PUSH1 0x7 SLOAD SWAP1 PUSH1 0x1 PUSH1 0x40 SHL DUP3 LT ISZERO PUSH2 0x1495 JUMPI POP PUSH2 0x145D PUSH2 0x1354 DUP3 PUSH1 0x1 DUP7 SWAP5 ADD PUSH1 0x7 SSTORE PUSH2 0x1770 JUMP JUMPDEST SWAP1 SSTORE PUSH1 0x7 SLOAD SWAP1 DUP3 DUP5 MSTORE PUSH1 0x8 PUSH1 0x20 MSTORE DUP4 KECCAK256 SSTORE PUSH32 0x3F008FD510EAE7A9E7BEE13513D7B83BEF8003D488B5A3D0B0DA4DE71D6846F1 DUP3 DUP1 LOG2 DUP1 RETURN JUMPDEST PUSH4 0x4E487B71 PUSH1 0xE0 SHL DUP6 MSTORE PUSH1 0x41 SWAP1 MSTORE PUSH1 0x24 DUP5 REVERT JUMPDEST PUSH1 0x20 PUSH1 0x64 SWAP3 MLOAD SWAP2 PUSH3 0x461BCD PUSH1 0xE5 SHL DUP4 MSTORE DUP3 ADD MSTORE PUSH1 0x1D PUSH1 0x24 DUP3 ADD MSTORE PUSH32 0x4175746F54726561737572793A20737472617465677920657869737473000000 PUSH1 0x44 DUP3 ADD MSTORE REVERT JUMPDEST POP POP CALLVALUE PUSH2 0x18A JUMPI DUP2 PUSH1 0x3 NOT CALLDATASIZE ADD SLT PUSH2 0x18A JUMPI PUSH1 0x20 SWAP1 PUSH1 0x7 SLOAD SWAP1 MLOAD SWAP1 DUP2 MSTORE RETURN JUMPDEST SWAP2 SWAP1 POP CALLVALUE PUSH2 0x218 JUMPI PUSH1 0x20 DUP1 PUSH1 0x3 NOT CALLDATASIZE ADD SLT PUSH2 0x665 JUMPI PUSH1 0x1 PUSH1 0x1 PUSH1 0xA0 SHL SUB DUP4 CALLDATALOAD DUP2 DUP2 AND SWAP5 SWAP1 DUP6 SWAP1 SUB PUSH2 0x16B9 JUMPI PUSH2 0x1542 DUP3 DUP8 SLOAD AND CALLER EQ PUSH2 0x19EB JUMP JUMPDEST DUP5 DUP7 MSTORE PUSH1 0x8 DUP4 MSTORE DUP4 DUP7 KECCAK256 SLOAD SWAP1 DUP2 ISZERO PUSH2 0x1678 JUMPI PUSH1 0x7 SLOAD PUSH1 0x0 NOT SWAP3 SWAP1 DUP4 DUP2 ADD SWAP1 DUP2 GT PUSH2 0x1665 JUMPI DUP4 DUP3 ADD SWAP1 DUP3 DUP3 GT PUSH2 0x1652 JUMPI SWAP1 DUP2 DUP7 SWAP3 DUP3 SUB PUSH2 0x15EF JUMPI JUMPDEST POP POP POP POP PUSH1 0x7 SLOAD SWAP1 DUP2 ISZERO PUSH2 0x15DC JUMPI POP SWAP2 DUP7 SWAP5 SWAP4 SWAP2 PUSH1 0x8 SWAP4 ADD SWAP1 PUSH2 0x159E DUP3 PUSH2 0x1770 JUMP JUMPDEST SWAP1 SWAP2 DUP3 SLOAD SWAP2 PUSH1 0x3 SHL SHL NOT AND SWAP1 SSTORE PUSH1 0x7 SSTORE DUP5 DUP5 MSTORE MSTORE DUP2 KECCAK256 SSTORE PUSH32 0x9A1DB4B80C32706328728508C941A6B954F31EB5AFFD32F236C1FD405F8FEA4 DUP3 DUP1 LOG2 DUP1 RETURN JUMPDEST PUSH4 0x4E487B71 PUSH1 0xE0 SHL DUP9 MSTORE PUSH1 0x31 SWAP1 MSTORE PUSH1 0x24 DUP8 REVERT JUMPDEST PUSH2 0x160C PUSH2 0x1630 PUSH2 0x1637 SWAP4 DUP6 PUSH2 0x1603 DUP6 PUSH2 0x1770 JUMP JUMPDEST SWAP5 SWAP1 SLOAD SWAP3 PUSH2 0x1770 JUMP JUMPDEST SWAP3 SWAP1 SWAP5 PUSH1 0x3 SHL SHR AND SWAP1 DUP4 SLOAD SWAP1 PUSH1 0x3 SHL SWAP2 PUSH1 0x1 DUP1 PUSH1 0xA0 SHL SUB DUP1 SWAP2 AND DUP4 SHL SWAP3 SHL NOT AND OR SWAP1 JUMP JUMPDEST SWAP1 SSTORE PUSH2 0x1770 JUMP JUMPDEST SWAP1 SLOAD SWAP1 PUSH1 0x3 SHL SHR AND DUP9 MSTORE PUSH1 0x8 DUP6 MSTORE DUP6 DUP9 KECCAK256 SSTORE CODESIZE DUP4 DUP2 DUP1 PUSH2 0x157C JUMP JUMPDEST PUSH4 0x4E487B71 PUSH1 0xE0 SHL DUP11 MSTORE PUSH1 0x11 DUP5 MSTORE PUSH1 0x24 DUP11 REVERT JUMPDEST PUSH4 0x4E487B71 PUSH1 0xE0 SHL DUP10 MSTORE PUSH1 0x11 DUP4 MSTORE PUSH1 0x24 DUP10 REVERT JUMPDEST PUSH1 0x64 SWAP1 DUP5 DUP1 DUP8 MLOAD SWAP3 PUSH3 0x461BCD PUSH1 0xE5 SHL DUP5 MSTORE DUP4 ADD MSTORE PUSH1 0x24 DUP3 ADD MSTORE PUSH32 0x4175746F54726561737572793A207374726174656779206E6F7420666F756E64 PUSH1 0x44 DUP3 ADD MSTORE REVERT JUMPDEST DUP6 DUP1 REVERT JUMPDEST DUP4 SWAP1 CALLVALUE PUSH2 0x18A JUMPI PUSH1 0x20 CALLDATASIZE PUSH1 0x3 NOT ADD SLT PUSH2 0x18A JUMPI CALLDATALOAD DUP1 ISZERO ISZERO DUP1 SWAP2 SUB PUSH2 0x18A JUMPI PUSH2 0x16EF PUSH1 0x1 DUP1 PUSH1 0xA0 SHL SUB DUP4 SLOAD AND CALLER EQ PUSH2 0x19EB JUMP JUMPDEST PUSH1 0xFF DUP1 NOT PUSH1 0xB SLOAD AND SWAP2 AND OR PUSH1 0xB SSTORE DUP1 RETURN JUMPDEST POP POP CALLVALUE PUSH2 0x18A JUMPI PUSH1 0x20 CALLDATASIZE PUSH1 0x3 NOT ADD SLT PUSH2 0x18A JUMPI PUSH1 0x20 SWAP2 DUP2 SWAP1 PUSH1 0x1 PUSH1 0x1 PUSH1 0xA0 SHL SUB PUSH2 0x1728 PUSH2 0x1755 JUMP JUMPDEST AND DUP2 MSTORE PUSH1 0x8 DUP5 MSTORE KECCAK256 SLOAD SWAP1 MLOAD SWAP1 DUP2 MSTORE RETURN JUMPDEST POP POP CALLVALUE PUSH2 0x18A JUMPI DUP2 PUSH1 0x3 NOT CALLDATASIZE ADD SLT PUSH2 0x18A JUMPI PUSH1 0x20 SWAP1 PUSH2 0x344 PUSH2 0x1897 JUMP JUMPDEST PUSH1 0x4 CALLDATALOAD SWAP1 PUSH1 0x1 PUSH1 0x1 PUSH1 0xA0 SHL SUB DUP3 AND DUP3 SUB PUSH2 0x176B JUMPI JUMP JUMPDEST PUSH1 0x0 DUP1 REVERT JUMPDEST PUSH1 0x7 SLOAD DUP2 LT ISZERO PUSH2 0x17A7 JUMPI PUSH1 0x7 PUSH1 0x0 MSTORE PUSH32 0xA66CC928B5EDB82AF9BD49922954155AB7B0942694BEA4CE44661D9A8736C688 ADD SWAP1 PUSH1 0x0 SWAP1 JUMP JUMPDEST PUSH4 0x4E487B71 PUSH1 0xE0 SHL PUSH1 0x0 MSTORE PUSH1 0x32 PUSH1 0x4 MSTORE PUSH1 0x24 PUSH1 0x0 REVERT JUMPDEST PUSH1 0x5 SLOAD DUP2 LT ISZERO PUSH2 0x17A7 JUMPI PUSH1 0x5 PUSH1 0x0 MSTORE PUSH32 0x36B6384B5ECA791C62761152D0C79BB0604C104A5FB6F4EB0703F3154BB3DB0 ADD SWAP1 PUSH1 0x0 SWAP1 JUMP JUMPDEST PUSH1 0x5 SLOAD ISZERO PUSH2 0x17A7 JUMPI PUSH1 0x5 PUSH1 0x0 MSTORE PUSH32 0x36B6384B5ECA791C62761152D0C79BB0604C104A5FB6F4EB0703F3154BB3DB0 SWAP1 PUSH1 0x0 SWAP1 JUMP JUMPDEST PUSH8 0xFFFFFFFFFFFFFFFF DUP2 GT PUSH2 0x183C JUMPI PUSH1 0x40 MSTORE JUMP JUMPDEST PUSH4 0x4E487B71 PUSH1 0xE0 SHL PUSH1 0x0 MSTORE PUSH1 0x41 PUSH1 0x4 MSTORE PUSH1 0x24 PUSH1 0x0 REVERT JUMPDEST SWAP1 PUSH1 0x1F DUP1 NOT SWAP2 ADD AND DUP2 ADD SWAP1 DUP2 LT PUSH8 0xFFFFFFFFFFFFFFFF DUP3 GT OR PUSH2 0x183C JUMPI PUSH1 0x40 MSTORE JUMP JUMPDEST SWAP2 SWAP1 DUP3 ADD DUP1 SWAP3 GT PUSH2 0x1881 JUMPI JUMP JUMPDEST PUSH4 0x4E487B71 PUSH1 0xE0 SHL PUSH1 0x0 MSTORE PUSH1 0x11 PUSH1 0x4 MSTORE PUSH1 0x24 PUSH1 0x0 REVERT JUMPDEST PUSH1 0x0 DUP1 PUSH1 0x5 SLOAD JUMPDEST DUP1 DUP3 LT PUSH2 0x1954 JUMPI POP POP PUSH1 0x0 PUSH1 0x7 SLOAD JUMPDEST DUP1 DUP3 LT PUSH2 0x18B9 JUMPI POP POP SWAP1 JUMP JUMPDEST SWAP1 SWAP2 PUSH2 0x18C4 DUP4 PUSH2 0x1770 JUMP JUMPDEST SWAP1 SLOAD PUSH1 0x40 DUP1 MLOAD PUSH4 0x6A61F75 PUSH1 0xE5 SHL DUP2 MSTORE SWAP1 SWAP3 SWAP1 SWAP2 PUSH1 0x20 SWAP2 DUP3 SWAP2 DUP5 SWAP2 PUSH1 0x4 SWAP2 DUP4 SWAP2 PUSH1 0x3 SHL SHR PUSH1 0x1 PUSH1 0x1 PUSH1 0xA0 SHL SUB AND GAS STATICCALL SWAP3 DUP4 ISZERO PUSH2 0x194A JUMPI POP PUSH1 0x0 SWAP3 PUSH2 0x1919 JUMPI JUMPDEST POP POP PUSH2 0x1911 SWAP1 PUSH1 0x1 SWAP3 PUSH2 0x1874 JUMP JUMPDEST SWAP3 ADD SWAP1 PUSH2 0x18AD JUMP JUMPDEST DUP2 DUP2 SWAP4 SWAP3 SWAP4 RETURNDATASIZE DUP4 GT PUSH2 0x1943 JUMPI JUMPDEST PUSH2 0x1930 DUP2 DUP4 PUSH2 0x1852 JUMP JUMPDEST DUP2 ADD SUB SLT PUSH2 0x215 JUMPI POP MLOAD DUP2 PUSH2 0x1911 PUSH2 0x1903 JUMP JUMPDEST POP RETURNDATASIZE PUSH2 0x1926 JUMP JUMPDEST MLOAD RETURNDATASIZE PUSH1 0x0 DUP3 RETURNDATACOPY RETURNDATASIZE SWAP1 REVERT JUMPDEST SWAP1 SWAP2 PUSH2 0x195F DUP4 PUSH2 0x17BD JUMP JUMPDEST SWAP1 SLOAD PUSH1 0x40 DUP1 MLOAD PUSH4 0x70A08231 PUSH1 0xE0 SHL DUP2 MSTORE ADDRESS PUSH1 0x4 DUP3 ADD MSTORE SWAP1 SWAP3 SWAP1 SWAP2 PUSH1 0x20 SWAP2 DUP3 SWAP2 DUP5 SWAP2 PUSH1 0x24 SWAP2 DUP4 SWAP2 PUSH1 0x3 SHL SHR PUSH1 0x1 PUSH1 0x1 PUSH1 0xA0 SHL SUB AND GAS STATICCALL SWAP3 DUP4 ISZERO PUSH2 0x194A JUMPI POP PUSH1 0x0 SWAP3 PUSH2 0x19BA JUMPI JUMPDEST POP POP PUSH2 0x19B2 SWAP1 PUSH1 0x1 SWAP3 PUSH2 0x1874 JUMP JUMPDEST SWAP3 ADD SWAP1 PUSH2 0x189E JUMP JUMPDEST DUP2 DUP2 SWAP4 SWAP3 SWAP4 RETURNDATASIZE DUP4 GT PUSH2 0x19E4 JUMPI JUMPDEST PUSH2 0x19D1 DUP2 DUP4 PUSH2 0x1852 JUMP JUMPDEST DUP2 ADD SUB SLT PUSH2 0x215 JUMPI POP MLOAD DUP2 PUSH2 0x19B2 PUSH2 0x19A4 JUMP JUMPDEST POP RETURNDATASIZE PUSH2 0x19C7 JUMP JUMPDEST ISZERO PUSH2 0x19F2 JUMPI JUMP JUMPDEST PUSH1 0x40 MLOAD PUSH3 0x461BCD PUSH1 0xE5 SHL DUP2 MSTORE PUSH1 0x20 PUSH1 0x4 DUP3 ADD MSTORE PUSH1 0x17 PUSH1 0x24 DUP3 ADD MSTORE PUSH32 0x4175746F54726561737572793A206E6F74206F776E6572000000000000000000 PUSH1 0x44 DUP3 ADD MSTORE PUSH1 0x64 SWAP1 REVERT JUMPDEST SWAP2 SWAP1 DUP3 SUB SWAP2 DUP3 GT PUSH2 0x1881 JUMPI JUMP JUMPDEST ISZERO PUSH2 0x1A4B JUMPI JUMP JUMPDEST PUSH1 0x40 MLOAD PUSH3 0x461BCD PUSH1 0xE5 SHL DUP2 MSTORE PUSH1 0x20 PUSH1 0x4 DUP3 ADD MSTORE PUSH1 0x14 PUSH1 0x24 DUP3 ADD MSTORE PUSH20 0x105D5D1BD51C99585CDD5C9E4E881C185D5CD959 PUSH1 0x62 SHL PUSH1 0x44 DUP3 ADD MSTORE PUSH1 0x64 SWAP1 REVERT JUMPDEST DUP2 DUP2 MUL SWAP3 SWAP2 DUP2 ISZERO SWAP2 DUP5 DIV EQ OR ISZERO PUSH2 0x1881 JUMPI JUMP JUMPDEST DUP2 ISZERO PUSH2 0x1AA4 JUMPI DIV SWAP1 JUMP JUMPDEST PUSH4 0x4E487B71 PUSH1 0xE0 SHL PUSH1 0x0 MSTORE PUSH1 0x12 PUSH1 0x4 MSTORE PUSH1 0x24 PUSH1 0x0 REVERT JUMPDEST SWAP1 DUP2 PUSH1 0x20 SWAP2 SUB SLT PUSH2 0x176B JUMPI MLOAD DUP1 ISZERO ISZERO DUP2 SUB PUSH2 0x176B JUMPI SWAP1 JUMP JUMPDEST ISZERO PUSH2 0x1AD9 JUMPI JUMP JUMPDEST PUSH1 0x40 MLOAD PUSH3 0x461BCD PUSH1 0xE5 SHL DUP2 MSTORE PUSH1 0x20 PUSH1 0x4 DUP3 ADD MSTORE PUSH1 0x19 PUSH1 0x24 DUP3 ADD MSTORE PUSH32 0x4175746F54726561737572793A207A65726F20616D6F756E7400000000000000 PUSH1 0x44 DUP3 ADD MSTORE PUSH1 0x64 SWAP1 REVERT JUMPDEST PUSH1 0x3 SLOAD DUP1 ISZERO PUSH2 0x1B56 JUMPI PUSH2 0x1B2F PUSH2 0x1897 JUMP JUMPDEST SWAP1 PUSH8 0xDE0B6B3A7640000 SWAP2 DUP3 DUP2 MUL SWAP3 DUP2 DUP5 DIV EQ SWAP1 ISZERO OR ISZERO PUSH2 0x1881 JUMPI PUSH2 0x1B53 SWAP2 PUSH2 0x1A9A JUMP JUMPDEST SWAP1 JUMP JUMPDEST POP PUSH8 0xDE0B6B3A7640000 SWAP1 JUMP JUMPDEST PUSH1 0x0 JUMPDEST DUP4 DUP2 LT PUSH2 0x1B76 JUMPI POP POP PUSH1 0x0 SWAP2 ADD MSTORE JUMP JUMPDEST DUP2 DUP2 ADD MLOAD DUP4 DUP3 ADD MSTORE PUSH1 0x20 ADD PUSH2 0x1B66 JUMP JUMPDEST SWAP1 PUSH1 0x20 SWAP2 PUSH2 0x1B9F DUP2 MLOAD DUP1 SWAP3 DUP2 DUP6 MSTORE DUP6 DUP1 DUP7 ADD SWAP2 ADD PUSH2 0x1B63 JUMP JUMPDEST PUSH1 0x1F ADD PUSH1 0x1F NOT AND ADD ADD SWAP1 JUMP JUMPDEST PUSH1 0x3 SLOAD DUP1 ISZERO DUP1 ISZERO PUSH2 0x1C10 JUMPI JUMPDEST PUSH2 0x1C09 JUMPI PUSH2 0x1BE4 PUSH1 0x9 SLOAD SWAP3 PUSH1 0x1 DUP1 PUSH1 0xA0 SHL SUB AND SWAP2 PUSH2 0xBC2 PUSH1 0x0 SWAP5 DUP5 DUP7 MSTORE PUSH1 0x2 PUSH1 0x20 MSTORE PUSH1 0x40 DUP7 KECCAK256 SLOAD SWAP1 PUSH2 0x1A87 JUMP JUMPDEST SWAP1 DUP3 MSTORE PUSH1 0xA PUSH1 0x20 MSTORE PUSH1 0x40 DUP3 KECCAK256 SLOAD SWAP1 DUP2 DUP2 GT ISZERO PUSH2 0x1C04 JUMPI PUSH2 0x1B53 SWAP3 POP PUSH2 0x1A37 JUMP JUMPDEST POP POP SWAP1 JUMP JUMPDEST POP POP PUSH1 0x0 SWAP1 JUMP JUMPDEST POP PUSH1 0x1 PUSH1 0x1 PUSH1 0xA0 SHL SUB DUP3 AND PUSH1 0x0 SWAP1 DUP2 MSTORE PUSH1 0x2 PUSH1 0x20 MSTORE PUSH1 0x40 SWAP1 KECCAK256 SLOAD ISZERO PUSH2 0x1BB7 JUMP INVALID LOG2 PUSH5 0x6970667358 0x22 SLT KECCAK256 DUP3 0xDF STATICCALL 0xFC 0x28 BASEFEE PC SWAP16 0xA5 ISZERO 0x25 SWAP8 SWAP9 PUSH30 0x2A820F41570DA4B0632F9D2378B69DED209264736F6C6343000818003300 "},"methodIdentifiers":{"addAsset(address)":"298410e5","addStrategy(address)":"223e5479","assetCount()":"eafe7a74","assetList(uint256)":"a0b4b301","claimYield()":"406cf229","collectFees()":"c8796572","deposit(address,uint256)":"47e7ef24","emergencyWithdraw(address,uint256)":"95ccea67","owner()":"8da5cb5b","paused()":"5c975abb","pendingYield(address)":"c7bf1980","protocolFeeBps()":"35659fb8","rebalance()":"7d7c2a1c","removeStrategy(address)":"175188e8","setPaused(bool)":"16c38b3c","sharePrice()":"87269729","shares(address)":"ce7c2ac2","strategies(uint256)":"d574ea3d","strategyCount()":"22068b44","strategyIndex(address)":"11451526","supportedAssets(address)":"bd81579e","totalAssets()":"01e1d114","totalDeposited(address)":"53055481","totalFeesAccrued()":"73f38ee0","totalShares()":"3a98ef39","totalYieldAccrued()":"ee6c3bf2","triggerXCMTransfer(address,uint256)":"91731c66","withdraw(uint256)":"2e1a7d4d","xcmRouter()":"e1d20600","yieldClaimed(address)":"45bba697"}}}}}