{"src/XCMRouter.sol":{"XCMRouter":{"abi":[{"inputs":[],"stateMutability":"nonpayable","type":"constructor"},{"anonymous":false,"inputs":[{"indexed":false,"internalType":"bytes","name":"message","type":"bytes"}],"name":"XCMExecuted","type":"event"},{"anonymous":false,"inputs":[{"indexed":false,"internalType":"bytes","name":"dest","type":"bytes"},{"indexed":false,"internalType":"bytes","name":"message","type":"bytes"}],"name":"XCMSent","type":"event"},{"inputs":[],"name":"ASSET_HUB_PARA_ID","outputs":[{"internalType":"uint32","name":"","type":"uint32"}],"stateMutability":"view","type":"function"},{"inputs":[],"name":"RELAY_CHAIN_ID","outputs":[{"internalType":"uint32","name":"","type":"uint32"}],"stateMutability":"view","type":"function"},{"inputs":[],"name":"STAKING_PRECOMPILE","outputs":[{"internalType":"address","name":"","type":"address"}],"stateMutability":"view","type":"function"},{"inputs":[],"name":"XCM_PRECOMPILE","outputs":[{"internalType":"address","name":"","type":"address"}],"stateMutability":"view","type":"function"},{"inputs":[{"internalType":"address","name":"asset","type":"address"},{"internalType":"uint256","name":"amount","type":"uint256"}],"name":"buildLendOnAssetHub","outputs":[{"internalType":"bytes","name":"payload","type":"bytes"}],"stateMutability":"pure","type":"function"},{"inputs":[{"internalType":"uint256","name":"amount","type":"uint256"}],"name":"buildStakeOnRelay","outputs":[{"internalType":"bytes","name":"payload","type":"bytes"}],"stateMutability":"pure","type":"function"},{"inputs":[{"internalType":"address","name":"asset","type":"address"},{"internalType":"uint256","name":"amount","type":"uint256"}],"name":"buildTransferToAssetHub","outputs":[{"internalType":"bytes","name":"payload","type":"bytes"}],"stateMutability":"pure","type":"function"},{"inputs":[{"internalType":"address","name":"account","type":"address"}],"name":"getNativeBonded","outputs":[{"internalType":"uint256","name":"","type":"uint256"}],"stateMutability":"view","type":"function"},{"inputs":[{"internalType":"uint256","name":"amount","type":"uint256"}],"name":"nativeBond","outputs":[],"stateMutability":"nonpayable","type":"function"},{"inputs":[{"internalType":"address[]","name":"targets","type":"address[]"}],"name":"nativeNominate","outputs":[],"stateMutability":"nonpayable","type":"function"},{"inputs":[{"internalType":"uint256","name":"amount","type":"uint256"}],"name":"nativeUnbond","outputs":[],"stateMutability":"nonpayable","type":"function"},{"inputs":[],"name":"owner","outputs":[{"internalType":"address","name":"","type":"address"}],"stateMutability":"view","type":"function"},{"inputs":[{"internalType":"bytes","name":"payload","type":"bytes"}],"name":"sendToAssetHub","outputs":[],"stateMutability":"nonpayable","type":"function"},{"inputs":[{"internalType":"bytes","name":"payload","type":"bytes"}],"name":"sendToRelay","outputs":[],"stateMutability":"nonpayable","type":"function"},{"inputs":[{"internalType":"address","name":"_xcm","type":"address"},{"internalType":"address","name":"_staking","type":"address"}],"name":"setPrecompileAddresses","outputs":[],"stateMutability":"nonpayable","type":"function"},{"inputs":[{"internalType":"address","name":"_treasury","type":"address"}],"name":"setTreasury","outputs":[],"stateMutability":"nonpayable","type":"function"},{"inputs":[],"name":"treasury","outputs":[{"internalType":"address","name":"","type":"address"}],"stateMutability":"view","type":"function"}],"evm":{"bytecode":{"linkReferences":{},"object":"608080604052346100415760018060a01b0319620a000081600054161760005561080381600154161760015533906002541617600255610c4b90816100478239f35b600080fdfe608060409080825260048036101561001657600080fd5b600092833560e01c92836306856142146108ba57508263077120cc146108925782630cb9f3ad1461086957826318d716361461081e5782633f707022146107b857826355480d171461079b57826357d3c71a1461069e57826361d027b31461067557826379b15de01461057e5782637ae40a11146105175782638bac5ab51461047b578383638d483188146103f0575082638da5cb5b146103c7578263927620db146102e6578263a58be0c3146101d6579083918363b375e04a146101395750505063f0f44260146100e757600080fd5b34610136576020366003190112610136576101006109f4565b6002546001600160a01b03919061011a9083163314610adb565b166bffffffffffffffffffffffff60a01b600354161760035580f35b80fd5b829350346101d25760203660031901126101d2576003546001600160a01b03908116331480156101c5575b61016d90610a0a565b6001541691823b156101c057839260248492845195869384926313ef4f1960e11b84528035908401525af19081156101b757506101a75750f35b6101b0906108d3565b6101365780f35b513d84823e3d90fd5b505050fd5b5060025481163314610164565b5050fd5b8382346102e25760209260206003193601126102de5767ffffffffffffffff82358181116102da57366023820112156102da57808401359182116102da573660248360051b830101116102da576003546001600160a01b0392908316331480156102cd575b61024490610a0a565b600196836001541693843b156102c9579190818651976319f2fdad60e01b8952602060248a01918a01525260246044880194019288905b83821061029f5789808a8a8282808c0381838f5af19081156101b757506101a75750f35b90919293948535908282168092036102c45790815283019483019392918a019061027b565b600080fd5b8780fd5b506002548316331461023b565b8480fd5b8280fd5b5080fd5b8334610136578160031936011261013657506103006109f4565b906103c361031561030f610b1e565b93610bd0565b916103b46021610370835161036b60328260209961140360f01b8b830152610346815180928d6022860191016109ac565b81016001600160801b031960243560801b166022820152036012810184520182610919565b610b71565b958351968791600160fa1b88840152610391815180928a87870191016109ac565b82016103a5825180938a87850191016109ac565b01036001810187520185610919565b519282849384528301906109cf565b0390f35b8390346102e257816003193601126102e25760025490516001600160a01b039091168152602090f35b925090346101d25760203660031901126101d2576003546001600160a01b039081163314801561046e575b61042490610a0a565b60015416803b156101c057604484928451958693849263d5c90b2960e01b84528035908401528160248401525af19081156101b75750610462575080f35b61046b906108d3565b80f35b506002548116331461041b565b8390346102e257602092836003193601126102de57836104996109f4565b600154845163f19e2a2160e01b81526001600160a01b039283169481019490945283916024918391165afa92831561050c5780936104da575b505051908152f35b909192508382813d8311610505575b6104f38183610919565b810103126101365750519083806104d2565b503d6104e9565b8251903d90823e3d90fd5b8390346102e257366003190112610136576105306109f4565b6024356001600160a01b03818116929183900361057a5761055681600254163314610adb565b6bffffffffffffffffffffffff60a01b911681845416178355600154161760015580f35b8380fd5b9150346102de57826105dd60206105943661093b565b809460018060a01b03806003541633148015610668575b6105b490610a0a565b6105bc610b50565b95869181541692895196879586948593637f0a3bf960e01b85528401610a6e565b03925af190811561065e579361061f610629927fb896fa5daa5aaa810dbe2375ff4785c955bc7e1423e43094570a9f841329a7dd96889161062f575b50610a96565b5192839283610a6e565b0390a180f35b610651915060203d602011610657575b6106498183610919565b810190610a56565b38610619565b503d61063f565b84513d87823e3d90fd5b50600254811633146105ab565b8390346102e257816003193601126102e25760035490516001600160a01b039091168152602090f35b83346101365781600319360112610136576103c36106ba6109f4565b926103b46021602435946106d56106cf610b1e565b97610bd0565b845161076e60478260209a8b82019587875260648d8251908301906106fd818d8801846109ac565b850161073d6001600160801b031994858760801b168e840152600d60f81b60318401528c6032840152600360fa1b603384015251809360348401906109ac565b01920460801b166034820152600160fa1b968760448301528060458301526046820152036027810184520182610919565b6103a58651998a948a86015261078c815180928c89890191016109ac565b840191518093868401906109ac565b8390346102e257816003193601126102e257602090516103e88152f35b9150346102de576020918260031936011261057a576103b460216103706103c3946107e1610b50565b8551600760f81b89820152913560801b6fffffffffffffffffffffffffffffffff1916602283015260328201989098526013815261036b816108fd565b9150346102de57826105dd60206108343661093b565b809460018060a01b0380600354163314801561085c575b61085490610a0a565b6105bc610b1e565b506002548116331461084b565b8390346102e257816003193601126102e25760015490516001600160a01b039091168152602090f35b8390346102e257816003193601126102e257905490516001600160a01b039091168152602090f35b8490346102e257816003193601126102e2576020918152f35b67ffffffffffffffff81116108e757604052565b634e487b7160e01b600052604160045260246000fd5b6040810190811067ffffffffffffffff8211176108e757604052565b90601f8019910116810190811067ffffffffffffffff8211176108e757604052565b60206003198201126102c45767ffffffffffffffff6004358181116102c457826023820112156102c45780600401359182116108e75760405192610989601f8401601f191660200185610919565b828452602483830101116102c45781600092602460209301838601378301015290565b60005b8381106109bf5750506000910152565b81810151838201526020016109af565b906020916109e8815180928185528580860191016109ac565b601f01601f1916010190565b600435906001600160a01b03821682036102c457565b15610a1157565b60405162461bcd60e51b815260206004820152601760248201527f58434d526f757465723a20756e617574686f72697a65640000000000000000006044820152606490fd5b908160209103126102c4575180151581036102c45790565b9091610a85610a93936040845260408401906109cf565b9160208184039101526109cf565b90565b15610a9d57565b60405162461bcd60e51b81526020600482015260166024820152751610d3549bdd5d195c8e881cd95b990819985a5b195960521b6044820152606490fd5b15610ae257565b60405162461bcd60e51b81526020600482015260146024820152732c21a6a937baba32b91d103737ba1037bbb732b960611b6044820152606490fd5b604051600160f81b60208201819052602182015260006022820152607d60e31b602382015260078152610a93816108fd565b604051600160f81b60208201526000602182015260028152610a93816108fd565b610a9360336040518093600360f91b602083015260006021830152600160f81b6022830152621dcd6560c91b602383015261027160c41b602b830152610bc081518092602086860191016109ac565b8101036013810184520182610919565b60405160006020820152600160f81b6021820152600560f81b602282015260609190911b6bffffffffffffffffffffffff1916602382015260178152610a93816108fd56fea2646970667358221220cab1d58f27d08667d7de70d9a3b3c4ddcf970ae90b2299256d095ca998b1b5cc64736f6c63430008180033","opcodes":"PUSH1 0x80 DUP1 PUSH1 0x40 MSTORE CALLVALUE PUSH2 0x41 JUMPI PUSH1 0x1 DUP1 PUSH1 0xA0 SHL SUB NOT PUSH3 0xA0000 DUP2 PUSH1 0x0 SLOAD AND OR PUSH1 0x0 SSTORE PUSH2 0x803 DUP2 PUSH1 0x1 SLOAD AND OR PUSH1 0x1 SSTORE CALLER SWAP1 PUSH1 0x2 SLOAD AND OR PUSH1 0x2 SSTORE PUSH2 0xC4B SWAP1 DUP2 PUSH2 0x47 DUP3 CODECOPY RETURN JUMPDEST PUSH1 0x0 DUP1 REVERT INVALID PUSH1 0x80 PUSH1 0x40 SWAP1 DUP1 DUP3 MSTORE PUSH1 0x4 DUP1 CALLDATASIZE LT ISZERO PUSH2 0x16 JUMPI PUSH1 0x0 DUP1 REVERT JUMPDEST PUSH1 0x0 SWAP3 DUP4 CALLDATALOAD PUSH1 0xE0 SHR SWAP3 DUP4 PUSH4 0x6856142 EQ PUSH2 0x8BA JUMPI POP DUP3 PUSH4 0x77120CC EQ PUSH2 0x892 JUMPI DUP3 PUSH4 0xCB9F3AD EQ PUSH2 0x869 JUMPI DUP3 PUSH4 0x18D71636 EQ PUSH2 0x81E JUMPI DUP3 PUSH4 0x3F707022 EQ PUSH2 0x7B8 JUMPI DUP3 PUSH4 0x55480D17 EQ PUSH2 0x79B JUMPI DUP3 PUSH4 0x57D3C71A EQ PUSH2 0x69E JUMPI DUP3 PUSH4 0x61D027B3 EQ PUSH2 0x675 JUMPI DUP3 PUSH4 0x79B15DE0 EQ PUSH2 0x57E JUMPI DUP3 PUSH4 0x7AE40A11 EQ PUSH2 0x517 JUMPI DUP3 PUSH4 0x8BAC5AB5 EQ PUSH2 0x47B JUMPI DUP4 DUP4 PUSH4 0x8D483188 EQ PUSH2 0x3F0 JUMPI POP DUP3 PUSH4 0x8DA5CB5B EQ PUSH2 0x3C7 JUMPI DUP3 PUSH4 0x927620DB EQ PUSH2 0x2E6 JUMPI DUP3 PUSH4 0xA58BE0C3 EQ PUSH2 0x1D6 JUMPI SWAP1 DUP4 SWAP2 DUP4 PUSH4 0xB375E04A EQ PUSH2 0x139 JUMPI POP POP POP PUSH4 0xF0F44260 EQ PUSH2 0xE7 JUMPI PUSH1 0x0 DUP1 REVERT JUMPDEST CALLVALUE PUSH2 0x136 JUMPI PUSH1 0x20 CALLDATASIZE PUSH1 0x3 NOT ADD SLT PUSH2 0x136 JUMPI PUSH2 0x100 PUSH2 0x9F4 JUMP JUMPDEST PUSH1 0x2 SLOAD PUSH1 0x1 PUSH1 0x1 PUSH1 0xA0 SHL SUB SWAP2 SWAP1 PUSH2 0x11A SWAP1 DUP4 AND CALLER EQ PUSH2 0xADB JUMP JUMPDEST AND PUSH12 0xFFFFFFFFFFFFFFFFFFFFFFFF PUSH1 0xA0 SHL PUSH1 0x3 SLOAD AND OR PUSH1 0x3 SSTORE DUP1 RETURN JUMPDEST DUP1 REVERT JUMPDEST DUP3 SWAP4 POP CALLVALUE PUSH2 0x1D2 JUMPI PUSH1 0x20 CALLDATASIZE PUSH1 0x3 NOT ADD SLT PUSH2 0x1D2 JUMPI PUSH1 0x3 SLOAD PUSH1 0x1 PUSH1 0x1 PUSH1 0xA0 SHL SUB SWAP1 DUP2 AND CALLER EQ DUP1 ISZERO PUSH2 0x1C5 JUMPI JUMPDEST PUSH2 0x16D SWAP1 PUSH2 0xA0A JUMP JUMPDEST PUSH1 0x1 SLOAD AND SWAP2 DUP3 EXTCODESIZE ISZERO PUSH2 0x1C0 JUMPI DUP4 SWAP3 PUSH1 0x24 DUP5 SWAP3 DUP5 MLOAD SWAP6 DUP7 SWAP4 DUP5 SWAP3 PUSH4 0x13EF4F19 PUSH1 0xE1 SHL DUP5 MSTORE DUP1 CALLDATALOAD SWAP1 DUP5 ADD MSTORE GAS CALL SWAP1 DUP2 ISZERO PUSH2 0x1B7 JUMPI POP PUSH2 0x1A7 JUMPI POP RETURN JUMPDEST PUSH2 0x1B0 SWAP1 PUSH2 0x8D3 JUMP JUMPDEST PUSH2 0x136 JUMPI DUP1 RETURN JUMPDEST MLOAD RETURNDATASIZE DUP5 DUP3 RETURNDATACOPY RETURNDATASIZE SWAP1 REVERT JUMPDEST POP POP POP REVERT JUMPDEST POP PUSH1 0x2 SLOAD DUP2 AND CALLER EQ PUSH2 0x164 JUMP JUMPDEST POP POP REVERT JUMPDEST DUP4 DUP3 CALLVALUE PUSH2 0x2E2 JUMPI PUSH1 0x20 SWAP3 PUSH1 0x20 PUSH1 0x3 NOT CALLDATASIZE ADD SLT PUSH2 0x2DE JUMPI PUSH8 0xFFFFFFFFFFFFFFFF DUP3 CALLDATALOAD DUP2 DUP2 GT PUSH2 0x2DA JUMPI CALLDATASIZE PUSH1 0x23 DUP3 ADD SLT ISZERO PUSH2 0x2DA JUMPI DUP1 DUP5 ADD CALLDATALOAD SWAP2 DUP3 GT PUSH2 0x2DA JUMPI CALLDATASIZE PUSH1 0x24 DUP4 PUSH1 0x5 SHL DUP4 ADD ADD GT PUSH2 0x2DA JUMPI PUSH1 0x3 SLOAD PUSH1 0x1 PUSH1 0x1 PUSH1 0xA0 SHL SUB SWAP3 SWAP1 DUP4 AND CALLER EQ DUP1 ISZERO PUSH2 0x2CD JUMPI JUMPDEST PUSH2 0x244 SWAP1 PUSH2 0xA0A JUMP JUMPDEST PUSH1 0x1 SWAP7 DUP4 PUSH1 0x1 SLOAD AND SWAP4 DUP5 EXTCODESIZE ISZERO PUSH2 0x2C9 JUMPI SWAP2 SWAP1 DUP2 DUP7 MLOAD SWAP8 PUSH4 0x19F2FDAD PUSH1 0xE0 SHL DUP10 MSTORE PUSH1 0x20 PUSH1 0x24 DUP11 ADD SWAP2 DUP11 ADD MSTORE MSTORE PUSH1 0x24 PUSH1 0x44 DUP9 ADD SWAP5 ADD SWAP3 DUP9 SWAP1 JUMPDEST DUP4 DUP3 LT PUSH2 0x29F JUMPI DUP10 DUP1 DUP11 DUP11 DUP3 DUP3 DUP1 DUP13 SUB DUP2 DUP4 DUP16 GAS CALL SWAP1 DUP2 ISZERO PUSH2 0x1B7 JUMPI POP PUSH2 0x1A7 JUMPI POP RETURN JUMPDEST SWAP1 SWAP2 SWAP3 SWAP4 SWAP5 DUP6 CALLDATALOAD SWAP1 DUP3 DUP3 AND DUP1 SWAP3 SUB PUSH2 0x2C4 JUMPI SWAP1 DUP2 MSTORE DUP4 ADD SWAP5 DUP4 ADD SWAP4 SWAP3 SWAP2 DUP11 ADD SWAP1 PUSH2 0x27B JUMP JUMPDEST PUSH1 0x0 DUP1 REVERT JUMPDEST DUP8 DUP1 REVERT JUMPDEST POP PUSH1 0x2 SLOAD DUP4 AND CALLER EQ PUSH2 0x23B JUMP JUMPDEST DUP5 DUP1 REVERT JUMPDEST DUP3 DUP1 REVERT JUMPDEST POP DUP1 REVERT JUMPDEST DUP4 CALLVALUE PUSH2 0x136 JUMPI DUP2 PUSH1 0x3 NOT CALLDATASIZE ADD SLT PUSH2 0x136 JUMPI POP PUSH2 0x300 PUSH2 0x9F4 JUMP JUMPDEST SWAP1 PUSH2 0x3C3 PUSH2 0x315 PUSH2 0x30F PUSH2 0xB1E JUMP JUMPDEST SWAP4 PUSH2 0xBD0 JUMP JUMPDEST SWAP2 PUSH2 0x3B4 PUSH1 0x21 PUSH2 0x370 DUP4 MLOAD PUSH2 0x36B PUSH1 0x32 DUP3 PUSH1 0x20 SWAP10 PUSH2 0x1403 PUSH1 0xF0 SHL DUP12 DUP4 ADD MSTORE PUSH2 0x346 DUP2 MLOAD DUP1 SWAP3 DUP14 PUSH1 0x22 DUP7 ADD SWAP2 ADD PUSH2 0x9AC JUMP JUMPDEST DUP2 ADD PUSH1 0x1 PUSH1 0x1 PUSH1 0x80 SHL SUB NOT PUSH1 0x24 CALLDATALOAD PUSH1 0x80 SHL AND PUSH1 0x22 DUP3 ADD MSTORE SUB PUSH1 0x12 DUP2 ADD DUP5 MSTORE ADD DUP3 PUSH2 0x919 JUMP JUMPDEST PUSH2 0xB71 JUMP JUMPDEST SWAP6 DUP4 MLOAD SWAP7 DUP8 SWAP2 PUSH1 0x1 PUSH1 0xFA SHL DUP9 DUP5 ADD MSTORE PUSH2 0x391 DUP2 MLOAD DUP1 SWAP3 DUP11 DUP8 DUP8 ADD SWAP2 ADD PUSH2 0x9AC JUMP JUMPDEST DUP3 ADD PUSH2 0x3A5 DUP3 MLOAD DUP1 SWAP4 DUP11 DUP8 DUP6 ADD SWAP2 ADD PUSH2 0x9AC JUMP JUMPDEST ADD SUB PUSH1 0x1 DUP2 ADD DUP8 MSTORE ADD DUP6 PUSH2 0x919 JUMP JUMPDEST MLOAD SWAP3 DUP3 DUP5 SWAP4 DUP5 MSTORE DUP4 ADD SWAP1 PUSH2 0x9CF JUMP JUMPDEST SUB SWAP1 RETURN JUMPDEST DUP4 SWAP1 CALLVALUE PUSH2 0x2E2 JUMPI DUP2 PUSH1 0x3 NOT CALLDATASIZE ADD SLT PUSH2 0x2E2 JUMPI PUSH1 0x2 SLOAD SWAP1 MLOAD PUSH1 0x1 PUSH1 0x1 PUSH1 0xA0 SHL SUB SWAP1 SWAP2 AND DUP2 MSTORE PUSH1 0x20 SWAP1 RETURN JUMPDEST SWAP3 POP SWAP1 CALLVALUE PUSH2 0x1D2 JUMPI PUSH1 0x20 CALLDATASIZE PUSH1 0x3 NOT ADD SLT PUSH2 0x1D2 JUMPI PUSH1 0x3 SLOAD PUSH1 0x1 PUSH1 0x1 PUSH1 0xA0 SHL SUB SWAP1 DUP2 AND CALLER EQ DUP1 ISZERO PUSH2 0x46E JUMPI JUMPDEST PUSH2 0x424 SWAP1 PUSH2 0xA0A JUMP JUMPDEST PUSH1 0x1 SLOAD AND DUP1 EXTCODESIZE ISZERO PUSH2 0x1C0 JUMPI PUSH1 0x44 DUP5 SWAP3 DUP5 MLOAD SWAP6 DUP7 SWAP4 DUP5 SWAP3 PUSH4 0xD5C90B29 PUSH1 0xE0 SHL DUP5 MSTORE DUP1 CALLDATALOAD SWAP1 DUP5 ADD MSTORE DUP2 PUSH1 0x24 DUP5 ADD MSTORE GAS CALL SWAP1 DUP2 ISZERO PUSH2 0x1B7 JUMPI POP PUSH2 0x462 JUMPI POP DUP1 RETURN JUMPDEST PUSH2 0x46B SWAP1 PUSH2 0x8D3 JUMP JUMPDEST DUP1 RETURN JUMPDEST POP PUSH1 0x2 SLOAD DUP2 AND CALLER EQ PUSH2 0x41B JUMP JUMPDEST DUP4 SWAP1 CALLVALUE PUSH2 0x2E2 JUMPI PUSH1 0x20 SWAP3 DUP4 PUSH1 0x3 NOT CALLDATASIZE ADD SLT PUSH2 0x2DE JUMPI DUP4 PUSH2 0x499 PUSH2 0x9F4 JUMP JUMPDEST PUSH1 0x1 SLOAD DUP5 MLOAD PUSH4 0xF19E2A21 PUSH1 0xE0 SHL DUP2 MSTORE PUSH1 0x1 PUSH1 0x1 PUSH1 0xA0 SHL SUB SWAP3 DUP4 AND SWAP5 DUP2 ADD SWAP5 SWAP1 SWAP5 MSTORE DUP4 SWAP2 PUSH1 0x24 SWAP2 DUP4 SWAP2 AND GAS STATICCALL SWAP3 DUP4 ISZERO PUSH2 0x50C JUMPI DUP1 SWAP4 PUSH2 0x4DA JUMPI JUMPDEST POP POP MLOAD SWAP1 DUP2 MSTORE RETURN JUMPDEST SWAP1 SWAP2 SWAP3 POP DUP4 DUP3 DUP2 RETURNDATASIZE DUP4 GT PUSH2 0x505 JUMPI JUMPDEST PUSH2 0x4F3 DUP2 DUP4 PUSH2 0x919 JUMP JUMPDEST DUP2 ADD SUB SLT PUSH2 0x136 JUMPI POP MLOAD SWAP1 DUP4 DUP1 PUSH2 0x4D2 JUMP JUMPDEST POP RETURNDATASIZE PUSH2 0x4E9 JUMP JUMPDEST DUP3 MLOAD SWAP1 RETURNDATASIZE SWAP1 DUP3 RETURNDATACOPY RETURNDATASIZE SWAP1 REVERT JUMPDEST DUP4 SWAP1 CALLVALUE PUSH2 0x2E2 JUMPI CALLDATASIZE PUSH1 0x3 NOT ADD SLT PUSH2 0x136 JUMPI PUSH2 0x530 PUSH2 0x9F4 JUMP JUMPDEST PUSH1 0x24 CALLDATALOAD PUSH1 0x1 PUSH1 0x1 PUSH1 0xA0 SHL SUB DUP2 DUP2 AND SWAP3 SWAP2 DUP4 SWAP1 SUB PUSH2 0x57A JUMPI PUSH2 0x556 DUP2 PUSH1 0x2 SLOAD AND CALLER EQ PUSH2 0xADB JUMP JUMPDEST PUSH12 0xFFFFFFFFFFFFFFFFFFFFFFFF PUSH1 0xA0 SHL SWAP2 AND DUP2 DUP5 SLOAD AND OR DUP4 SSTORE PUSH1 0x1 SLOAD AND OR PUSH1 0x1 SSTORE DUP1 RETURN JUMPDEST DUP4 DUP1 REVERT JUMPDEST SWAP2 POP CALLVALUE PUSH2 0x2DE JUMPI DUP3 PUSH2 0x5DD PUSH1 0x20 PUSH2 0x594 CALLDATASIZE PUSH2 0x93B JUMP JUMPDEST DUP1 SWAP5 PUSH1 0x1 DUP1 PUSH1 0xA0 SHL SUB DUP1 PUSH1 0x3 SLOAD AND CALLER EQ DUP1 ISZERO PUSH2 0x668 JUMPI JUMPDEST PUSH2 0x5B4 SWAP1 PUSH2 0xA0A JUMP JUMPDEST PUSH2 0x5BC PUSH2 0xB50 JUMP JUMPDEST SWAP6 DUP7 SWAP2 DUP2 SLOAD AND SWAP3 DUP10 MLOAD SWAP7 DUP8 SWAP6 DUP7 SWAP5 DUP6 SWAP4 PUSH4 0x7F0A3BF9 PUSH1 0xE0 SHL DUP6 MSTORE DUP5 ADD PUSH2 0xA6E JUMP JUMPDEST SUB SWAP3 GAS CALL SWAP1 DUP2 ISZERO PUSH2 0x65E JUMPI SWAP4 PUSH2 0x61F PUSH2 0x629 SWAP3 PUSH32 0xB896FA5DAA5AAA810DBE2375FF4785C955BC7E1423E43094570A9F841329A7DD SWAP7 DUP9 SWAP2 PUSH2 0x62F JUMPI JUMPDEST POP PUSH2 0xA96 JUMP JUMPDEST MLOAD SWAP3 DUP4 SWAP3 DUP4 PUSH2 0xA6E JUMP JUMPDEST SUB SWAP1 LOG1 DUP1 RETURN JUMPDEST PUSH2 0x651 SWAP2 POP PUSH1 0x20 RETURNDATASIZE PUSH1 0x20 GT PUSH2 0x657 JUMPI JUMPDEST PUSH2 0x649 DUP2 DUP4 PUSH2 0x919 JUMP JUMPDEST DUP2 ADD SWAP1 PUSH2 0xA56 JUMP JUMPDEST CODESIZE PUSH2 0x619 JUMP JUMPDEST POP RETURNDATASIZE PUSH2 0x63F JUMP JUMPDEST DUP5 MLOAD RETURNDATASIZE DUP8 DUP3 RETURNDATACOPY RETURNDATASIZE SWAP1 REVERT JUMPDEST POP PUSH1 0x2 SLOAD DUP2 AND CALLER EQ PUSH2 0x5AB JUMP JUMPDEST DUP4 SWAP1 CALLVALUE PUSH2 0x2E2 JUMPI DUP2 PUSH1 0x3 NOT CALLDATASIZE ADD SLT PUSH2 0x2E2 JUMPI PUSH1 0x3 SLOAD SWAP1 MLOAD PUSH1 0x1 PUSH1 0x1 PUSH1 0xA0 SHL SUB SWAP1 SWAP2 AND DUP2 MSTORE PUSH1 0x20 SWAP1 RETURN JUMPDEST DUP4 CALLVALUE PUSH2 0x136 JUMPI DUP2 PUSH1 0x3 NOT CALLDATASIZE ADD SLT PUSH2 0x136 JUMPI PUSH2 0x3C3 PUSH2 0x6BA PUSH2 0x9F4 JUMP JUMPDEST SWAP3 PUSH2 0x3B4 PUSH1 0x21 PUSH1 0x24 CALLDATALOAD SWAP5 PUSH2 0x6D5 PUSH2 0x6CF PUSH2 0xB1E JUMP JUMPDEST SWAP8 PUSH2 0xBD0 JUMP JUMPDEST DUP5 MLOAD PUSH2 0x76E PUSH1 0x47 DUP3 PUSH1 0x20 SWAP11 DUP12 DUP3 ADD SWAP6 DUP8 DUP8 MSTORE PUSH1 0x64 DUP14 DUP3 MLOAD SWAP1 DUP4 ADD SWAP1 PUSH2 0x6FD DUP2 DUP14 DUP9 ADD DUP5 PUSH2 0x9AC JUMP JUMPDEST DUP6 ADD PUSH2 0x73D PUSH1 0x1 PUSH1 0x1 PUSH1 0x80 SHL SUB NOT SWAP5 DUP6 DUP8 PUSH1 0x80 SHL AND DUP15 DUP5 ADD MSTORE PUSH1 0xD PUSH1 0xF8 SHL PUSH1 0x31 DUP5 ADD MSTORE DUP13 PUSH1 0x32 DUP5 ADD MSTORE PUSH1 0x3 PUSH1 0xFA SHL PUSH1 0x33 DUP5 ADD MSTORE MLOAD DUP1 SWAP4 PUSH1 0x34 DUP5 ADD SWAP1 PUSH2 0x9AC JUMP JUMPDEST ADD SWAP3 DIV PUSH1 0x80 SHL AND PUSH1 0x34 DUP3 ADD MSTORE PUSH1 0x1 PUSH1 0xFA SHL SWAP7 DUP8 PUSH1 0x44 DUP4 ADD MSTORE DUP1 PUSH1 0x45 DUP4 ADD MSTORE PUSH1 0x46 DUP3 ADD MSTORE SUB PUSH1 0x27 DUP2 ADD DUP5 MSTORE ADD DUP3 PUSH2 0x919 JUMP JUMPDEST PUSH2 0x3A5 DUP7 MLOAD SWAP10 DUP11 SWAP5 DUP11 DUP7 ADD MSTORE PUSH2 0x78C DUP2 MLOAD DUP1 SWAP3 DUP13 DUP10 DUP10 ADD SWAP2 ADD PUSH2 0x9AC JUMP JUMPDEST DUP5 ADD SWAP2 MLOAD DUP1 SWAP4 DUP7 DUP5 ADD SWAP1 PUSH2 0x9AC JUMP JUMPDEST DUP4 SWAP1 CALLVALUE PUSH2 0x2E2 JUMPI DUP2 PUSH1 0x3 NOT CALLDATASIZE ADD SLT PUSH2 0x2E2 JUMPI PUSH1 0x20 SWAP1 MLOAD PUSH2 0x3E8 DUP2 MSTORE RETURN JUMPDEST SWAP2 POP CALLVALUE PUSH2 0x2DE JUMPI PUSH1 0x20 SWAP2 DUP3 PUSH1 0x3 NOT CALLDATASIZE ADD SLT PUSH2 0x57A JUMPI PUSH2 0x3B4 PUSH1 0x21 PUSH2 0x370 PUSH2 0x3C3 SWAP5 PUSH2 0x7E1 PUSH2 0xB50 JUMP JUMPDEST DUP6 MLOAD PUSH1 0x7 PUSH1 0xF8 SHL DUP10 DUP3 ADD MSTORE SWAP2 CALLDATALOAD PUSH1 0x80 SHL PUSH16 0xFFFFFFFFFFFFFFFFFFFFFFFFFFFFFFFF NOT AND PUSH1 0x22 DUP4 ADD MSTORE PUSH1 0x32 DUP3 ADD SWAP9 SWAP1 SWAP9 MSTORE PUSH1 0x13 DUP2 MSTORE PUSH2 0x36B DUP2 PUSH2 0x8FD JUMP JUMPDEST SWAP2 POP CALLVALUE PUSH2 0x2DE JUMPI DUP3 PUSH2 0x5DD PUSH1 0x20 PUSH2 0x834 CALLDATASIZE PUSH2 0x93B JUMP JUMPDEST DUP1 SWAP5 PUSH1 0x1 DUP1 PUSH1 0xA0 SHL SUB DUP1 PUSH1 0x3 SLOAD AND CALLER EQ DUP1 ISZERO PUSH2 0x85C JUMPI JUMPDEST PUSH2 0x854 SWAP1 PUSH2 0xA0A JUMP JUMPDEST PUSH2 0x5BC PUSH2 0xB1E JUMP JUMPDEST POP PUSH1 0x2 SLOAD DUP2 AND CALLER EQ PUSH2 0x84B JUMP JUMPDEST DUP4 SWAP1 CALLVALUE PUSH2 0x2E2 JUMPI DUP2 PUSH1 0x3 NOT CALLDATASIZE ADD SLT PUSH2 0x2E2 JUMPI PUSH1 0x1 SLOAD SWAP1 MLOAD PUSH1 0x1 PUSH1 0x1 PUSH1 0xA0 SHL SUB SWAP1 SWAP2 AND DUP2 MSTORE PUSH1 0x20 SWAP1 RETURN JUMPDEST DUP4 SWAP1 CALLVALUE PUSH2 0x2E2 JUMPI DUP2 PUSH1 0x3 NOT CALLDATASIZE ADD SLT PUSH2 0x2E2 JUMPI SWAP1 SLOAD SWAP1 MLOAD PUSH1 0x1 PUSH1 0x1 PUSH1 0xA0 SHL SUB SWAP1 SWAP2 AND DUP2 MSTORE PUSH1 0x20 SWAP1 RETURN JUMPDEST DUP5 SWAP1 CALLVALUE PUSH2 0x2E2 JUMPI DUP2 PUSH1 0x3 NOT CALLDATASIZE ADD SLT PUSH2 0x2E2 JUMPI PUSH1 0x20 SWAP2 DUP2 MSTORE RETURN JUMPDEST PUSH8 0xFFFFFFFFFFFFFFFF DUP2 GT PUSH2 0x8E7 JUMPI PUSH1 0x40 MSTORE JUMP JUMPDEST PUSH4 0x4E487B71 PUSH1 0xE0 SHL PUSH1 0x0 MSTORE PUSH1 0x41 PUSH1 0x4 MSTORE PUSH1 0x24 PUSH1 0x0 REVERT JUMPDEST PUSH1 0x40 DUP2 ADD SWAP1 DUP2 LT PUSH8 0xFFFFFFFFFFFFFFFF DUP3 GT OR PUSH2 0x8E7 JUMPI PUSH1 0x40 MSTORE JUMP JUMPDEST SWAP1 PUSH1 0x1F DUP1 NOT SWAP2 ADD AND DUP2 ADD SWAP1 DUP2 LT PUSH8 0xFFFFFFFFFFFFFFFF DUP3 GT OR PUSH2 0x8E7 JUMPI PUSH1 0x40 MSTORE JUMP JUMPDEST PUSH1 0x20 PUSH1 0x3 NOT DUP3 ADD SLT PUSH2 0x2C4 JUMPI PUSH8 0xFFFFFFFFFFFFFFFF PUSH1 0x4 CALLDATALOAD DUP2 DUP2 GT PUSH2 0x2C4 JUMPI DUP3 PUSH1 0x23 DUP3 ADD SLT ISZERO PUSH2 0x2C4 JUMPI DUP1 PUSH1 0x4 ADD CALLDATALOAD SWAP2 DUP3 GT PUSH2 0x8E7 JUMPI PUSH1 0x40 MLOAD SWAP3 PUSH2 0x989 PUSH1 0x1F DUP5 ADD PUSH1 0x1F NOT AND PUSH1 0x20 ADD DUP6 PUSH2 0x919 JUMP JUMPDEST DUP3 DUP5 MSTORE PUSH1 0x24 DUP4 DUP4 ADD ADD GT PUSH2 0x2C4 JUMPI DUP2 PUSH1 0x0 SWAP3 PUSH1 0x24 PUSH1 0x20 SWAP4 ADD DUP4 DUP7 ADD CALLDATACOPY DUP4 ADD ADD MSTORE SWAP1 JUMP JUMPDEST PUSH1 0x0 JUMPDEST DUP4 DUP2 LT PUSH2 0x9BF JUMPI POP POP PUSH1 0x0 SWAP2 ADD MSTORE JUMP JUMPDEST DUP2 DUP2 ADD MLOAD DUP4 DUP3 ADD MSTORE PUSH1 0x20 ADD PUSH2 0x9AF JUMP JUMPDEST SWAP1 PUSH1 0x20 SWAP2 PUSH2 0x9E8 DUP2 MLOAD DUP1 SWAP3 DUP2 DUP6 MSTORE DUP6 DUP1 DUP7 ADD SWAP2 ADD PUSH2 0x9AC JUMP JUMPDEST PUSH1 0x1F ADD PUSH1 0x1F NOT AND ADD ADD SWAP1 JUMP JUMPDEST PUSH1 0x4 CALLDATALOAD SWAP1 PUSH1 0x1 PUSH1 0x1 PUSH1 0xA0 SHL SUB DUP3 AND DUP3 SUB PUSH2 0x2C4 JUMPI JUMP JUMPDEST ISZERO PUSH2 0xA11 JUMPI JUMP JUMPDEST PUSH1 0x40 MLOAD PUSH3 0x461BCD PUSH1 0xE5 SHL DUP2 MSTORE PUSH1 0x20 PUSH1 0x4 DUP3 ADD MSTORE PUSH1 0x17 PUSH1 0x24 DUP3 ADD MSTORE PUSH32 0x58434D526F757465723A20756E617574686F72697A6564000000000000000000 PUSH1 0x44 DUP3 ADD MSTORE PUSH1 0x64 SWAP1 REVERT JUMPDEST SWAP1 DUP2 PUSH1 0x20 SWAP2 SUB SLT PUSH2 0x2C4 JUMPI MLOAD DUP1 ISZERO ISZERO DUP2 SUB PUSH2 0x2C4 JUMPI SWAP1 JUMP JUMPDEST SWAP1 SWAP2 PUSH2 0xA85 PUSH2 0xA93 SWAP4 PUSH1 0x40 DUP5 MSTORE PUSH1 0x40 DUP5 ADD SWAP1 PUSH2 0x9CF JUMP JUMPDEST SWAP2 PUSH1 0x20 DUP2 DUP5 SUB SWAP2 ADD MSTORE PUSH2 0x9CF JUMP JUMPDEST SWAP1 JUMP JUMPDEST ISZERO PUSH2 0xA9D JUMPI JUMP JUMPDEST PUSH1 0x40 MLOAD PUSH3 0x461BCD PUSH1 0xE5 SHL DUP2 MSTORE PUSH1 0x20 PUSH1 0x4 DUP3 ADD MSTORE PUSH1 0x16 PUSH1 0x24 DUP3 ADD MSTORE PUSH22 0x1610D3549BDD5D195C8E881CD95B990819985A5B1959 PUSH1 0x52 SHL PUSH1 0x44 DUP3 ADD MSTORE PUSH1 0x64 SWAP1 REVERT JUMPDEST ISZERO PUSH2 0xAE2 JUMPI JUMP JUMPDEST PUSH1 0x40 MLOAD PUSH3 0x461BCD PUSH1 0xE5 SHL DUP2 MSTORE PUSH1 0x20 PUSH1 0x4 DUP3 ADD MSTORE PUSH1 0x14 PUSH1 0x24 DUP3 ADD MSTORE PUSH20 0x2C21A6A937BABA32B91D103737BA1037BBB732B9 PUSH1 0x61 SHL PUSH1 0x44 DUP3 ADD MSTORE PUSH1 0x64 SWAP1 REVERT JUMPDEST PUSH1 0x40 MLOAD PUSH1 0x1 PUSH1 0xF8 SHL PUSH1 0x20 DUP3 ADD DUP2 SWAP1 MSTORE PUSH1 0x21 DUP3 ADD MSTORE PUSH1 0x0 PUSH1 0x22 DUP3 ADD MSTORE PUSH1 0x7D PUSH1 0xE3 SHL PUSH1 0x23 DUP3 ADD MSTORE PUSH1 0x7 DUP2 MSTORE PUSH2 0xA93 DUP2 PUSH2 0x8FD JUMP JUMPDEST PUSH1 0x40 MLOAD PUSH1 0x1 PUSH1 0xF8 SHL PUSH1 0x20 DUP3 ADD MSTORE PUSH1 0x0 PUSH1 0x21 DUP3 ADD MSTORE PUSH1 0x2 DUP2 MSTORE PUSH2 0xA93 DUP2 PUSH2 0x8FD JUMP JUMPDEST PUSH2 0xA93 PUSH1 0x33 PUSH1 0x40 MLOAD DUP1 SWAP4 PUSH1 0x3 PUSH1 0xF9 SHL PUSH1 0x20 DUP4 ADD MSTORE PUSH1 0x0 PUSH1 0x21 DUP4 ADD MSTORE PUSH1 0x1 PUSH1 0xF8 SHL PUSH1 0x22 DUP4 ADD MSTORE PUSH3 0x1DCD65 PUSH1 0xC9 SHL PUSH1 0x23 DUP4 ADD MSTORE PUSH2 0x271 PUSH1 0xC4 SHL PUSH1 0x2B DUP4 ADD MSTORE PUSH2 0xBC0 DUP2 MLOAD DUP1 SWAP3 PUSH1 0x20 DUP7 DUP7 ADD SWAP2 ADD PUSH2 0x9AC JUMP JUMPDEST DUP2 ADD SUB PUSH1 0x13 DUP2 ADD DUP5 MSTORE ADD DUP3 PUSH2 0x919 JUMP JUMPDEST PUSH1 0x40 MLOAD PUSH1 0x0 PUSH1 0x20 DUP3 ADD MSTORE PUSH1 0x1 PUSH1 0xF8 SHL PUSH1 0x21 DUP3 ADD MSTORE PUSH1 0x5 PUSH1 0xF8 SHL PUSH1 0x22 DUP3 ADD MSTORE PUSH1 0x60 SWAP2 SWAP1 SWAP2 SHL PUSH12 0xFFFFFFFFFFFFFFFFFFFFFFFF NOT AND PUSH1 0x23 DUP3 ADD MSTORE PUSH1 0x17 DUP2 MSTORE PUSH2 0xA93 DUP2 PUSH2 0x8FD JUMP INVALID LOG2 PUSH5 0x6970667358 0x22 SLT KECCAK256 0xCA 0xB1 0xD5 DUP16 0x27 0xD0 DUP7 PUSH8 0xD7DE70D9A3B3C4DD 0xCF SWAP8 EXP 0xE9 SIGNEXTEND 0x22 SWAP10 0x25 PUSH14 0x95CA998B1B5CC64736F6C634300 ADDMOD XOR STOP CALLER "},"methodIdentifiers":{"ASSET_HUB_PARA_ID()":"55480d17","RELAY_CHAIN_ID()":"06856142","STAKING_PRECOMPILE()":"0cb9f3ad","XCM_PRECOMPILE()":"077120cc","buildLendOnAssetHub(address,uint256)":"927620db","buildStakeOnRelay(uint256)":"3f707022","buildTransferToAssetHub(address,uint256)":"57d3c71a","getNativeBonded(address)":"8bac5ab5","nativeBond(uint256)":"8d483188","nativeNominate(address[])":"a58be0c3","nativeUnbond(uint256)":"b375e04a","owner()":"8da5cb5b","sendToAssetHub(bytes)":"18d71636","sendToRelay(bytes)":"79b15de0","setPrecompileAddresses(address,address)":"7ae40a11","setTreasury(address)":"f0f44260","treasury()":"61d027b3"}}}}}