{
  "_format": "hh-sol-artifact-1",
  "contractName": "AutoTreasury",
  "sourceName": "src/AutoTreasury.sol",
  "abi": [
    {
      "inputs": [
        {
          "internalType": "address",
          "name": "_xcmRouter",
          "type": "address"
        }
      ],
      "stateMutability": "nonpayable",
      "type": "constructor"
    },
    {
      "anonymous": false,
      "inputs": [
        {
          "indexed": true,
          "internalType": "address",
          "name": "asset",
          "type": "address"
        }
      ],
      "name": "AssetAdded",
      "type": "event"
    },
    {
      "anonymous": false,
      "inputs": [
        {
          "indexed": true,
          "internalType": "address",
          "name": "user",
          "type": "address"
        },
        {
          "indexed": true,
          "internalType": "address",
          "name": "asset",
          "type": "address"
        },
        {
          "indexed": false,
          "internalType": "uint256",
          "name": "amount",
          "type": "uint256"
        },
        {
          "indexed": false,
          "internalType": "uint256",
          "name": "sharesMinted",
          "type": "uint256"
        }
      ],
      "name": "Deposited",
      "type": "event"
    },
    {
      "anonymous": false,
      "inputs": [
        {
          "indexed": false,
          "internalType": "uint256",
          "name": "timestamp",
          "type": "uint256"
        }
      ],
      "name": "Rebalanced",
      "type": "event"
    },
    {
      "anonymous": false,
      "inputs": [
        {
          "indexed": true,
          "internalType": "address",
          "name": "strategy",
          "type": "address"
        }
      ],
      "name": "StrategyAdded",
      "type": "event"
    },
    {
      "anonymous": false,
      "inputs": [
        {
          "indexed": true,
          "internalType": "address",
          "name": "strategy",
          "type": "address"
        }
      ],
      "name": "StrategyRemoved",
      "type": "event"
    },
    {
      "anonymous": false,
      "inputs": [
        {
          "indexed": true,
          "internalType": "address",
          "name": "user",
          "type": "address"
        },
        {
          "indexed": false,
          "internalType": "uint256",
          "name": "sharesBurned",
          "type": "uint256"
        },
        {
          "indexed": false,
          "internalType": "uint256",
          "name": "amountReturned",
          "type": "uint256"
        }
      ],
      "name": "Withdrawn",
      "type": "event"
    },
    {
      "anonymous": false,
      "inputs": [
        {
          "indexed": true,
          "internalType": "address",
          "name": "asset",
          "type": "address"
        },
        {
          "indexed": false,
          "internalType": "uint256",
          "name": "amount",
          "type": "uint256"
        },
        {
          "indexed": false,
          "internalType": "bytes",
          "name": "xcmPayload",
          "type": "bytes"
        }
      ],
      "name": "XCMTransferTriggered",
      "type": "event"
    },
    {
      "anonymous": false,
      "inputs": [
        {
          "indexed": true,
          "internalType": "address",
          "name": "user",
          "type": "address"
        },
        {
          "indexed": false,
          "internalType": "uint256",
          "name": "amount",
          "type": "uint256"
        }
      ],
      "name": "YieldClaimed",
      "type": "event"
    },
    {
      "inputs": [
        {
          "internalType": "address",
          "name": "asset",
          "type": "address"
        }
      ],
      "name": "addAsset",
      "outputs": [],
      "stateMutability": "nonpayable",
      "type": "function"
    },
    {
      "inputs": [
        {
          "internalType": "contract YieldStrategy",
          "name": "strategy",
          "type": "address"
        }
      ],
      "name": "addStrategy",
      "outputs": [],
      "stateMutability": "nonpayable",
      "type": "function"
    },
    {
      "inputs": [],
      "name": "assetCount",
      "outputs": [
        {
          "internalType": "uint256",
          "name": "",
          "type": "uint256"
        }
      ],
      "stateMutability": "view",
      "type": "function"
    },
    {
      "inputs": [
        {
          "internalType": "uint256",
          "name": "",
          "type": "uint256"
        }
      ],
      "name": "assetList",
      "outputs": [
        {
          "internalType": "address",
          "name": "",
          "type": "address"
        }
      ],
      "stateMutability": "view",
      "type": "function"
    },
    {
      "inputs": [],
      "name": "claimYield",
      "outputs": [],
      "stateMutability": "nonpayable",
      "type": "function"
    },
    {
      "inputs": [
        {
          "internalType": "address",
          "name": "asset",
          "type": "address"
        },
        {
          "internalType": "uint256",
          "name": "amount",
          "type": "uint256"
        }
      ],
      "name": "deposit",
      "outputs": [],
      "stateMutability": "nonpayable",
      "type": "function"
    },
    {
      "inputs": [],
      "name": "owner",
      "outputs": [
        {
          "internalType": "address",
          "name": "",
          "type": "address"
        }
      ],
      "stateMutability": "view",
      "type": "function"
    },
    {
      "inputs": [
        {
          "internalType": "address",
          "name": "user",
          "type": "address"
        }
      ],
      "name": "pendingYield",
      "outputs": [
        {
          "internalType": "uint256",
          "name": "",
          "type": "uint256"
        }
      ],
      "stateMutability": "view",
      "type": "function"
    },
    {
      "inputs": [],
      "name": "rebalance",
      "outputs": [],
      "stateMutability": "nonpayable",
      "type": "function"
    },
    {
      "inputs": [
        {
          "internalType": "contract YieldStrategy",
          "name": "strategy",
          "type": "address"
        }
      ],
      "name": "removeStrategy",
      "outputs": [],
      "stateMutability": "nonpayable",
      "type": "function"
    },
    {
      "inputs": [],
      "name": "sharePrice",
      "outputs": [
        {
          "internalType": "uint256",
          "name": "",
          "type": "uint256"
        }
      ],
      "stateMutability": "view",
      "type": "function"
    },
    {
      "inputs": [
        {
          "internalType": "address",
          "name": "",
          "type": "address"
        }
      ],
      "name": "shares",
      "outputs": [
        {
          "internalType": "uint256",
          "name": "",
          "type": "uint256"
        }
      ],
      "stateMutability": "view",
      "type": "function"
    },
    {
      "inputs": [
        {
          "internalType": "uint256",
          "name": "",
          "type": "uint256"
        }
      ],
      "name": "strategies",
      "outputs": [
        {
          "internalType": "contract YieldStrategy",
          "name": "",
          "type": "address"
        }
      ],
      "stateMutability": "view",
      "type": "function"
    },
    {
      "inputs": [],
      "name": "strategyCount",
      "outputs": [
        {
          "internalType": "uint256",
          "name": "",
          "type": "uint256"
        }
      ],
      "stateMutability": "view",
      "type": "function"
    },
    {
      "inputs": [
        {
          "internalType": "address",
          "name": "",
          "type": "address"
        }
      ],
      "name": "strategyIndex",
      "outputs": [
        {
          "internalType": "uint256",
          "name": "",
          "type": "uint256"
        }
      ],
      "stateMutability": "view",
      "type": "function"
    },
    {
      "inputs": [
        {
          "internalType": "address",
          "name": "",
          "type": "address"
        }
      ],
      "name": "supportedAssets",
      "outputs": [
        {
          "internalType": "bool",
          "name": "",
          "type": "bool"
        }
      ],
      "stateMutability": "view",
      "type": "function"
    },
    {
      "inputs": [],
      "name": "totalAssets",
      "outputs": [
        {
          "internalType": "uint256",
          "name": "",
          "type": "uint256"
        }
      ],
      "stateMutability": "view",
      "type": "function"
    },
    {
      "inputs": [
        {
          "internalType": "address",
          "name": "",
          "type": "address"
        }
      ],
      "name": "totalDeposited",
      "outputs": [
        {
          "internalType": "uint256",
          "name": "",
          "type": "uint256"
        }
      ],
      "stateMutability": "view",
      "type": "function"
    },
    {
      "inputs": [],
      "name": "totalShares",
      "outputs": [
        {
          "internalType": "uint256",
          "name": "",
          "type": "uint256"
        }
      ],
      "stateMutability": "view",
      "type": "function"
    },
    {
      "inputs": [],
      "name": "totalYieldAccrued",
      "outputs": [
        {
          "internalType": "uint256",
          "name": "",
          "type": "uint256"
        }
      ],
      "stateMutability": "view",
      "type": "function"
    },
    {
      "inputs": [
        {
          "internalType": "address",
          "name": "asset",
          "type": "address"
        },
        {
          "internalType": "uint256",
          "name": "amount",
          "type": "uint256"
        }
      ],
      "name": "triggerXCMTransfer",
      "outputs": [],
      "stateMutability": "nonpayable",
      "type": "function"
    },
    {
      "inputs": [
        {
          "internalType": "uint256",
          "name": "shareAmount",
          "type": "uint256"
        }
      ],
      "name": "withdraw",
      "outputs": [],
      "stateMutability": "nonpayable",
      "type": "function"
    },
    {
      "inputs": [],
      "name": "xcmRouter",
      "outputs": [
        {
          "internalType": "contract XCMRouter",
          "name": "",
          "type": "address"
        }
      ],
      "stateMutability": "view",
      "type": "function"
    },
    {
      "inputs": [
        {
          "internalType": "address",
          "name": "",
          "type": "address"
        }
      ],
      "name": "yieldClaimed",
      "outputs": [
        {
          "internalType": "uint256",
          "name": "",
          "type": "uint256"
        }
      ],
      "stateMutability": "view",
      "type": "function"
    }
  ],
  "bytecode": "0x60803461007a57601f611a6138819003918201601f19168301916001600160401b0383118484101761007f5780849260209460405283398101031261007a57516001600160a01b0381169081900361007a5760018060a01b03193381600054161760005560015416176001556040516119cb90816100968239f35b600080fd5b634e487b7160e01b600052604160045260246000fdfe6040608081526004908136101561001557600080fd5b600091823560e01c90816301e1d1141461151457816311451526146114dc578163175188e81461132857816322068b4414611309578163223e54791461120f578163298410e5146110f25781632e1a7d4d14610e0a5781633a98ef3914610deb578163406cf22914610ad557816345bba69714610a9d57816347e7ef241461091c57816353055481146108e45781637d7c2a1c1461060657816387269729146105e95781638da5cb5b146105c157816391731c66146102a7578163a0b4b3011461027c578163bd81579e1461023f578163c7bf198014610212578163ce7c2ac2146101da578163d574ea3d1461019257508063e1d206001461016a578063eafe7a741461014c5763ee6c3bf21461012b57600080fd5b346101485781600319360112610148576020906009549051908152f35b5080fd5b50346101485781600319360112610148576020906005549051908152f35b503461014857816003193601126101485760015490516001600160a01b039091168152602090f35b9050346101d65760203660031901126101d65735916007548310156101d357506101bd60209261154c565b905491519160018060a01b039160031b1c168152f35b80fd5b8280fd5b5050346101485760203660031901126101485760209181906001600160a01b03610202611531565b1681526002845220549051908152f35b50503461014857602036600319011261014857602090610238610233611531565b611910565b9051908152f35b9050346101d65760203660031901126101d65760209260ff918391906001600160a01b0361026b611531565b168252855220541690519015158152f35b9050346101d65760203660031901126101d65735916005548310156101d357506101bd602092611599565b9050346101d657816003193601126101d6576102c1611531565b9060243560018060a01b036102da818754163314611793565b6102e5821515611837565b84516370a0823160e01b8152308482015284821694602094909185816024818a5afa80156105b75785918a91610586575b501061053857600154875163095ea7b360e01b81529084166001600160a01b031682820190815260208101869052899291908790829081906040010381868c5af1801561052e576103a49584928892610501575b506001548b51632be9e38d60e11b81526001600160a01b039097168588019081526020810193909352959695169486918291604090910190565b0381865afa9384156104f757829461044f575b50823b15610148578751630c6b8b1b60e11b81529081018690529182908183816103e460248201896118eb565b03925af18015610445579561043092917fb7601b2b4ca3afa837769c4aeed7ebeaac7a39144481681131486c7e5d2ee6cd9697610436575b5080805195869586528501528301906118eb565b0390a280f35b61043f906115d0565b3861041c565b86513d89823e3d90fd5b915092503d8089833e61046281836115fa565b81019085818303126104f357805167ffffffffffffffff918282116104ef57019082601f830112156104eb5781519081116104d857908992918951926104b189601f19601f85011601856115fa565b8184528882840101116104d4576104cd918880850191016118c8565b92386103b7565b8380fd5b634e487b7160e01b8a526041855260248afd5b8980fd5b8a80fd5b8880fd5b88513d84823e3d90fd5b610520908a3d8c11610527575b61051881836115fa565b81019061181f565b503861036a565b503d61050e565b89513d85823e3d90fd5b865162461bcd60e51b8152908101859052602260248201527f4175746f54726561737572793a20696e73756666696369656e742062616c616e604482015261636560f01b6064820152608490fd5b809250878092503d83116105b0575b61059f81836115fa565b810103126104f35784905138610316565b503d610595565b88513d8b823e3d90fd5b505034610148578160031936011261014857905490516001600160a01b039091168152602090f35b505034610148578160031936011261014857602090610238611883565b9050346101d657826003193601126101d65782546001600160a01b0393906106319085163314611793565b6007549182156108a157815b60058054821015610874578661065283611599565b919054600392831b1c16918751916370a0823160e01b8352308684015260209260249284828581895afa91821561086a57899261083b575b5066038d7ea4c68000821061082d57885b8a81106106b357505050505050506001905b0161063d565b899c9495969c9b979b5081541561081b57818a527f036b6384b5eca791c62761152d0c79bb0604c104a5fb6f4eb0703f3154bb3db05485168d03610804578c878460011c915b8a8d8d85610718575b5050505050506001019b9594939b9a969a61069b565b9161076194939186938c8c61072c8b61154c565b9054911b1c1692519687958694859363a9059cbb60e01b8552840160209093929193604081019460018060a01b031681520152565b03925af180156107fa576107dd575b508561077b8361154c565b905490871b1c1690813b156107d9578b90888c838d5195869485936255f9e960e71b85528401525af180156107cf5790600192916107c0575b5090878e8a8d8d610702565b6107c9906115d0565b386107b4565b89513d8d823e3d90fd5b8b80fd5b6107f390893d8b116105275761051881836115fa565b5038610770565b8a513d8e823e3d90fd5b80610813578c878b5b916106f9565b8c878461080d565b634e487b7160e01b8a5260328952858afd5b5050505050506001906106ad565b9091508481813d8311610863575b61085381836115fa565b810103126104f35751903861068a565b503d610849565b8b513d8b823e3d90fd5b837fc306af072396b02bf3a9782c10065cc7ff4aa842934a43f0b76f997b291237c860208851428152a180f35b606490602085519162461bcd60e51b8352820152601b60248201527f4175746f54726561737572793a206e6f207374726174656769657300000000006044820152fd5b5050346101485760203660031901126101485760209181906001600160a01b0361090c611531565b1681526006845220549051908152f35b919050346101d657806003193601126101d657610937611531565b6024359060018060a01b031691828552602084815260ff828720541615610a5b57610963831515611837565b61096b61163f565b8251956323b872dd60e01b8752339087015230602487015283604487015281866064818a895af1958615610a51577ff5681f9d0db1b911ac18ee83d515a1cf1051853a9eae418316a2fdf7dea427c5949596610a34575b506003549081610a1c57505083905b338752600281528287206109e683825461161c565b90556109f48260035461161c565b60035585875260068152828720610a0c86825461161c565b905582519485528401523392a380f35b610a29610a2e92876117ec565b6117ff565b906109d1565b610a4a90833d85116105275761051881836115fa565b50386109c2565b83513d89823e3d90fd5b8490606492519162461bcd60e51b8352820152601f60248201527f4175746f54726561737572793a20756e737570706f72746564206173736574006044820152fd5b5050346101485760203660031901126101485760209181906001600160a01b03610ac5611531565b168152600a845220549051908152f35b8383346101485781600319360112610148573382526020916002835281812054928315610da957819482955b600754871015610b9c57838383610b178a61154c565b9054895163e8d991d160e01b815294859392849260039190911b1c6001600160a01b03165af1908115610b92578591610b60575b50610b589060019261161c565b960195610b01565b90508381813d8311610b8b575b610b7781836115fa565b81010312610b8757516001610b4b565b8480fd5b503d610b6d565b86513d87823e3d90fd5b94610bae610bb792949660095461161c565b806009556117ec565b92610bc7600394600354906117ff565b92338652600a8352610bdc82872054856117df565b938415610d6757338752600a845282872055855b600554811015610d3c57836024610c0683611599565b905486516370a0823160e01b815230878201526001600160a01b039490939092849283918d1b1c86165afa908115610d32579087918a91610d01575b501015610c525750600101610bf0565b918492610c9b97610c638894611599565b9054911b1c169088855180998195829463a9059cbb60e01b84523390840160209093929193604081019460018060a01b031681520152565b03925af1938415610cf7577fc04825ba3f383b602255d2a13065a68e325c65c9e0ed5d031ea2b06f641873af9394610cda575b505b519283523392a280f35b610cf090833d85116105275761051881836115fa565b5085610cce565b81513d87823e3d90fd5b809250878092503d8311610d2b575b610d1a81836115fa565b810103126104f3578690518a610c42565b503d610d10565b85513d8b823e3d90fd5b50507fc04825ba3f383b602255d2a13065a68e325c65c9e0ed5d031ea2b06f641873af929350610cd0565b5082606492519162461bcd60e51b8352820152601e60248201527f4175746f54726561737572793a206e6f7468696e6720746f20636c61696d00006044820152fd5b8460649184519162461bcd60e51b8352820152601760248201527f4175746f54726561737572793a206e6f207368617265730000000000000000006044820152fd5b5050346101485781600319360112610148576020906003549051908152f35b905082346101d357602092836003193601126101485782359081156110b0573383526002855281818420541061106457610e4b610e4561163f565b836117ec565b93610e5a6003958654906117ff565b9033855260028752828520610e708582546117df565b9055610e7d8487546117df565b86558495855b60055481101561105857886024610e9983611599565b905488516370a0823160e01b815230888201526001600160a01b03949093909284928391891b1c86165afa908115611016578b9493929187918b91611020575b501015610eec5750600101909150610e83565b9394959697985090915082610f0082611599565b9054885163a9059cbb60e01b815233888201908152602081018a905290938d93859390881b1c169082908d90829060400103925af180156110165790610f4c9291610ff9575b50611599565b9054911b1c16855260068652828520610f668382546117df565b905560015b15610fa357507f92ccf450a286a957af52509bc1c9939d1a6a481783e142e41e2499f0bb66ebc692939482519485528401523392a280f35b825162461bcd60e51b8152908101869052602a60248201527f4175746f54726561737572793a20696e73756666696369656e74207661756c74604482015269206c697175696469747960b01b6064820152608490fd5b61100f908b3d8d116105275761051881836115fa565b508a610f46565b87513d8b823e3d90fd5b929394958092508391503d8311611051575b61103c81836115fa565b810103126104f35790858b949392518d610ed9565b503d611032565b50509091929394610f6b565b5162461bcd60e51b8152808401859052602160248201527f4175746f54726561737572793a20696e73756666696369656e742073686172656044820152607360f81b6064820152608490fd5b5162461bcd60e51b8152808401859052601960248201527f4175746f54726561737572793a207a65726f20736861726573000000000000006044820152606490fd5b9050346101d65760203660031901126101d65761110d611531565b83546001600160a01b0391906111269083163314611793565b16918284528160205260ff81852054166111cc57828452816020528320600160ff1982541617905560055490600160401b8210156111b95750611190611173826001859401600555611599565b819391549060031b9160018060a01b03809116831b921b19161790565b90557f0e3c58ebfb2e7465fbb1c32e6b4f40c3c4f5ca77e8218a386aff8617831260d78280a280f35b634e487b7160e01b845260419052602483fd5b906020606492519162461bcd60e51b8352820152601f60248201527f4175746f54726561737572793a20616c726561647920737570706f72746564006044820152fd5b919050346101d65760203660031901126101d65781356001600160a01b038181169391849003610b8757611247908554163314611793565b8284526008602052818420546112c75760075490600160401b8210156112b4575061127c61117382600186940160075561154c565b90556007549082845260086020528320557f3f008fd510eae7a9e7bee13513d7b83bef8003d488b5a3d0b0da4de71d6846f18280a280f35b634e487b7160e01b855260419052602484fd5b6020606492519162461bcd60e51b8352820152601d60248201527f4175746f54726561737572793a207374726174656779206578697374730000006044820152fd5b5050346101485781600319360112610148576020906007549051908152f35b919050346101d6576020806003193601126104d4576001600160a01b03833581811694908590036114d857611361828754163314611793565b848652600883528386205490811561149757600754600019929083810190811161148457838201908282116114715790818692820361140e575b505050506007549081156113fb5750918694939160089301906113bd8261154c565b909182549160031b1b19169055600755848452528120557f09a1db4b80c32706328728508c941a6b954f31eb5affd32f236c1fd405f8fea48280a280f35b634e487b7160e01b885260319052602487fd5b61142b61144f61145693856114228561154c565b9490549261154c565b92909460031b1c169083549060031b9160018060a01b03809116831b921b19161790565b905561154c565b90549060031b1c16885260088552858820553883818061139b565b634e487b7160e01b8a526011845260248afd5b634e487b7160e01b895260118352602489fd5b606490848087519262461bcd60e51b845283015260248201527f4175746f54726561737572793a207374726174656779206e6f7420666f756e646044820152fd5b8580fd5b5050346101485760203660031901126101485760209181906001600160a01b03611504611531565b1681526008845220549051908152f35b50503461014857816003193601126101485760209061023861163f565b600435906001600160a01b038216820361154757565b600080fd5b6007548110156115835760076000527fa66cc928b5edb82af9bd49922954155ab7b0942694bea4ce44661d9a8736c6880190600090565b634e487b7160e01b600052603260045260246000fd5b6005548110156115835760056000527f036b6384b5eca791c62761152d0c79bb0604c104a5fb6f4eb0703f3154bb3db00190600090565b67ffffffffffffffff81116115e457604052565b634e487b7160e01b600052604160045260246000fd5b90601f8019910116810190811067ffffffffffffffff8211176115e457604052565b9190820180921161162957565b634e487b7160e01b600052601160045260246000fd5b6000806005545b8082106116fc57505060006007545b80821061166157505090565b909161166c8361154c565b9054604080516306a61f7560e51b81529092909160209182918491600491839160031b1c6001600160a01b03165afa9283156116f257506000926116c1575b50506116b99060019261161c565b920190611655565b81819392933d83116116eb575b6116d881836115fa565b810103126101d3575051816116b96116ab565b503d6116ce565b513d6000823e3d90fd5b909161170783611599565b9054604080516370a0823160e01b81523060048201529092909160209182918491602491839160031b1c6001600160a01b03165afa9283156116f25750600092611762575b505061175a9060019261161c565b920190611646565b81819392933d831161178c575b61177981836115fa565b810103126101d35750518161175a61174c565b503d61176f565b1561179a57565b60405162461bcd60e51b815260206004820152601760248201527f4175746f54726561737572793a206e6f74206f776e65720000000000000000006044820152606490fd5b9190820391821161162957565b8181029291811591840414171561162957565b8115611809570490565b634e487b7160e01b600052601260045260246000fd5b90816020910312611547575180151581036115475790565b1561183e57565b60405162461bcd60e51b815260206004820152601960248201527f4175746f54726561737572793a207a65726f20616d6f756e74000000000000006044820152606490fd5b60035480156118bb5761189461163f565b90670de0b6b3a764000091828102928184041490151715611629576118b8916117ff565b90565b50670de0b6b3a764000090565b60005b8381106118db5750506000910152565b81810151838201526020016118cb565b90602091611904815180928185528580860191016118c8565b601f01601f1916010190565b60035480158015611975575b61196e576119496009549260018060a01b031691610a2960009484865260026020526040862054906117ec565b908252600a60205260408220549081811115611969576118b892506117df565b505090565b5050600090565b506001600160a01b0382166000908152600260205260409020541561191c56fea2646970667358221220804937418701e00f468f0a8da1facd188ebaf84134186578670a54b28965408f64736f6c63430008180033",
  "linkReferences": {},
  "deployedLinkReferences": {}
}