{
  "_format": "hh-sol-artifact-1",
  "contractName": "AutoTreasury",
  "sourceName": "src/AutoTreasury.sol",
  "abi": [
    {
      "inputs": [
        {
          "internalType": "address",
          "name": "_xcmRouter",
          "type": "address"
        },
        {
          "internalType": "address",
          "name": "_primaryAsset",
          "type": "address"
        }
      ],
      "stateMutability": "nonpayable",
      "type": "constructor"
    },
    {
      "anonymous": false,
      "inputs": [
        {
          "indexed": true,
          "internalType": "address",
          "name": "user",
          "type": "address"
        },
        {
          "indexed": false,
          "internalType": "uint32",
          "name": "targetParaId",
          "type": "uint32"
        },
        {
          "indexed": false,
          "internalType": "address",
          "name": "targetAsset",
          "type": "address"
        },
        {
          "indexed": false,
          "internalType": "uint256",
          "name": "yieldAmount",
          "type": "uint256"
        }
      ],
      "name": "CrossChainPayment",
      "type": "event"
    },
    {
      "anonymous": false,
      "inputs": [
        {
          "indexed": true,
          "internalType": "address",
          "name": "user",
          "type": "address"
        },
        {
          "indexed": false,
          "internalType": "uint256",
          "name": "amount",
          "type": "uint256"
        }
      ],
      "name": "Saved",
      "type": "event"
    },
    {
      "anonymous": false,
      "inputs": [
        {
          "indexed": true,
          "internalType": "address",
          "name": "user",
          "type": "address"
        },
        {
          "indexed": false,
          "internalType": "uint256",
          "name": "principalAmount",
          "type": "uint256"
        }
      ],
      "name": "Withdrawn",
      "type": "event"
    },
    {
      "anonymous": false,
      "inputs": [
        {
          "indexed": false,
          "internalType": "uint256",
          "name": "totalYield",
          "type": "uint256"
        }
      ],
      "name": "YieldHarvested",
      "type": "event"
    },
    {
      "inputs": [
        {
          "internalType": "contract YieldStrategy",
          "name": "strategy",
          "type": "address"
        }
      ],
      "name": "addStrategy",
      "outputs": [],
      "stateMutability": "nonpayable",
      "type": "function"
    },
    {
      "inputs": [],
      "name": "owner",
      "outputs": [
        {
          "internalType": "address",
          "name": "",
          "type": "address"
        }
      ],
      "stateMutability": "view",
      "type": "function"
    },
    {
      "inputs": [
        {
          "internalType": "uint32",
          "name": "targetParaId",
          "type": "uint32"
        },
        {
          "internalType": "address",
          "name": "targetAsset",
          "type": "address"
        },
        {
          "internalType": "uint256",
          "name": "yieldAmount",
          "type": "uint256"
        }
      ],
      "name": "payWithYield",
      "outputs": [],
      "stateMutability": "nonpayable",
      "type": "function"
    },
    {
      "inputs": [],
      "name": "primaryAsset",
      "outputs": [
        {
          "internalType": "address",
          "name": "",
          "type": "address"
        }
      ],
      "stateMutability": "view",
      "type": "function"
    },
    {
      "inputs": [
        {
          "internalType": "address",
          "name": "",
          "type": "address"
        }
      ],
      "name": "principal",
      "outputs": [
        {
          "internalType": "uint256",
          "name": "",
          "type": "uint256"
        }
      ],
      "stateMutability": "view",
      "type": "function"
    },
    {
      "inputs": [],
      "name": "rebalance",
      "outputs": [],
      "stateMutability": "nonpayable",
      "type": "function"
    },
    {
      "inputs": [
        {
          "internalType": "uint256",
          "name": "amount",
          "type": "uint256"
        }
      ],
      "name": "save",
      "outputs": [],
      "stateMutability": "nonpayable",
      "type": "function"
    },
    {
      "inputs": [],
      "name": "sharePrice",
      "outputs": [
        {
          "internalType": "uint256",
          "name": "",
          "type": "uint256"
        }
      ],
      "stateMutability": "view",
      "type": "function"
    },
    {
      "inputs": [
        {
          "internalType": "address",
          "name": "",
          "type": "address"
        }
      ],
      "name": "shares",
      "outputs": [
        {
          "internalType": "uint256",
          "name": "",
          "type": "uint256"
        }
      ],
      "stateMutability": "view",
      "type": "function"
    },
    {
      "inputs": [
        {
          "internalType": "address",
          "name": "",
          "type": "address"
        }
      ],
      "name": "spendableYield",
      "outputs": [
        {
          "internalType": "uint256",
          "name": "",
          "type": "uint256"
        }
      ],
      "stateMutability": "view",
      "type": "function"
    },
    {
      "inputs": [
        {
          "internalType": "uint256",
          "name": "",
          "type": "uint256"
        }
      ],
      "name": "strategies",
      "outputs": [
        {
          "internalType": "contract YieldStrategy",
          "name": "",
          "type": "address"
        }
      ],
      "stateMutability": "view",
      "type": "function"
    },
    {
      "inputs": [],
      "name": "strategyCount",
      "outputs": [
        {
          "internalType": "uint256",
          "name": "",
          "type": "uint256"
        }
      ],
      "stateMutability": "view",
      "type": "function"
    },
    {
      "inputs": [],
      "name": "totalAssets",
      "outputs": [
        {
          "internalType": "uint256",
          "name": "",
          "type": "uint256"
        }
      ],
      "stateMutability": "view",
      "type": "function"
    },
    {
      "inputs": [],
      "name": "totalPrincipal",
      "outputs": [
        {
          "internalType": "uint256",
          "name": "",
          "type": "uint256"
        }
      ],
      "stateMutability": "view",
      "type": "function"
    },
    {
      "inputs": [],
      "name": "totalShares",
      "outputs": [
        {
          "internalType": "uint256",
          "name": "",
          "type": "uint256"
        }
      ],
      "stateMutability": "view",
      "type": "function"
    },
    {
      "inputs": [],
      "name": "totalSpendableYield",
      "outputs": [
        {
          "internalType": "uint256",
          "name": "",
          "type": "uint256"
        }
      ],
      "stateMutability": "view",
      "type": "function"
    },
    {
      "inputs": [
        {
          "internalType": "uint256",
          "name": "amount",
          "type": "uint256"
        }
      ],
      "name": "withdrawPrincipal",
      "outputs": [],
      "stateMutability": "nonpayable",
      "type": "function"
    },
    {
      "inputs": [],
      "name": "xcmRouter",
      "outputs": [
        {
          "internalType": "contract XCMRouter",
          "name": "",
          "type": "address"
        }
      ],
      "stateMutability": "view",
      "type": "function"
    }
  ],
  "bytecode": "0x60803461009257601f61128038819003918201601f19168301916001600160401b0383118484101761009757808492604094855283398101031261009257610052602061004b836100ad565b92016100ad565b9060018060a01b0319913383600054161760005560018060a01b03809216836001541617600155169060085416176008556040516111be90816100c28239f35b600080fd5b634e487b7160e01b600052604160045260246000fd5b51906001600160a01b03821682036100925756fe6040608081526004908136101561001557600080fd5b600091823560e01c90816301e1d11414610d375781631b86202714610bc957816322068b4414610baa578163223e547914610b245781632ce0f9d614610aec5781632e017c0714610acd578163372b0261146107e85781633a98ef39146107c95781634b1533b2146107aa578163658e28a4146104605781637d7c2a1c1461023f578163872697291461021b5781638da5cb5b146101f3578163ce7c2ac2146101bb578163d574ea3d14610177578163e1d206001461014e578163e4f2460114610114575063e58d777a146100e957600080fd5b3461011057816003193601126101105760085490516001600160a01b039091168152602090f35b5080fd5b90503461014a57602036600319011261014a5760209282916001600160a01b0361013c610d54565b168252845220549051908152f35b8280fd5b50503461011057816003193601126101105760015490516001600160a01b039091168152602090f35b90503461014a57602036600319011261014a5735916009548310156101b857506101a2602092610d6a565b905491519160018060a01b039160031b1c168152f35b80fd5b5050346101105760203660031901126101105760209181906001600160a01b036101e3610d54565b1681526006845220549051908152f35b505034610110578160031936011261011057905490516001600160a01b039091168152602090f35b505034610110578160031936011261011057602090610238611010565b9051908152f35b90503461014a578260031936011261014a5782546001600160a01b03929061026a9084163314610f94565b60089280600854168251916370a0823160e01b83523085840152602092838160248181965afa908115610456578891610424575b50605a810290808204605a14901517156104115790606488949392049687151580610406575b6102cc578480f35b6102db60099860095490610f74565b93855b89548110156103f05787898386808754168a8c6103376102fd89610d6a565b91905493600399519889978896879563a9059cbb60e01b87528d1b1c1690840160209093929193604081019460018060a01b031681520152565b03925af180156103e657908692916103b9575b5061035483610d6a565b9054911b1c16803b156103b5578787878c838d5195869485936255f9e960e71b85528401525af180156103ab57908891610393575b50506001016102de565b61039c90610db7565b6103a7578638610389565b8680fd5b89513d8a823e3d90fd5b8780fd5b6103d890853d87116103df575b6103d08183610de1565b810190610f49565b503861034a565b503d6103c6565b8a513d8b823e3d90fd5b5050505050505050505038808083818080808480f35b5060095415156102c4565b634e487b7160e01b885260118652602488fd5b90508381813d831161044f575b61043b8183610de1565b8101031261044a57513861029e565b600080fd5b503d610431565b85513d8a823e3d90fd5b9190503461014a576020806003193601126107a65782359182151580610792575b156107455761048e611055565b61049a60075484610f61565b936104f26104ad60039660035490610f74565b338852600285528388206104c2878254610fe0565b90556104d086600354610fe0565b600355338852600685528388206104e8828254610fe0565b9055600754610fe0565b60075560018060a01b0380600854169583516370a0823160e01b815230848201528581602481819b5afa90811561073b57899161070e575b508681106105cb575b5050600854835163a9059cbb60e01b81523393810193845260208401879052965084928792909116908290899082906040015b03925af19384156105c1577f7084f5476618d8e60b11ef0d7d3f06914655adb8793e28ff7f018d4c76d505d593946105a4575b50519283523392a280f35b6105ba90833d85116103df576103d08183610de1565b5038610599565b81513d87823e3d90fd5b6105d59087610fe0565b90885b6009548110156106fd578487856105ee84610d6a565b905490861b1c168851928380926306a61f7560e51b82525afa9081156106f3578b916106c6575b50808411156106bf575b8061062e575b506001016105d8565b8a8561063b849694610d6a565b905490861b1c16803b156101105781838d8a838d519586948593638ca1799560e01b85528401525af180156106b55761069d575b505061067a91610fe0565b9182156106875738610625565b5050506105669550839185915b91819350610533565b6106a690610db7565b6106b1578a3861066f565b8a80fd5b89513d84823e3d90fd5b508261061f565b90508781813d83116106ec575b6106dd8183610de1565b8101031261044a575138610615565b503d6106d3565b87513d8d823e3d90fd5b505050610566955083918591610694565b90508581813d8311610734575b6107258183610de1565b8101031261044a57513861052a565b503d61071b565b85513d8b823e3d90fd5b5162461bcd60e51b815292830152506024808201527f4175746f54726561737572793a20696e73756666696369656e74207072696e636044820152631a5c185b60e21b6064820152608490fd5b503385526002825282818620541015610481565b8380fd5b5050346101105781600319360112610110576020906003549051908152f35b5050346101105781600319360112610110576020906007549051908152f35b90503461014a57606036600319011261014a5780359163ffffffff83168093036107a6576001600160a01b03916024358381169190829003610ac95760443593610830611055565b338752602091808352858589205410610a88578790338252808452858220610859888254610fe0565b905561086787600554610fe0565b60055582600154169280600854168751946392df829560e01b865281848701528760248701528960448701528460648701528486608481845afa958615610a7e57918a91889387986109c8575b508a5163095ea7b360e01b81526001600160a01b03909116868201908152602081019390935292918391908290889082906040015b03925af180156109be576109a1575b5060015416803b1561014a5784918360448951809781968295630c6b8b1b60e11b8452830152610936815180928160248601528c8686019101610fed565b601f01601f191681010301925af1801561099757610984575b5082519485528401528201527f205226a99e5bf7b3494fbd62b0ff42f9263b8f348fa4ee0a2824aecc2023124f60603392a280f35b61099090969196610db7565b943861094f565b84513d89823e3d90fd5b6109b790863d88116103df576103d08183610de1565b50386108f8565b88513d86823e3d90fd5b9495965096509150503d808c843e6109e08184610de1565b8201918681840312610a7a57805167ffffffffffffffff91828211610a7657019183601f84011215610a72578251918211610a5f57908c95949392918a5193610a328a601f19601f8601160186610de1565b8285528983850101116103a75783610a558d938b9586806108e999019101610fed565b97909192936108b4565b634e487b7160e01b8d526041865260248dfd5b8c80fd5b8d80fd5b8b80fd5b89513d87823e3d90fd5b606490838087519262461bcd60e51b845283015260248201527f4175746f54726561737572793a20696e73756666696369656e74207969656c646044820152fd5b8580fd5b5050346101105781600319360112610110576020906005549051908152f35b5050346101105760203660031901126101105760209181906001600160a01b03610b14610d54565b1681526002845220549051908152f35b839034610110576020366003190112610110576001600160a01b0390803582811691908290036107a657610b5c838554163314610f94565b6009549068010000000000000000821015610b975750806001610b829201600955610d6a565b909283549160031b92831b921b191617905580f35b634e487b7160e01b855260419052602484fd5b5050346101105781600319360112610110576020906009549051908152f35b839150346101105760208060031936011261014a578135918215610cf65793818495610bf3611055565b60085483516323b872dd60e01b81523392810192909252306024830152604482018690529095869160649183916001600160a01b03165af19384156105c1577fed23a82fe3387ce0bc3ec900dee36d8ca8c965f8dc65c02281a59f7e9e69728c9394610cd9575b5060075480610cbb5750610cae845b33875260028452828720610c7e878254610e03565b9055610c8c86600354610e03565b60035533875260068452828720610ca4828254610e03565b9055600754610e03565b600755519283523392a280f35b610cd4610ccb610cae9287610f61565b60035490610f74565b610c69565b610cef90833d85116103df576103d08183610de1565b5085610c5a565b60649185519162461bcd60e51b8352820152601960248201527f4175746f54726561737572793a207a65726f20616d6f756e74000000000000006044820152fd5b505034610110578160031936011261011057602090610238610e26565b600435906001600160a01b038216820361044a57565b600954811015610da15760096000527f6e1540171b6c0c960b71a7020d9f60077f6af931a8bbf590da0223dacf75c7af0190600090565b634e487b7160e01b600052603260045260246000fd5b67ffffffffffffffff8111610dcb57604052565b634e487b7160e01b600052604160045260246000fd5b90601f8019910116810190811067ffffffffffffffff821117610dcb57604052565b91908201809211610e1057565b634e487b7160e01b600052601160045260246000fd5b60018060a01b03806008541660408051926370a0823160e01b84528360049330600483015281602460209788935afa908115610f3d57600091610f10575b5093929190600093600954935b848610610e815750505050505090565b909192939495838383610e938a610d6a565b91905491895194859384926306a61f7560e51b845260031b1c165afa908115610f0557600091610ed7575b50610ecb90600192610e03565b96019493929190610e71565b908482813d8311610efe575b610eed8183610de1565b810103126101b85750516001610ebe565b503d610ee3565b86513d6000823e3d90fd5b90508481813d8311610f36575b610f278183610de1565b8101031261044a575138610e64565b503d610f1d565b6040513d6000823e3d90fd5b9081602091031261044a5751801515810361044a5790565b81810292918115918404141715610e1057565b8115610f7e570490565b634e487b7160e01b600052601260045260246000fd5b15610f9b57565b60405162461bcd60e51b815260206004820152601760248201527f4175746f54726561737572793a206e6f74206f776e65720000000000000000006044820152606490fd5b91908203918211610e1057565b60005b8381106110005750506000910152565b8181015183820152602001610ff0565b600754801561104857611021610e26565b90670de0b6b3a764000091828102928184041490151715610e105761104591610f74565b90565b50670de0b6b3a764000090565b6007541561118657600090815b6009548310156111025761107583610d6a565b905460409182519163e8d991d160e01b8352826004816000602095869560018060a01b039160031b1c165af19283156110f857506000926110c7575b50506110bf90600192610e03565b920191611062565b81819392933d83116110f1575b6110de8183610de1565b810103126101b8575051816110bf6110b1565b503d6110d4565b513d6000823e3d90fd5b9091508061110d5750565b60208161113d7feb2d114a827fe0da3db4c0e374010959cf461f7ed76987aeff51666dea9add9b93600554610e03565b600555336000526006825261116361115a60406000205483610f61565b60075490610f74565b336000526004835261117b6040600020918254610e03565b9055604051908152a1565b56fea2646970667358221220275d9e6437c6312f64140bdc7e69a424d23cd94ed76538d54b27425fb09ab4b564736f6c63430008180033",
  "linkReferences": {},
  "deployedLinkReferences": {}
}