{
  "_format": "hh-sol-artifact-1",
  "contractName": "XCMRouter",
  "sourceName": "src/XCMRouter.sol",
  "abi": [
    {
      "inputs": [],
      "stateMutability": "nonpayable",
      "type": "constructor"
    },
    {
      "anonymous": false,
      "inputs": [
        {
          "indexed": false,
          "internalType": "bytes",
          "name": "message",
          "type": "bytes"
        }
      ],
      "name": "XCMExecuted",
      "type": "event"
    },
    {
      "anonymous": false,
      "inputs": [
        {
          "indexed": false,
          "internalType": "bytes",
          "name": "dest",
          "type": "bytes"
        },
        {
          "indexed": false,
          "internalType": "bytes",
          "name": "message",
          "type": "bytes"
        }
      ],
      "name": "XCMSent",
      "type": "event"
    },
    {
      "inputs": [],
      "name": "ASSET_HUB_PARA_ID",
      "outputs": [
        {
          "internalType": "uint32",
          "name": "",
          "type": "uint32"
        }
      ],
      "stateMutability": "view",
      "type": "function"
    },
    {
      "inputs": [],
      "name": "RELAY_CHAIN_ID",
      "outputs": [
        {
          "internalType": "uint32",
          "name": "",
          "type": "uint32"
        }
      ],
      "stateMutability": "view",
      "type": "function"
    },
    {
      "inputs": [],
      "name": "STAKING_PRECOMPILE",
      "outputs": [
        {
          "internalType": "address",
          "name": "",
          "type": "address"
        }
      ],
      "stateMutability": "view",
      "type": "function"
    },
    {
      "inputs": [],
      "name": "XCM_PRECOMPILE",
      "outputs": [
        {
          "internalType": "address",
          "name": "",
          "type": "address"
        }
      ],
      "stateMutability": "view",
      "type": "function"
    },
    {
      "inputs": [
        {
          "internalType": "address",
          "name": "asset",
          "type": "address"
        },
        {
          "internalType": "uint256",
          "name": "amount",
          "type": "uint256"
        }
      ],
      "name": "buildLendOnAssetHub",
      "outputs": [
        {
          "internalType": "bytes",
          "name": "payload",
          "type": "bytes"
        }
      ],
      "stateMutability": "pure",
      "type": "function"
    },
    {
      "inputs": [
        {
          "internalType": "uint256",
          "name": "amount",
          "type": "uint256"
        }
      ],
      "name": "buildStakeOnRelay",
      "outputs": [
        {
          "internalType": "bytes",
          "name": "payload",
          "type": "bytes"
        }
      ],
      "stateMutability": "pure",
      "type": "function"
    },
    {
      "inputs": [
        {
          "internalType": "address",
          "name": "asset",
          "type": "address"
        },
        {
          "internalType": "uint256",
          "name": "amount",
          "type": "uint256"
        }
      ],
      "name": "buildTransferToAssetHub",
      "outputs": [
        {
          "internalType": "bytes",
          "name": "payload",
          "type": "bytes"
        }
      ],
      "stateMutability": "pure",
      "type": "function"
    },
    {
      "inputs": [
        {
          "internalType": "address",
          "name": "account",
          "type": "address"
        }
      ],
      "name": "getNativeBonded",
      "outputs": [
        {
          "internalType": "uint256",
          "name": "",
          "type": "uint256"
        }
      ],
      "stateMutability": "view",
      "type": "function"
    },
    {
      "inputs": [
        {
          "internalType": "uint256",
          "name": "amount",
          "type": "uint256"
        }
      ],
      "name": "nativeBond",
      "outputs": [],
      "stateMutability": "nonpayable",
      "type": "function"
    },
    {
      "inputs": [
        {
          "internalType": "address[]",
          "name": "targets",
          "type": "address[]"
        }
      ],
      "name": "nativeNominate",
      "outputs": [],
      "stateMutability": "nonpayable",
      "type": "function"
    },
    {
      "inputs": [
        {
          "internalType": "uint256",
          "name": "amount",
          "type": "uint256"
        }
      ],
      "name": "nativeUnbond",
      "outputs": [],
      "stateMutability": "nonpayable",
      "type": "function"
    },
    {
      "inputs": [],
      "name": "owner",
      "outputs": [
        {
          "internalType": "address",
          "name": "",
          "type": "address"
        }
      ],
      "stateMutability": "view",
      "type": "function"
    },
    {
      "inputs": [
        {
          "internalType": "bytes",
          "name": "payload",
          "type": "bytes"
        }
      ],
      "name": "sendToAssetHub",
      "outputs": [],
      "stateMutability": "nonpayable",
      "type": "function"
    },
    {
      "inputs": [
        {
          "internalType": "bytes",
          "name": "payload",
          "type": "bytes"
        }
      ],
      "name": "sendToRelay",
      "outputs": [],
      "stateMutability": "nonpayable",
      "type": "function"
    },
    {
      "inputs": [
        {
          "internalType": "address",
          "name": "_treasury",
          "type": "address"
        }
      ],
      "name": "setTreasury",
      "outputs": [],
      "stateMutability": "nonpayable",
      "type": "function"
    },
    {
      "inputs": [],
      "name": "treasury",
      "outputs": [
        {
          "internalType": "address",
          "name": "",
          "type": "address"
        }
      ],
      "stateMutability": "view",
      "type": "function"
    }
  ],
  "bytecode": "0x6080806040523461002857600080546001600160a01b03191633179055610b9e908161002e8239f35b600080fdfe6080604081815260048036101561001557600080fd5b600092833560e01c908163068561421461085057508063077120cc146108325780630cb9f3ad1461081557806318d71636146107dc5780633f7070221461077357806355480d171461075657806357d3c71a1461065857806361d027b31461062f57806379b15de01461053c5780638bac5ab5146104a3578381638d48318814610418575080638da5cb5b146103f0578063927620db1461030e578063a58be0c31461020457838163b375e04a14610163575063f0f44260146100d757600080fd5b3461015f57602036600319011261015f576100f061098a565b83546001600160a01b03939192919084163303610125575050166bffffffffffffffffffffffff60a01b600154161760015580f35b906020606492519162461bcd60e51b835282015260146024820152732c21a6a937baba32b91d103737ba1037bbb732b960611b6044820152fd5b8280fd5b929050346102005760203660031901126102005760015461019990336001600160a01b03918216149081156101f3575b506109a0565b61080391823b156101ee57839260248492845195869384926313ef4f1960e11b84528035908401525af19081156101e557506101d25750f35b6101db90610869565b6101e25780f35b80fd5b513d84823e3d90fd5b505050fd5b9050845416331438610193565b5050fd5b5082903461030a57602092602060031936011261015f5767ffffffffffffffff823581811161030657366023820112156103065780840135918211610306573660248360051b83010111610306576001805490966001600160a01b0393918416331480156102fa575b610276906109a0565b61080393843b156102f6579190818651976319f2fdad60e01b8952602060248a01918a01525260246044880194019288905b8382106102cc5789808a8a8282808c0381838f5af19081156101e557506101d25750f35b90919293948535908282168092036102f15790815283019483019392918a01906102a8565b600080fd5b8780fd5b5086548416331461026d565b8480fd5b5080fd5b8284346101e257816003193601126101e2575061032961098a565b906103ec61033e610338610a71565b93610b23565b916103dd6021610399835161039460328260209961140360f01b8b83015261036f815180928d602286019101610942565b81016001600160801b031960243560801b1660228201520360128101845201826108af565b610ac4565b958351968791600160fa1b888401526103ba815180928a8787019101610942565b82016103ce825180938a8785019101610942565b010360018101875201856108af565b51928284938452830190610965565b0390f35b50503461030a578160031936011261030a57905490516001600160a01b039091168152602090f35b808484346102005760203660031901126102005760015461044d90336001600160a01b039182161490811561049657506109a0565b610803803b156101ee57604484928451958693849263d5c90b2960e01b84528035908401528160248401525af19081156101e5575061048a575080f35b61049390610869565b80f35b9050845416331486610193565b5091903461030a576020928360031936011261015f576104c161098a565b825163f19e2a2160e01b81526001600160a01b039091169181019190915283816024816108035afa9283156105315780936104ff575b505051908152f35b909192508382813d831161052a575b61051881836108af565b810103126101e25750519038806104f7565b503d61050e565b8251903d90823e3d90fd5b503461015f5761054b366108d1565b9061056a60018060a01b038060015416331490811561062257506109a0565b816020610575610aa3565b809361059287519485938493637f0a3bf960e01b85528401610a04565b038188620a00005af190811561061857936105d96105e3927fb896fa5daa5aaa810dbe2375ff4785c955bc7e1423e43094570a9f841329a7dd9688916105e9575b50610a2c565b5192839283610a04565b0390a180f35b61060b915060203d602011610611575b61060381836108af565b8101906109ec565b386105d3565b503d6105f9565b84513d87823e3d90fd5b9050855416331438610193565b50503461030a578160031936011261030a5760015490516001600160a01b039091168152602090f35b8284346101e257816003193601126101e2576103ec61067561098a565b926103dd60216024359461069061068a610a71565b97610b23565b845161072960478260209a8b82019587875260648d8251908301906106b8818d880184610942565b85016106f86001600160801b031994858760801b168e840152600d60f81b60318401528c6032840152600360fa1b60338401525180936034840190610942565b01920460801b166034820152600160fa1b9687604483015280604583015260468201520360278101845201826108af565b6103ce8651998a948a860152610747815180928c8989019101610942565b84019151809386840190610942565b50503461030a578160031936011261030a57602090516103e88152f35b503461015f57602091826003193601126107d8576103dd60216103996103ec9461079b610aa3565b8551600760f81b89820152913560801b6fffffffffffffffffffffffffffffffff1916602283015260328201989098526013815261039481610893565b8380fd5b503461015f576107eb366108d1565b9061080a60018060a01b038060015416331490811561062257506109a0565b816020610575610a71565b50503461030a578160031936011261030a57602090516108038152f35b50503461030a578160031936011261030a5760209051620a00008152f35b84903461030a578160031936011261030a576020918152f35b67ffffffffffffffff811161087d57604052565b634e487b7160e01b600052604160045260246000fd5b6040810190811067ffffffffffffffff82111761087d57604052565b90601f8019910116810190811067ffffffffffffffff82111761087d57604052565b60206003198201126102f15767ffffffffffffffff6004358181116102f157826023820112156102f157806004013591821161087d576040519261091f601f8401601f1916602001856108af565b828452602483830101116102f15781600092602460209301838601378301015290565b60005b8381106109555750506000910152565b8181015183820152602001610945565b9060209161097e81518092818552858086019101610942565b601f01601f1916010190565b600435906001600160a01b03821682036102f157565b156109a757565b60405162461bcd60e51b815260206004820152601760248201527f58434d526f757465723a20756e617574686f72697a65640000000000000000006044820152606490fd5b908160209103126102f1575180151581036102f15790565b9091610a1b610a2993604084526040840190610965565b916020818403910152610965565b90565b15610a3357565b60405162461bcd60e51b81526020600482015260166024820152751610d3549bdd5d195c8e881cd95b990819985a5b195960521b6044820152606490fd5b604051600160f81b60208201819052602182015260006022820152607d60e31b602382015260078152610a2981610893565b604051600160f81b60208201526000602182015260028152610a2981610893565b610a2960336040518093600360f91b602083015260006021830152600160f81b6022830152621dcd6560c91b602383015261027160c41b602b830152610b138151809260208686019101610942565b81010360138101845201826108af565b60405160006020820152600160f81b6021820152600560f81b602282015260609190911b6bffffffffffffffffffffffff1916602382015260178152610a298161089356fea26469706673582212200ff72bd4f5066d715c4f446811332c88bd8cb24c0e2cb9357d87ca33717d7ce264736f6c63430008180033",
  "linkReferences": {},
  "deployedLinkReferences": {}
}