{
  "_format": "hh-sol-artifact-1",
  "contractName": "XCMRouter",
  "sourceName": "src/XCMRouter.sol",
  "abi": [
    {
      "inputs": [],
      "stateMutability": "nonpayable",
      "type": "constructor"
    },
    {
      "anonymous": false,
      "inputs": [
        {
          "indexed": false,
          "internalType": "bytes",
          "name": "message",
          "type": "bytes"
        }
      ],
      "name": "XCMExecuted",
      "type": "event"
    },
    {
      "anonymous": false,
      "inputs": [
        {
          "indexed": false,
          "internalType": "bytes",
          "name": "dest",
          "type": "bytes"
        },
        {
          "indexed": false,
          "internalType": "bytes",
          "name": "message",
          "type": "bytes"
        }
      ],
      "name": "XCMSent",
      "type": "event"
    },
    {
      "inputs": [],
      "name": "ASSET_CONVERSION_PALLET_INDEX",
      "outputs": [
        {
          "internalType": "uint8",
          "name": "",
          "type": "uint8"
        }
      ],
      "stateMutability": "view",
      "type": "function"
    },
    {
      "inputs": [],
      "name": "ASSET_HUB_PARA_ID",
      "outputs": [
        {
          "internalType": "uint32",
          "name": "",
          "type": "uint32"
        }
      ],
      "stateMutability": "view",
      "type": "function"
    },
    {
      "inputs": [],
      "name": "RELAY_CHAIN_ID",
      "outputs": [
        {
          "internalType": "uint32",
          "name": "",
          "type": "uint32"
        }
      ],
      "stateMutability": "view",
      "type": "function"
    },
    {
      "inputs": [],
      "name": "STAKING_PRECOMPILE",
      "outputs": [
        {
          "internalType": "address",
          "name": "",
          "type": "address"
        }
      ],
      "stateMutability": "view",
      "type": "function"
    },
    {
      "inputs": [],
      "name": "SWAP_CALL_INDEX",
      "outputs": [
        {
          "internalType": "uint8",
          "name": "",
          "type": "uint8"
        }
      ],
      "stateMutability": "view",
      "type": "function"
    },
    {
      "inputs": [],
      "name": "XCM_PRECOMPILE",
      "outputs": [
        {
          "internalType": "address",
          "name": "",
          "type": "address"
        }
      ],
      "stateMutability": "view",
      "type": "function"
    },
    {
      "inputs": [
        {
          "internalType": "address",
          "name": "asset",
          "type": "address"
        },
        {
          "internalType": "uint256",
          "name": "amount",
          "type": "uint256"
        }
      ],
      "name": "buildLendOnAssetHub",
      "outputs": [
        {
          "internalType": "bytes",
          "name": "payload",
          "type": "bytes"
        }
      ],
      "stateMutability": "pure",
      "type": "function"
    },
    {
      "inputs": [
        {
          "internalType": "uint256",
          "name": "amount",
          "type": "uint256"
        }
      ],
      "name": "buildStakeOnRelay",
      "outputs": [
        {
          "internalType": "bytes",
          "name": "payload",
          "type": "bytes"
        }
      ],
      "stateMutability": "pure",
      "type": "function"
    },
    {
      "inputs": [
        {
          "internalType": "address",
          "name": "assetIn",
          "type": "address"
        },
        {
          "internalType": "address",
          "name": "assetOut",
          "type": "address"
        },
        {
          "internalType": "uint256",
          "name": "amountIn",
          "type": "uint256"
        },
        {
          "internalType": "uint256",
          "name": "amountOutMin",
          "type": "uint256"
        }
      ],
      "name": "buildSwapOnAssetHub",
      "outputs": [
        {
          "internalType": "bytes",
          "name": "payload",
          "type": "bytes"
        }
      ],
      "stateMutability": "pure",
      "type": "function"
    },
    {
      "inputs": [
        {
          "internalType": "address",
          "name": "asset",
          "type": "address"
        },
        {
          "internalType": "uint256",
          "name": "amount",
          "type": "uint256"
        }
      ],
      "name": "buildTransferToAssetHub",
      "outputs": [
        {
          "internalType": "bytes",
          "name": "payload",
          "type": "bytes"
        }
      ],
      "stateMutability": "pure",
      "type": "function"
    },
    {
      "inputs": [
        {
          "internalType": "address",
          "name": "account",
          "type": "address"
        }
      ],
      "name": "getNativeBonded",
      "outputs": [
        {
          "internalType": "uint256",
          "name": "",
          "type": "uint256"
        }
      ],
      "stateMutability": "view",
      "type": "function"
    },
    {
      "inputs": [
        {
          "internalType": "uint256",
          "name": "amount",
          "type": "uint256"
        }
      ],
      "name": "nativeBond",
      "outputs": [],
      "stateMutability": "nonpayable",
      "type": "function"
    },
    {
      "inputs": [
        {
          "internalType": "address[]",
          "name": "targets",
          "type": "address[]"
        }
      ],
      "name": "nativeNominate",
      "outputs": [],
      "stateMutability": "nonpayable",
      "type": "function"
    },
    {
      "inputs": [
        {
          "internalType": "uint256",
          "name": "amount",
          "type": "uint256"
        }
      ],
      "name": "nativeUnbond",
      "outputs": [],
      "stateMutability": "nonpayable",
      "type": "function"
    },
    {
      "inputs": [],
      "name": "owner",
      "outputs": [
        {
          "internalType": "address",
          "name": "",
          "type": "address"
        }
      ],
      "stateMutability": "view",
      "type": "function"
    },
    {
      "inputs": [
        {
          "internalType": "bytes",
          "name": "payload",
          "type": "bytes"
        }
      ],
      "name": "sendToAssetHub",
      "outputs": [],
      "stateMutability": "nonpayable",
      "type": "function"
    },
    {
      "inputs": [
        {
          "internalType": "bytes",
          "name": "payload",
          "type": "bytes"
        }
      ],
      "name": "sendToRelay",
      "outputs": [],
      "stateMutability": "nonpayable",
      "type": "function"
    },
    {
      "inputs": [
        {
          "internalType": "address",
          "name": "_xcm",
          "type": "address"
        },
        {
          "internalType": "address",
          "name": "_staking",
          "type": "address"
        }
      ],
      "name": "setPrecompileAddresses",
      "outputs": [],
      "stateMutability": "nonpayable",
      "type": "function"
    },
    {
      "inputs": [
        {
          "internalType": "address",
          "name": "_treasury",
          "type": "address"
        }
      ],
      "name": "setTreasury",
      "outputs": [],
      "stateMutability": "nonpayable",
      "type": "function"
    },
    {
      "inputs": [],
      "name": "treasury",
      "outputs": [
        {
          "internalType": "address",
          "name": "",
          "type": "address"
        }
      ],
      "stateMutability": "view",
      "type": "function"
    }
  ],
  "bytecode": "0x608080604052346100415760018060a01b0319620a000081600054161760005561080381600154161760015533906002541617600255610df390816100478239f35b600080fdfe608060409080825260048036101561001657600080fd5b600092833560e01c9283630685614214610a4c57508263077120cc14610a245782630cb9f3ad146109fb57826314dadaaa146109e057826318d71636146109955782632d3f8d54146109795782633f7070221461090f57826355480d17146108f257826357d3c71a146107f557826361d027b3146107cc57826379b15de0146106d55782637ae40a11146106735782638bac5ab5146105d7578383638d4831881461054c575082638da5cb5b14610523578263927620db1461049e57826392df829514610307578263a58be0c3146101f7579083918363b375e04a1461015a5750505063f0f442601461010857600080fd5b3461015757602036600319011261015757610121610b86565b6002546001600160a01b03919061013b9083163314610c83565b166bffffffffffffffffffffffff60a01b600354161760035580f35b80fd5b829350346101f35760203660031901126101f3576003546001600160a01b03908116331480156101e6575b61018e90610bb2565b6001541691823b156101e157839260248492845195869384926313ef4f1960e11b84528035908401525af19081156101d857506101c85750f35b6101d190610a65565b6101575780f35b513d84823e3d90fd5b505050fd5b5060025481163314610185565b5050fd5b8382346103035760209260206003193601126102ff5767ffffffffffffffff82358181116102fb57366023820112156102fb57808401359182116102fb573660248360051b830101116102fb576003546001600160a01b0392908316331480156102ee575b61026590610bb2565b600196836001541693843b156102ea579190818651976319f2fdad60e01b8952602060248a01918a01525260246044880194019288905b8382106102c05789808a8a8282808c0381838f5af19081156101d857506101c85750f35b90919293948535908282168092036102e55790815283019483019392918a019061029c565b600080fd5b8780fd5b506002548316331461025c565b8480fd5b8280fd5b5080fd5b83346101575760803660031901126101575761049a610324610b86565b9261048b610330610b9c565b61044761034d610347610341610cc6565b98610d78565b92610d78565b9161044260438651926020998a916103a483870191600160fb1b83528760219a826103818d945180928a8787019101610b3e565b8201610395825180938a8785019101610b3e565b01036001810189520187610aab565b895161042d8482019260008452600160f81b8b840152600560f81b602284015260006023840152601783526103d883610a8f565b6103fb8d51998a97600f60f81b90890152868d8901525180926022890190610b3e565b8501916001600160801b03198060443560801b16602285015260643560801b1660328401525180936042840190610b3e565b01906042820152036023810184520182610aab565b610d19565b958351968791600160fa1b88840152610468815180928a8787019101610b3e565b820161047c825180938a8785019101610b3e565b01036001810187520185610aab565b51928284938452830190610b61565b0390f35b8334610157578160031936011261015757506104b8610b86565b9061049a6104cd6104c7610cc6565b93610d78565b9161048b6021610447835161044260328260209961140360f01b8b8301526104fe815180928d602286019101610b3e565b81016001600160801b031960243560801b166022820152036012810184520182610aab565b83903461030357816003193601126103035760025490516001600160a01b039091168152602090f35b925090346101f35760203660031901126101f3576003546001600160a01b03908116331480156105ca575b61058090610bb2565b60015416803b156101e157604484928451958693849263d5c90b2960e01b84528035908401528160248401525af19081156101d857506105be575080f35b6105c790610a65565b80f35b5060025481163314610577565b83903461030357602092836003193601126102ff57836105f5610b86565b600154845163f19e2a2160e01b81526001600160a01b039283169481019490945283916024918391165afa928315610668578093610636575b505051908152f35b909192508382813d8311610661575b61064f8183610aab565b8101031261015757505190838061062e565b503d610645565b8251903d90823e3d90fd5b839034610303573660031901126101575761068c610b86565b610694610b9c565b6002546001600160a01b0391906106ae9083163314610c83565b816bffffffffffffffffffffffff60a01b9316838554161784551690600154161760015580f35b9150346102ff578261073460206106eb36610acd565b809460018060a01b038060035416331480156107bf575b61070b90610bb2565b610713610cf8565b95869181541692895196879586948593637f0a3bf960e01b85528401610c16565b03925af19081156107b55793610776610780927fb896fa5daa5aaa810dbe2375ff4785c955bc7e1423e43094570a9f841329a7dd968891610786575b50610c3e565b5192839283610c16565b0390a180f35b6107a8915060203d6020116107ae575b6107a08183610aab565b810190610bfe565b38610770565b503d610796565b84513d87823e3d90fd5b5060025481163314610702565b83903461030357816003193601126103035760035490516001600160a01b039091168152602090f35b833461015757816003193601126101575761049a610811610b86565b9261048b60216024359461082c610826610cc6565b97610d78565b84516108c560478260209a8b82019587875260648d825190830190610854818d880184610b3e565b85016108946001600160801b031994858760801b168e840152600d60f81b60318401528c6032840152600360fa1b60338401525180936034840190610b3e565b01920460801b166034820152600160fa1b968760448301528060458301526046820152036027810184520182610aab565b61047c8651998a948a8601526108e3815180928c8989019101610b3e565b84019151809386840190610b3e565b839034610303578160031936011261030357602090516103e88152f35b9150346102ff57602091826003193601126109755761048b602161044761049a94610938610cf8565b8551600760f81b89820152913560801b6fffffffffffffffffffffffffffffffff1916602283015260328201989098526013815261044281610a8f565b8380fd5b83903461030357816003193601126103035760209051600f8152f35b9150346102ff578261073460206109ab36610acd565b809460018060a01b038060035416331480156109d3575b6109cb90610bb2565b610713610cc6565b50600254811633146109c2565b83903461030357816003193601126103035751908152602090f35b83903461030357816003193601126103035760015490516001600160a01b039091168152602090f35b839034610303578160031936011261030357905490516001600160a01b039091168152602090f35b8490346103035781600319360112610303576020918152f35b67ffffffffffffffff8111610a7957604052565b634e487b7160e01b600052604160045260246000fd5b6040810190811067ffffffffffffffff821117610a7957604052565b90601f8019910116810190811067ffffffffffffffff821117610a7957604052565b60206003198201126102e55767ffffffffffffffff6004358181116102e557826023820112156102e5578060040135918211610a795760405192610b1b601f8401601f191660200185610aab565b828452602483830101116102e55781600092602460209301838601378301015290565b60005b838110610b515750506000910152565b8181015183820152602001610b41565b90602091610b7a81518092818552858086019101610b3e565b601f01601f1916010190565b600435906001600160a01b03821682036102e557565b602435906001600160a01b03821682036102e557565b15610bb957565b60405162461bcd60e51b815260206004820152601760248201527f58434d526f757465723a20756e617574686f72697a65640000000000000000006044820152606490fd5b908160209103126102e5575180151581036102e55790565b9091610c2d610c3b93604084526040840190610b61565b916020818403910152610b61565b90565b15610c4557565b60405162461bcd60e51b81526020600482015260166024820152751610d3549bdd5d195c8e881cd95b990819985a5b195960521b6044820152606490fd5b15610c8a57565b60405162461bcd60e51b81526020600482015260146024820152732c21a6a937baba32b91d103737ba1037bbb732b960611b6044820152606490fd5b604051600160f81b60208201819052602182015260006022820152607d60e31b602382015260078152610c3b81610a8f565b604051600160f81b60208201526000602182015260028152610c3b81610a8f565b610c3b60336040518093600360f91b602083015260006021830152600160f81b6022830152621dcd6560c91b602383015261027160c41b602b830152610d688151809260208686019101610b3e565b8101036013810184520182610aab565b60405160006020820152600160f81b6021820152600560f81b602282015260609190911b6bffffffffffffffffffffffff1916602382015260178152610c3b81610a8f56fea264697066735822122062667e35933d9463d7c891e26674e71b7ed04cd8a1d0fa60b793c5cfd2f297b564736f6c63430008180033",
  "linkReferences": {},
  "deployedLinkReferences": {}
}