{
  "_format": "hh-sol-artifact-1",
  "contractName": "XCMRouter",
  "sourceName": "src/XCMRouter.sol",
  "abi": [
    {
      "inputs": [],
      "stateMutability": "nonpayable",
      "type": "constructor"
    },
    {
      "anonymous": false,
      "inputs": [
        {
          "indexed": false,
          "internalType": "bytes",
          "name": "message",
          "type": "bytes"
        }
      ],
      "name": "XCMExecuted",
      "type": "event"
    },
    {
      "anonymous": false,
      "inputs": [
        {
          "indexed": false,
          "internalType": "bytes",
          "name": "dest",
          "type": "bytes"
        },
        {
          "indexed": false,
          "internalType": "bytes",
          "name": "message",
          "type": "bytes"
        }
      ],
      "name": "XCMSent",
      "type": "event"
    },
    {
      "inputs": [],
      "name": "ASSET_HUB_PARA_ID",
      "outputs": [
        {
          "internalType": "uint32",
          "name": "",
          "type": "uint32"
        }
      ],
      "stateMutability": "view",
      "type": "function"
    },
    {
      "inputs": [],
      "name": "RELAY_CHAIN_ID",
      "outputs": [
        {
          "internalType": "uint32",
          "name": "",
          "type": "uint32"
        }
      ],
      "stateMutability": "view",
      "type": "function"
    },
    {
      "inputs": [],
      "name": "STAKING_PRECOMPILE",
      "outputs": [
        {
          "internalType": "address",
          "name": "",
          "type": "address"
        }
      ],
      "stateMutability": "view",
      "type": "function"
    },
    {
      "inputs": [],
      "name": "XCM_PRECOMPILE",
      "outputs": [
        {
          "internalType": "address",
          "name": "",
          "type": "address"
        }
      ],
      "stateMutability": "view",
      "type": "function"
    },
    {
      "inputs": [
        {
          "internalType": "address",
          "name": "asset",
          "type": "address"
        },
        {
          "internalType": "uint256",
          "name": "amount",
          "type": "uint256"
        }
      ],
      "name": "buildLendOnAssetHub",
      "outputs": [
        {
          "internalType": "bytes",
          "name": "payload",
          "type": "bytes"
        }
      ],
      "stateMutability": "pure",
      "type": "function"
    },
    {
      "inputs": [
        {
          "internalType": "uint256",
          "name": "amount",
          "type": "uint256"
        }
      ],
      "name": "buildStakeOnRelay",
      "outputs": [
        {
          "internalType": "bytes",
          "name": "payload",
          "type": "bytes"
        }
      ],
      "stateMutability": "pure",
      "type": "function"
    },
    {
      "inputs": [
        {
          "internalType": "address",
          "name": "asset",
          "type": "address"
        },
        {
          "internalType": "uint256",
          "name": "amount",
          "type": "uint256"
        }
      ],
      "name": "buildTransferToAssetHub",
      "outputs": [
        {
          "internalType": "bytes",
          "name": "payload",
          "type": "bytes"
        }
      ],
      "stateMutability": "pure",
      "type": "function"
    },
    {
      "inputs": [
        {
          "internalType": "address",
          "name": "account",
          "type": "address"
        }
      ],
      "name": "getNativeBonded",
      "outputs": [
        {
          "internalType": "uint256",
          "name": "",
          "type": "uint256"
        }
      ],
      "stateMutability": "view",
      "type": "function"
    },
    {
      "inputs": [
        {
          "internalType": "uint256",
          "name": "amount",
          "type": "uint256"
        }
      ],
      "name": "nativeBond",
      "outputs": [],
      "stateMutability": "nonpayable",
      "type": "function"
    },
    {
      "inputs": [
        {
          "internalType": "address[]",
          "name": "targets",
          "type": "address[]"
        }
      ],
      "name": "nativeNominate",
      "outputs": [],
      "stateMutability": "nonpayable",
      "type": "function"
    },
    {
      "inputs": [
        {
          "internalType": "uint256",
          "name": "amount",
          "type": "uint256"
        }
      ],
      "name": "nativeUnbond",
      "outputs": [],
      "stateMutability": "nonpayable",
      "type": "function"
    },
    {
      "inputs": [],
      "name": "owner",
      "outputs": [
        {
          "internalType": "address",
          "name": "",
          "type": "address"
        }
      ],
      "stateMutability": "view",
      "type": "function"
    },
    {
      "inputs": [
        {
          "internalType": "bytes",
          "name": "payload",
          "type": "bytes"
        }
      ],
      "name": "sendToAssetHub",
      "outputs": [],
      "stateMutability": "nonpayable",
      "type": "function"
    },
    {
      "inputs": [
        {
          "internalType": "bytes",
          "name": "payload",
          "type": "bytes"
        }
      ],
      "name": "sendToRelay",
      "outputs": [],
      "stateMutability": "nonpayable",
      "type": "function"
    },
    {
      "inputs": [
        {
          "internalType": "address",
          "name": "_xcm",
          "type": "address"
        },
        {
          "internalType": "address",
          "name": "_staking",
          "type": "address"
        }
      ],
      "name": "setPrecompileAddresses",
      "outputs": [],
      "stateMutability": "nonpayable",
      "type": "function"
    },
    {
      "inputs": [
        {
          "internalType": "address",
          "name": "_treasury",
          "type": "address"
        }
      ],
      "name": "setTreasury",
      "outputs": [],
      "stateMutability": "nonpayable",
      "type": "function"
    },
    {
      "inputs": [],
      "name": "treasury",
      "outputs": [
        {
          "internalType": "address",
          "name": "",
          "type": "address"
        }
      ],
      "stateMutability": "view",
      "type": "function"
    }
  ],
  "bytecode": "0x608080604052346100415760018060a01b0319620a000081600054161760005561080381600154161760015533906002541617600255610c4b90816100478239f35b600080fdfe608060409080825260048036101561001657600080fd5b600092833560e01c92836306856142146108ba57508263077120cc146108925782630cb9f3ad1461086957826318d716361461081e5782633f707022146107b857826355480d171461079b57826357d3c71a1461069e57826361d027b31461067557826379b15de01461057e5782637ae40a11146105175782638bac5ab51461047b578383638d483188146103f0575082638da5cb5b146103c7578263927620db146102e6578263a58be0c3146101d6579083918363b375e04a146101395750505063f0f44260146100e757600080fd5b34610136576020366003190112610136576101006109f4565b6002546001600160a01b03919061011a9083163314610adb565b166bffffffffffffffffffffffff60a01b600354161760035580f35b80fd5b829350346101d25760203660031901126101d2576003546001600160a01b03908116331480156101c5575b61016d90610a0a565b6001541691823b156101c057839260248492845195869384926313ef4f1960e11b84528035908401525af19081156101b757506101a75750f35b6101b0906108d3565b6101365780f35b513d84823e3d90fd5b505050fd5b5060025481163314610164565b5050fd5b8382346102e25760209260206003193601126102de5767ffffffffffffffff82358181116102da57366023820112156102da57808401359182116102da573660248360051b830101116102da576003546001600160a01b0392908316331480156102cd575b61024490610a0a565b600196836001541693843b156102c9579190818651976319f2fdad60e01b8952602060248a01918a01525260246044880194019288905b83821061029f5789808a8a8282808c0381838f5af19081156101b757506101a75750f35b90919293948535908282168092036102c45790815283019483019392918a019061027b565b600080fd5b8780fd5b506002548316331461023b565b8480fd5b8280fd5b5080fd5b8334610136578160031936011261013657506103006109f4565b906103c361031561030f610b1e565b93610bd0565b916103b46021610370835161036b60328260209961140360f01b8b830152610346815180928d6022860191016109ac565b81016001600160801b031960243560801b166022820152036012810184520182610919565b610b71565b958351968791600160fa1b88840152610391815180928a87870191016109ac565b82016103a5825180938a87850191016109ac565b01036001810187520185610919565b519282849384528301906109cf565b0390f35b8390346102e257816003193601126102e25760025490516001600160a01b039091168152602090f35b925090346101d25760203660031901126101d2576003546001600160a01b039081163314801561046e575b61042490610a0a565b60015416803b156101c057604484928451958693849263d5c90b2960e01b84528035908401528160248401525af19081156101b75750610462575080f35b61046b906108d3565b80f35b506002548116331461041b565b8390346102e257602092836003193601126102de57836104996109f4565b600154845163f19e2a2160e01b81526001600160a01b039283169481019490945283916024918391165afa92831561050c5780936104da575b505051908152f35b909192508382813d8311610505575b6104f38183610919565b810103126101365750519083806104d2565b503d6104e9565b8251903d90823e3d90fd5b8390346102e257366003190112610136576105306109f4565b6024356001600160a01b03818116929183900361057a5761055681600254163314610adb565b6bffffffffffffffffffffffff60a01b911681845416178355600154161760015580f35b8380fd5b9150346102de57826105dd60206105943661093b565b809460018060a01b03806003541633148015610668575b6105b490610a0a565b6105bc610b50565b95869181541692895196879586948593637f0a3bf960e01b85528401610a6e565b03925af190811561065e579361061f610629927fb896fa5daa5aaa810dbe2375ff4785c955bc7e1423e43094570a9f841329a7dd96889161062f575b50610a96565b5192839283610a6e565b0390a180f35b610651915060203d602011610657575b6106498183610919565b810190610a56565b38610619565b503d61063f565b84513d87823e3d90fd5b50600254811633146105ab565b8390346102e257816003193601126102e25760035490516001600160a01b039091168152602090f35b83346101365781600319360112610136576103c36106ba6109f4565b926103b46021602435946106d56106cf610b1e565b97610bd0565b845161076e60478260209a8b82019587875260648d8251908301906106fd818d8801846109ac565b850161073d6001600160801b031994858760801b168e840152600d60f81b60318401528c6032840152600360fa1b603384015251809360348401906109ac565b01920460801b166034820152600160fa1b968760448301528060458301526046820152036027810184520182610919565b6103a58651998a948a86015261078c815180928c89890191016109ac565b840191518093868401906109ac565b8390346102e257816003193601126102e257602090516103e88152f35b9150346102de576020918260031936011261057a576103b460216103706103c3946107e1610b50565b8551600760f81b89820152913560801b6fffffffffffffffffffffffffffffffff1916602283015260328201989098526013815261036b816108fd565b9150346102de57826105dd60206108343661093b565b809460018060a01b0380600354163314801561085c575b61085490610a0a565b6105bc610b1e565b506002548116331461084b565b8390346102e257816003193601126102e25760015490516001600160a01b039091168152602090f35b8390346102e257816003193601126102e257905490516001600160a01b039091168152602090f35b8490346102e257816003193601126102e2576020918152f35b67ffffffffffffffff81116108e757604052565b634e487b7160e01b600052604160045260246000fd5b6040810190811067ffffffffffffffff8211176108e757604052565b90601f8019910116810190811067ffffffffffffffff8211176108e757604052565b60206003198201126102c45767ffffffffffffffff6004358181116102c457826023820112156102c45780600401359182116108e75760405192610989601f8401601f191660200185610919565b828452602483830101116102c45781600092602460209301838601378301015290565b60005b8381106109bf5750506000910152565b81810151838201526020016109af565b906020916109e8815180928185528580860191016109ac565b601f01601f1916010190565b600435906001600160a01b03821682036102c457565b15610a1157565b60405162461bcd60e51b815260206004820152601760248201527f58434d526f757465723a20756e617574686f72697a65640000000000000000006044820152606490fd5b908160209103126102c4575180151581036102c45790565b9091610a85610a93936040845260408401906109cf565b9160208184039101526109cf565b90565b15610a9d57565b60405162461bcd60e51b81526020600482015260166024820152751610d3549bdd5d195c8e881cd95b990819985a5b195960521b6044820152606490fd5b15610ae257565b60405162461bcd60e51b81526020600482015260146024820152732c21a6a937baba32b91d103737ba1037bbb732b960611b6044820152606490fd5b604051600160f81b60208201819052602182015260006022820152607d60e31b602382015260078152610a93816108fd565b604051600160f81b60208201526000602182015260028152610a93816108fd565b610a9360336040518093600360f91b602083015260006021830152600160f81b6022830152621dcd6560c91b602383015261027160c41b602b830152610bc081518092602086860191016109ac565b8101036013810184520182610919565b60405160006020820152600160f81b6021820152600560f81b602282015260609190911b6bffffffffffffffffffffffff1916602382015260178152610a93816108fd56fea2646970667358221220cab1d58f27d08667d7de70d9a3b3c4ddcf970ae90b2299256d095ca998b1b5cc64736f6c63430008180033",
  "linkReferences": {},
  "deployedLinkReferences": {}
}