{
  "_format": "hh-sol-artifact-1",
  "contractName": "MockStakingPrecompile",
  "sourceName": "src/MockStakingPrecompile.sol",
  "abi": [
    {
      "inputs": [
        {
          "internalType": "uint256",
          "name": "amount",
          "type": "uint256"
        },
        {
          "internalType": "uint8",
          "name": "",
          "type": "uint8"
        }
      ],
      "name": "bond",
      "outputs": [],
      "stateMutability": "nonpayable",
      "type": "function"
    },
    {
      "inputs": [
        {
          "internalType": "uint256",
          "name": "amount",
          "type": "uint256"
        }
      ],
      "name": "bondExtra",
      "outputs": [],
      "stateMutability": "nonpayable",
      "type": "function"
    },
    {
      "inputs": [
        {
          "internalType": "address",
          "name": "account",
          "type": "address"
        }
      ],
      "name": "bonded",
      "outputs": [
        {
          "internalType": "uint256",
          "name": "",
          "type": "uint256"
        }
      ],
      "stateMutability": "view",
      "type": "function"
    },
    {
      "inputs": [
        {
          "internalType": "address",
          "name": "",
          "type": "address"
        }
      ],
      "name": "bondedBalances",
      "outputs": [
        {
          "internalType": "uint256",
          "name": "",
          "type": "uint256"
        }
      ],
      "stateMutability": "view",
      "type": "function"
    },
    {
      "inputs": [
        {
          "internalType": "address[]",
          "name": "",
          "type": "address[]"
        }
      ],
      "name": "nominate",
      "outputs": [],
      "stateMutability": "nonpayable",
      "type": "function"
    },
    {
      "inputs": [
        {
          "internalType": "address",
          "name": "account",
          "type": "address"
        }
      ],
      "name": "rewards",
      "outputs": [
        {
          "internalType": "uint256",
          "name": "",
          "type": "uint256"
        }
      ],
      "stateMutability": "view",
      "type": "function"
    },
    {
      "inputs": [
        {
          "internalType": "address",
          "name": "account",
          "type": "address"
        },
        {
          "internalType": "uint256",
          "name": "amount",
          "type": "uint256"
        }
      ],
      "name": "setRewards",
      "outputs": [],
      "stateMutability": "nonpayable",
      "type": "function"
    },
    {
      "inputs": [
        {
          "internalType": "uint256",
          "name": "amount",
          "type": "uint256"
        }
      ],
      "name": "unbond",
      "outputs": [],
      "stateMutability": "nonpayable",
      "type": "function"
    },
    {
      "inputs": [
        {
          "internalType": "address",
          "name": "",
          "type": "address"
        }
      ],
      "name": "userRewards",
      "outputs": [
        {
          "internalType": "uint256",
          "name": "",
          "type": "uint256"
        }
      ],
      "stateMutability": "view",
      "type": "function"
    },
    {
      "inputs": [],
      "name": "withdrawUnbonded",
      "outputs": [],
      "stateMutability": "nonpayable",
      "type": "function"
    }
  ],
  "bytecode": "0x6080806040523461001657610364908161001c8239f35b600080fdfe608060408181526004918236101561001657600080fd5b600092833560e01c9182630660f1e8146102ac575081630700037d1461027457816319f2fdad1461022357816327de9e321461018b5781636e373bef1461017457816380c15aaa14610140578163916c42dc14610118578163d5c90b29146100ec578163eaca88de146100cc575063f19e2a211461009357600080fd5b346100c85760203660031901126100c85760209181906001600160a01b036100b96102e0565b16815280845220549051908152f35b5080fd5b8390346100c85760203660031901126100c8576100e990356102fb565b80f35b91905034610114573660031901126100c85760243560ff8116036100c8576100e990356102fb565b8280fd5b5050346100c85760203660031901126100c85760209181906001600160a01b036100b96102e0565b5050346100c857806003193601126100c8576001600160a01b036101626102e0565b16825260016020526024359082205580f35b833461018857806003193601126101885780f35b80fd5b90503461011457602036600319011261011457803591338452836020528281852054106101e0573384528360205283209081549283039283116101cd57505580f35b634e487b7160e01b845260119052602483fd5b906020606492519162461bcd60e51b8352820152601960248201527f4d6f636b5374616b696e673a20696e73756666696369656e74000000000000006044820152fd5b8390346100c85760203660031901126100c857803567ffffffffffffffff9182821161027057366023830112156102705781013591821161011457602490369260051b0101116101885780f35b8380fd5b5050346100c85760203660031901126100c85760209181906001600160a01b0361029c6102e0565b1681526001845220549051908152f35b84908434610114576020366003190112610114576020926001600160a01b036102d36102e0565b1681526001845220548152f35b600435906001600160a01b03821682036102f657565b600080fd5b336000526000602052604060002080549182018092116103185755565b634e487b7160e01b600052601160045260246000fdfea2646970667358221220824529447de4858f92b8dbda6bf4e2a02c512afab5f01d72e7ae3b475a3f410464736f6c63430008180033",
  "linkReferences": {},
  "deployedLinkReferences": {}
}