{
  "_format": "hh-sol-artifact-1",
  "contractName": "DOTStakingStrategy",
  "sourceName": "src/strategies/YieldStrategy.sol",
  "abi": [
    {
      "inputs": [
        {
          "internalType": "address",
          "name": "_asset",
          "type": "address"
        }
      ],
      "stateMutability": "nonpayable",
      "type": "constructor"
    },
    {
      "anonymous": false,
      "inputs": [
        {
          "indexed": false,
          "internalType": "uint256",
          "name": "amount",
          "type": "uint256"
        }
      ],
      "name": "Divested",
      "type": "event"
    },
    {
      "anonymous": false,
      "inputs": [
        {
          "indexed": false,
          "internalType": "uint256",
          "name": "amount",
          "type": "uint256"
        }
      ],
      "name": "Invested",
      "type": "event"
    },
    {
      "anonymous": false,
      "inputs": [
        {
          "indexed": false,
          "internalType": "uint256",
          "name": "amount",
          "type": "uint256"
        }
      ],
      "name": "YieldHarvested",
      "type": "event"
    },
    {
      "inputs": [],
      "name": "accruedYield",
      "outputs": [
        {
          "internalType": "uint256",
          "name": "",
          "type": "uint256"
        }
      ],
      "stateMutability": "view",
      "type": "function"
    },
    {
      "inputs": [],
      "name": "asset",
      "outputs": [
        {
          "internalType": "address",
          "name": "",
          "type": "address"
        }
      ],
      "stateMutability": "view",
      "type": "function"
    },
    {
      "inputs": [
        {
          "internalType": "uint256",
          "name": "amount",
          "type": "uint256"
        }
      ],
      "name": "divest",
      "outputs": [],
      "stateMutability": "nonpayable",
      "type": "function"
    },
    {
      "inputs": [],
      "name": "harvestYield",
      "outputs": [
        {
          "internalType": "uint256",
          "name": "",
          "type": "uint256"
        }
      ],
      "stateMutability": "nonpayable",
      "type": "function"
    },
    {
      "inputs": [
        {
          "internalType": "uint256",
          "name": "amount",
          "type": "uint256"
        }
      ],
      "name": "invest",
      "outputs": [],
      "stateMutability": "nonpayable",
      "type": "function"
    },
    {
      "inputs": [],
      "name": "invested",
      "outputs": [
        {
          "internalType": "uint256",
          "name": "",
          "type": "uint256"
        }
      ],
      "stateMutability": "view",
      "type": "function"
    },
    {
      "inputs": [],
      "name": "owner",
      "outputs": [
        {
          "internalType": "address",
          "name": "",
          "type": "address"
        }
      ],
      "stateMutability": "view",
      "type": "function"
    },
    {
      "inputs": [
        {
          "internalType": "uint256",
          "name": "_bps",
          "type": "uint256"
        }
      ],
      "name": "setYieldRate",
      "outputs": [],
      "stateMutability": "nonpayable",
      "type": "function"
    },
    {
      "inputs": [],
      "name": "totalValue",
      "outputs": [
        {
          "internalType": "uint256",
          "name": "",
          "type": "uint256"
        }
      ],
      "stateMutability": "view",
      "type": "function"
    },
    {
      "inputs": [],
      "name": "yieldRateBps",
      "outputs": [
        {
          "internalType": "uint256",
          "name": "",
          "type": "uint256"
        }
      ],
      "stateMutability": "view",
      "type": "function"
    }
  ],
  "bytecode": "0x60803461007f57601f61054638819003918201601f19168301916001600160401b038311848410176100845780849260209460405283398101031261007f57516001600160a01b0381169081900361007f57603260045560018060a01b03193381600054161760005560035416176003556040516104ab908161009b8239f35b600080fd5b634e487b7160e01b600052604160045260246000fdfe6080604081815260048036101561001557600080fd5b600092833560e01c9081631411dab0146103ed575080632afcf4801461039d57806338d52e0f146103745780634019fb33146103555780638ca17995146101ac5780638da5cb5b14610184578063cafb220214610165578063d4c3eea014610136578063e8d991d1146100b15763f3a6a4a31461009157600080fd5b346100ad57826003193601126100ad5760209250549051908152f35b8280fd5b50913461013357806003193601126101335760015492805493848102948186041490151715610120576020836127108604906100ef82600254610452565b6002557feb2d114a827fe0da3db4c0e374010959cf461f7ed76987aeff51666dea9add9b838251848152a151908152f35b634e487b7160e01b825260119052602490fd5b80fd5b50503461016157816003193601126101615760209061015a60015460025490610452565b9051908152f35b5080fd5b5050346101615781600319360112610161576020906001549051908152f35b505034610161578160031936011261016157905490516001600160a01b039091168152602090f35b5082903461016157602090816003193601126100ad57803590600154808311610312578281039081116102ff57600155600354855163a9059cbb60e01b81523383820152602481018490529084908290604490829089906001600160a01b03165af19081156102f5578591610291575b501561024e57507f0dbc40ccd4fca1b5bf46f23e99aaefe371e661e9ca0c45dc1b79e5e321d3b99d929351908152a180f35b845162461bcd60e51b8152908101839052601b60248201527f444f545374616b696e673a207472616e73666572206661696c656400000000006044820152606490fd5b9050833d85116102ee575b601f8101601f1916820167ffffffffffffffff8111838210176102db57859183918952810103126102d7575180151581036102d7578661021c565b8480fd5b634e487b7160e01b875260418452602487fd5b503d61029c565b86513d87823e3d90fd5b634e487b7160e01b855260118252602485fd5b855162461bcd60e51b8152808301859052601860248201527f444f545374616b696e673a20696e73756666696369656e7400000000000000006044820152606490fd5b5050346101615781600319360112610161576020906002549051908152f35b50503461016157816003193601126101615760035490516001600160a01b039091168152602090f35b50346100ad5760203660031901126100ad577fac9f7997c30b6a3cc9c74953898b5de154359339c7ec0d6d70ceb98e55db1a4b9160209135906103e282600154610452565b60015551908152a180f35b828591346100ad5760203660031901126100ad5782546001600160a01b0316330361041a57508035905580f35b602060649262461bcd60e51b835282015260156024820152742227aa29ba30b5b4b7339d103737ba1037bbb732b960591b6044820152fd5b9190820180921161045f57565b634e487b7160e01b600052601160045260246000fdfea2646970667358221220bf72016a18ccf8a89c6cf4c50121a9bf7d5501a3bcfdeacab98e085e5e973cd464736f6c63430008180033",
  "linkReferences": {},
  "deployedLinkReferences": {}
}