{
  "_format": "hh-sol-artifact-1",
  "contractName": "LendingStrategy",
  "sourceName": "src/strategies/YieldStrategy.sol",
  "abi": [
    {
      "inputs": [
        {
          "internalType": "address",
          "name": "_asset",
          "type": "address"
        }
      ],
      "stateMutability": "nonpayable",
      "type": "constructor"
    },
    {
      "anonymous": false,
      "inputs": [
        {
          "indexed": false,
          "internalType": "uint256",
          "name": "amount",
          "type": "uint256"
        }
      ],
      "name": "Divested",
      "type": "event"
    },
    {
      "anonymous": false,
      "inputs": [
        {
          "indexed": false,
          "internalType": "uint256",
          "name": "amount",
          "type": "uint256"
        }
      ],
      "name": "Invested",
      "type": "event"
    },
    {
      "anonymous": false,
      "inputs": [
        {
          "indexed": false,
          "internalType": "uint256",
          "name": "amount",
          "type": "uint256"
        }
      ],
      "name": "YieldHarvested",
      "type": "event"
    },
    {
      "inputs": [],
      "name": "accruedYield",
      "outputs": [
        {
          "internalType": "uint256",
          "name": "",
          "type": "uint256"
        }
      ],
      "stateMutability": "view",
      "type": "function"
    },
    {
      "inputs": [],
      "name": "asset",
      "outputs": [
        {
          "internalType": "address",
          "name": "",
          "type": "address"
        }
      ],
      "stateMutability": "view",
      "type": "function"
    },
    {
      "inputs": [
        {
          "internalType": "uint256",
          "name": "amount",
          "type": "uint256"
        }
      ],
      "name": "divest",
      "outputs": [],
      "stateMutability": "nonpayable",
      "type": "function"
    },
    {
      "inputs": [],
      "name": "harvestYield",
      "outputs": [
        {
          "internalType": "uint256",
          "name": "",
          "type": "uint256"
        }
      ],
      "stateMutability": "nonpayable",
      "type": "function"
    },
    {
      "inputs": [
        {
          "internalType": "uint256",
          "name": "amount",
          "type": "uint256"
        }
      ],
      "name": "invest",
      "outputs": [],
      "stateMutability": "nonpayable",
      "type": "function"
    },
    {
      "inputs": [],
      "name": "invested",
      "outputs": [
        {
          "internalType": "uint256",
          "name": "",
          "type": "uint256"
        }
      ],
      "stateMutability": "view",
      "type": "function"
    },
    {
      "inputs": [],
      "name": "owner",
      "outputs": [
        {
          "internalType": "address",
          "name": "",
          "type": "address"
        }
      ],
      "stateMutability": "view",
      "type": "function"
    },
    {
      "inputs": [
        {
          "internalType": "uint256",
          "name": "_bps",
          "type": "uint256"
        }
      ],
      "name": "setYieldRate",
      "outputs": [],
      "stateMutability": "nonpayable",
      "type": "function"
    },
    {
      "inputs": [],
      "name": "totalValue",
      "outputs": [
        {
          "internalType": "uint256",
          "name": "",
          "type": "uint256"
        }
      ],
      "stateMutability": "view",
      "type": "function"
    },
    {
      "inputs": [],
      "name": "yieldRateBps",
      "outputs": [
        {
          "internalType": "uint256",
          "name": "",
          "type": "uint256"
        }
      ],
      "stateMutability": "view",
      "type": "function"
    }
  ],
  "bytecode": "0x60803461007f57601f61053e38819003918201601f19168301916001600160401b038311848410176100845780849260209460405283398101031261007f57516001600160a01b0381169081900361007f57601e60035560018060a01b03193381600054161760005560045416176004556040516104a3908161009b8239f35b600080fd5b634e487b7160e01b600052604160045260246000fdfe608060408181526004918236101561001657600080fd5b600092833560e01c9182631411dab0146103e8575081632afcf4801461039757816338d52e0f1461036f5781634019fb33146103505781638ca17995146101ac5781638da5cb5b14610184578163cafb220214610165578163d4c3eea01461013a578163e8d991d1146100b4575063f3a6a4a31461009357600080fd5b346100b057816003193601126100b0576020906003549051908152f35b5080fd5b8284346101375780600319360112610137576001549260035493848102948186041490151715610124576020836127108604906100f38260025461044a565b6002557feb2d114a827fe0da3db4c0e374010959cf461f7ed76987aeff51666dea9add9b838251848152a151908152f35b634e487b7160e01b825260119052602490fd5b80fd5b5050346100b057816003193601126100b05760209061015e6001546002549061044a565b9051908152f35b5050346100b057816003193601126100b0576020906001549051908152f35b5050346100b057816003193601126100b057905490516001600160a01b039091168152602090f35b839150346100b0576020908160031936011261034c57803590600154808311610311578281039081116102fe576001558054855163a9059cbb60e01b81523381840152602481018490529084908290604490829089906001600160a01b03165af19081156102f4578591610290575b501561024d57507f0dbc40ccd4fca1b5bf46f23e99aaefe371e661e9ca0c45dc1b79e5e321d3b99d929351908152a180f35b845162461bcd60e51b8152908101839052601860248201527f4c656e64696e673a207472616e73666572206661696c656400000000000000006044820152606490fd5b9050833d85116102ed575b601f8101601f1916820167ffffffffffffffff8111838210176102da57859183918952810103126102d6575180151581036102d6578661021b565b8480fd5b634e487b7160e01b875260418452602487fd5b503d61029b565b86513d87823e3d90fd5b634e487b7160e01b855260118252602485fd5b855162461bcd60e51b8152808301859052601560248201527413195b991a5b99ce881a5b9cdd59999a58da595b9d605a1b6044820152606490fd5b8280fd5b5050346100b057816003193601126100b0576020906002549051908152f35b90503461034c578260031936011261034c575490516001600160a01b03909116815260209150f35b90503461034c57602036600319011261034c577fac9f7997c30b6a3cc9c74953898b5de154359339c7ec0d6d70ceb98e55db1a4b9160209135906103dd8260015461044a565b60015551908152a180f35b8492503461034c57602036600319011261034c5782546001600160a01b0316330361041557503560035580f35b602060649262461bcd60e51b835282015260126024820152712632b73234b7339d103737ba1037bbb732b960711b6044820152fd5b9190820180921161045757565b634e487b7160e01b600052601160045260246000fdfea2646970667358221220cf990f67a66c0df31589fee707dedfa2401d1f26b50aba4bb11ae9c0e941d62164736f6c63430008180033",
  "linkReferences": {},
  "deployedLinkReferences": {}
}