{
  "_format": "hh-sol-artifact-1",
  "contractName": "LendingStrategy",
  "sourceName": "src/strategies/YieldStrategy.sol",
  "abi": [
    {
      "inputs": [],
      "stateMutability": "nonpayable",
      "type": "constructor"
    },
    {
      "anonymous": false,
      "inputs": [
        {
          "indexed": false,
          "internalType": "uint256",
          "name": "amount",
          "type": "uint256"
        }
      ],
      "name": "Divested",
      "type": "event"
    },
    {
      "anonymous": false,
      "inputs": [
        {
          "indexed": false,
          "internalType": "uint256",
          "name": "amount",
          "type": "uint256"
        }
      ],
      "name": "Invested",
      "type": "event"
    },
    {
      "anonymous": false,
      "inputs": [
        {
          "indexed": false,
          "internalType": "uint256",
          "name": "amount",
          "type": "uint256"
        }
      ],
      "name": "YieldHarvested",
      "type": "event"
    },
    {
      "inputs": [],
      "name": "accruedYield",
      "outputs": [
        {
          "internalType": "uint256",
          "name": "",
          "type": "uint256"
        }
      ],
      "stateMutability": "view",
      "type": "function"
    },
    {
      "inputs": [
        {
          "internalType": "uint256",
          "name": "amount",
          "type": "uint256"
        }
      ],
      "name": "divest",
      "outputs": [],
      "stateMutability": "nonpayable",
      "type": "function"
    },
    {
      "inputs": [],
      "name": "harvestYield",
      "outputs": [
        {
          "internalType": "uint256",
          "name": "",
          "type": "uint256"
        }
      ],
      "stateMutability": "nonpayable",
      "type": "function"
    },
    {
      "inputs": [
        {
          "internalType": "uint256",
          "name": "amount",
          "type": "uint256"
        }
      ],
      "name": "invest",
      "outputs": [],
      "stateMutability": "nonpayable",
      "type": "function"
    },
    {
      "inputs": [],
      "name": "invested",
      "outputs": [
        {
          "internalType": "uint256",
          "name": "",
          "type": "uint256"
        }
      ],
      "stateMutability": "view",
      "type": "function"
    },
    {
      "inputs": [],
      "name": "owner",
      "outputs": [
        {
          "internalType": "address",
          "name": "",
          "type": "address"
        }
      ],
      "stateMutability": "view",
      "type": "function"
    },
    {
      "inputs": [
        {
          "internalType": "uint256",
          "name": "_bps",
          "type": "uint256"
        }
      ],
      "name": "setYieldRate",
      "outputs": [],
      "stateMutability": "nonpayable",
      "type": "function"
    },
    {
      "inputs": [],
      "name": "totalValue",
      "outputs": [
        {
          "internalType": "uint256",
          "name": "",
          "type": "uint256"
        }
      ],
      "stateMutability": "view",
      "type": "function"
    },
    {
      "inputs": [],
      "name": "yieldRateBps",
      "outputs": [
        {
          "internalType": "uint256",
          "name": "",
          "type": "uint256"
        }
      ],
      "stateMutability": "view",
      "type": "function"
    }
  ],
  "bytecode": "0x6080806040523461002d57601e600355600080546001600160a01b0319163317905561037890816100338239f35b600080fdfe608060408181526004918236101561001657600080fd5b600092833560e01c9182631411dab0146102bd575081632afcf480146102685781634019fb33146102495781638ca17995146101a15781638da5cb5b14610179578163cafb22021461015a578163d4c3eea01461012f578163e8d991d1146100a9575063f3a6a4a31461008857600080fd5b346100a557816003193601126100a5576020906003549051908152f35b5080fd5b82843461012c578060031936011261012c576001549260035493848102948186041490151715610119576020836127108604906100e88260025461031f565b6002557feb2d114a827fe0da3db4c0e374010959cf461f7ed76987aeff51666dea9add9b838251848152a151908152f35b634e487b7160e01b825260119052602490fd5b80fd5b5050346100a557816003193601126100a5576020906101536001546002549061031f565b9051908152f35b5050346100a557816003193601126100a5576020906001549051908152f35b5050346100a557816003193601126100a557905490516001600160a01b039091168152602090f35b8383346100a55760203660031901126100a55782359060015480831161020e578281039081116101fb57600155519081527f0dbc40ccd4fca1b5bf46f23e99aaefe371e661e9ca0c45dc1b79e5e321d3b99d90602090a180f35b634e487b7160e01b845260118552602484fd5b815162461bcd60e51b8152602081870152601560248201527413195b991a5b99ce881a5b9cdd59999a58da595b9d605a1b6044820152606490fd5b5050346100a557816003193601126100a5576020906002549051908152f35b9050346102b95760203660031901126102b9577fac9f7997c30b6a3cc9c74953898b5de154359339c7ec0d6d70ceb98e55db1a4b9160209135906102ae8260015461031f565b60015551908152a180f35b8280fd5b849250346102b95760203660031901126102b95782546001600160a01b031633036102ea57503560035580f35b602060649262461bcd60e51b835282015260126024820152712632b73234b7339d103737ba1037bbb732b960711b6044820152fd5b9190820180921161032c57565b634e487b7160e01b600052601160045260246000fdfea264697066735822122009cafca95775adcc845f100e7d8f1c8fc5f627abf155157cf23d43b63948274d64736f6c63430008180033",
  "linkReferences": {},
  "deployedLinkReferences": {}
}