{
  "_format": "hh-sol-artifact-1",
  "contractName": "AutoTreasury",
  "sourceName": "src/AutoTreasury.sol",
  "abi": [
    {
      "inputs": [
        {
          "internalType": "address",
          "name": "_xcmRouter",
          "type": "address"
        }
      ],
      "stateMutability": "nonpayable",
      "type": "constructor"
    },
    {
      "anonymous": false,
      "inputs": [
        {
          "indexed": true,
          "internalType": "address",
          "name": "asset",
          "type": "address"
        }
      ],
      "name": "AssetAdded",
      "type": "event"
    },
    {
      "anonymous": false,
      "inputs": [
        {
          "indexed": true,
          "internalType": "address",
          "name": "user",
          "type": "address"
        },
        {
          "indexed": true,
          "internalType": "address",
          "name": "asset",
          "type": "address"
        },
        {
          "indexed": false,
          "internalType": "uint256",
          "name": "amount",
          "type": "uint256"
        },
        {
          "indexed": false,
          "internalType": "uint256",
          "name": "sharesMinted",
          "type": "uint256"
        }
      ],
      "name": "Deposited",
      "type": "event"
    },
    {
      "anonymous": false,
      "inputs": [
        {
          "indexed": false,
          "internalType": "uint256",
          "name": "timestamp",
          "type": "uint256"
        }
      ],
      "name": "Rebalanced",
      "type": "event"
    },
    {
      "anonymous": false,
      "inputs": [
        {
          "indexed": true,
          "internalType": "address",
          "name": "strategy",
          "type": "address"
        }
      ],
      "name": "StrategyAdded",
      "type": "event"
    },
    {
      "anonymous": false,
      "inputs": [
        {
          "indexed": true,
          "internalType": "address",
          "name": "strategy",
          "type": "address"
        }
      ],
      "name": "StrategyRemoved",
      "type": "event"
    },
    {
      "anonymous": false,
      "inputs": [
        {
          "indexed": true,
          "internalType": "address",
          "name": "user",
          "type": "address"
        },
        {
          "indexed": false,
          "internalType": "uint256",
          "name": "sharesBurned",
          "type": "uint256"
        },
        {
          "indexed": false,
          "internalType": "uint256",
          "name": "amountReturned",
          "type": "uint256"
        }
      ],
      "name": "Withdrawn",
      "type": "event"
    },
    {
      "anonymous": false,
      "inputs": [
        {
          "indexed": true,
          "internalType": "address",
          "name": "asset",
          "type": "address"
        },
        {
          "indexed": false,
          "internalType": "uint256",
          "name": "amount",
          "type": "uint256"
        },
        {
          "indexed": false,
          "internalType": "bytes",
          "name": "xcmPayload",
          "type": "bytes"
        }
      ],
      "name": "XCMTransferTriggered",
      "type": "event"
    },
    {
      "anonymous": false,
      "inputs": [
        {
          "indexed": true,
          "internalType": "address",
          "name": "user",
          "type": "address"
        },
        {
          "indexed": false,
          "internalType": "uint256",
          "name": "amount",
          "type": "uint256"
        }
      ],
      "name": "YieldClaimed",
      "type": "event"
    },
    {
      "inputs": [
        {
          "internalType": "address",
          "name": "asset",
          "type": "address"
        }
      ],
      "name": "addAsset",
      "outputs": [],
      "stateMutability": "nonpayable",
      "type": "function"
    },
    {
      "inputs": [
        {
          "internalType": "contract YieldStrategy",
          "name": "strategy",
          "type": "address"
        }
      ],
      "name": "addStrategy",
      "outputs": [],
      "stateMutability": "nonpayable",
      "type": "function"
    },
    {
      "inputs": [],
      "name": "assetCount",
      "outputs": [
        {
          "internalType": "uint256",
          "name": "",
          "type": "uint256"
        }
      ],
      "stateMutability": "view",
      "type": "function"
    },
    {
      "inputs": [
        {
          "internalType": "uint256",
          "name": "",
          "type": "uint256"
        }
      ],
      "name": "assetList",
      "outputs": [
        {
          "internalType": "address",
          "name": "",
          "type": "address"
        }
      ],
      "stateMutability": "view",
      "type": "function"
    },
    {
      "inputs": [],
      "name": "claimYield",
      "outputs": [],
      "stateMutability": "nonpayable",
      "type": "function"
    },
    {
      "inputs": [],
      "name": "collectFees",
      "outputs": [],
      "stateMutability": "nonpayable",
      "type": "function"
    },
    {
      "inputs": [
        {
          "internalType": "address",
          "name": "asset",
          "type": "address"
        },
        {
          "internalType": "uint256",
          "name": "amount",
          "type": "uint256"
        }
      ],
      "name": "deposit",
      "outputs": [],
      "stateMutability": "nonpayable",
      "type": "function"
    },
    {
      "inputs": [
        {
          "internalType": "address",
          "name": "asset",
          "type": "address"
        },
        {
          "internalType": "uint256",
          "name": "amount",
          "type": "uint256"
        }
      ],
      "name": "emergencyWithdraw",
      "outputs": [],
      "stateMutability": "nonpayable",
      "type": "function"
    },
    {
      "inputs": [],
      "name": "owner",
      "outputs": [
        {
          "internalType": "address",
          "name": "",
          "type": "address"
        }
      ],
      "stateMutability": "view",
      "type": "function"
    },
    {
      "inputs": [],
      "name": "paused",
      "outputs": [
        {
          "internalType": "bool",
          "name": "",
          "type": "bool"
        }
      ],
      "stateMutability": "view",
      "type": "function"
    },
    {
      "inputs": [
        {
          "internalType": "address",
          "name": "user",
          "type": "address"
        }
      ],
      "name": "pendingYield",
      "outputs": [
        {
          "internalType": "uint256",
          "name": "",
          "type": "uint256"
        }
      ],
      "stateMutability": "view",
      "type": "function"
    },
    {
      "inputs": [],
      "name": "protocolFeeBps",
      "outputs": [
        {
          "internalType": "uint256",
          "name": "",
          "type": "uint256"
        }
      ],
      "stateMutability": "view",
      "type": "function"
    },
    {
      "inputs": [],
      "name": "rebalance",
      "outputs": [],
      "stateMutability": "nonpayable",
      "type": "function"
    },
    {
      "inputs": [
        {
          "internalType": "contract YieldStrategy",
          "name": "strategy",
          "type": "address"
        }
      ],
      "name": "removeStrategy",
      "outputs": [],
      "stateMutability": "nonpayable",
      "type": "function"
    },
    {
      "inputs": [
        {
          "internalType": "bool",
          "name": "_paused",
          "type": "bool"
        }
      ],
      "name": "setPaused",
      "outputs": [],
      "stateMutability": "nonpayable",
      "type": "function"
    },
    {
      "inputs": [],
      "name": "sharePrice",
      "outputs": [
        {
          "internalType": "uint256",
          "name": "",
          "type": "uint256"
        }
      ],
      "stateMutability": "view",
      "type": "function"
    },
    {
      "inputs": [
        {
          "internalType": "address",
          "name": "",
          "type": "address"
        }
      ],
      "name": "shares",
      "outputs": [
        {
          "internalType": "uint256",
          "name": "",
          "type": "uint256"
        }
      ],
      "stateMutability": "view",
      "type": "function"
    },
    {
      "inputs": [
        {
          "internalType": "uint256",
          "name": "",
          "type": "uint256"
        }
      ],
      "name": "strategies",
      "outputs": [
        {
          "internalType": "contract YieldStrategy",
          "name": "",
          "type": "address"
        }
      ],
      "stateMutability": "view",
      "type": "function"
    },
    {
      "inputs": [],
      "name": "strategyCount",
      "outputs": [
        {
          "internalType": "uint256",
          "name": "",
          "type": "uint256"
        }
      ],
      "stateMutability": "view",
      "type": "function"
    },
    {
      "inputs": [
        {
          "internalType": "address",
          "name": "",
          "type": "address"
        }
      ],
      "name": "strategyIndex",
      "outputs": [
        {
          "internalType": "uint256",
          "name": "",
          "type": "uint256"
        }
      ],
      "stateMutability": "view",
      "type": "function"
    },
    {
      "inputs": [
        {
          "internalType": "address",
          "name": "",
          "type": "address"
        }
      ],
      "name": "supportedAssets",
      "outputs": [
        {
          "internalType": "bool",
          "name": "",
          "type": "bool"
        }
      ],
      "stateMutability": "view",
      "type": "function"
    },
    {
      "inputs": [],
      "name": "totalAssets",
      "outputs": [
        {
          "internalType": "uint256",
          "name": "",
          "type": "uint256"
        }
      ],
      "stateMutability": "view",
      "type": "function"
    },
    {
      "inputs": [
        {
          "internalType": "address",
          "name": "",
          "type": "address"
        }
      ],
      "name": "totalDeposited",
      "outputs": [
        {
          "internalType": "uint256",
          "name": "",
          "type": "uint256"
        }
      ],
      "stateMutability": "view",
      "type": "function"
    },
    {
      "inputs": [],
      "name": "totalFeesAccrued",
      "outputs": [
        {
          "internalType": "uint256",
          "name": "",
          "type": "uint256"
        }
      ],
      "stateMutability": "view",
      "type": "function"
    },
    {
      "inputs": [],
      "name": "totalShares",
      "outputs": [
        {
          "internalType": "uint256",
          "name": "",
          "type": "uint256"
        }
      ],
      "stateMutability": "view",
      "type": "function"
    },
    {
      "inputs": [],
      "name": "totalYieldAccrued",
      "outputs": [
        {
          "internalType": "uint256",
          "name": "",
          "type": "uint256"
        }
      ],
      "stateMutability": "view",
      "type": "function"
    },
    {
      "inputs": [
        {
          "internalType": "address",
          "name": "asset",
          "type": "address"
        },
        {
          "internalType": "uint256",
          "name": "amount",
          "type": "uint256"
        }
      ],
      "name": "triggerXCMTransfer",
      "outputs": [],
      "stateMutability": "nonpayable",
      "type": "function"
    },
    {
      "inputs": [
        {
          "internalType": "uint256",
          "name": "shareAmount",
          "type": "uint256"
        }
      ],
      "name": "withdraw",
      "outputs": [],
      "stateMutability": "nonpayable",
      "type": "function"
    },
    {
      "inputs": [],
      "name": "xcmRouter",
      "outputs": [
        {
          "internalType": "contract XCMRouter",
          "name": "",
          "type": "address"
        }
      ],
      "stateMutability": "view",
      "type": "function"
    },
    {
      "inputs": [
        {
          "internalType": "address",
          "name": "",
          "type": "address"
        }
      ],
      "name": "yieldClaimed",
      "outputs": [
        {
          "internalType": "uint256",
          "name": "",
          "type": "uint256"
        }
      ],
      "stateMutability": "view",
      "type": "function"
    }
  ],
  "bytecode": "0x60803461007f57601f611d0138819003918201601f19168301916001600160401b038311848410176100845780849260209460405283398101031261007f57516001600160a01b0381169081900361007f5760c8600c5560018060a01b0319338160005416176000556001541617600155604051611c66908161009b8239f35b600080fd5b634e487b7160e01b600052604160045260246000fdfe6040608081526004908136101561001557600080fd5b600091823560e01c90816301e1d11414611738578163114515261461170057816316c38b3c146116bd578163175188e81461150957816322068b44146114ea578163223e5479146113f0578163298410e5146112d35781632e1a7d4d14610f2857816335659fb814610f095781633a98ef3914610eea578163406cf22914610c6e57816345bba69714610c3657816347e7ef2414610aa35781635305548114610a6b5781635c975abb14610a4757816373f38ee014610a285781637d7c2a1c14610787578163872697291461076a5781638da5cb5b1461074257816391731c661461043857816395ccea67146103b3578163a0b4b30114610388578163bd81579e1461034b578163c7bf19801461031e578163c879657214610254578163ce7c2ac21461021c578163d574ea3d146101d457508063e1d20600146101ac578063eafe7a741461018e5763ee6c3bf21461016d57600080fd5b3461018a578160031936011261018a576020906009549051908152f35b5080fd5b503461018a578160031936011261018a576020906005549051908152f35b503461018a578160031936011261018a5760015490516001600160a01b039091168152602090f35b90503461021857602036600319011261021857359160075483101561021557506101ff602092611770565b905491519160018060a01b039160031b1c168152f35b80fd5b8280fd5b50503461018a57602036600319011261018a5760209181906001600160a01b03610244611755565b1681526002845220549051908152f35b9190503461021857826003193601126102185782546102d0926020916001600160a01b03919082166102873382146119eb565b86600d549381600d556102986117f4565b9054885163a9059cbb60e01b81526001600160a01b039095169585019586526020860196909652929788959394869491859160400190565b039460031b1c165af190811561031557506102e9575080f35b61030a9060203d60201161030e575b6103028183611852565b810190611aba565b5080f35b503d6102f8565b513d84823e3d90fd5b50503461018a57602036600319011261018a5760209061034461033f611755565b611bab565b9051908152f35b9050346102185760203660031901126102185760209260ff918391906001600160a01b03610377611755565b168252855220541690519015158152f35b90503461021857602036600319011261021857359160055483101561021557506101ff6020926117bd565b919050346102185780600319360112610218576020610423926103d4611755565b85546001600160a01b039081169087906103ef3384146119eb565b865163a9059cbb60e01b81526001600160a01b03909316948301948552602435602086015291968794859391849160400190565b0393165af190811561031557506102e9575080f35b905034610218578160031936011261021857610452611755565b9060243560018060a01b0361046b8187541633146119eb565b610476821515611ad2565b84516370a0823160e01b8152308482015284821694602094909185816024818a5afa80156107385785918a91610707575b50106106b957600154875163095ea7b360e01b81529084166001600160a01b031682820190815260208101869052899291908790829081906040010381868c5af180156106af576105359584928892610692575b506001548b51632be9e38d60e11b81526001600160a01b039097168588019081526020810193909352959695169486918291604090910190565b0381865afa9384156106885782946105e0575b50823b1561018a578751630c6b8b1b60e11b81529081018690529182908183816105756024820189611b86565b03925af180156105d657956105c192917fb7601b2b4ca3afa837769c4aeed7ebeaac7a39144481681131486c7e5d2ee6cd96976105c7575b508080519586958652850152830190611b86565b0390a280f35b6105d090611828565b386105ad565b86513d89823e3d90fd5b915092503d8089833e6105f38183611852565b810190858183031261068457805167ffffffffffffffff9182821161068057019082601f8301121561067c578151908111610669579089929189519261064289601f19601f8501160185611852565b8184528882840101116106655761065e91888085019101611b63565b9238610548565b8380fd5b634e487b7160e01b8a526041855260248afd5b8980fd5b8a80fd5b8880fd5b88513d84823e3d90fd5b6106a8908a3d8c1161030e576103028183611852565b50386104fb565b89513d85823e3d90fd5b865162461bcd60e51b8152908101859052602260248201527f4175746f54726561737572793a20696e73756666696369656e742062616c616e604482015261636560f01b6064820152608490fd5b809250878092503d8311610731575b6107208183611852565b8101031261068457849051386104a7565b503d610716565b88513d8b823e3d90fd5b50503461018a578160031936011261018a57905490516001600160a01b039091168152602090f35b50503461018a578160031936011261018a57602090610344611b1e565b90503461021857826003193601126102185782546001600160a01b0393906107b290851633146119eb565b6007549182156109e557815b6005548110156109b857856107d2826117bd565b919054600392831b1c169086516370a0823160e01b8152308582015260209160249183818481885afa9081156109ae57889161097d575b5066038d7ea4c68000811061097057875b898110610831575050505050506001905b016107be565b889b9394959b9a969a50836108446117f4565b905490851b1c168c0361095f578160011c5b868d898c8c85610877575b5050505050506001019a9493929a99959961081a565b916108c094939186938b61088a8a611770565b9054908d1b1c1692519687958694859363a9059cbb60e01b8552840160209093929193604081019460018060a01b031681520152565b03925af1801561095557610938575b50846108da83611770565b905490861b1c1690813b15610680578a90878b838c5195869485936255f9e960e71b85528401525af1801561092e57906001929161091f575b5090868d898c8c610861565b61092890611828565b38610913565b88513d8c823e3d90fd5b61094e90883d8a1161030e576103028183611852565b50386108cf565b89513d8d823e3d90fd5b8061096a5788610856565b81610856565b505050505060019061082b565b90508381813d83116109a7575b6109948183611852565b810103126109a3575138610809565b8780fd5b503d61098a565b8a513d8a823e3d90fd5b827fc306af072396b02bf3a9782c10065cc7ff4aa842934a43f0b76f997b291237c860208751428152a180f35b606490602085519162461bcd60e51b8352820152601b60248201527f4175746f54726561737572793a206e6f207374726174656769657300000000006044820152fd5b50503461018a578160031936011261018a57602090600d549051908152f35b50503461018a578160031936011261018a5760209060ff600b541690519015158152f35b50503461018a57602036600319011261018a5760209181906001600160a01b03610a93611755565b1681526006845220549051908152f35b91905034610218578060031936011261021857610abe611755565b60243590610ad160ff600b541615611a44565b6001600160a01b031680855260208481528386205491939160ff1615610bf457610afc831515611ad2565b610b04611897565b8251956323b872dd60e01b8752339087015230602487015283604487015281866064818a895af1958615610bea577ff5681f9d0db1b911ac18ee83d515a1cf1051853a9eae418316a2fdf7dea427c5949596610bcd575b506003549081610bb557505083905b33875260028152828720610b7f838254611874565b9055610b8d82600354611874565b60035585875260068152828720610ba5868254611874565b905582519485528401523392a380f35b610bc2610bc79287611a87565b611a9a565b90610b6a565b610be390833d851161030e576103028183611852565b5038610b5b565b83513d89823e3d90fd5b8490606492519162461bcd60e51b8352820152601f60248201527f4175746f54726561737572793a20756e737570706f72746564206173736574006044820152fd5b50503461018a57602036600319011261018a5760209181906001600160a01b03610c5e611755565b168152600a845220549051908152f35b83833461018a578160031936011261018a573382526020916002835281812054928315610ea857819482955b600754871015610d3557838383610cb08a611770565b9054895163e8d991d160e01b815294859392849260039190911b1c6001600160a01b03165af1908115610d2b578591610cf9575b50610cf190600192611874565b960195610c9a565b90508381813d8311610d24575b610d108183611852565b81010312610d2057516001610ce4565b8480fd5b503d610d06565b86513d87823e3d90fd5b9184610d85610d7c88610d73610d6b8998612710610d55600c5483611a87565b0490610d6382600d54611874565b600d55611a37565b600954611874565b80600955611a87565b60035490611a9a565b92338552600a8352610d9a8286205485611a37565b938415610e66579284819392610e019695338952600a845284892055610dbe6117f4565b9054855163a9059cbb60e01b81523393810193845260208401949094529297889360039290921b9190911c6001600160a01b03169183918a918391604090910190565b03925af1938415610e5c577fc04825ba3f383b602255d2a13065a68e325c65c9e0ed5d031ea2b06f641873af9394610e3f575b50519283523392a280f35b610e5590833d851161030e576103028183611852565b5085610e34565b81513d87823e3d90fd5b5082606492519162461bcd60e51b8352820152601e60248201527f4175746f54726561737572793a206e6f7468696e6720746f20636c61696d00006044820152fd5b8460649184519162461bcd60e51b8352820152601760248201527f4175746f54726561737572793a206e6f207368617265730000000000000000006044820152fd5b50503461018a578160031936011261018a576020906003549051908152f35b50503461018a578160031936011261018a57602090600c549051908152f35b91905034610218576020908160031936011261066557823591610f5060ff600b541615611a44565b8215611291573385526002815282828620541061124557610f78610f72611897565b84611a87565b90610f87600392835490611a9a565b9133875260028252838720610f9d868254611a37565b9055610faa858254611a37565b8155610fb46117f4565b905485516370a0823160e01b815230818a01526024986001600160a01b0394939092869183918c91839190881b1c88165afa90811561123b578a9161120e575b508581106110d5575b5061104897508484918461100f6117f4565b905490861b1c16908b8951809c8195829463a9059cbb60e01b84523390840160209093929193604081019460018060a01b031681520152565b03925af19687156110cb577f92ccf450a286a957af52509bc1c9939d1a6a481783e142e41e2499f0bb66ebc696976110ae575b506110846117f4565b9054911b1c1686526006815282862061109e838254611a37565b905582519485528401523392a280f35b6110c490843d861161030e576103028183611852565b503861107b565b85513d8a823e3d90fd5b6110df9086611a37565b97895b6007548110156111ff578286866110f884611770565b905490881b1c168a51928380926306a61f7560e51b82525afa9081156111f5578c916111c4575b50808b11156111bd575b80611138575b506001016110e2565b90998b866111458d611770565b905490881b1c16803b1561018a578190858c5180948193638ca1799560e01b8352888b8401525af180156111b357906111859392916111a4575b50611a37565b988915611192573861112f565b505061104897508484915b9150610ffd565b6111ad90611828565b3861117f565b8a513d8f823e3d90fd5b5089611129565b90508681813d83116111ee575b6111db8183611852565b810103126111ea57513861111f565b8b80fd5b503d6111d1565b89513d8e823e3d90fd5b5050611048975084849161119d565b90508481813d8311611234575b6112258183611852565b8101031261067c575138610ff4565b503d61121b565b87513d8c823e3d90fd5b8390608492519162461bcd60e51b8352820152602160248201527f4175746f54726561737572793a20696e73756666696369656e742073686172656044820152607360f81b6064820152fd5b8390606492519162461bcd60e51b8352820152601960248201527f4175746f54726561737572793a207a65726f20736861726573000000000000006044820152fd5b905034610218576020366003190112610218576112ee611755565b83546001600160a01b03919061130790831633146119eb565b16918284528160205260ff81852054166113ad57828452816020528320600160ff1982541617905560055490600160401b82101561139a57506113716113548260018594016005556117bd565b819391549060031b9160018060a01b03809116831b921b19161790565b90557f0e3c58ebfb2e7465fbb1c32e6b4f40c3c4f5ca77e8218a386aff8617831260d78280a280f35b634e487b7160e01b845260419052602483fd5b906020606492519162461bcd60e51b8352820152601f60248201527f4175746f54726561737572793a20616c726561647920737570706f72746564006044820152fd5b919050346102185760203660031901126102185781356001600160a01b038181169391849003610d20576114289085541633146119eb565b8284526008602052818420546114a85760075490600160401b821015611495575061145d611354826001869401600755611770565b90556007549082845260086020528320557f3f008fd510eae7a9e7bee13513d7b83bef8003d488b5a3d0b0da4de71d6846f18280a280f35b634e487b7160e01b855260419052602484fd5b6020606492519162461bcd60e51b8352820152601d60248201527f4175746f54726561737572793a207374726174656779206578697374730000006044820152fd5b50503461018a578160031936011261018a576020906007549051908152f35b9190503461021857602080600319360112610665576001600160a01b03833581811694908590036116b9576115428287541633146119eb565b84865260088352838620549081156116785760075460001992908381019081116116655783820190828211611652579081869282036115ef575b505050506007549081156115dc57509186949391600893019061159e82611770565b909182549160031b1b19169055600755848452528120557f09a1db4b80c32706328728508c941a6b954f31eb5affd32f236c1fd405f8fea48280a280f35b634e487b7160e01b885260319052602487fd5b61160c611630611637938561160385611770565b94905492611770565b92909460031b1c169083549060031b9160018060a01b03809116831b921b19161790565b9055611770565b90549060031b1c16885260088552858820553883818061157c565b634e487b7160e01b8a526011845260248afd5b634e487b7160e01b895260118352602489fd5b606490848087519262461bcd60e51b845283015260248201527f4175746f54726561737572793a207374726174656779206e6f7420666f756e646044820152fd5b8580fd5b83903461018a57602036600319011261018a573580151580910361018a576116ef60018060a01b0383541633146119eb565b60ff8019600b5416911617600b5580f35b50503461018a57602036600319011261018a5760209181906001600160a01b03611728611755565b1681526008845220549051908152f35b50503461018a578160031936011261018a57602090610344611897565b600435906001600160a01b038216820361176b57565b600080fd5b6007548110156117a75760076000527fa66cc928b5edb82af9bd49922954155ab7b0942694bea4ce44661d9a8736c6880190600090565b634e487b7160e01b600052603260045260246000fd5b6005548110156117a75760056000527f036b6384b5eca791c62761152d0c79bb0604c104a5fb6f4eb0703f3154bb3db00190600090565b600554156117a75760056000527f036b6384b5eca791c62761152d0c79bb0604c104a5fb6f4eb0703f3154bb3db090600090565b67ffffffffffffffff811161183c57604052565b634e487b7160e01b600052604160045260246000fd5b90601f8019910116810190811067ffffffffffffffff82111761183c57604052565b9190820180921161188157565b634e487b7160e01b600052601160045260246000fd5b6000806005545b80821061195457505060006007545b8082106118b957505090565b90916118c483611770565b9054604080516306a61f7560e51b81529092909160209182918491600491839160031b1c6001600160a01b03165afa92831561194a5750600092611919575b505061191190600192611874565b9201906118ad565b81819392933d8311611943575b6119308183611852565b8101031261021557505181611911611903565b503d611926565b513d6000823e3d90fd5b909161195f836117bd565b9054604080516370a0823160e01b81523060048201529092909160209182918491602491839160031b1c6001600160a01b03165afa92831561194a57506000926119ba575b50506119b290600192611874565b92019061189e565b81819392933d83116119e4575b6119d18183611852565b81010312610215575051816119b26119a4565b503d6119c7565b156119f257565b60405162461bcd60e51b815260206004820152601760248201527f4175746f54726561737572793a206e6f74206f776e65720000000000000000006044820152606490fd5b9190820391821161188157565b15611a4b57565b60405162461bcd60e51b8152602060048201526014602482015273105d5d1bd51c99585cdd5c9e4e881c185d5cd95960621b6044820152606490fd5b8181029291811591840414171561188157565b8115611aa4570490565b634e487b7160e01b600052601260045260246000fd5b9081602091031261176b5751801515810361176b5790565b15611ad957565b60405162461bcd60e51b815260206004820152601960248201527f4175746f54726561737572793a207a65726f20616d6f756e74000000000000006044820152606490fd5b6003548015611b5657611b2f611897565b90670de0b6b3a76400009182810292818404149015171561188157611b5391611a9a565b90565b50670de0b6b3a764000090565b60005b838110611b765750506000910152565b8181015183820152602001611b66565b90602091611b9f81518092818552858086019101611b63565b601f01601f1916010190565b60035480158015611c10575b611c0957611be46009549260018060a01b031691610bc26000948486526002602052604086205490611a87565b908252600a60205260408220549081811115611c0457611b539250611a37565b505090565b5050600090565b506001600160a01b03821660009081526002602052604090205415611bb756fea264697066735822122082dffafc2848589fa5152597987d2a820f41570da4b0632f9d2378b69ded209264736f6c63430008180033",
  "linkReferences": {},
  "deployedLinkReferences": {}
}