{
  "_format": "hh-sol-artifact-1",
  "contractName": "XCMRouter",
  "sourceName": "src/XCMRouter.sol",
  "abi": [
    {
      "inputs": [],
      "stateMutability": "nonpayable",
      "type": "constructor"
    },
    {
      "anonymous": false,
      "inputs": [
        {
          "indexed": false,
          "internalType": "bytes",
          "name": "message",
          "type": "bytes"
        }
      ],
      "name": "XCMExecuted",
      "type": "event"
    },
    {
      "anonymous": false,
      "inputs": [
        {
          "indexed": false,
          "internalType": "bytes",
          "name": "dest",
          "type": "bytes"
        },
        {
          "indexed": false,
          "internalType": "bytes",
          "name": "message",
          "type": "bytes"
        }
      ],
      "name": "XCMSent",
      "type": "event"
    },
    {
      "inputs": [],
      "name": "ASSET_HUB_PARA_ID",
      "outputs": [
        {
          "internalType": "uint32",
          "name": "",
          "type": "uint32"
        }
      ],
      "stateMutability": "view",
      "type": "function"
    },
    {
      "inputs": [],
      "name": "XCM_PRECOMPILE",
      "outputs": [
        {
          "internalType": "address",
          "name": "",
          "type": "address"
        }
      ],
      "stateMutability": "view",
      "type": "function"
    },
    {
      "inputs": [
        {
          "internalType": "address",
          "name": "assetIn",
          "type": "address"
        },
        {
          "internalType": "address",
          "name": "assetOut",
          "type": "address"
        },
        {
          "internalType": "uint256",
          "name": "amountIn",
          "type": "uint256"
        }
      ],
      "name": "buildSwapPayload",
      "outputs": [
        {
          "internalType": "bytes",
          "name": "payload",
          "type": "bytes"
        }
      ],
      "stateMutability": "pure",
      "type": "function"
    },
    {
      "inputs": [
        {
          "internalType": "address",
          "name": "asset",
          "type": "address"
        },
        {
          "internalType": "uint256",
          "name": "amount",
          "type": "uint256"
        }
      ],
      "name": "buildTransferToAssetHub",
      "outputs": [
        {
          "internalType": "bytes",
          "name": "payload",
          "type": "bytes"
        }
      ],
      "stateMutability": "pure",
      "type": "function"
    },
    {
      "inputs": [
        {
          "internalType": "bytes",
          "name": "message",
          "type": "bytes"
        }
      ],
      "name": "estimateWeight",
      "outputs": [
        {
          "internalType": "uint64",
          "name": "refTime",
          "type": "uint64"
        },
        {
          "internalType": "uint64",
          "name": "proofSize",
          "type": "uint64"
        }
      ],
      "stateMutability": "view",
      "type": "function"
    },
    {
      "inputs": [
        {
          "internalType": "bytes",
          "name": "message",
          "type": "bytes"
        },
        {
          "internalType": "uint64",
          "name": "refTime",
          "type": "uint64"
        },
        {
          "internalType": "uint64",
          "name": "proofSize",
          "type": "uint64"
        }
      ],
      "name": "executeLocal",
      "outputs": [],
      "stateMutability": "nonpayable",
      "type": "function"
    },
    {
      "inputs": [],
      "name": "owner",
      "outputs": [
        {
          "internalType": "address",
          "name": "",
          "type": "address"
        }
      ],
      "stateMutability": "view",
      "type": "function"
    },
    {
      "inputs": [
        {
          "internalType": "bytes",
          "name": "payload",
          "type": "bytes"
        }
      ],
      "name": "sendToAssetHub",
      "outputs": [],
      "stateMutability": "nonpayable",
      "type": "function"
    },
    {
      "inputs": [
        {
          "internalType": "address",
          "name": "_treasury",
          "type": "address"
        }
      ],
      "name": "setTreasury",
      "outputs": [],
      "stateMutability": "nonpayable",
      "type": "function"
    },
    {
      "inputs": [],
      "name": "treasury",
      "outputs": [
        {
          "internalType": "address",
          "name": "",
          "type": "address"
        }
      ],
      "stateMutability": "view",
      "type": "function"
    }
  ],
  "bytecode": "0x608060405234801561001057600080fd5b50600080546001600160a01b03191633179055610cd9806100326000396000f3fe608060405234801561001057600080fd5b506004361061009e5760003560e01c806357d3c71a1161006657806357d3c71a1461013057806361d027b3146101435780638da5cb5b14610156578063990f120114610169578063f0f442601461019d57600080fd5b8063077120cc146100a35780630892bfad146100ca57806318d71636146100ea57806328dad63e146100ff57806355480d1714610112575b600080fd5b6100ad620a000081565b6040516001600160a01b0390911681526020015b60405180910390f35b6100dd6100d836600461078f565b6101b0565b6040516100c1919061081b565b6100fd6100f83660046108d8565b6101fa565b005b6100fd61010d36600461092e565b610369565b61011b6103e881565b60405163ffffffff90911681526020016100c1565b6100dd61013e366004610992565b610504565b6001546100ad906001600160a01b031681565b6000546100ad906001600160a01b031681565b61017c6101773660046109bc565b61055a565b6040805167ffffffffffffffff9384168152929091166020830152016100c1565b6100fd6101ab366004610a2e565b6105d2565b606060006101bc610645565b905060006101cb868686610680565b905081816040516020016101e0929190610a49565b604051602081830303815290604052925050509392505050565b6001546001600160a01b031633148061021d57506000546001600160a01b031633145b6102685760405162461bcd60e51b81526020600482015260176024820152761610d3549bdd5d195c8e881d5b985d5d1a1bdc9a5e9959604a1b60448201526064015b60405180910390fd5b6000610272610645565b604051637f0a3bf960e01b8152909150600090620a000090637f0a3bf9906102a09085908790600401610a89565b6020604051808303816000875af11580156102bf573d6000803e3d6000fd5b505050506040513d601f19601f820116820180604052508101906102e39190610ab7565b90508061032b5760405162461bcd60e51b81526020600482015260166024820152751610d3549bdd5d195c8e881cd95b990819985a5b195960521b604482015260640161025f565b7fb896fa5daa5aaa810dbe2375ff4785c955bc7e1423e43094570a9f841329a7dd828460405161035c929190610a89565b60405180910390a1505050565b6001546001600160a01b031633148061038c57506000546001600160a01b031633145b6103d25760405162461bcd60e51b81526020600482015260176024820152761610d3549bdd5d195c8e881d5b985d5d1a1bdc9a5e9959604a1b604482015260640161025f565b6040516001600160c01b031960c084811b8216602084015283901b16602882015260009060300160408051601f1981840301815290829052631f6a1eb960e01b82529150600090620a000090631f6a1eb9906104349088908690600401610a89565b6020604051808303816000875af1158015610453573d6000803e3d6000fd5b505050506040513d601f19601f820116820180604052508101906104779190610ab7565b9050806104c65760405162461bcd60e51b815260206004820152601960248201527f58434d526f757465723a2065786563757465206661696c656400000000000000604482015260640161025f565b7fb0a764912d34b305b4503f06cd4ee9d7c065a8b98b8ac60d64e94dbd3335903f856040516104f5919061081b565b60405180910390a15050505050565b60606000610510610645565b9050600061051d856106c8565b9050600061052b8286610719565b90508281604051602001610540929190610a49565b604051602081830303815290604052935050505092915050565b6040516347400c2360e01b81526000908190620a0000906347400c23906105879087908790600401610ad9565b6040805180830381865afa1580156105a3573d6000803e3d6000fd5b505050506040513d601f19601f820116820180604052508101906105c79190610b08565b915091509250929050565b6000546001600160a01b031633146106235760405162461bcd60e51b81526020600482015260146024820152732c21a6a937baba32b91d103737ba1037bbb732b960611b604482015260640161025f565b600180546001600160a01b0319166001600160a01b0392909216919091179055565b60408051600160f81b60208201819052602182015260006022820152607d60e31b602382015281516007818303018152602790910190915290565b60606006600061068f866106c8565b610698866106c8565b8560016040516020016106b096959493929190610b42565b60405160208183030381529060405290509392505050565b60405160006020820152600160f81b6021820152600560f81b6022820152606082811b6bffffffffffffffffffffffff19166023830152906037016040516020818303038152906040529050919050565b606060008383600c8261072d600a84610bc5565b600461073a600a8a610bc5565b610744908a610be7565b60405160200161075b989796959493929190610c08565b60405160208183030381529060405290505b92915050565b80356001600160a01b038116811461078a57600080fd5b919050565b6000806000606084860312156107a457600080fd5b6107ad84610773565b92506107bb60208501610773565b9150604084013590509250925092565b60005b838110156107e65781810151838201526020016107ce565b50506000910152565b600081518084526108078160208601602086016107cb565b601f01601f19169290920160200192915050565b60208152600061082e60208301846107ef565b9392505050565b634e487b7160e01b600052604160045260246000fd5b600082601f83011261085c57600080fd5b813567ffffffffffffffff8082111561087757610877610835565b604051601f8301601f19908116603f0116810190828211818310171561089f5761089f610835565b816040528381528660208588010111156108b857600080fd5b836020870160208301376000602085830101528094505050505092915050565b6000602082840312156108ea57600080fd5b813567ffffffffffffffff81111561090157600080fd5b61090d8482850161084b565b949350505050565b67ffffffffffffffff8116811461092b57600080fd5b50565b60008060006060848603121561094357600080fd5b833567ffffffffffffffff81111561095a57600080fd5b6109668682870161084b565b935050602084013561097781610915565b9150604084013561098781610915565b809150509250925092565b600080604083850312156109a557600080fd5b6109ae83610773565b946020939093013593505050565b600080602083850312156109cf57600080fd5b823567ffffffffffffffff808211156109e757600080fd5b818501915085601f8301126109fb57600080fd5b813581811115610a0a57600080fd5b866020828501011115610a1c57600080fd5b60209290920196919550909350505050565b600060208284031215610a4057600080fd5b61082e82610773565b600160fa1b81528251600090610a668160018501602088016107cb565b835190830190610a7d8160018401602088016107cb565b01600101949350505050565b604081526000610a9c60408301856107ef565b8281036020840152610aae81856107ef565b95945050505050565b600060208284031215610ac957600080fd5b8151801515811461082e57600080fd5b60208152816020820152818360408301376000818301604090810191909152601f909201601f19160101919050565b60008060408385031215610b1b57600080fd5b8251610b2681610915565b6020840151909250610b3781610915565b809150509250929050565b600060ff60f81b808960f81b168352808860f81b166001840152508551610b70816002850160208a016107cb565b855190830190610b87816002840160208a016107cb565b6fffffffffffffffffffffffffffffffff19608096871b81169190920160028101919091529390941b90931660128301525060220195945050505050565b600082610be257634e487b7160e01b600052601260045260246000fd5b500490565b8181038181111561076d57634e487b7160e01b600052601160045260246000fd5b600060ff60f81b808b60f81b1683528951610c2a816001860160208e016107cb565b80840190506fffffffffffffffffffffffffffffffff19808b60801b166001830152828a60f81b1660118301528851610c6a816012850160208d016107cb565b608098891b82166012939091019283015260f89690961b90911660228201529290941b909216602382015260330197965050505050505056fea26469706673582212209490e8fd24d71b74d2a17661311c78d39f5fabb783ff469a249376cafb53ab7564736f6c63430008180033",
  "linkReferences": {},
  "deployedLinkReferences": {}
}