{
  "_format": "hh-sol-artifact-1",
  "contractName": "AssetHubLendingStrategy",
  "sourceName": "src/strategies/AssetHubLendingStrategy.sol",
  "abi": [
    {
      "inputs": [
        {
          "internalType": "address",
          "name": "_xcmRouter",
          "type": "address"
        },
        {
          "internalType": "address",
          "name": "_asset",
          "type": "address"
        }
      ],
      "stateMutability": "nonpayable",
      "type": "constructor"
    },
    {
      "anonymous": false,
      "inputs": [
        {
          "indexed": false,
          "internalType": "uint256",
          "name": "amount",
          "type": "uint256"
        }
      ],
      "name": "StrategyDivested",
      "type": "event"
    },
    {
      "anonymous": false,
      "inputs": [
        {
          "indexed": false,
          "internalType": "uint256",
          "name": "amount",
          "type": "uint256"
        }
      ],
      "name": "StrategyInvested",
      "type": "event"
    },
    {
      "inputs": [],
      "name": "asset",
      "outputs": [
        {
          "internalType": "address",
          "name": "",
          "type": "address"
        }
      ],
      "stateMutability": "view",
      "type": "function"
    },
    {
      "inputs": [
        {
          "internalType": "uint256",
          "name": "amount",
          "type": "uint256"
        }
      ],
      "name": "divest",
      "outputs": [],
      "stateMutability": "nonpayable",
      "type": "function"
    },
    {
      "inputs": [],
      "name": "harvestYield",
      "outputs": [
        {
          "internalType": "uint256",
          "name": "",
          "type": "uint256"
        }
      ],
      "stateMutability": "nonpayable",
      "type": "function"
    },
    {
      "inputs": [
        {
          "internalType": "uint256",
          "name": "amount",
          "type": "uint256"
        }
      ],
      "name": "invest",
      "outputs": [],
      "stateMutability": "nonpayable",
      "type": "function"
    },
    {
      "inputs": [],
      "name": "invested",
      "outputs": [
        {
          "internalType": "uint256",
          "name": "",
          "type": "uint256"
        }
      ],
      "stateMutability": "view",
      "type": "function"
    },
    {
      "inputs": [],
      "name": "lastHarvested",
      "outputs": [
        {
          "internalType": "uint256",
          "name": "",
          "type": "uint256"
        }
      ],
      "stateMutability": "view",
      "type": "function"
    },
    {
      "inputs": [],
      "name": "owner",
      "outputs": [
        {
          "internalType": "address",
          "name": "",
          "type": "address"
        }
      ],
      "stateMutability": "view",
      "type": "function"
    },
    {
      "inputs": [],
      "name": "totalValue",
      "outputs": [
        {
          "internalType": "uint256",
          "name": "",
          "type": "uint256"
        }
      ],
      "stateMutability": "view",
      "type": "function"
    },
    {
      "inputs": [],
      "name": "xcmRouter",
      "outputs": [
        {
          "internalType": "contract XCMRouter",
          "name": "",
          "type": "address"
        }
      ],
      "stateMutability": "view",
      "type": "function"
    }
  ],
  "bytecode": "0x60803461009257601f6105eb38819003918201601f19168301916001600160401b0383118484101761009757808492604094855283398101031261009257610052602061004b836100ad565b92016100ad565b9060018060a01b0319913383600054161760005560018060a01b038092168360015416176001551690600254161760025560405161052990816100c28239f35b600080fd5b634e487b7160e01b600052604160045260246000fd5b51906001600160a01b03821682036100925756fe608060408181526004918236101561001657600080fd5b600092833560e01c9182632afcf480146101fd5750816338d52e0f146101d45781636422ca16146101b65781638ca179951461011b575080638da5cb5b146100f4578063cafb2202146100d6578063d4c3eea0146100d6578063e1d20600146100ae5763e8d991d11461008857600080fd5b346100aa57816003193601126100aa576020906100a36104a2565b9051908152f35b5080fd5b50346100aa57816003193601126100aa5760015490516001600160a01b039091168152602090f35b50346100aa57816003193601126100aa576020906003549051908152f35b50346100aa57816003193601126100aa57905490516001600160a01b039091168152602090f35b919050346101b25760203660031901126101b25760035482359281841161017757509160209161016c827ff22b8ebdf5c7e49487fd0b33a034e6cab36e92ea0117bc9ca1587c72058747bf9561047f565b60035551908152a180f35b606490602084519162461bcd60e51b8352820152601560248201527413195b991a5b99ce881a5b9cdd59999a58da595b9d605a1b6044820152fd5b8280fd5b9050346101b257826003193601126101b25760209250549051908152f35b5050346100aa57816003193601126100aa5760025490516001600160a01b039091168152602090f35b838591346101b257602091826003193601126104205784359182156103e85750600154600254825163927620db60e01b81526001600160a01b03918216888201526024810185905291168582604481845afa9182156103de57869261033f575b50803b1561033b57848691888360448751809781968295630c6b8b1b60e11b845283015261029a8c8251928391826024870152868601910161045c565b601f01601f191681010301925af1801561033157610303575b506003548281018091116102f0577fc68748140896ba027a48ebf3a24735d0afb4ab835f92c4815ddb34f9d6dfd18a94955060035551908152a180f35b634e487b7160e01b855260118652602485fd5b67ffffffffffffffff819592951161031e57845292856102b3565b634e487b7160e01b825260418652602482fd5b82513d87823e3d90fd5b8580fd5b9091503d8087833e6103518183610424565b81019085818303126103da57805167ffffffffffffffff918282116103d6570182601f820112156103bf5780519182116103c35784519261039b601f8401601f1916890185610424565b8284528783830101116103bf57906103b89187808501910161045c565b908761025d565b8780fd5b634e487b7160e01b885260418952602488fd5b8880fd5b8680fd5b83513d88823e3d90fd5b62461bcd60e51b8152858101849052601460248201527313195b991a5b99ce881e995c9bc8185b5bdd5b9d60621b6044820152606490fd5b8380fd5b90601f8019910116810190811067ffffffffffffffff82111761044657604052565b634e487b7160e01b600052604160045260246000fd5b60005b83811061046f5750506000910152565b818101518382015260200161045f565b9190820391821161048c57565b634e487b7160e01b600052601160045260246000fd5b6104ae6004544261047f565b610e1081106104ed57600354600a810290808204600a148115171561048c578202600a0291811591830414171561048c5763bbf81e0090426004550490565b5060009056fea2646970667358221220ec34ea0b07f3275f77d03a528da993aef846cdf40d04f7b0a5c01926462cf84964736f6c63430008180033",
  "linkReferences": {},
  "deployedLinkReferences": {}
}